{
  "contractName": "Factory",
  "abi": [
    {
      "anonymous": false,
      "inputs": [
        {
          "indexed": true,
          "internalType": "address",
          "name": "token0",
          "type": "address"
        },
        {
          "indexed": true,
          "internalType": "address",
          "name": "token1",
          "type": "address"
        },
        {
          "indexed": false,
          "internalType": "address",
          "name": "pair",
          "type": "address"
        }
      ],
      "name": "PairDeployed",
      "type": "event"
    },
    {
      "inputs": [
        {
          "internalType": "address",
          "name": "",
          "type": "address"
        },
        {
          "internalType": "address",
          "name": "",
          "type": "address"
        }
      ],
      "name": "getPair",
      "outputs": [
        {
          "internalType": "address",
          "name": "",
          "type": "address"
        }
      ],
      "stateMutability": "view",
      "type": "function",
      "constant": true
    },
    {
      "inputs": [
        {
          "internalType": "address",
          "name": "token0",
          "type": "address"
        },
        {
          "internalType": "address",
          "name": "token1",
          "type": "address"
        }
      ],
      "name": "createPair",
      "outputs": [
        {
          "internalType": "address",
          "name": "pair",
          "type": "address"
        }
      ],
      "stateMutability": "nonpayable",
      "type": "function"
    }
  ],
  "bytecode": "0x608060405234801561001057600080fd5b506138a7806100206000396000f3fe60806040523480156200001157600080fd5b50600436106200003a5760003560e01c8063c9c65396146200003f578063e6a439051462000075575b600080fd5b6200005d600480360381019062000057919062000385565b620000ab565b6040516200006c9190620003dd565b60405180910390f35b6200009360048036038101906200008d919062000385565b620002cb565b604051620000a29190620003dd565b60405180910390f35b60008282604051620000bd906200030d565b620000ca929190620003fa565b604051809103906000f080158015620000e7573d6000803e3d6000fd5b509050806000808573ffffffffffffffffffffffffffffffffffffffff1673ffffffffffffffffffffffffffffffffffffffff16815260200190815260200160002060008473ffffffffffffffffffffffffffffffffffffffff1673ffffffffffffffffffffffffffffffffffffffff16815260200190815260200160002060006101000a81548173ffffffffffffffffffffffffffffffffffffffff021916908373ffffffffffffffffffffffffffffffffffffffff160217905550806000808473ffffffffffffffffffffffffffffffffffffffff1673ffffffffffffffffffffffffffffffffffffffff16815260200190815260200160002060008573ffffffffffffffffffffffffffffffffffffffff1673ffffffffffffffffffffffffffffffffffffffff16815260200190815260200160002060006101000a81548173ffffffffffffffffffffffffffffffffffffffff021916908373ffffffffffffffffffffffffffffffffffffffff1602179055508173ffffffffffffffffffffffffffffffffffffffff168373ffffffffffffffffffffffffffffffffffffffff167fc9a56d223b13a4cca4293cbedee4e06153ffbd03159c0282b9a2ca3ff6d1788083604051620002bd9190620003dd565b60405180910390a392915050565b60006020528160005260406000206020528060005260406000206000915091509054906101000a900473ffffffffffffffffffffffffffffffffffffffff1681565b61344a806200042883390190565b600080fd5b600073ffffffffffffffffffffffffffffffffffffffff82169050919050565b60006200034d8262000320565b9050919050565b6200035f8162000340565b81146200036b57600080fd5b50565b6000813590506200037f8162000354565b92915050565b600080604083850312156200039f576200039e6200031b565b5b6000620003af858286016200036e565b9250506020620003c2858286016200036e565b9150509250929050565b620003d78162000340565b82525050565b6000602082019050620003f46000830184620003cc565b92915050565b6000604082019050620004116000830185620003cc565b620004206020830184620003cc565b939250505056fe60e06040523480156200001157600080fd5b506040516200344a3803806200344a83398181016040528101906200003791906200037c565b6040518060400160405280600681526020017f6c5768616c6500000000000000000000000000000000000000000000000000008152506040518060400160405280600481526020017f6c57484c0000000000000000000000000000000000000000000000000000000081525060128260009080519060200190620000bd92919062000262565b508160019080519060200190620000d692919062000262565b508060ff1660808160ff16815250504660a08181525050620000fd620001d260201b60201c565b60c0818152505050505033600660006101000a81548173ffffffffffffffffffffffffffffffffffffffff021916908373ffffffffffffffffffffffffffffffffffffffff16021790555081600760006101000a81548173ffffffffffffffffffffffffffffffffffffffff021916908373ffffffffffffffffffffffffffffffffffffffff16021790555080600860006101000a81548173ffffffffffffffffffffffffffffffffffffffff021916908373ffffffffffffffffffffffffffffffffffffffff160217905550505062000590565b60007f8b73c3c69bb8fe3d512ecc4cf759cc79239f7b179b0ffacaa9a75d522b39400f6000604051620002069190620004d3565b60405180910390207fc89efdaa54c0f20c7adf612882df0950f5a951637e0307cdcb4c672f298b8bc646306040516020016200024795949392919062000533565b60405160208183030381529060405280519060200120905090565b8280546200027090620003f2565b90600052602060002090601f016020900481019282620002945760008555620002e0565b82601f10620002af57805160ff1916838001178555620002e0565b82800160010185558215620002e0579182015b82811115620002df578251825591602001919060010190620002c2565b5b509050620002ef9190620002f3565b5090565b5b808211156200030e576000816000905550600101620002f4565b5090565b600080fd5b600073ffffffffffffffffffffffffffffffffffffffff82169050919050565b6000620003448262000317565b9050919050565b620003568162000337565b81146200036257600080fd5b50565b60008151905062000376816200034b565b92915050565b6000806040838503121562000396576200039562000312565b5b6000620003a68582860162000365565b9250506020620003b98582860162000365565b9150509250929050565b7f4e487b7100000000000000000000000000000000000000000000000000000000600052602260045260246000fd5b600060028204905060018216806200040b57607f821691505b60208210811415620004225762000421620003c3565b5b50919050565b600081905092915050565b60008190508160005260206000209050919050565b600081546200045781620003f2565b62000463818662000428565b945060018216600081146200048157600181146200049357620004ca565b60ff19831686528186019350620004ca565b6200049e8562000433565b60005b83811015620004c257815481890152600182019150602081019050620004a1565b838801955050505b50505092915050565b6000620004e1828462000448565b915081905092915050565b6000819050919050565b6200050181620004ec565b82525050565b6000819050919050565b6200051c8162000507565b82525050565b6200052d8162000337565b82525050565b600060a0820190506200054a6000830188620004f6565b620005596020830187620004f6565b620005686040830186620004f6565b62000577606083018562000511565b62000586608083018462000522565b9695505050505050565b60805160a05160c051612e8a620005c060003960006108de015260006108aa015260006108840152612e8a6000f3fe608060405234801561001057600080fd5b50600436106101425760003560e01c80637ecebe00116100b8578063c45a01551161007c578063c45a0155146103a4578063cc5864ee146103c2578063d21220a7146103e0578063d505accf146103fe578063dd62ed3e1461041a578063f9063ba11461044a57610142565b80637ecebe00146102d757806385e63fc61461030757806389afcb441461032557806395d89b4114610356578063a9059cbb1461037457610142565b806330adf81f1161010a57806330adf81f14610201578063313ce5671461021f5780633644e5151461023d5780636a6278421461025b5780636d9a640a1461028b57806370a08231146102a757610142565b806306fdde0314610147578063095ea7b3146101655780630dfe16811461019557806318160ddd146101b357806323b872dd146101d1575b600080fd5b61014f610468565b60405161015c91906121ce565b60405180910390f35b61017f600480360381019061017a9190612289565b6104f6565b60405161018c91906122e4565b60405180910390f35b61019d6105e8565b6040516101aa919061230e565b60405180910390f35b6101bb61060e565b6040516101c89190612338565b60405180910390f35b6101eb60048036038101906101e69190612353565b610614565b6040516101f891906122e4565b60405180910390f35b61020961085e565b60405161021691906123bf565b60405180910390f35b610227610882565b60405161023491906123f6565b60405180910390f35b6102456108a6565b60405161025291906123bf565b60405180910390f35b61027560048036038101906102709190612411565b610903565b6040516102829190612338565b60405180910390f35b6102a560048036038101906102a0919061243e565b610bf1565b005b6102c160048036038101906102bc9190612411565b61113f565b6040516102ce9190612338565b60405180910390f35b6102f160048036038101906102ec9190612411565b611157565b6040516102fe9190612338565b60405180910390f35b61030f61116f565b60405161031c91906124b0565b60405180910390f35b61033f600480360381019061033a9190612411565b611185565b60405161034d9291906124cb565b60405180910390f35b61035e611624565b60405161036b91906121ce565b60405180910390f35b61038e60048036038101906103899190612289565b6116b2565b60405161039b91906122e4565b60405180910390f35b6103ac6117c6565b6040516103b9919061230e565b60405180910390f35b6103ca6117ec565b6040516103d79190612338565b60405180910390f35b6103e86117f2565b6040516103f5919061230e565b60405180910390f35b6104186004803603810190610413919061254c565b611818565b005b610434600480360381019061042f91906125ee565b611b17565b6040516104419190612338565b60405180910390f35b610452611b3c565b60405161045f9190612338565b60405180910390f35b600080546104759061265d565b80601f01602080910402602001604051908101604052809291908181526020018280546104a19061265d565b80156104ee5780601f106104c3576101008083540402835291602001916104ee565b820191906000526020600020905b8154815290600101906020018083116104d157829003601f168201915b505050505081565b600081600460003373ffffffffffffffffffffffffffffffffffffffff1673ffffffffffffffffffffffffffffffffffffffff16815260200190815260200160002060008573ffffffffffffffffffffffffffffffffffffffff1673ffffffffffffffffffffffffffffffffffffffff168152602001908152602001600020819055508273ffffffffffffffffffffffffffffffffffffffff163373ffffffffffffffffffffffffffffffffffffffff167f8c5be1e5ebec7d5bd14f71427d1e84f3dd0314c0f7b2291e5b200ac8c7c3b925846040516105d69190612338565b60405180910390a36001905092915050565b600760009054906101000a900473ffffffffffffffffffffffffffffffffffffffff1681565b60025481565b600080600460008673ffffffffffffffffffffffffffffffffffffffff1673ffffffffffffffffffffffffffffffffffffffff16815260200190815260200160002060003373ffffffffffffffffffffffffffffffffffffffff1673ffffffffffffffffffffffffffffffffffffffff1681526020019081526020016000205490507fffffffffffffffffffffffffffffffffffffffffffffffffffffffffffffffff811461074a5782816106c991906126be565b600460008773ffffffffffffffffffffffffffffffffffffffff1673ffffffffffffffffffffffffffffffffffffffff16815260200190815260200160002060003373ffffffffffffffffffffffffffffffffffffffff1673ffffffffffffffffffffffffffffffffffffffff168152602001908152602001600020819055505b82600360008773ffffffffffffffffffffffffffffffffffffffff1673ffffffffffffffffffffffffffffffffffffffff168152602001908152602001600020600082825461079991906126be565b9250508190555082600360008673ffffffffffffffffffffffffffffffffffffffff1673ffffffffffffffffffffffffffffffffffffffff168152602001908152602001600020600082825401925050819055508373ffffffffffffffffffffffffffffffffffffffff168573ffffffffffffffffffffffffffffffffffffffff167fddf252ad1be2c89b69c2b068fc378daa952ba7f163c4a11628f55a4df523b3ef8560405161084a9190612338565b60405180910390a360019150509392505050565b7f6e71edae12b1b97f4d1f60370fef10105fa2faae0126114a169c64845d6126c981565b7f000000000000000000000000000000000000000000000000000000000000000081565b60007f000000000000000000000000000000000000000000000000000000000000000046146108dc576108d7611b42565b6108fe565b7f00000000000000000000000000000000000000000000000000000000000000005b905090565b600080600760009054906101000a900473ffffffffffffffffffffffffffffffffffffffff1673ffffffffffffffffffffffffffffffffffffffff166370a08231306040518263ffffffff1660e01b8152600401610961919061230e565b602060405180830381865afa15801561097e573d6000803e3d6000fd5b505050506040513d601f19601f820116820180604052508101906109a29190612707565b90506000600860009054906101000a900473ffffffffffffffffffffffffffffffffffffffff1673ffffffffffffffffffffffffffffffffffffffff166370a08231306040518263ffffffff1660e01b8152600401610a01919061230e565b602060405180830381865afa158015610a1e573d6000803e3d6000fd5b505050506040513d601f19601f82011682018060405250810190610a429190612707565b90506000610a85600960009054906101000a90046dffffffffffffffffffffffffffff166dffffffffffffffffffffffffffff1684611bce90919063ffffffff16565b90506000610ac86009600e9054906101000a90046dffffffffffffffffffffffffffff166dffffffffffffffffffffffffffff1684611bce90919063ffffffff16565b905060006002541415610af757610af0610aeb8284611c2790919063ffffffff16565b611c94565b9450610b9a565b610b97600960009054906101000a90046dffffffffffffffffffffffffffff166dffffffffffffffffffffffffffff16610b3c60025485611c2790919063ffffffff16565b610b469190612763565b6009600e9054906101000a90046dffffffffffffffffffffffffffff166dffffffffffffffffffffffffffff16610b8860025485611c2790919063ffffffff16565b610b929190612763565b611d0e565b94505b610ba48686611d27565b610be88484600960009054906101000a90046dffffffffffffffffffffffffffff166009600e9054906101000a90046dffffffffffffffffffffffffffff16611df7565b50505050919050565b6000806000851115610c9f57600760009054906101000a900473ffffffffffffffffffffffffffffffffffffffff1673ffffffffffffffffffffffffffffffffffffffff1663a9059cbb84876040518363ffffffff1660e01b8152600401610c5a929190612794565b6020604051808303816000875af1158015610c79573d6000803e3d6000fd5b505050506040513d601f19601f82011682018060405250810190610c9d91906127e9565b505b6000841115610d4a57600860009054906101000a900473ffffffffffffffffffffffffffffffffffffffff1673ffffffffffffffffffffffffffffffffffffffff1663a9059cbb84866040518363ffffffff1660e01b8152600401610d05929190612794565b6020604051808303816000875af1158015610d24573d6000803e3d6000fd5b505050506040513d601f19601f82011682018060405250810190610d4891906127e9565b505b600760009054906101000a900473ffffffffffffffffffffffffffffffffffffffff1673ffffffffffffffffffffffffffffffffffffffff166370a08231306040518263ffffffff1660e01b8152600401610da5919061230e565b602060405180830381865afa158015610dc2573d6000803e3d6000fd5b505050506040513d601f19601f82011682018060405250810190610de69190612707565b9150600860009054906101000a900473ffffffffffffffffffffffffffffffffffffffff1673ffffffffffffffffffffffffffffffffffffffff166370a08231306040518263ffffffff1660e01b8152600401610e43919061230e565b602060405180830381865afa158015610e60573d6000803e3d6000fd5b505050506040513d601f19601f82011682018060405250810190610e849190612707565b9050600085600960009054906101000a90046dffffffffffffffffffffffffffff166dffffffffffffffffffffffffffff16610ec091906126be565b8311610ecd576000610f11565b85600960009054906101000a90046dffffffffffffffffffffffffffff166dffffffffffffffffffffffffffff16610f0591906126be565b83610f1091906126be565b5b90506000856009600e9054906101000a90046dffffffffffffffffffffffffffff166dffffffffffffffffffffffffffff16610f4d91906126be565b8311610f5a576000610f9e565b856009600e9054906101000a90046dffffffffffffffffffffffffffff166dffffffffffffffffffffffffffff16610f9291906126be565b83610f9d91906126be565b5b90506000610fdc610fb9600385611c2790919063ffffffff16565b610fce6103e888611c2790919063ffffffff16565b611bce90919063ffffffff16565b9050600061101a610ff7600385611c2790919063ffffffff16565b61100c6103e888611c2790919063ffffffff16565b611bce90919063ffffffff16565b905061109c620f424061108e6009600e9054906101000a90046dffffffffffffffffffffffffffff166dffffffffffffffffffffffffffff16600960009054906101000a90046dffffffffffffffffffffffffffff166dffffffffffffffffffffffffffff16611c2790919063ffffffff16565b611c2790919063ffffffff16565b6110af8284611c2790919063ffffffff16565b10156110f0576040517f08c379a00000000000000000000000000000000000000000000000000000000081526004016110e790612862565b60405180910390fd5b6111348686600960009054906101000a90046dffffffffffffffffffffffffffff166009600e9054906101000a90046dffffffffffffffffffffffffffff16611df7565b505050505050505050565b60036020528060005260406000206000915090505481565b60056020528060005260406000206000915090505481565b600d60009054906101000a900463ffffffff1681565b6000806000600760009054906101000a900473ffffffffffffffffffffffffffffffffffffffff1673ffffffffffffffffffffffffffffffffffffffff166370a08231306040518263ffffffff1660e01b81526004016111e5919061230e565b602060405180830381865afa158015611202573d6000803e3d6000fd5b505050506040513d601f19601f820116820180604052508101906112269190612707565b90506000600860009054906101000a900473ffffffffffffffffffffffffffffffffffffffff1673ffffffffffffffffffffffffffffffffffffffff166370a08231306040518263ffffffff1660e01b8152600401611285919061230e565b602060405180830381865afa1580156112a2573d6000803e3d6000fd5b505050506040513d601f19601f820116820180604052508101906112c69190612707565b90506000600360003073ffffffffffffffffffffffffffffffffffffffff1673ffffffffffffffffffffffffffffffffffffffff1681526020019081526020016000205490506002546113228483611c2790919063ffffffff16565b61132c9190612763565b94506002546113448383611c2790919063ffffffff16565b61134e9190612763565b935061135a308261200b565b600760009054906101000a900473ffffffffffffffffffffffffffffffffffffffff1673ffffffffffffffffffffffffffffffffffffffff1663a9059cbb87876040518363ffffffff1660e01b81526004016113b7929190612794565b6020604051808303816000875af11580156113d6573d6000803e3d6000fd5b505050506040513d601f19601f820116820180604052508101906113fa91906127e9565b50600860009054906101000a900473ffffffffffffffffffffffffffffffffffffffff1673ffffffffffffffffffffffffffffffffffffffff1663a9059cbb87866040518363ffffffff1660e01b8152600401611458929190612794565b6020604051808303816000875af1158015611477573d6000803e3d6000fd5b505050506040513d601f19601f8201168201806040525081019061149b91906127e9565b50600760009054906101000a900473ffffffffffffffffffffffffffffffffffffffff1673ffffffffffffffffffffffffffffffffffffffff166370a08231306040518263ffffffff1660e01b81526004016114f7919061230e565b602060405180830381865afa158015611514573d6000803e3d6000fd5b505050506040513d601f19601f820116820180604052508101906115389190612707565b9250600860009054906101000a900473ffffffffffffffffffffffffffffffffffffffff1673ffffffffffffffffffffffffffffffffffffffff166370a08231306040518263ffffffff1660e01b8152600401611595919061230e565b602060405180830381865afa1580156115b2573d6000803e3d6000fd5b505050506040513d601f19601f820116820180604052508101906115d69190612707565b915061161c8383600960009054906101000a90046dffffffffffffffffffffffffffff166009600e9054906101000a90046dffffffffffffffffffffffffffff16611df7565b505050915091565b600180546116319061265d565b80601f016020809104026020016040519081016040528092919081815260200182805461165d9061265d565b80156116aa5780601f1061167f576101008083540402835291602001916116aa565b820191906000526020600020905b81548152906001019060200180831161168d57829003601f168201915b505050505081565b600081600360003373ffffffffffffffffffffffffffffffffffffffff1673ffffffffffffffffffffffffffffffffffffffff168152602001908152602001600020600082825461170391906126be565b9250508190555081600360008573ffffffffffffffffffffffffffffffffffffffff1673ffffffffffffffffffffffffffffffffffffffff168152602001908152602001600020600082825401925050819055508273ffffffffffffffffffffffffffffffffffffffff163373ffffffffffffffffffffffffffffffffffffffff167fddf252ad1be2c89b69c2b068fc378daa952ba7f163c4a11628f55a4df523b3ef846040516117b49190612338565b60405180910390a36001905092915050565b600660009054906101000a900473ffffffffffffffffffffffffffffffffffffffff1681565b600c5481565b600860009054906101000a900473ffffffffffffffffffffffffffffffffffffffff1681565b4284101561185b576040517f08c379a0000000000000000000000000000000000000000000000000000000008152600401611852906128ce565b60405180910390fd5b60006118656108a6565b7f6e71edae12b1b97f4d1f60370fef10105fa2faae0126114a169c64845d6126c9898989600560008e73ffffffffffffffffffffffffffffffffffffffff1673ffffffffffffffffffffffffffffffffffffffff1681526020019081526020016000206000815480929190600101919050558a6040516020016118ed969594939291906128ee565b604051602081830303815290604052805190602001206040516020016119149291906129c7565b60405160208183030381529060405280519060200120905060006001828686866040516000815260200160405260405161195194939291906129fe565b6020604051602081039080840390855afa158015611973573d6000803e3d6000fd5b505050602060405103519050600073ffffffffffffffffffffffffffffffffffffffff168173ffffffffffffffffffffffffffffffffffffffff16141580156119e757508873ffffffffffffffffffffffffffffffffffffffff168173ffffffffffffffffffffffffffffffffffffffff16145b611a26576040517f08c379a0000000000000000000000000000000000000000000000000000000008152600401611a1d90612a8f565b60405180910390fd5b86600460008373ffffffffffffffffffffffffffffffffffffffff1673ffffffffffffffffffffffffffffffffffffffff16815260200190815260200160002060008a73ffffffffffffffffffffffffffffffffffffffff1673ffffffffffffffffffffffffffffffffffffffff1681526020019081526020016000208190555050508573ffffffffffffffffffffffffffffffffffffffff168773ffffffffffffffffffffffffffffffffffffffff167f8c5be1e5ebec7d5bd14f71427d1e84f3dd0314c0f7b2291e5b200ac8c7c3b92587604051611b069190612338565b60405180910390a350505050505050565b6004602052816000526040600020602052806000526040600020600091509150505481565b600b5481565b60007f8b73c3c69bb8fe3d512ecc4cf759cc79239f7b179b0ffacaa9a75d522b39400f6000604051611b749190612b4e565b60405180910390207fc89efdaa54c0f20c7adf612882df0950f5a951637e0307cdcb4c672f298b8bc64630604051602001611bb3959493929190612b65565b60405160208183030381529060405280519060200120905090565b6000828284611bdd91906126be565b9150811115611c21576040517f08c379a0000000000000000000000000000000000000000000000000000000008152600401611c1890612c04565b60405180910390fd5b92915050565b600080821480611c4f575082828385611c409190612c24565b925082611c4d9190612763565b145b611c8e576040517f08c379a0000000000000000000000000000000000000000000000000000000008152600401611c8590612cca565b60405180910390fd5b92915050565b60006003821115611cfb5781905060006001600284611cb39190612763565b611cbd9190612cea565b90505b81811015611cf5578091506002818285611cda9190612763565b611ce49190612cea565b611cee9190612763565b9050611cc0565b50611d09565b60008214611d0857600190505b5b919050565b6000818310611d1d5781611d1f565b825b905092915050565b8060026000828254611d399190612cea565b9250508190555080600360008473ffffffffffffffffffffffffffffffffffffffff1673ffffffffffffffffffffffffffffffffffffffff168152602001908152602001600020600082825401925050819055508173ffffffffffffffffffffffffffffffffffffffff16600073ffffffffffffffffffffffffffffffffffffffff167fddf252ad1be2c89b69c2b068fc378daa952ba7f163c4a11628f55a4df523b3ef83604051611deb9190612338565b60405180910390a35050565b600064010000000042611e0a9190612d40565b90506000600d60009054906101000a900463ffffffff1682611e2c9190612d71565b905060008163ffffffff16118015611e5557506000846dffffffffffffffffffffffffffff1614155b8015611e7257506000836dffffffffffffffffffffffffffff1614155b15611f78578063ffffffff16611eb785611e8b866120db565b7bffffffffffffffffffffffffffffffffffffffffffffffffffffffff1661210f90919063ffffffff16565b7bffffffffffffffffffffffffffffffffffffffffffffffffffffffff16611edf9190612c24565b600b6000828254611ef09190612cea565b925050819055508063ffffffff16611f3784611f0b876120db565b7bffffffffffffffffffffffffffffffffffffffffffffffffffffffff1661210f90919063ffffffff16565b7bffffffffffffffffffffffffffffffffffffffffffffffffffffffff16611f5f9190612c24565b600c6000828254611f709190612cea565b925050819055505b85600960006101000a8154816dffffffffffffffffffffffffffff02191690836dffffffffffffffffffffffffffff160217905550846009600e6101000a8154816dffffffffffffffffffffffffffff02191690836dffffffffffffffffffffffffffff16021790555081600d60006101000a81548163ffffffff021916908363ffffffff160217905550505050505050565b80600360008473ffffffffffffffffffffffffffffffffffffffff1673ffffffffffffffffffffffffffffffffffffffff168152602001908152602001600020600082825461205a91906126be565b9250508190555080600260008282540392505081905550600073ffffffffffffffffffffffffffffffffffffffff168273ffffffffffffffffffffffffffffffffffffffff167fddf252ad1be2c89b69c2b068fc378daa952ba7f163c4a11628f55a4df523b3ef836040516120cf9190612338565b60405180910390a35050565b60006e010000000000000000000000000000826dffffffffffffffffffffffffffff166121089190612dcd565b9050919050565b6000816dffffffffffffffffffffffffffff168361212d9190612e23565b905092915050565b600081519050919050565b600082825260208201905092915050565b60005b8381101561216f578082015181840152602081019050612154565b8381111561217e576000848401525b50505050565b6000601f19601f8301169050919050565b60006121a082612135565b6121aa8185612140565b93506121ba818560208601612151565b6121c381612184565b840191505092915050565b600060208201905081810360008301526121e88184612195565b905092915050565b600080fd5b600073ffffffffffffffffffffffffffffffffffffffff82169050919050565b6000612220826121f5565b9050919050565b61223081612215565b811461223b57600080fd5b50565b60008135905061224d81612227565b92915050565b6000819050919050565b61226681612253565b811461227157600080fd5b50565b6000813590506122838161225d565b92915050565b600080604083850312156122a05761229f6121f0565b5b60006122ae8582860161223e565b92505060206122bf85828601612274565b9150509250929050565b60008115159050919050565b6122de816122c9565b82525050565b60006020820190506122f960008301846122d5565b92915050565b61230881612215565b82525050565b600060208201905061232360008301846122ff565b92915050565b61233281612253565b82525050565b600060208201905061234d6000830184612329565b92915050565b60008060006060848603121561236c5761236b6121f0565b5b600061237a8682870161223e565b935050602061238b8682870161223e565b925050604061239c86828701612274565b9150509250925092565b6000819050919050565b6123b9816123a6565b82525050565b60006020820190506123d460008301846123b0565b92915050565b600060ff82169050919050565b6123f0816123da565b82525050565b600060208201905061240b60008301846123e7565b92915050565b600060208284031215612427576124266121f0565b5b60006124358482850161223e565b91505092915050565b600080600060608486031215612457576124566121f0565b5b600061246586828701612274565b935050602061247686828701612274565b92505060406124878682870161223e565b9150509250925092565b600063ffffffff82169050919050565b6124aa81612491565b82525050565b60006020820190506124c560008301846124a1565b92915050565b60006040820190506124e06000830185612329565b6124ed6020830184612329565b9392505050565b6124fd816123da565b811461250857600080fd5b50565b60008135905061251a816124f4565b92915050565b612529816123a6565b811461253457600080fd5b50565b60008135905061254681612520565b92915050565b600080600080600080600060e0888a03121561256b5761256a6121f0565b5b60006125798a828b0161223e565b975050602061258a8a828b0161223e565b965050604061259b8a828b01612274565b95505060606125ac8a828b01612274565b94505060806125bd8a828b0161250b565b93505060a06125ce8a828b01612537565b92505060c06125df8a828b01612537565b91505092959891949750929550565b60008060408385031215612605576126046121f0565b5b60006126138582860161223e565b92505060206126248582860161223e565b9150509250929050565b7f4e487b7100000000000000000000000000000000000000000000000000000000600052602260045260246000fd5b6000600282049050600182168061267557607f821691505b602082108114156126895761268861262e565b5b50919050565b7f4e487b7100000000000000000000000000000000000000000000000000000000600052601160045260246000fd5b60006126c982612253565b91506126d483612253565b9250828210156126e7576126e661268f565b5b828203905092915050565b6000815190506127018161225d565b92915050565b60006020828403121561271d5761271c6121f0565b5b600061272b848285016126f2565b91505092915050565b7f4e487b7100000000000000000000000000000000000000000000000000000000600052601260045260246000fd5b600061276e82612253565b915061277983612253565b92508261278957612788612734565b5b828204905092915050565b60006040820190506127a960008301856122ff565b6127b66020830184612329565b9392505050565b6127c6816122c9565b81146127d157600080fd5b50565b6000815190506127e3816127bd565b92915050565b6000602082840312156127ff576127fe6121f0565b5b600061280d848285016127d4565b91505092915050565b7f556e697377617056323a204b0000000000000000000000000000000000000000600082015250565b600061284c600c83612140565b915061285782612816565b602082019050919050565b6000602082019050818103600083015261287b8161283f565b9050919050565b7f5045524d49545f444541444c494e455f45585049524544000000000000000000600082015250565b60006128b8601783612140565b91506128c382612882565b602082019050919050565b600060208201905081810360008301526128e7816128ab565b9050919050565b600060c08201905061290360008301896123b0565b61291060208301886122ff565b61291d60408301876122ff565b61292a6060830186612329565b6129376080830185612329565b61294460a0830184612329565b979650505050505050565b600081905092915050565b7f1901000000000000000000000000000000000000000000000000000000000000600082015250565b600061299060028361294f565b915061299b8261295a565b600282019050919050565b6000819050919050565b6129c16129bc826123a6565b6129a6565b82525050565b60006129d282612983565b91506129de82856129b0565b6020820191506129ee82846129b0565b6020820191508190509392505050565b6000608082019050612a1360008301876123b0565b612a2060208301866123e7565b612a2d60408301856123b0565b612a3a60608301846123b0565b95945050505050565b7f494e56414c49445f5349474e4552000000000000000000000000000000000000600082015250565b6000612a79600e83612140565b9150612a8482612a43565b602082019050919050565b60006020820190508181036000830152612aa881612a6c565b9050919050565b600081905092915050565b60008190508160005260206000209050919050565b60008154612adc8161265d565b612ae68186612aaf565b94506001821660008114612b015760018114612b1257612b45565b60ff19831686528186019350612b45565b612b1b85612aba565b60005b83811015612b3d57815481890152600182019150602081019050612b1e565b838801955050505b50505092915050565b6000612b5a8284612acf565b915081905092915050565b600060a082019050612b7a60008301886123b0565b612b8760208301876123b0565b612b9460408301866123b0565b612ba16060830185612329565b612bae60808301846122ff565b9695505050505050565b7f64732d6d6174682d7375622d756e646572666c6f770000000000000000000000600082015250565b6000612bee601583612140565b9150612bf982612bb8565b602082019050919050565b60006020820190508181036000830152612c1d81612be1565b9050919050565b6000612c2f82612253565b9150612c3a83612253565b9250817fffffffffffffffffffffffffffffffffffffffffffffffffffffffffffffffff0483118215151615612c7357612c7261268f565b5b828202905092915050565b7f64732d6d6174682d6d756c2d6f766572666c6f77000000000000000000000000600082015250565b6000612cb4601483612140565b9150612cbf82612c7e565b602082019050919050565b60006020820190508181036000830152612ce381612ca7565b9050919050565b6000612cf582612253565b9150612d0083612253565b9250827fffffffffffffffffffffffffffffffffffffffffffffffffffffffffffffffff03821115612d3557612d3461268f565b5b828201905092915050565b6000612d4b82612253565b9150612d5683612253565b925082612d6657612d65612734565b5b828206905092915050565b6000612d7c82612491565b9150612d8783612491565b925082821015612d9a57612d9961268f565b5b828203905092915050565b60007bffffffffffffffffffffffffffffffffffffffffffffffffffffffff82169050919050565b6000612dd882612da5565b9150612de383612da5565b9250817bffffffffffffffffffffffffffffffffffffffffffffffffffffffff0483118215151615612e1857612e1761268f565b5b828202905092915050565b6000612e2e82612da5565b9150612e3983612da5565b925082612e4957612e48612734565b5b82820490509291505056fea26469706673582212203cd7dc8bb72b80a452de2c34173d5b63589e4d672b1d15fb8dca96337eae23e564736f6c634300080b0033a26469706673582212200810ae222300d1885afdd1107e1de4776028fed09f9366d7176f84f3dcc2517c64736f6c634300080b0033",
  "immutableReferences": {},
  "source": "pragma solidity >=0.4.21;\n\nimport \"./Pair.sol\";\n\ncontract Factory {\n    mapping(address => mapping(address => address)) public getPair;\n\n    event PairDeployed(address indexed token0, address indexed token1, address pair);\n\n    function createPair(address token0, address token1) external returns (address pair) {\n        // requirements\n        // TODO: Check not same token\n        // TODO: Check pair doesn't exist\n\n        // instantiate new pool\n        pair = address(new Pair(token0, token1));\n        \n        // record new pair address\n        getPair[token0][token1] = pair;\n        getPair[token1][token0] = pair;\n\n        emit PairDeployed(token0, token1, pair);\n    }\n}",
  "sourcePath": "/Users/kitwiggin/senior_design/mvp_fe/contracts/Factory.sol",
  "compiler": {
    "name": "solc",
    "version": "0.8.11+commit.d7f03943.Emscripten.clang"
  },
  "schemaVersion": "3.4.3",
  "updatedAt": "2022-01-26T00:01:35.252Z",
  "networkType": "ethereum",
  "devdoc": {
    "kind": "dev",
    "methods": {},
    "version": 1
  },
  "userdoc": {
    "kind": "user",
    "methods": {},
    "version": 1
  }
}