{
  "contractName": "Factory",
  "abi": [
    {
      "anonymous": false,
      "inputs": [
        {
          "indexed": true,
          "internalType": "address",
          "name": "token0",
          "type": "address"
        },
        {
          "indexed": true,
          "internalType": "address",
          "name": "token1",
          "type": "address"
        },
        {
          "indexed": false,
          "internalType": "address",
          "name": "pair",
          "type": "address"
        }
      ],
      "name": "PairDeployed",
      "type": "event"
    },
    {
      "inputs": [
        {
          "internalType": "uint256",
          "name": "",
          "type": "uint256"
        }
      ],
      "name": "allPairs",
      "outputs": [
        {
          "internalType": "address",
          "name": "",
          "type": "address"
        }
      ],
      "stateMutability": "view",
      "type": "function",
      "constant": true
    },
    {
      "inputs": [
        {
          "internalType": "address",
          "name": "",
          "type": "address"
        },
        {
          "internalType": "address",
          "name": "",
          "type": "address"
        }
      ],
      "name": "getPair",
      "outputs": [
        {
          "internalType": "address",
          "name": "",
          "type": "address"
        }
      ],
      "stateMutability": "view",
      "type": "function",
      "constant": true
    },
    {
      "inputs": [],
      "name": "getAllPairs",
      "outputs": [
        {
          "internalType": "address[]",
          "name": "",
          "type": "address[]"
        }
      ],
      "stateMutability": "view",
      "type": "function",
      "constant": true
    },
    {
      "inputs": [
        {
          "internalType": "address",
          "name": "_token0",
          "type": "address"
        },
        {
          "internalType": "address",
          "name": "_token1",
          "type": "address"
        },
        {
          "internalType": "string",
          "name": "_token0Name",
          "type": "string"
        },
        {
          "internalType": "string",
          "name": "_token1Name",
          "type": "string"
        },
        {
          "internalType": "uint256",
          "name": "_twammIntervalSize",
          "type": "uint256"
        }
      ],
      "name": "createPair",
      "outputs": [
        {
          "internalType": "address",
          "name": "pair",
          "type": "address"
        }
      ],
      "stateMutability": "nonpayable",
      "type": "function"
    }
  ],
  "bytecode": "0x608060405234801561001057600080fd5b50615847806100206000396000f3fe60806040523480156200001157600080fd5b5060043610620000525760003560e01c80631e3dd18b146200005757806397b179d9146200008d578063e6a4390514620000c3578063f800ece914620000f9575b600080fd5b6200007560048036038101906200006f919062000694565b6200011b565b6040516200008491906200070b565b60405180910390f35b620000ab6004803603810190620000a59190620008bb565b6200015b565b604051620000ba91906200070b565b60405180910390f35b620000e16004803603810190620000db919062000981565b62000565565b604051620000f091906200070b565b60405180910390f35b62000103620005a7565b60405162000112919062000a96565b60405180910390f35b600181815481106200012c57600080fd5b906000526020600020016000915054906101000a900473ffffffffffffffffffffffffffffffffffffffff1681565b60008473ffffffffffffffffffffffffffffffffffffffff168673ffffffffffffffffffffffffffffffffffffffff1603620001ce576040517f08c379a0000000000000000000000000000000000000000000000000000000008152600401620001c59062000b41565b60405180910390fd5b600073ffffffffffffffffffffffffffffffffffffffff166000808873ffffffffffffffffffffffffffffffffffffffff1673ffffffffffffffffffffffffffffffffffffffff16815260200190815260200160002060008773ffffffffffffffffffffffffffffffffffffffff1673ffffffffffffffffffffffffffffffffffffffff16815260200190815260200160002060009054906101000a900473ffffffffffffffffffffffffffffffffffffffff1673ffffffffffffffffffffffffffffffffffffffff1614620002db576040517f08c379a0000000000000000000000000000000000000000000000000000000008152600401620002d29062000bb3565b60405180910390fd5b8585858585604051620002ee9062000637565b620002fe95949392919062000c68565b604051809103906000f0801580156200031b573d6000803e3d6000fd5b509050806000808873ffffffffffffffffffffffffffffffffffffffff1673ffffffffffffffffffffffffffffffffffffffff16815260200190815260200160002060008773ffffffffffffffffffffffffffffffffffffffff1673ffffffffffffffffffffffffffffffffffffffff16815260200190815260200160002060006101000a81548173ffffffffffffffffffffffffffffffffffffffff021916908373ffffffffffffffffffffffffffffffffffffffff160217905550806000808773ffffffffffffffffffffffffffffffffffffffff1673ffffffffffffffffffffffffffffffffffffffff16815260200190815260200160002060008873ffffffffffffffffffffffffffffffffffffffff1673ffffffffffffffffffffffffffffffffffffffff16815260200190815260200160002060006101000a81548173ffffffffffffffffffffffffffffffffffffffff021916908373ffffffffffffffffffffffffffffffffffffffff1602179055506001819080600181540180825580915050600190039060005260206000200160009091909190916101000a81548173ffffffffffffffffffffffffffffffffffffffff021916908373ffffffffffffffffffffffffffffffffffffffff1602179055508473ffffffffffffffffffffffffffffffffffffffff168673ffffffffffffffffffffffffffffffffffffffff167fc9a56d223b13a4cca4293cbedee4e06153ffbd03159c0282b9a2ca3ff6d17880836040516200055491906200070b565b60405180910390a395945050505050565b60006020528160005260406000206020528060005260406000206000915091509054906101000a900473ffffffffffffffffffffffffffffffffffffffff1681565b606060018054806020026020016040519081016040528092919081815260200182805480156200062d57602002820191906000526020600020905b8160009054906101000a900473ffffffffffffffffffffffffffffffffffffffff1673ffffffffffffffffffffffffffffffffffffffff1681526020019060010190808311620005e2575b5050505050905090565b614b3e8062000cd483390190565b6000604051905090565b600080fd5b600080fd5b6000819050919050565b6200066e8162000659565b81146200067a57600080fd5b50565b6000813590506200068e8162000663565b92915050565b600060208284031215620006ad57620006ac6200064f565b5b6000620006bd848285016200067d565b91505092915050565b600073ffffffffffffffffffffffffffffffffffffffff82169050919050565b6000620006f382620006c6565b9050919050565b6200070581620006e6565b82525050565b6000602082019050620007226000830184620006fa565b92915050565b6200073381620006e6565b81146200073f57600080fd5b50565b600081359050620007538162000728565b92915050565b600080fd5b600080fd5b6000601f19601f8301169050919050565b7f4e487b7100000000000000000000000000000000000000000000000000000000600052604160045260246000fd5b620007ae8262000763565b810181811067ffffffffffffffff82111715620007d057620007cf62000774565b5b80604052505050565b6000620007e562000645565b9050620007f38282620007a3565b919050565b600067ffffffffffffffff82111562000816576200081562000774565b5b620008218262000763565b9050602081019050919050565b82818337600083830152505050565b6000620008546200084e84620007f8565b620007d9565b9050828152602081018484840111156200087357620008726200075e565b5b620008808482856200082e565b509392505050565b600082601f830112620008a0576200089f62000759565b5b8135620008b28482602086016200083d565b91505092915050565b600080600080600060a08688031215620008da57620008d96200064f565b5b6000620008ea8882890162000742565b9550506020620008fd8882890162000742565b945050604086013567ffffffffffffffff81111562000921576200092062000654565b5b6200092f8882890162000888565b935050606086013567ffffffffffffffff81111562000953576200095262000654565b5b620009618882890162000888565b925050608062000974888289016200067d565b9150509295509295909350565b600080604083850312156200099b576200099a6200064f565b5b6000620009ab8582860162000742565b9250506020620009be8582860162000742565b9150509250929050565b600081519050919050565b600082825260208201905092915050565b6000819050602082019050919050565b620009ff81620006e6565b82525050565b600062000a138383620009f4565b60208301905092915050565b6000602082019050919050565b600062000a3982620009c8565b62000a458185620009d3565b935062000a5283620009e4565b8060005b8381101562000a8957815162000a6d888262000a05565b975062000a7a8362000a1f565b92505060018101905062000a56565b5085935050505092915050565b6000602082019050818103600083015262000ab2818462000a2c565b905092915050565b600082825260208201905092915050565b7f5748414c45535741503a20546f6b656e732063616e6e6f74206265207468652060008201527f73616d6500000000000000000000000000000000000000000000000000000000602082015250565b600062000b2960248362000aba565b915062000b368262000acb565b604082019050919050565b6000602082019050818103600083015262000b5c8162000b1a565b9050919050565b7f5748414c45535741503a205061697220616c7265616479206578697374730000600082015250565b600062000b9b601e8362000aba565b915062000ba88262000b63565b602082019050919050565b6000602082019050818103600083015262000bce8162000b8c565b9050919050565b600081519050919050565b60005b8381101562000c0057808201518184015260208101905062000be3565b8381111562000c10576000848401525b50505050565b600062000c238262000bd5565b62000c2f818562000aba565b935062000c4181856020860162000be0565b62000c4c8162000763565b840191505092915050565b62000c628162000659565b82525050565b600060a08201905062000c7f6000830188620006fa565b62000c8e6020830187620006fa565b818103604083015262000ca2818662000c16565b9050818103606083015262000cb8818562000c16565b905062000cc9608083018462000c57565b969550505050505056fe6101206040523480156200001257600080fd5b5060405162004b3e38038062004b3e833981810160405281019062000038919062000624565b6040518060400160405280600681526020017f6c5768616c6500000000000000000000000000000000000000000000000000008152506040518060400160405280600481526020017f6c57484c0000000000000000000000000000000000000000000000000000000081525060128260009080519060200190620000be92919062000337565b508160019080519060200190620000d792919062000337565b508060ff1660808160ff16815250504660a08181525050620000fe6200020960201b60201c565b60c0818152505050505033600660006101000a81548173ffffffffffffffffffffffffffffffffffffffff021916908373ffffffffffffffffffffffffffffffffffffffff1602179055508473ffffffffffffffffffffffffffffffffffffffff1660e08173ffffffffffffffffffffffffffffffffffffffff16815250508373ffffffffffffffffffffffffffffffffffffffff166101008173ffffffffffffffffffffffffffffffffffffffff16815250508260079080519060200190620001ca92919062000337565b508160089080519060200190620001e392919062000337565b50620001fe600c8686846200029960201b620021051760201c565b5050505050620008ac565b60007f8b73c3c69bb8fe3d512ecc4cf759cc79239f7b179b0ffacaa9a75d522b39400f60006040516200023d9190620007f9565b60405180910390207fc89efdaa54c0f20c7adf612882df0950f5a951637e0307cdcb4c672f298b8bc646306040516020016200027e9594939291906200084f565b60405160208183030381529060405280519060200120905090565b808460000181905550438460010181905550828460020160006101000a81548173ffffffffffffffffffffffffffffffffffffffff021916908373ffffffffffffffffffffffffffffffffffffffff160217905550818460030160006101000a81548173ffffffffffffffffffffffffffffffffffffffff021916908373ffffffffffffffffffffffffffffffffffffffff16021790555050505050565b828054620003459062000719565b90600052602060002090601f016020900481019282620003695760008555620003b5565b82601f106200038457805160ff1916838001178555620003b5565b82800160010185558215620003b5579182015b82811115620003b457825182559160200191906001019062000397565b5b509050620003c49190620003c8565b5090565b5b80821115620003e3576000816000905550600101620003c9565b5090565b6000604051905090565b600080fd5b600080fd5b600073ffffffffffffffffffffffffffffffffffffffff82169050919050565b60006200042882620003fb565b9050919050565b6200043a816200041b565b81146200044657600080fd5b50565b6000815190506200045a816200042f565b92915050565b600080fd5b600080fd5b6000601f19601f8301169050919050565b7f4e487b7100000000000000000000000000000000000000000000000000000000600052604160045260246000fd5b620004b5826200046a565b810181811067ffffffffffffffff82111715620004d757620004d66200047b565b5b80604052505050565b6000620004ec620003e7565b9050620004fa8282620004aa565b919050565b600067ffffffffffffffff8211156200051d576200051c6200047b565b5b62000528826200046a565b9050602081019050919050565b60005b838110156200055557808201518184015260208101905062000538565b8381111562000565576000848401525b50505050565b6000620005826200057c84620004ff565b620004e0565b905082815260208101848484011115620005a157620005a062000465565b5b620005ae84828562000535565b509392505050565b600082601f830112620005ce57620005cd62000460565b5b8151620005e08482602086016200056b565b91505092915050565b6000819050919050565b620005fe81620005e9565b81146200060a57600080fd5b50565b6000815190506200061e81620005f3565b92915050565b600080600080600060a08688031215620006435762000642620003f1565b5b6000620006538882890162000449565b9550506020620006668882890162000449565b945050604086015167ffffffffffffffff8111156200068a5762000689620003f6565b5b6200069888828901620005b6565b935050606086015167ffffffffffffffff811115620006bc57620006bb620003f6565b5b620006ca88828901620005b6565b9250506080620006dd888289016200060d565b9150509295509295909350565b7f4e487b7100000000000000000000000000000000000000000000000000000000600052602260045260246000fd5b600060028204905060018216806200073257607f821691505b602082108103620007485762000747620006ea565b5b50919050565b600081905092915050565b60008190508160005260206000209050919050565b600081546200077d8162000719565b6200078981866200074e565b94506001821660008114620007a75760018114620007b957620007f0565b60ff19831686528186019350620007f0565b620007c48562000759565b60005b83811015620007e857815481890152600182019150602081019050620007c7565b838801955050505b50505092915050565b60006200080782846200076e565b915081905092915050565b6000819050919050565b620008278162000812565b82525050565b6200083881620005e9565b82525050565b62000849816200041b565b82525050565b600060a0820190506200086660008301886200081c565b6200087560208301876200081c565b6200088460408301866200081c565b6200089360608301856200082d565b620008a260808301846200083e565b9695505050505050565b60805160a05160c05160e051610100516141cf6200096f6000396000818161085901528181610d6501528181610dd1015281816110ac0152818161120c015281816114dd015281816118680152818161189001528181611b670152611ef6015260008181610781015281816107b801528181610d0801528181610e2e01528181610f84015281816113340152818161153a01528181611845015281816118b30152611e9901526000610f1201526000610ede01526000610eb801526141cf6000f3fe608060405234801561001057600080fd5b50600436106101da5760003560e01c80637ecebe0011610104578063cc5864ee116100a2578063dd62ed3e11610071578063dd62ed3e14610577578063e7563e0b146105a7578063f7029a26146105c5578063f9063ba1146105e1576101da565b8063cc5864ee146104ef578063d21220a71461050d578063d505accf1461052b578063d92b15a014610547576101da565b8063a9059cbb116100de578063a9059cbb14610467578063b7169eda14610497578063c2d12e4b146104b3578063c45a0155146104d1576101da565b80637ecebe00146103fb57806385e63fc61461042b57806395d89b4114610449576101da565b806330adf81f1161017c5780634af0871b1161014b5780634af0871b14610361578063535cc24d1461037d57806358c4bd131461039b57806370a08231146103cb576101da565b806330adf81f146102e8578063313ce567146103065780633644e515146103245780633d370b4e14610342576101da565b8063156e29f6116101b8578063156e29f61461024b57806318160ddd1461027b57806323b872dd146102995780632734b5ef146102c9576101da565b806306fdde03146101df578063095ea7b3146101fd5780630dfe16811461022d575b600080fd5b6101e76105ff565b6040516101f49190612e32565b60405180910390f35b61021760048036038101906102129190612eed565b61068d565b6040516102249190612f48565b60405180910390f35b61023561077f565b6040516102429190612f72565b60405180910390f35b61026560048036038101906102609190612f8d565b6107a3565b6040516102729190612fef565b60405180910390f35b610283610aa9565b6040516102909190612fef565b60405180910390f35b6102b360048036038101906102ae919061300a565b610aaf565b6040516102c09190612f48565b60405180910390f35b6102d1610cf9565b6040516102df9291906131b4565b60405180910390f35b6102f0610e92565b6040516102fd9190613204565b60405180910390f35b61030e610eb6565b60405161031b919061323b565b60405180910390f35b61032c610eda565b6040516103399190613204565b60405180910390f35b61034a610f37565b60405161035892919061327f565b60405180910390f35b61037b600480360381019061037691906132d4565b610f7c565b005b6103856114bf565b6040516103929190612fef565b60405180910390f35b6103b560048036038101906103b09190613327565b6114cc565b6040516103c291906133cf565b60405180910390f35b6103e560048036038101906103e091906133ea565b611652565b6040516103f29190612fef565b60405180910390f35b610415600480360381019061041091906133ea565b61166a565b6040516104229190612fef565b60405180910390f35b610433611682565b6040516104409190613436565b60405180910390f35b610451611698565b60405161045e9190612e32565b60405180910390f35b610481600480360381019061047c9190612eed565b611726565b60405161048e9190612f48565b60405180910390f35b6104b160048036038101906104ac9190613451565b61183a565b005b6104bb611aab565b6040516104c89190612e32565b60405180910390f35b6104d9611b39565b6040516104e69190612f72565b60405180910390f35b6104f7611b5f565b6040516105049190612fef565b60405180910390f35b610515611b65565b6040516105229190612f72565b60405180910390f35b610545600480360381019061054091906134fc565b611b89565b005b610561600480360381019061055c9190613327565b611e88565b60405161056e91906133cf565b60405180910390f35b610591600480360381019061058c919061359e565b61200e565b60405161059e9190612fef565b60405180910390f35b6105af612033565b6040516105bc9190612e32565b60405180910390f35b6105df60048036038101906105da91906135de565b6120c1565b005b6105e96120ff565b6040516105f69190612fef565b60405180910390f35b6000805461060c90613660565b80601f016020809104026020016040519081016040528092919081815260200182805461063890613660565b80156106855780601f1061065a57610100808354040283529160200191610685565b820191906000526020600020905b81548152906001019060200180831161066857829003601f168201915b505050505081565b600081600460003373ffffffffffffffffffffffffffffffffffffffff1673ffffffffffffffffffffffffffffffffffffffff16815260200190815260200160002060008573ffffffffffffffffffffffffffffffffffffffff1673ffffffffffffffffffffffffffffffffffffffff168152602001908152602001600020819055508273ffffffffffffffffffffffffffffffffffffffff163373ffffffffffffffffffffffffffffffffffffffff167f8c5be1e5ebec7d5bd14f71427d1e84f3dd0314c0f7b2291e5b200ac8c7c3b9258460405161076d9190612fef565b60405180910390a36001905092915050565b7f000000000000000000000000000000000000000000000000000000000000000081565b60008060006107b285856121a3565b915091507f000000000000000000000000000000000000000000000000000000000000000073ffffffffffffffffffffffffffffffffffffffff166323b872dd3330856040518463ffffffff1660e01b815260040161081393929190613691565b6020604051808303816000875af1158015610832573d6000803e3d6000fd5b505050506040513d601f19601f8201168201806040525081019061085691906136dd565b507f000000000000000000000000000000000000000000000000000000000000000073ffffffffffffffffffffffffffffffffffffffff166323b872dd3330846040518463ffffffff1660e01b81526004016108b493929190613691565b6020604051808303816000875af11580156108d3573d6000803e3d6000fd5b505050506040513d601f19601f820116820180604052508101906108f791906136dd565b5060006002540361091d5761091681836109119190613739565b612333565b92506109b2565b6109af600b60009054906101000a90046dffffffffffffffffffffffffffff166dffffffffffffffffffffffffffff166002548461095b9190613739565b61096591906137c2565b600b600e9054906101000a90046dffffffffffffffffffffffffffff166dffffffffffffffffffffffffffff16600254846109a09190613739565b6109aa91906137c2565b6123ad565b92505b6109bc86846123c6565b81600b60009054906101000a90046dffffffffffffffffffffffffffff166109e491906137f3565b600b60006101000a8154816dffffffffffffffffffffffffffff02191690836dffffffffffffffffffffffffffff16021790555080600b600e9054906101000a90046dffffffffffffffffffffffffffff16610a4091906137f3565b600b600e6101000a8154816dffffffffffffffffffffffffffff02191690836dffffffffffffffffffffffffffff1602179055507fb792c15144fb9406bc07a4265f506a9f224141cefbf91fac2225f38ee380dd8660405160405180910390a150509392505050565b60025481565b600080600460008673ffffffffffffffffffffffffffffffffffffffff1673ffffffffffffffffffffffffffffffffffffffff16815260200190815260200160002060003373ffffffffffffffffffffffffffffffffffffffff1673ffffffffffffffffffffffffffffffffffffffff1681526020019081526020016000205490507fffffffffffffffffffffffffffffffffffffffffffffffffffffffffffffffff8114610be5578281610b649190613837565b600460008773ffffffffffffffffffffffffffffffffffffffff1673ffffffffffffffffffffffffffffffffffffffff16815260200190815260200160002060003373ffffffffffffffffffffffffffffffffffffffff1673ffffffffffffffffffffffffffffffffffffffff168152602001908152602001600020819055505b82600360008773ffffffffffffffffffffffffffffffffffffffff1673ffffffffffffffffffffffffffffffffffffffff1681526020019081526020016000206000828254610c349190613837565b9250508190555082600360008673ffffffffffffffffffffffffffffffffffffffff1673ffffffffffffffffffffffffffffffffffffffff168152602001908152602001600020600082825401925050819055508373ffffffffffffffffffffffffffffffffffffffff168573ffffffffffffffffffffffffffffffffffffffff167fddf252ad1be2c89b69c2b068fc378daa952ba7f163c4a11628f55a4df523b3ef85604051610ce59190612fef565b60405180910390a360019150509392505050565b606080610dc3600c60040160007f000000000000000000000000000000000000000000000000000000000000000073ffffffffffffffffffffffffffffffffffffffff1673ffffffffffffffffffffffffffffffffffffffff16815260200190815260200160002060007f000000000000000000000000000000000000000000000000000000000000000073ffffffffffffffffffffffffffffffffffffffff1673ffffffffffffffffffffffffffffffffffffffff168152602001908152602001600020612496565b9150610e8c600c60040160007f000000000000000000000000000000000000000000000000000000000000000073ffffffffffffffffffffffffffffffffffffffff1673ffffffffffffffffffffffffffffffffffffffff16815260200190815260200160002060007f000000000000000000000000000000000000000000000000000000000000000073ffffffffffffffffffffffffffffffffffffffff1673ffffffffffffffffffffffffffffffffffffffff168152602001908152602001600020612496565b90509091565b7f6e71edae12b1b97f4d1f60370fef10105fa2faae0126114a169c64845d6126c981565b7f000000000000000000000000000000000000000000000000000000000000000081565b60007f00000000000000000000000000000000000000000000000000000000000000004614610f1057610f0b612707565b610f32565b7f00000000000000000000000000000000000000000000000000000000000000005b905090565b600080600b60009054906101000a90046dffffffffffffffffffffffffffff169150600b600e9054906101000a90046dffffffffffffffffffffffffffff1690509091565b811561120a577f000000000000000000000000000000000000000000000000000000000000000073ffffffffffffffffffffffffffffffffffffffff166323b872dd3330866040518463ffffffff1660e01b8152600401610fdf93929190613691565b6020604051808303816000875af1158015610ffe573d6000803e3d6000fd5b505050506040513d601f19601f8201168201806040525081019061102291906136dd565b506000600b60009054906101000a90046dffffffffffffffffffffffffffff166dffffffffffffffffffffffffffff168461105d919061386b565b600b600e9054906101000a90046dffffffffffffffffffffffffffff166dffffffffffffffffffffffffffff16856110959190613739565b61109f91906137c2565b90506000811115611204577f000000000000000000000000000000000000000000000000000000000000000073ffffffffffffffffffffffffffffffffffffffff1663a9059cbb83836040518363ffffffff1660e01b81526004016111059291906138c1565b6020604051808303816000875af1158015611124573d6000803e3d6000fd5b505050506040513d601f19601f8201168201806040525081019061114891906136dd565b5083600b60008282829054906101000a90046dffffffffffffffffffffffffffff1661117491906137f3565b92506101000a8154816dffffffffffffffffffffffffffff02191690836dffffffffffffffffffffffffffff16021790555080600b600e8282829054906101000a90046dffffffffffffffffffffffffffff166111d191906138ea565b92506101000a8154816dffffffffffffffffffffffffffff02191690836dffffffffffffffffffffffffffff1602179055505b5061148e565b7f000000000000000000000000000000000000000000000000000000000000000073ffffffffffffffffffffffffffffffffffffffff166323b872dd3330866040518463ffffffff1660e01b815260040161126793929190613691565b6020604051808303816000875af1158015611286573d6000803e3d6000fd5b505050506040513d601f19601f820116820180604052508101906112aa91906136dd565b506000600b600e9054906101000a90046dffffffffffffffffffffffffffff166dffffffffffffffffffffffffffff16846112e5919061386b565b600b60009054906101000a90046dffffffffffffffffffffffffffff166dffffffffffffffffffffffffffff168561131d9190613739565b61132791906137c2565b9050600081111561148c577f000000000000000000000000000000000000000000000000000000000000000073ffffffffffffffffffffffffffffffffffffffff1663a9059cbb83836040518363ffffffff1660e01b815260040161138d9291906138c1565b6020604051808303816000875af11580156113ac573d6000803e3d6000fd5b505050506040513d601f19601f820116820180604052508101906113d091906136dd565b5080600b60008282829054906101000a90046dffffffffffffffffffffffffffff166113fc91906138ea565b92506101000a8154816dffffffffffffffffffffffffffff02191690836dffffffffffffffffffffffffffff16021790555083600b600e8282829054906101000a90046dffffffffffffffffffffffffffff1661145991906137f3565b92506101000a8154816dffffffffffffffffffffffffffff02191690836dffffffffffffffffffffffffffff1602179055505b505b7f3ebfdaaf4031bec9a2b7b0a1c594d2d03f3d0b8d68531c9164c2829bac00fefa60405160405180910390a1505050565b6000600c60000154905090565b6114d4612d4b565b600c60040160007f000000000000000000000000000000000000000000000000000000000000000073ffffffffffffffffffffffffffffffffffffffff1673ffffffffffffffffffffffffffffffffffffffff16815260200190815260200160002060007f000000000000000000000000000000000000000000000000000000000000000073ffffffffffffffffffffffffffffffffffffffff1673ffffffffffffffffffffffffffffffffffffffff16815260200190815260200160002060050160008381526020019081526020016000206040518060c0016040529081600082015481526020016001820160009054906101000a900473ffffffffffffffffffffffffffffffffffffffff1673ffffffffffffffffffffffffffffffffffffffff1673ffffffffffffffffffffffffffffffffffffffff1681526020016002820154815260200160038201548152602001600482015481526020016005820160009054906101000a900460ff1615151515815250509050919050565b60036020528060005260406000206000915090505481565b60056020528060005260406000206000915090505481565b600b601c9054906101000a900463ffffffff1681565b600180546116a590613660565b80601f01602080910402602001604051908101604052809291908181526020018280546116d190613660565b801561171e5780601f106116f35761010080835404028352916020019161171e565b820191906000526020600020905b81548152906001019060200180831161170157829003601f168201915b505050505081565b600081600360003373ffffffffffffffffffffffffffffffffffffffff1673ffffffffffffffffffffffffffffffffffffffff16815260200190815260200160002060008282546117779190613837565b9250508190555081600360008573ffffffffffffffffffffffffffffffffffffffff1673ffffffffffffffffffffffffffffffffffffffff168152602001908152602001600020600082825401925050819055508273ffffffffffffffffffffffffffffffffffffffff163373ffffffffffffffffffffffffffffffffffffffff167fddf252ad1be2c89b69c2b068fc378daa952ba7f163c4a11628f55a4df523b3ef846040516118289190612fef565b60405180910390a36001905092915050565b600080831561188e577f000000000000000000000000000000000000000000000000000000000000000091507f000000000000000000000000000000000000000000000000000000000000000090506118d5565b7f000000000000000000000000000000000000000000000000000000000000000091507f000000000000000000000000000000000000000000000000000000000000000090505b6000600c60000154436118e8919061391e565b600c600001546118f89190613837565b43611903919061386b565b90506000600c60000154856119189190613739565b82611923919061386b565b90508373ffffffffffffffffffffffffffffffffffffffff166323b872dd33308a6040518463ffffffff1660e01b815260040161196293929190613691565b6020604051808303816000875af1158015611981573d6000803e3d6000fd5b505050506040513d601f19601f820116820180604052508101906119a591906136dd565b50600043826119b49190613837565b6103e8896119c29190613739565b6119cc91906137c2565b905060008103611a11576040517f08c379a0000000000000000000000000000000000000000000000000000000008152600401611a089061399b565b60405180910390fd5b60006103e882611a2191906137c2565b905060008103611a66576040517f08c379a0000000000000000000000000000000000000000000000000000000008152600401611a5d90613a07565b60405180910390fd5b611a74600c87878685612793565b7fe8a7141353ea049e2cceba16d76526b3331aeb1e8c90090af91e01812b91b4ec60405160405180910390a1505050505050505050565b60088054611ab890613660565b80601f0160208091040260200160405190810160405280929190818152602001828054611ae490613660565b8015611b315780601f10611b0657610100808354040283529160200191611b31565b820191906000526020600020905b815481529060010190602001808311611b1457829003601f168201915b505050505081565b600660009054906101000a900473ffffffffffffffffffffffffffffffffffffffff1681565b600a5481565b7f000000000000000000000000000000000000000000000000000000000000000081565b42841015611bcc576040517f08c379a0000000000000000000000000000000000000000000000000000000008152600401611bc390613a73565b60405180910390fd5b6000611bd6610eda565b7f6e71edae12b1b97f4d1f60370fef10105fa2faae0126114a169c64845d6126c9898989600560008e73ffffffffffffffffffffffffffffffffffffffff1673ffffffffffffffffffffffffffffffffffffffff1681526020019081526020016000206000815480929190600101919050558a604051602001611c5e96959493929190613a93565b60405160208183030381529060405280519060200120604051602001611c85929190613b6c565b604051602081830303815290604052805190602001209050600060018286868660405160008152602001604052604051611cc29493929190613ba3565b6020604051602081039080840390855afa158015611ce4573d6000803e3d6000fd5b505050602060405103519050600073ffffffffffffffffffffffffffffffffffffffff168173ffffffffffffffffffffffffffffffffffffffff1614158015611d5857508873ffffffffffffffffffffffffffffffffffffffff168173ffffffffffffffffffffffffffffffffffffffff16145b611d97576040517f08c379a0000000000000000000000000000000000000000000000000000000008152600401611d8e90613c34565b60405180910390fd5b86600460008373ffffffffffffffffffffffffffffffffffffffff1673ffffffffffffffffffffffffffffffffffffffff16815260200190815260200160002060008a73ffffffffffffffffffffffffffffffffffffffff1673ffffffffffffffffffffffffffffffffffffffff1681526020019081526020016000208190555050508573ffffffffffffffffffffffffffffffffffffffff168773ffffffffffffffffffffffffffffffffffffffff167f8c5be1e5ebec7d5bd14f71427d1e84f3dd0314c0f7b2291e5b200ac8c7c3b92587604051611e779190612fef565b60405180910390a350505050505050565b611e90612d4b565b600c60040160007f000000000000000000000000000000000000000000000000000000000000000073ffffffffffffffffffffffffffffffffffffffff1673ffffffffffffffffffffffffffffffffffffffff16815260200190815260200160002060007f000000000000000000000000000000000000000000000000000000000000000073ffffffffffffffffffffffffffffffffffffffff1673ffffffffffffffffffffffffffffffffffffffff16815260200190815260200160002060050160008381526020019081526020016000206040518060c0016040529081600082015481526020016001820160009054906101000a900473ffffffffffffffffffffffffffffffffffffffff1673ffffffffffffffffffffffffffffffffffffffff1673ffffffffffffffffffffffffffffffffffffffff1681526020016002820154815260200160038201548152602001600482015481526020016005820160009054906101000a900460ff1615151515815250509050919050565b6004602052816000526040600020602052806000526040600020600091509150505481565b6007805461204090613660565b80601f016020809104026020016040519081016040528092919081815260200182805461206c90613660565b80156120b95780601f1061208e576101008083540402835291602001916120b9565b820191906000526020600020905b81548152906001019060200180831161209c57829003601f168201915b505050505081565b6120ce600c848484612a97565b7f10217171ff978e29ba81284390d4a1c97d84c52ca9478b05f72ed22e85b601fe60405160405180910390a1505050565b60095481565b808460000181905550438460010181905550828460020160006101000a81548173ffffffffffffffffffffffffffffffffffffffff021916908373ffffffffffffffffffffffffffffffffffffffff160217905550818460030160006101000a81548173ffffffffffffffffffffffffffffffffffffffff021916908373ffffffffffffffffffffffffffffffffffffffff16021790555050505050565b6000806000600b60009054906101000a90046dffffffffffffffffffffffffffff166dffffffffffffffffffffffffffff1614801561220e57506000600b600e9054906101000a90046dffffffffffffffffffffffffffff166dffffffffffffffffffffffffffff16145b15612222578383809250819350505061232c565b6000600b60009054906101000a90046dffffffffffffffffffffffffffff166dffffffffffffffffffffffffffff16600b600e9054906101000a90046dffffffffffffffffffffffffffff166dffffffffffffffffffffffffffff16866122899190613739565b61229391906137c2565b90508381116122ab578481809350819450505061232a565b6000600b600e9054906101000a90046dffffffffffffffffffffffffffff166dffffffffffffffffffffffffffff16600b60009054906101000a90046dffffffffffffffffffffffffffff166dffffffffffffffffffffffffffff16866123129190613739565b61231c91906137c2565b905080858094508195505050505b505b9250929050565b6000600382111561239a578190506000600160028461235291906137c2565b61235c919061386b565b90505b8181101561239457809150600281828561237991906137c2565b612383919061386b565b61238d91906137c2565b905061235f565b506123a8565b600082146123a757600190505b5b919050565b60008183106123bc57816123be565b825b905092915050565b80600260008282546123d8919061386b565b9250508190555080600360008473ffffffffffffffffffffffffffffffffffffffff1673ffffffffffffffffffffffffffffffffffffffff168152602001908152602001600020600082825401925050819055508173ffffffffffffffffffffffffffffffffffffffff16600073ffffffffffffffffffffffffffffffffffffffff167fddf252ad1be2c89b69c2b068fc378daa952ba7f163c4a11628f55a4df523b3ef8360405161248a9190612fef565b60405180910390a35050565b60606000805b8360000154811015612535573373ffffffffffffffffffffffffffffffffffffffff1684600501600083815260200190815260200160002060010160009054906101000a900473ffffffffffffffffffffffffffffffffffffffff1673ffffffffffffffffffffffffffffffffffffffff160361252257818061251e90613c54565b9250505b808061252d90613c54565b91505061249c565b5060008167ffffffffffffffff81111561255257612551613c9c565b5b60405190808252806020026020018201604052801561258b57816020015b612578612d4b565b8152602001906001900390816125705790505b50925060005b84600001548110156126ff573373ffffffffffffffffffffffffffffffffffffffff1685600501600083815260200190815260200160002060010160009054906101000a900473ffffffffffffffffffffffffffffffffffffffff1673ffffffffffffffffffffffffffffffffffffffff16036126ec578460050160008281526020019081526020016000206040518060c0016040529081600082015481526020016001820160009054906101000a900473ffffffffffffffffffffffffffffffffffffffff1673ffffffffffffffffffffffffffffffffffffffff1673ffffffffffffffffffffffffffffffffffffffff1681526020016002820154815260200160038201548152602001600482015481526020016005820160009054906101000a900460ff1615151515815250508483806126cd90613c54565b9450815181106126e0576126df613ccb565b5b60200260200101819052505b80806126f790613c54565b915050612591565b505050919050565b60007f8b73c3c69bb8fe3d512ecc4cf759cc79239f7b179b0ffacaa9a75d522b39400f60006040516127399190613d99565b60405180910390207fc89efdaa54c0f20c7adf612882df0950f5a951637e0307cdcb4c672f298b8bc64630604051602001612778959493929190613db0565b60405160208183030381529060405280519060200120905090565b60008560040160008673ffffffffffffffffffffffffffffffffffffffff1673ffffffffffffffffffffffffffffffffffffffff16815260200190815260200160002060008573ffffffffffffffffffffffffffffffffffffffff1673ffffffffffffffffffffffffffffffffffffffff1681526020019081526020016000209050824310612857576040517f08c379a000000000000000000000000000000000000000000000000000000000815260040161284e90613e4f565b60405180910390fd5b6000820361289a576040517f08c379a000000000000000000000000000000000000000000000000000000000815260040161289190613ebb565b60405180910390fd5b60008660000154846128ac919061391e565b146128ec576040517f08c379a00000000000000000000000000000000000000000000000000000000081526004016128e390613f27565b60405180910390fd5b81816003016000828254612900919061386b565b925050819055506040518060c00160405280826000015481526020013373ffffffffffffffffffffffffffffffffffffffff16815260200143815260200184815260200183815260200160001515815250816005016000836000015481526020019081526020016000206000820151816000015560208201518160010160006101000a81548173ffffffffffffffffffffffffffffffffffffffff021916908373ffffffffffffffffffffffffffffffffffffffff16021790555060408201518160020155606082015181600301556080820151816004015560a08201518160050160006101000a81548160ff021916908315150217905550905050818160060160008581526020019081526020016000206000828254612a21919061386b565b92505081905550806000016000815480929190612a3d90613c54565b91905055507f2c3ffcf5ffd176911ddab8c33354b6b2e2b76c269b75c59f7e307470f7ead6d160018260000154612a749190613837565b868633604051612a879493929190613f47565b60405180910390a1505050505050565b60008460040160008473ffffffffffffffffffffffffffffffffffffffff1673ffffffffffffffffffffffffffffffffffffffff16815260200190815260200160002060008373ffffffffffffffffffffffffffffffffffffffff1673ffffffffffffffffffffffffffffffffffffffff16815260200190815260200160002090506000816000015403612b60576040517f08c379a0000000000000000000000000000000000000000000000000000000008152600401612b5790613fd8565b60405180910390fd5b600081600501600086815260200190815260200160002090506000816000015403612bc0576040517f08c379a0000000000000000000000000000000000000000000000000000000008152600401612bb790614044565b60405180910390fd5b43816003015411612c06576040517f08c379a0000000000000000000000000000000000000000000000000000000008152600401612bfd906140d6565b60405180910390fd5b3373ffffffffffffffffffffffffffffffffffffffff168160010160009054906101000a900473ffffffffffffffffffffffffffffffffffffffff1673ffffffffffffffffffffffffffffffffffffffff1614612c98576040517f08c379a0000000000000000000000000000000000000000000000000000000008152600401612c8f90614142565b60405180910390fd5b8060040154826003016000828254612cb09190613837565b925050819055508060040154826006016000836003015481526020019081526020016000206000828254612ce49190613837565b9250508190555060008160050160006101000a81548160ff0219169083151502179055507fae535bd34d0187c0a1db1e231130e8b8ba2c8c7b6612b6f39e16c010bf5498d0858585604051612d3b93929190614162565b60405180910390a1505050505050565b6040518060c0016040528060008152602001600073ffffffffffffffffffffffffffffffffffffffff1681526020016000815260200160008152602001600081526020016000151581525090565b600081519050919050565b600082825260208201905092915050565b60005b83811015612dd3578082015181840152602081019050612db8565b83811115612de2576000848401525b50505050565b6000601f19601f8301169050919050565b6000612e0482612d99565b612e0e8185612da4565b9350612e1e818560208601612db5565b612e2781612de8565b840191505092915050565b60006020820190508181036000830152612e4c8184612df9565b905092915050565b600080fd5b600073ffffffffffffffffffffffffffffffffffffffff82169050919050565b6000612e8482612e59565b9050919050565b612e9481612e79565b8114612e9f57600080fd5b50565b600081359050612eb181612e8b565b92915050565b6000819050919050565b612eca81612eb7565b8114612ed557600080fd5b50565b600081359050612ee781612ec1565b92915050565b60008060408385031215612f0457612f03612e54565b5b6000612f1285828601612ea2565b9250506020612f2385828601612ed8565b9150509250929050565b60008115159050919050565b612f4281612f2d565b82525050565b6000602082019050612f5d6000830184612f39565b92915050565b612f6c81612e79565b82525050565b6000602082019050612f876000830184612f63565b92915050565b600080600060608486031215612fa657612fa5612e54565b5b6000612fb486828701612ea2565b9350506020612fc586828701612ed8565b9250506040612fd686828701612ed8565b9150509250925092565b612fe981612eb7565b82525050565b60006020820190506130046000830184612fe0565b92915050565b60008060006060848603121561302357613022612e54565b5b600061303186828701612ea2565b935050602061304286828701612ea2565b925050604061305386828701612ed8565b9150509250925092565b600081519050919050565b600082825260208201905092915050565b6000819050602082019050919050565b61309281612eb7565b82525050565b6130a181612e79565b82525050565b6130b081612f2d565b82525050565b60c0820160008201516130cc6000850182613089565b5060208201516130df6020850182613098565b5060408201516130f26040850182613089565b5060608201516131056060850182613089565b5060808201516131186080850182613089565b5060a082015161312b60a08501826130a7565b50505050565b600061313d83836130b6565b60c08301905092915050565b6000602082019050919050565b60006131618261305d565b61316b8185613068565b935061317683613079565b8060005b838110156131a757815161318e8882613131565b975061319983613149565b92505060018101905061317a565b5085935050505092915050565b600060408201905081810360008301526131ce8185613156565b905081810360208301526131e28184613156565b90509392505050565b6000819050919050565b6131fe816131eb565b82525050565b600060208201905061321960008301846131f5565b92915050565b600060ff82169050919050565b6132358161321f565b82525050565b6000602082019050613250600083018461322c565b92915050565b60006dffffffffffffffffffffffffffff82169050919050565b61327981613256565b82525050565b60006040820190506132946000830185613270565b6132a16020830184613270565b9392505050565b6132b181612f2d565b81146132bc57600080fd5b50565b6000813590506132ce816132a8565b92915050565b6000806000606084860312156132ed576132ec612e54565b5b60006132fb86828701612ed8565b935050602061330c868287016132bf565b925050604061331d86828701612ea2565b9150509250925092565b60006020828403121561333d5761333c612e54565b5b600061334b84828501612ed8565b91505092915050565b60c08201600082015161336a6000850182613089565b50602082015161337d6020850182613098565b5060408201516133906040850182613089565b5060608201516133a36060850182613089565b5060808201516133b66080850182613089565b5060a08201516133c960a08501826130a7565b50505050565b600060c0820190506133e46000830184613354565b92915050565b600060208284031215613400576133ff612e54565b5b600061340e84828501612ea2565b91505092915050565b600063ffffffff82169050919050565b61343081613417565b82525050565b600060208201905061344b6000830184613427565b92915050565b60008060006060848603121561346a57613469612e54565b5b600061347886828701612ed8565b9350506020613489868287016132bf565b925050604061349a86828701612ed8565b9150509250925092565b6134ad8161321f565b81146134b857600080fd5b50565b6000813590506134ca816134a4565b92915050565b6134d9816131eb565b81146134e457600080fd5b50565b6000813590506134f6816134d0565b92915050565b600080600080600080600060e0888a03121561351b5761351a612e54565b5b60006135298a828b01612ea2565b975050602061353a8a828b01612ea2565b965050604061354b8a828b01612ed8565b955050606061355c8a828b01612ed8565b945050608061356d8a828b016134bb565b93505060a061357e8a828b016134e7565b92505060c061358f8a828b016134e7565b91505092959891949750929550565b600080604083850312156135b5576135b4612e54565b5b60006135c385828601612ea2565b92505060206135d485828601612ea2565b9150509250929050565b6000806000606084860312156135f7576135f6612e54565b5b600061360586828701612ed8565b935050602061361686828701612ea2565b925050604061362786828701612ea2565b9150509250925092565b7f4e487b7100000000000000000000000000000000000000000000000000000000600052602260045260246000fd5b6000600282049050600182168061367857607f821691505b60208210810361368b5761368a613631565b5b50919050565b60006060820190506136a66000830186612f63565b6136b36020830185612f63565b6136c06040830184612fe0565b949350505050565b6000815190506136d7816132a8565b92915050565b6000602082840312156136f3576136f2612e54565b5b6000613701848285016136c8565b91505092915050565b7f4e487b7100000000000000000000000000000000000000000000000000000000600052601160045260246000fd5b600061374482612eb7565b915061374f83612eb7565b9250817fffffffffffffffffffffffffffffffffffffffffffffffffffffffffffffffff04831182151516156137885761378761370a565b5b828202905092915050565b7f4e487b7100000000000000000000000000000000000000000000000000000000600052601260045260246000fd5b60006137cd82612eb7565b91506137d883612eb7565b9250826137e8576137e7613793565b5b828204905092915050565b60006137fe82613256565b915061380983613256565b9250826dffffffffffffffffffffffffffff0382111561382c5761382b61370a565b5b828201905092915050565b600061384282612eb7565b915061384d83612eb7565b9250828210156138605761385f61370a565b5b828203905092915050565b600061387682612eb7565b915061388183612eb7565b9250827fffffffffffffffffffffffffffffffffffffffffffffffffffffffffffffffff038211156138b6576138b561370a565b5b828201905092915050565b60006040820190506138d66000830185612f63565b6138e36020830184612fe0565b9392505050565b60006138f582613256565b915061390083613256565b9250828210156139135761391261370a565b5b828203905092915050565b600061392982612eb7565b915061393483612eb7565b92508261394457613943613793565b5b828206905092915050565b7f5748414c45535741503a20616d6f756e74496e7831303030206973207a65726f600082015250565b6000613985602083612da4565b91506139908261394f565b602082019050919050565b600060208201905081810360008301526139b481613978565b9050919050565b7f5748414c45535741503a20626c6f636b7372206973207a65726f000000000000600082015250565b60006139f1601a83612da4565b91506139fc826139bb565b602082019050919050565b60006020820190508181036000830152613a20816139e4565b9050919050565b7f5045524d49545f444541444c494e455f45585049524544000000000000000000600082015250565b6000613a5d601783612da4565b9150613a6882613a27565b602082019050919050565b60006020820190508181036000830152613a8c81613a50565b9050919050565b600060c082019050613aa860008301896131f5565b613ab56020830188612f63565b613ac26040830187612f63565b613acf6060830186612fe0565b613adc6080830185612fe0565b613ae960a0830184612fe0565b979650505050505050565b600081905092915050565b7f1901000000000000000000000000000000000000000000000000000000000000600082015250565b6000613b35600283613af4565b9150613b4082613aff565b600282019050919050565b6000819050919050565b613b66613b61826131eb565b613b4b565b82525050565b6000613b7782613b28565b9150613b838285613b55565b602082019150613b938284613b55565b6020820191508190509392505050565b6000608082019050613bb860008301876131f5565b613bc5602083018661322c565b613bd260408301856131f5565b613bdf60608301846131f5565b95945050505050565b7f494e56414c49445f5349474e4552000000000000000000000000000000000000600082015250565b6000613c1e600e83612da4565b9150613c2982613be8565b602082019050919050565b60006020820190508181036000830152613c4d81613c11565b9050919050565b6000613c5f82612eb7565b91507fffffffffffffffffffffffffffffffffffffffffffffffffffffffffffffffff8203613c9157613c9061370a565b5b600182019050919050565b7f4e487b7100000000000000000000000000000000000000000000000000000000600052604160045260246000fd5b7f4e487b7100000000000000000000000000000000000000000000000000000000600052603260045260246000fd5b600081905092915050565b60008190508160005260206000209050919050565b60008154613d2781613660565b613d318186613cfa565b94506001821660008114613d4c5760018114613d5d57613d90565b60ff19831686528186019350613d90565b613d6685613d05565b60005b83811015613d8857815481890152600182019150602081019050613d69565b838801955050505b50505092915050565b6000613da58284613d1a565b915081905092915050565b600060a082019050613dc560008301886131f5565b613dd260208301876131f5565b613ddf60408301866131f5565b613dec6060830185612fe0565b613df96080830184612f63565b9695505050505050565b7f5748414c45535741503a207374617274202f20656e64206f7264657200000000600082015250565b6000613e39601c83612da4565b9150613e4482613e03565b602082019050919050565b60006020820190508181036000830152613e6881613e2c565b9050919050565b7f5748414c45535741503a207a65726f2073616c65732072617465000000000000600082015250565b6000613ea5601a83612da4565b9150613eb082613e6f565b602082019050919050565b60006020820190508181036000830152613ed481613e98565b9050919050565b7f5748414c45535741503a20696e76616c696420656e64696e6720626c6f636b00600082015250565b6000613f11601f83612da4565b9150613f1c82613edb565b602082019050919050565b60006020820190508181036000830152613f4081613f04565b9050919050565b6000608082019050613f5c6000830187612fe0565b613f696020830186612f63565b613f766040830185612f63565b613f836060830184612f63565b95945050505050565b7f5748414c45535741503a20696e76616c696420746f6b656e2070616972000000600082015250565b6000613fc2601d83612da4565b9150613fcd82613f8c565b602082019050919050565b60006020820190508181036000830152613ff181613fb5565b9050919050565b7f5748414c45535741503a20696e76616c6964206f726465720000000000000000600082015250565b600061402e601883612da4565b915061403982613ff8565b602082019050919050565b6000602082019050818103600083015261405d81614021565b9050919050565b7f5748414c45535741503a206f7264657220616c72656164792066696e6973686560008201527f6400000000000000000000000000000000000000000000000000000000000000602082015250565b60006140c0602183612da4565b91506140cb82614064565b604082019050919050565b600060208201905081810360008301526140ef816140b3565b9050919050565b7f5748414c45535741503a207065726d697373696f6e2064656e69656400000000600082015250565b600061412c601c83612da4565b9150614137826140f6565b602082019050919050565b6000602082019050818103600083015261415b8161411f565b9050919050565b60006060820190506141776000830186612fe0565b6141846020830185612f63565b6141916040830184612f63565b94935050505056fea2646970667358221220dc7f45c46c2f862c1fb777d3f19c2bfd25e3bb7955b076230fabec56f194ff3f64736f6c634300080d0033a2646970667358221220c0053ec8ffb6e8fa87034b42bc362c94a834da43c1e2fe951d920b45d162206e64736f6c634300080d0033",
  "immutableReferences": {},
  "source": "pragma solidity >=0.8.0;\n\nimport \"./Pair.sol\";\n\ncontract Factory {\n    mapping(address => mapping(address => address)) public getPair;\n    address[] public allPairs;\n\n    event PairDeployed(\n        address indexed token0,\n        address indexed token1,\n        address pair\n    );\n\n    function getAllPairs() public view returns (address[] memory) {\n        return allPairs;\n    }\n\n    function createPair(\n        address _token0,\n        address _token1,\n        string memory _token0Name,\n        string memory _token1Name,\n        uint256 _twammIntervalSize\n    ) external returns (address pair) {\n        // requirements\n        require(_token0 != _token1, \"WHALESWAP: Tokens cannot be the same\");\n        require(\n            getPair[_token0][_token1] == address(0x0),\n            \"WHALESWAP: Pair already exists\"\n        );\n\n        // instantiate new pool\n        pair = address(\n            new Pair(\n                _token0,\n                _token1,\n                _token0Name,\n                _token1Name,\n                _twammIntervalSize\n            )\n        );\n\n        // record new pair address\n        getPair[_token0][_token1] = pair;\n        getPair[_token1][_token0] = pair;\n\n        allPairs.push(pair);\n\n        emit PairDeployed(_token0, _token1, pair);\n    }\n}\n",
  "sourcePath": "/Users/kitwiggin/senior_design/WhaleSwapMVP/contracts/Factory.sol",
  "compiler": {
    "name": "solc",
    "version": "0.8.13+commit.abaa5c0e.Emscripten.clang"
  },
  "schemaVersion": "3.4.3",
  "updatedAt": "2022-04-07T14:12:22.805Z",
  "networkType": "ethereum",
  "devdoc": {
    "kind": "dev",
    "methods": {},
    "version": 1
  },
  "userdoc": {
    "kind": "user",
    "methods": {},
    "version": 1
  }
}