{
  "contractName": "Factory",
  "abi": [
    {
      "anonymous": false,
      "inputs": [
        {
          "indexed": true,
          "internalType": "address",
          "name": "token0",
          "type": "address"
        },
        {
          "indexed": true,
          "internalType": "address",
          "name": "token1",
          "type": "address"
        },
        {
          "indexed": false,
          "internalType": "address",
          "name": "pair",
          "type": "address"
        }
      ],
      "name": "PairDeployed",
      "type": "event"
    },
    {
      "inputs": [
        {
          "internalType": "uint256",
          "name": "",
          "type": "uint256"
        }
      ],
      "name": "allPairs",
      "outputs": [
        {
          "internalType": "address",
          "name": "",
          "type": "address"
        }
      ],
      "stateMutability": "view",
      "type": "function",
      "constant": true
    },
    {
      "inputs": [
        {
          "internalType": "address",
          "name": "",
          "type": "address"
        },
        {
          "internalType": "address",
          "name": "",
          "type": "address"
        }
      ],
      "name": "getPair",
      "outputs": [
        {
          "internalType": "address",
          "name": "",
          "type": "address"
        }
      ],
      "stateMutability": "view",
      "type": "function",
      "constant": true
    },
    {
      "inputs": [],
      "name": "allPairsLength",
      "outputs": [
        {
          "internalType": "uint256",
          "name": "",
          "type": "uint256"
        }
      ],
      "stateMutability": "view",
      "type": "function",
      "constant": true
    },
    {
      "inputs": [],
      "name": "getAllPairs",
      "outputs": [
        {
          "internalType": "address[]",
          "name": "",
          "type": "address[]"
        }
      ],
      "stateMutability": "view",
      "type": "function",
      "constant": true
    },
    {
      "inputs": [
        {
          "internalType": "address",
          "name": "token0",
          "type": "address"
        },
        {
          "internalType": "address",
          "name": "token1",
          "type": "address"
        }
      ],
      "name": "createPair",
      "outputs": [
        {
          "internalType": "address",
          "name": "pair",
          "type": "address"
        }
      ],
      "stateMutability": "nonpayable",
      "type": "function"
    }
  ],
  "bytecode": "0x608060405234801561001057600080fd5b50613dc8806100206000396000f3fe60806040523480156200001157600080fd5b50600436106200005e5760003560e01c80631e3dd18b1462000063578063574f2ba31462000099578063c9c6539614620000bb578063e6a4390514620000f1578063f800ece91462000127575b600080fd5b6200008160048036038101906200007b9190620005ab565b62000149565b60405162000090919062000622565b60405180910390f35b620000a362000189565b604051620000b2919062000650565b60405180910390f35b620000d96004803603810190620000d391906200069e565b62000196565b604051620000e8919062000622565b60405180910390f35b6200010f60048036038101906200010991906200069e565b6200048b565b6040516200011e919062000622565b60405180910390f35b62000131620004cd565b604051620001409190620007b3565b60405180910390f35b600181815481106200015a57600080fd5b906000526020600020016000915054906101000a900473ffffffffffffffffffffffffffffffffffffffff1681565b6000600180549050905090565b60008173ffffffffffffffffffffffffffffffffffffffff168373ffffffffffffffffffffffffffffffffffffffff1614156200020a576040517f08c379a0000000000000000000000000000000000000000000000000000000008152600401620002019062000838565b60405180910390fd5b82826040516200021a906200055d565b620002279291906200085a565b604051809103906000f08015801562000244573d6000803e3d6000fd5b509050806000808573ffffffffffffffffffffffffffffffffffffffff1673ffffffffffffffffffffffffffffffffffffffff16815260200190815260200160002060008473ffffffffffffffffffffffffffffffffffffffff1673ffffffffffffffffffffffffffffffffffffffff16815260200190815260200160002060006101000a81548173ffffffffffffffffffffffffffffffffffffffff021916908373ffffffffffffffffffffffffffffffffffffffff160217905550806000808473ffffffffffffffffffffffffffffffffffffffff1673ffffffffffffffffffffffffffffffffffffffff16815260200190815260200160002060008573ffffffffffffffffffffffffffffffffffffffff1673ffffffffffffffffffffffffffffffffffffffff16815260200190815260200160002060006101000a81548173ffffffffffffffffffffffffffffffffffffffff021916908373ffffffffffffffffffffffffffffffffffffffff1602179055506001819080600181540180825580915050600190039060005260206000200160009091909190916101000a81548173ffffffffffffffffffffffffffffffffffffffff021916908373ffffffffffffffffffffffffffffffffffffffff1602179055508173ffffffffffffffffffffffffffffffffffffffff168373ffffffffffffffffffffffffffffffffffffffff167fc9a56d223b13a4cca4293cbedee4e06153ffbd03159c0282b9a2ca3ff6d17880836040516200047d919062000622565b60405180910390a392915050565b60006020528160005260406000206020528060005260406000206000915091509054906101000a900473ffffffffffffffffffffffffffffffffffffffff1681565b606060018054806020026020016040519081016040528092919081815260200182805480156200055357602002820191906000526020600020905b8160009054906101000a900473ffffffffffffffffffffffffffffffffffffffff1673ffffffffffffffffffffffffffffffffffffffff168152602001906001019080831162000508575b5050505050905090565b61350b806200088883390190565b600080fd5b6000819050919050565b620005858162000570565b81146200059157600080fd5b50565b600081359050620005a5816200057a565b92915050565b600060208284031215620005c457620005c36200056b565b5b6000620005d48482850162000594565b91505092915050565b600073ffffffffffffffffffffffffffffffffffffffff82169050919050565b60006200060a82620005dd565b9050919050565b6200061c81620005fd565b82525050565b600060208201905062000639600083018462000611565b92915050565b6200064a8162000570565b82525050565b60006020820190506200066760008301846200063f565b92915050565b6200067881620005fd565b81146200068457600080fd5b50565b60008135905062000698816200066d565b92915050565b60008060408385031215620006b857620006b76200056b565b5b6000620006c88582860162000687565b9250506020620006db8582860162000687565b9150509250929050565b600081519050919050565b600082825260208201905092915050565b6000819050602082019050919050565b6200071c81620005fd565b82525050565b600062000730838362000711565b60208301905092915050565b6000602082019050919050565b60006200075682620006e5565b620007628185620006f0565b93506200076f8362000701565b8060005b83811015620007a65781516200078a888262000722565b975062000797836200073c565b92505060018101905062000773565b5085935050505092915050565b60006020820190508181036000830152620007cf818462000749565b905092915050565b600082825260208201905092915050565b7f546f6b656e732063616e6e6f74206265207468652073616d652e000000000000600082015250565b600062000820601a83620007d7565b91506200082d82620007e8565b602082019050919050565b60006020820190508181036000830152620008538162000811565b9050919050565b600060408201905062000871600083018562000611565b62000880602083018462000611565b939250505056fe60e06040523480156200001157600080fd5b506040516200350b3803806200350b83398181016040528101906200003791906200037c565b6040518060400160405280600681526020017f6c5768616c6500000000000000000000000000000000000000000000000000008152506040518060400160405280600481526020017f6c57484c0000000000000000000000000000000000000000000000000000000081525060128260009080519060200190620000bd92919062000262565b508160019080519060200190620000d692919062000262565b508060ff1660808160ff16815250504660a08181525050620000fd620001d260201b60201c565b60c0818152505050505033600660006101000a81548173ffffffffffffffffffffffffffffffffffffffff021916908373ffffffffffffffffffffffffffffffffffffffff16021790555081600760006101000a81548173ffffffffffffffffffffffffffffffffffffffff021916908373ffffffffffffffffffffffffffffffffffffffff16021790555080600860006101000a81548173ffffffffffffffffffffffffffffffffffffffff021916908373ffffffffffffffffffffffffffffffffffffffff160217905550505062000590565b60007f8b73c3c69bb8fe3d512ecc4cf759cc79239f7b179b0ffacaa9a75d522b39400f6000604051620002069190620004d3565b60405180910390207fc89efdaa54c0f20c7adf612882df0950f5a951637e0307cdcb4c672f298b8bc646306040516020016200024795949392919062000533565b60405160208183030381529060405280519060200120905090565b8280546200027090620003f2565b90600052602060002090601f016020900481019282620002945760008555620002e0565b82601f10620002af57805160ff1916838001178555620002e0565b82800160010185558215620002e0579182015b82811115620002df578251825591602001919060010190620002c2565b5b509050620002ef9190620002f3565b5090565b5b808211156200030e576000816000905550600101620002f4565b5090565b600080fd5b600073ffffffffffffffffffffffffffffffffffffffff82169050919050565b6000620003448262000317565b9050919050565b620003568162000337565b81146200036257600080fd5b50565b60008151905062000376816200034b565b92915050565b6000806040838503121562000396576200039562000312565b5b6000620003a68582860162000365565b9250506020620003b98582860162000365565b9150509250929050565b7f4e487b7100000000000000000000000000000000000000000000000000000000600052602260045260246000fd5b600060028204905060018216806200040b57607f821691505b60208210811415620004225762000421620003c3565b5b50919050565b600081905092915050565b60008190508160005260206000209050919050565b600081546200045781620003f2565b62000463818662000428565b945060018216600081146200048157600181146200049357620004ca565b60ff19831686528186019350620004ca565b6200049e8562000433565b60005b83811015620004c257815481890152600182019150602081019050620004a1565b838801955050505b50505092915050565b6000620004e1828462000448565b915081905092915050565b6000819050919050565b6200050181620004ec565b82525050565b6000819050919050565b6200051c8162000507565b82525050565b6200052d8162000337565b82525050565b600060a0820190506200054a6000830188620004f6565b620005596020830187620004f6565b620005686040830186620004f6565b62000577606083018562000511565b62000586608083018462000522565b9695505050505050565b60805160a05160c051612f4b620005c06000396000610908015260006108d4015260006108ae0152612f4b6000f3fe608060405234801561001057600080fd5b506004361061014d5760003560e01c806370a08231116100c3578063c45a01551161007c578063c45a0155146103ce578063cc5864ee146103ec578063d21220a71461040a578063d505accf14610428578063dd62ed3e14610444578063f9063ba1146104745761014d565b806370a08231146102d15780637ecebe001461030157806385e63fc61461033157806389afcb441461034f57806395d89b4114610380578063a9059cbb1461039e5761014d565b806330adf81f1161011557806330adf81f1461020c578063313ce5671461022a5780633644e515146102485780633d370b4e146102665780636a627842146102855780636d9a640a146102b55761014d565b806306fdde0314610152578063095ea7b3146101705780630dfe1681146101a057806318160ddd146101be57806323b872dd146101dc575b600080fd5b61015a610492565b604051610167919061223d565b60405180910390f35b61018a600480360381019061018591906122f8565b610520565b6040516101979190612353565b60405180910390f35b6101a8610612565b6040516101b5919061237d565b60405180910390f35b6101c6610638565b6040516101d391906123a7565b60405180910390f35b6101f660048036038101906101f191906123c2565b61063e565b6040516102039190612353565b60405180910390f35b610214610888565b604051610221919061242e565b60405180910390f35b6102326108ac565b60405161023f9190612465565b60405180910390f35b6102506108d0565b60405161025d919061242e565b60405180910390f35b61026e61092d565b60405161027c9291906124a9565b60405180910390f35b61029f600480360381019061029a91906124d2565b610972565b6040516102ac91906123a7565b60405180910390f35b6102cf60048036038101906102ca91906124ff565b610c60565b005b6102eb60048036038101906102e691906124d2565b6111ae565b6040516102f891906123a7565b60405180910390f35b61031b600480360381019061031691906124d2565b6111c6565b60405161032891906123a7565b60405180910390f35b6103396111de565b6040516103469190612571565b60405180910390f35b610369600480360381019061036491906124d2565b6111f4565b60405161037792919061258c565b60405180910390f35b610388611693565b604051610395919061223d565b60405180910390f35b6103b860048036038101906103b391906122f8565b611721565b6040516103c59190612353565b60405180910390f35b6103d6611835565b6040516103e3919061237d565b60405180910390f35b6103f461185b565b60405161040191906123a7565b60405180910390f35b610412611861565b60405161041f919061237d565b60405180910390f35b610442600480360381019061043d919061260d565b611887565b005b61045e600480360381019061045991906126af565b611b86565b60405161046b91906123a7565b60405180910390f35b61047c611bab565b60405161048991906123a7565b60405180910390f35b6000805461049f9061271e565b80601f01602080910402602001604051908101604052809291908181526020018280546104cb9061271e565b80156105185780601f106104ed57610100808354040283529160200191610518565b820191906000526020600020905b8154815290600101906020018083116104fb57829003601f168201915b505050505081565b600081600460003373ffffffffffffffffffffffffffffffffffffffff1673ffffffffffffffffffffffffffffffffffffffff16815260200190815260200160002060008573ffffffffffffffffffffffffffffffffffffffff1673ffffffffffffffffffffffffffffffffffffffff168152602001908152602001600020819055508273ffffffffffffffffffffffffffffffffffffffff163373ffffffffffffffffffffffffffffffffffffffff167f8c5be1e5ebec7d5bd14f71427d1e84f3dd0314c0f7b2291e5b200ac8c7c3b9258460405161060091906123a7565b60405180910390a36001905092915050565b600760009054906101000a900473ffffffffffffffffffffffffffffffffffffffff1681565b60025481565b600080600460008673ffffffffffffffffffffffffffffffffffffffff1673ffffffffffffffffffffffffffffffffffffffff16815260200190815260200160002060003373ffffffffffffffffffffffffffffffffffffffff1673ffffffffffffffffffffffffffffffffffffffff1681526020019081526020016000205490507fffffffffffffffffffffffffffffffffffffffffffffffffffffffffffffffff81146107745782816106f3919061277f565b600460008773ffffffffffffffffffffffffffffffffffffffff1673ffffffffffffffffffffffffffffffffffffffff16815260200190815260200160002060003373ffffffffffffffffffffffffffffffffffffffff1673ffffffffffffffffffffffffffffffffffffffff168152602001908152602001600020819055505b82600360008773ffffffffffffffffffffffffffffffffffffffff1673ffffffffffffffffffffffffffffffffffffffff16815260200190815260200160002060008282546107c3919061277f565b9250508190555082600360008673ffffffffffffffffffffffffffffffffffffffff1673ffffffffffffffffffffffffffffffffffffffff168152602001908152602001600020600082825401925050819055508373ffffffffffffffffffffffffffffffffffffffff168573ffffffffffffffffffffffffffffffffffffffff167fddf252ad1be2c89b69c2b068fc378daa952ba7f163c4a11628f55a4df523b3ef8560405161087491906123a7565b60405180910390a360019150509392505050565b7f6e71edae12b1b97f4d1f60370fef10105fa2faae0126114a169c64845d6126c981565b7f000000000000000000000000000000000000000000000000000000000000000081565b60007f0000000000000000000000000000000000000000000000000000000000000000461461090657610901611bb1565b610928565b7f00000000000000000000000000000000000000000000000000000000000000005b905090565b600080600960009054906101000a90046dffffffffffffffffffffffffffff1691506009600e9054906101000a90046dffffffffffffffffffffffffffff1690509091565b600080600760009054906101000a900473ffffffffffffffffffffffffffffffffffffffff1673ffffffffffffffffffffffffffffffffffffffff166370a08231306040518263ffffffff1660e01b81526004016109d0919061237d565b602060405180830381865afa1580156109ed573d6000803e3d6000fd5b505050506040513d601f19601f82011682018060405250810190610a1191906127c8565b90506000600860009054906101000a900473ffffffffffffffffffffffffffffffffffffffff1673ffffffffffffffffffffffffffffffffffffffff166370a08231306040518263ffffffff1660e01b8152600401610a70919061237d565b602060405180830381865afa158015610a8d573d6000803e3d6000fd5b505050506040513d601f19601f82011682018060405250810190610ab191906127c8565b90506000610af4600960009054906101000a90046dffffffffffffffffffffffffffff166dffffffffffffffffffffffffffff1684611c3d90919063ffffffff16565b90506000610b376009600e9054906101000a90046dffffffffffffffffffffffffffff166dffffffffffffffffffffffffffff1684611c3d90919063ffffffff16565b905060006002541415610b6657610b5f610b5a8284611c9690919063ffffffff16565b611d03565b9450610c09565b610c06600960009054906101000a90046dffffffffffffffffffffffffffff166dffffffffffffffffffffffffffff16610bab60025485611c9690919063ffffffff16565b610bb59190612824565b6009600e9054906101000a90046dffffffffffffffffffffffffffff166dffffffffffffffffffffffffffff16610bf760025485611c9690919063ffffffff16565b610c019190612824565b611d7d565b94505b610c138686611d96565b610c578484600960009054906101000a90046dffffffffffffffffffffffffffff166009600e9054906101000a90046dffffffffffffffffffffffffffff16611e66565b50505050919050565b6000806000851115610d0e57600760009054906101000a900473ffffffffffffffffffffffffffffffffffffffff1673ffffffffffffffffffffffffffffffffffffffff1663a9059cbb84876040518363ffffffff1660e01b8152600401610cc9929190612855565b6020604051808303816000875af1158015610ce8573d6000803e3d6000fd5b505050506040513d601f19601f82011682018060405250810190610d0c91906128aa565b505b6000841115610db957600860009054906101000a900473ffffffffffffffffffffffffffffffffffffffff1673ffffffffffffffffffffffffffffffffffffffff1663a9059cbb84866040518363ffffffff1660e01b8152600401610d74929190612855565b6020604051808303816000875af1158015610d93573d6000803e3d6000fd5b505050506040513d601f19601f82011682018060405250810190610db791906128aa565b505b600760009054906101000a900473ffffffffffffffffffffffffffffffffffffffff1673ffffffffffffffffffffffffffffffffffffffff166370a08231306040518263ffffffff1660e01b8152600401610e14919061237d565b602060405180830381865afa158015610e31573d6000803e3d6000fd5b505050506040513d601f19601f82011682018060405250810190610e5591906127c8565b9150600860009054906101000a900473ffffffffffffffffffffffffffffffffffffffff1673ffffffffffffffffffffffffffffffffffffffff166370a08231306040518263ffffffff1660e01b8152600401610eb2919061237d565b602060405180830381865afa158015610ecf573d6000803e3d6000fd5b505050506040513d601f19601f82011682018060405250810190610ef391906127c8565b9050600085600960009054906101000a90046dffffffffffffffffffffffffffff166dffffffffffffffffffffffffffff16610f2f919061277f565b8311610f3c576000610f80565b85600960009054906101000a90046dffffffffffffffffffffffffffff166dffffffffffffffffffffffffffff16610f74919061277f565b83610f7f919061277f565b5b90506000856009600e9054906101000a90046dffffffffffffffffffffffffffff166dffffffffffffffffffffffffffff16610fbc919061277f565b8311610fc957600061100d565b856009600e9054906101000a90046dffffffffffffffffffffffffffff166dffffffffffffffffffffffffffff16611001919061277f565b8361100c919061277f565b5b9050600061104b611028600385611c9690919063ffffffff16565b61103d6103e888611c9690919063ffffffff16565b611c3d90919063ffffffff16565b90506000611089611066600385611c9690919063ffffffff16565b61107b6103e888611c9690919063ffffffff16565b611c3d90919063ffffffff16565b905061110b620f42406110fd6009600e9054906101000a90046dffffffffffffffffffffffffffff166dffffffffffffffffffffffffffff16600960009054906101000a90046dffffffffffffffffffffffffffff166dffffffffffffffffffffffffffff16611c9690919063ffffffff16565b611c9690919063ffffffff16565b61111e8284611c9690919063ffffffff16565b101561115f576040517f08c379a000000000000000000000000000000000000000000000000000000000815260040161115690612923565b60405180910390fd5b6111a38686600960009054906101000a90046dffffffffffffffffffffffffffff166009600e9054906101000a90046dffffffffffffffffffffffffffff16611e66565b505050505050505050565b60036020528060005260406000206000915090505481565b60056020528060005260406000206000915090505481565b600d60009054906101000a900463ffffffff1681565b6000806000600760009054906101000a900473ffffffffffffffffffffffffffffffffffffffff1673ffffffffffffffffffffffffffffffffffffffff166370a08231306040518263ffffffff1660e01b8152600401611254919061237d565b602060405180830381865afa158015611271573d6000803e3d6000fd5b505050506040513d601f19601f8201168201806040525081019061129591906127c8565b90506000600860009054906101000a900473ffffffffffffffffffffffffffffffffffffffff1673ffffffffffffffffffffffffffffffffffffffff166370a08231306040518263ffffffff1660e01b81526004016112f4919061237d565b602060405180830381865afa158015611311573d6000803e3d6000fd5b505050506040513d601f19601f8201168201806040525081019061133591906127c8565b90506000600360003073ffffffffffffffffffffffffffffffffffffffff1673ffffffffffffffffffffffffffffffffffffffff1681526020019081526020016000205490506002546113918483611c9690919063ffffffff16565b61139b9190612824565b94506002546113b38383611c9690919063ffffffff16565b6113bd9190612824565b93506113c9308261207a565b600760009054906101000a900473ffffffffffffffffffffffffffffffffffffffff1673ffffffffffffffffffffffffffffffffffffffff1663a9059cbb87876040518363ffffffff1660e01b8152600401611426929190612855565b6020604051808303816000875af1158015611445573d6000803e3d6000fd5b505050506040513d601f19601f8201168201806040525081019061146991906128aa565b50600860009054906101000a900473ffffffffffffffffffffffffffffffffffffffff1673ffffffffffffffffffffffffffffffffffffffff1663a9059cbb87866040518363ffffffff1660e01b81526004016114c7929190612855565b6020604051808303816000875af11580156114e6573d6000803e3d6000fd5b505050506040513d601f19601f8201168201806040525081019061150a91906128aa565b50600760009054906101000a900473ffffffffffffffffffffffffffffffffffffffff1673ffffffffffffffffffffffffffffffffffffffff166370a08231306040518263ffffffff1660e01b8152600401611566919061237d565b602060405180830381865afa158015611583573d6000803e3d6000fd5b505050506040513d601f19601f820116820180604052508101906115a791906127c8565b9250600860009054906101000a900473ffffffffffffffffffffffffffffffffffffffff1673ffffffffffffffffffffffffffffffffffffffff166370a08231306040518263ffffffff1660e01b8152600401611604919061237d565b602060405180830381865afa158015611621573d6000803e3d6000fd5b505050506040513d601f19601f8201168201806040525081019061164591906127c8565b915061168b8383600960009054906101000a90046dffffffffffffffffffffffffffff166009600e9054906101000a90046dffffffffffffffffffffffffffff16611e66565b505050915091565b600180546116a09061271e565b80601f01602080910402602001604051908101604052809291908181526020018280546116cc9061271e565b80156117195780601f106116ee57610100808354040283529160200191611719565b820191906000526020600020905b8154815290600101906020018083116116fc57829003601f168201915b505050505081565b600081600360003373ffffffffffffffffffffffffffffffffffffffff1673ffffffffffffffffffffffffffffffffffffffff1681526020019081526020016000206000828254611772919061277f565b9250508190555081600360008573ffffffffffffffffffffffffffffffffffffffff1673ffffffffffffffffffffffffffffffffffffffff168152602001908152602001600020600082825401925050819055508273ffffffffffffffffffffffffffffffffffffffff163373ffffffffffffffffffffffffffffffffffffffff167fddf252ad1be2c89b69c2b068fc378daa952ba7f163c4a11628f55a4df523b3ef8460405161182391906123a7565b60405180910390a36001905092915050565b600660009054906101000a900473ffffffffffffffffffffffffffffffffffffffff1681565b600c5481565b600860009054906101000a900473ffffffffffffffffffffffffffffffffffffffff1681565b428410156118ca576040517f08c379a00000000000000000000000000000000000000000000000000000000081526004016118c19061298f565b60405180910390fd5b60006118d46108d0565b7f6e71edae12b1b97f4d1f60370fef10105fa2faae0126114a169c64845d6126c9898989600560008e73ffffffffffffffffffffffffffffffffffffffff1673ffffffffffffffffffffffffffffffffffffffff1681526020019081526020016000206000815480929190600101919050558a60405160200161195c969594939291906129af565b60405160208183030381529060405280519060200120604051602001611983929190612a88565b6040516020818303038152906040528051906020012090506000600182868686604051600081526020016040526040516119c09493929190612abf565b6020604051602081039080840390855afa1580156119e2573d6000803e3d6000fd5b505050602060405103519050600073ffffffffffffffffffffffffffffffffffffffff168173ffffffffffffffffffffffffffffffffffffffff1614158015611a5657508873ffffffffffffffffffffffffffffffffffffffff168173ffffffffffffffffffffffffffffffffffffffff16145b611a95576040517f08c379a0000000000000000000000000000000000000000000000000000000008152600401611a8c90612b50565b60405180910390fd5b86600460008373ffffffffffffffffffffffffffffffffffffffff1673ffffffffffffffffffffffffffffffffffffffff16815260200190815260200160002060008a73ffffffffffffffffffffffffffffffffffffffff1673ffffffffffffffffffffffffffffffffffffffff1681526020019081526020016000208190555050508573ffffffffffffffffffffffffffffffffffffffff168773ffffffffffffffffffffffffffffffffffffffff167f8c5be1e5ebec7d5bd14f71427d1e84f3dd0314c0f7b2291e5b200ac8c7c3b92587604051611b7591906123a7565b60405180910390a350505050505050565b6004602052816000526040600020602052806000526040600020600091509150505481565b600b5481565b60007f8b73c3c69bb8fe3d512ecc4cf759cc79239f7b179b0ffacaa9a75d522b39400f6000604051611be39190612c0f565b60405180910390207fc89efdaa54c0f20c7adf612882df0950f5a951637e0307cdcb4c672f298b8bc64630604051602001611c22959493929190612c26565b60405160208183030381529060405280519060200120905090565b6000828284611c4c919061277f565b9150811115611c90576040517f08c379a0000000000000000000000000000000000000000000000000000000008152600401611c8790612cc5565b60405180910390fd5b92915050565b600080821480611cbe575082828385611caf9190612ce5565b925082611cbc9190612824565b145b611cfd576040517f08c379a0000000000000000000000000000000000000000000000000000000008152600401611cf490612d8b565b60405180910390fd5b92915050565b60006003821115611d6a5781905060006001600284611d229190612824565b611d2c9190612dab565b90505b81811015611d64578091506002818285611d499190612824565b611d539190612dab565b611d5d9190612824565b9050611d2f565b50611d78565b60008214611d7757600190505b5b919050565b6000818310611d8c5781611d8e565b825b905092915050565b8060026000828254611da89190612dab565b9250508190555080600360008473ffffffffffffffffffffffffffffffffffffffff1673ffffffffffffffffffffffffffffffffffffffff168152602001908152602001600020600082825401925050819055508173ffffffffffffffffffffffffffffffffffffffff16600073ffffffffffffffffffffffffffffffffffffffff167fddf252ad1be2c89b69c2b068fc378daa952ba7f163c4a11628f55a4df523b3ef83604051611e5a91906123a7565b60405180910390a35050565b600064010000000042611e799190612e01565b90506000600d60009054906101000a900463ffffffff1682611e9b9190612e32565b905060008163ffffffff16118015611ec457506000846dffffffffffffffffffffffffffff1614155b8015611ee157506000836dffffffffffffffffffffffffffff1614155b15611fe7578063ffffffff16611f2685611efa8661214a565b7bffffffffffffffffffffffffffffffffffffffffffffffffffffffff1661217e90919063ffffffff16565b7bffffffffffffffffffffffffffffffffffffffffffffffffffffffff16611f4e9190612ce5565b600b6000828254611f5f9190612dab565b925050819055508063ffffffff16611fa684611f7a8761214a565b7bffffffffffffffffffffffffffffffffffffffffffffffffffffffff1661217e90919063ffffffff16565b7bffffffffffffffffffffffffffffffffffffffffffffffffffffffff16611fce9190612ce5565b600c6000828254611fdf9190612dab565b925050819055505b85600960006101000a8154816dffffffffffffffffffffffffffff02191690836dffffffffffffffffffffffffffff160217905550846009600e6101000a8154816dffffffffffffffffffffffffffff02191690836dffffffffffffffffffffffffffff16021790555081600d60006101000a81548163ffffffff021916908363ffffffff160217905550505050505050565b80600360008473ffffffffffffffffffffffffffffffffffffffff1673ffffffffffffffffffffffffffffffffffffffff16815260200190815260200160002060008282546120c9919061277f565b9250508190555080600260008282540392505081905550600073ffffffffffffffffffffffffffffffffffffffff168273ffffffffffffffffffffffffffffffffffffffff167fddf252ad1be2c89b69c2b068fc378daa952ba7f163c4a11628f55a4df523b3ef8360405161213e91906123a7565b60405180910390a35050565b60006e010000000000000000000000000000826dffffffffffffffffffffffffffff166121779190612e8e565b9050919050565b6000816dffffffffffffffffffffffffffff168361219c9190612ee4565b905092915050565b600081519050919050565b600082825260208201905092915050565b60005b838110156121de5780820151818401526020810190506121c3565b838111156121ed576000848401525b50505050565b6000601f19601f8301169050919050565b600061220f826121a4565b61221981856121af565b93506122298185602086016121c0565b612232816121f3565b840191505092915050565b600060208201905081810360008301526122578184612204565b905092915050565b600080fd5b600073ffffffffffffffffffffffffffffffffffffffff82169050919050565b600061228f82612264565b9050919050565b61229f81612284565b81146122aa57600080fd5b50565b6000813590506122bc81612296565b92915050565b6000819050919050565b6122d5816122c2565b81146122e057600080fd5b50565b6000813590506122f2816122cc565b92915050565b6000806040838503121561230f5761230e61225f565b5b600061231d858286016122ad565b925050602061232e858286016122e3565b9150509250929050565b60008115159050919050565b61234d81612338565b82525050565b60006020820190506123686000830184612344565b92915050565b61237781612284565b82525050565b6000602082019050612392600083018461236e565b92915050565b6123a1816122c2565b82525050565b60006020820190506123bc6000830184612398565b92915050565b6000806000606084860312156123db576123da61225f565b5b60006123e9868287016122ad565b93505060206123fa868287016122ad565b925050604061240b868287016122e3565b9150509250925092565b6000819050919050565b61242881612415565b82525050565b6000602082019050612443600083018461241f565b92915050565b600060ff82169050919050565b61245f81612449565b82525050565b600060208201905061247a6000830184612456565b92915050565b60006dffffffffffffffffffffffffffff82169050919050565b6124a381612480565b82525050565b60006040820190506124be600083018561249a565b6124cb602083018461249a565b9392505050565b6000602082840312156124e8576124e761225f565b5b60006124f6848285016122ad565b91505092915050565b6000806000606084860312156125185761251761225f565b5b6000612526868287016122e3565b9350506020612537868287016122e3565b9250506040612548868287016122ad565b9150509250925092565b600063ffffffff82169050919050565b61256b81612552565b82525050565b60006020820190506125866000830184612562565b92915050565b60006040820190506125a16000830185612398565b6125ae6020830184612398565b9392505050565b6125be81612449565b81146125c957600080fd5b50565b6000813590506125db816125b5565b92915050565b6125ea81612415565b81146125f557600080fd5b50565b600081359050612607816125e1565b92915050565b600080600080600080600060e0888a03121561262c5761262b61225f565b5b600061263a8a828b016122ad565b975050602061264b8a828b016122ad565b965050604061265c8a828b016122e3565b955050606061266d8a828b016122e3565b945050608061267e8a828b016125cc565b93505060a061268f8a828b016125f8565b92505060c06126a08a828b016125f8565b91505092959891949750929550565b600080604083850312156126c6576126c561225f565b5b60006126d4858286016122ad565b92505060206126e5858286016122ad565b9150509250929050565b7f4e487b7100000000000000000000000000000000000000000000000000000000600052602260045260246000fd5b6000600282049050600182168061273657607f821691505b6020821081141561274a576127496126ef565b5b50919050565b7f4e487b7100000000000000000000000000000000000000000000000000000000600052601160045260246000fd5b600061278a826122c2565b9150612795836122c2565b9250828210156127a8576127a7612750565b5b828203905092915050565b6000815190506127c2816122cc565b92915050565b6000602082840312156127de576127dd61225f565b5b60006127ec848285016127b3565b91505092915050565b7f4e487b7100000000000000000000000000000000000000000000000000000000600052601260045260246000fd5b600061282f826122c2565b915061283a836122c2565b92508261284a576128496127f5565b5b828204905092915050565b600060408201905061286a600083018561236e565b6128776020830184612398565b9392505050565b61288781612338565b811461289257600080fd5b50565b6000815190506128a48161287e565b92915050565b6000602082840312156128c0576128bf61225f565b5b60006128ce84828501612895565b91505092915050565b7f5768616c65737761703a204b0000000000000000000000000000000000000000600082015250565b600061290d600c836121af565b9150612918826128d7565b602082019050919050565b6000602082019050818103600083015261293c81612900565b9050919050565b7f5045524d49545f444541444c494e455f45585049524544000000000000000000600082015250565b60006129796017836121af565b915061298482612943565b602082019050919050565b600060208201905081810360008301526129a88161296c565b9050919050565b600060c0820190506129c4600083018961241f565b6129d1602083018861236e565b6129de604083018761236e565b6129eb6060830186612398565b6129f86080830185612398565b612a0560a0830184612398565b979650505050505050565b600081905092915050565b7f1901000000000000000000000000000000000000000000000000000000000000600082015250565b6000612a51600283612a10565b9150612a5c82612a1b565b600282019050919050565b6000819050919050565b612a82612a7d82612415565b612a67565b82525050565b6000612a9382612a44565b9150612a9f8285612a71565b602082019150612aaf8284612a71565b6020820191508190509392505050565b6000608082019050612ad4600083018761241f565b612ae16020830186612456565b612aee604083018561241f565b612afb606083018461241f565b95945050505050565b7f494e56414c49445f5349474e4552000000000000000000000000000000000000600082015250565b6000612b3a600e836121af565b9150612b4582612b04565b602082019050919050565b60006020820190508181036000830152612b6981612b2d565b9050919050565b600081905092915050565b60008190508160005260206000209050919050565b60008154612b9d8161271e565b612ba78186612b70565b94506001821660008114612bc25760018114612bd357612c06565b60ff19831686528186019350612c06565b612bdc85612b7b565b60005b83811015612bfe57815481890152600182019150602081019050612bdf565b838801955050505b50505092915050565b6000612c1b8284612b90565b915081905092915050565b600060a082019050612c3b600083018861241f565b612c48602083018761241f565b612c55604083018661241f565b612c626060830185612398565b612c6f608083018461236e565b9695505050505050565b7f64732d6d6174682d7375622d756e646572666c6f770000000000000000000000600082015250565b6000612caf6015836121af565b9150612cba82612c79565b602082019050919050565b60006020820190508181036000830152612cde81612ca2565b9050919050565b6000612cf0826122c2565b9150612cfb836122c2565b9250817fffffffffffffffffffffffffffffffffffffffffffffffffffffffffffffffff0483118215151615612d3457612d33612750565b5b828202905092915050565b7f64732d6d6174682d6d756c2d6f766572666c6f77000000000000000000000000600082015250565b6000612d756014836121af565b9150612d8082612d3f565b602082019050919050565b60006020820190508181036000830152612da481612d68565b9050919050565b6000612db6826122c2565b9150612dc1836122c2565b9250827fffffffffffffffffffffffffffffffffffffffffffffffffffffffffffffffff03821115612df657612df5612750565b5b828201905092915050565b6000612e0c826122c2565b9150612e17836122c2565b925082612e2757612e266127f5565b5b828206905092915050565b6000612e3d82612552565b9150612e4883612552565b925082821015612e5b57612e5a612750565b5b828203905092915050565b60007bffffffffffffffffffffffffffffffffffffffffffffffffffffffff82169050919050565b6000612e9982612e66565b9150612ea483612e66565b9250817bffffffffffffffffffffffffffffffffffffffffffffffffffffffff0483118215151615612ed957612ed8612750565b5b828202905092915050565b6000612eef82612e66565b9150612efa83612e66565b925082612f0a57612f096127f5565b5b82820490509291505056fea26469706673582212204fe1ccbb3aa4df6e2f04f529ad259f7c03b1c6f44e162ec30b246e961c9a24ad64736f6c634300080b0033a264697066735822122044bc79e1d00981c2858e845fb208be820a89b8f90e39fd7d5408407b623a331a64736f6c634300080b0033",
  "immutableReferences": {},
  "source": "pragma solidity >=0.4.21;\n\nimport \"./Pair.sol\";\n\ncontract Factory {\n    mapping(address => mapping(address => address)) public getPair;\n    address[] public allPairs;\n\n    event PairDeployed(\n        address indexed token0,\n        address indexed token1,\n        address pair\n    );\n\n    function allPairsLength() external view returns (uint256) {\n        return allPairs.length;\n    }\n\n    function getAllPairs() public view returns (address[] memory) {\n        return allPairs;\n    }\n\n    function createPair(address token0, address token1)\n        external\n        returns (address pair)\n    {\n        // requirements\n        require(token0 != token1, \"Tokens cannot be the same.\");\n        // TODO: Check pair doesn't exist\n\n        // instantiate new pool\n        pair = address(new Pair(token0, token1));\n\n        // record new pair address\n        getPair[token0][token1] = pair;\n        getPair[token1][token0] = pair;\n\n        allPairs.push(pair);\n\n        emit PairDeployed(token0, token1, pair);\n    }\n}\n",
  "sourcePath": "/Users/kitwiggin/senior_design/WhaleSwapMVP/contracts/Factory.sol",
  "compiler": {
    "name": "solc",
    "version": "0.8.11+commit.d7f03943.Emscripten.clang"
  },
  "schemaVersion": "3.4.3",
  "updatedAt": "2022-02-07T01:41:55.876Z",
  "networkType": "ethereum",
  "devdoc": {
    "kind": "dev",
    "methods": {},
    "version": 1
  },
  "userdoc": {
    "kind": "user",
    "methods": {},
    "version": 1
  }
}