{
  "contractName": "Pair",
  "abi": [
    {
      "inputs": [
        {
          "internalType": "address",
          "name": "_token0",
          "type": "address"
        },
        {
          "internalType": "address",
          "name": "_token1",
          "type": "address"
        },
        {
          "internalType": "string",
          "name": "_token0Name",
          "type": "string"
        },
        {
          "internalType": "string",
          "name": "_token1Name",
          "type": "string"
        },
        {
          "internalType": "uint256",
          "name": "_twammIntervalSize",
          "type": "uint256"
        }
      ],
      "stateMutability": "nonpayable",
      "type": "constructor"
    },
    {
      "anonymous": false,
      "inputs": [
        {
          "indexed": true,
          "internalType": "address",
          "name": "owner",
          "type": "address"
        },
        {
          "indexed": true,
          "internalType": "address",
          "name": "spender",
          "type": "address"
        },
        {
          "indexed": false,
          "internalType": "uint256",
          "name": "amount",
          "type": "uint256"
        }
      ],
      "name": "Approval",
      "type": "event"
    },
    {
      "anonymous": false,
      "inputs": [
        {
          "indexed": true,
          "internalType": "address",
          "name": "from",
          "type": "address"
        },
        {
          "indexed": true,
          "internalType": "address",
          "name": "to",
          "type": "address"
        },
        {
          "indexed": false,
          "internalType": "uint256",
          "name": "amount",
          "type": "uint256"
        }
      ],
      "name": "Transfer",
      "type": "event"
    },
    {
      "inputs": [],
      "name": "DOMAIN_SEPARATOR",
      "outputs": [
        {
          "internalType": "bytes32",
          "name": "",
          "type": "bytes32"
        }
      ],
      "stateMutability": "view",
      "type": "function"
    },
    {
      "inputs": [],
      "name": "PERMIT_TYPEHASH",
      "outputs": [
        {
          "internalType": "bytes32",
          "name": "",
          "type": "bytes32"
        }
      ],
      "stateMutability": "view",
      "type": "function"
    },
    {
      "inputs": [
        {
          "internalType": "address",
          "name": "",
          "type": "address"
        },
        {
          "internalType": "address",
          "name": "",
          "type": "address"
        }
      ],
      "name": "allowance",
      "outputs": [
        {
          "internalType": "uint256",
          "name": "",
          "type": "uint256"
        }
      ],
      "stateMutability": "view",
      "type": "function"
    },
    {
      "inputs": [
        {
          "internalType": "address",
          "name": "spender",
          "type": "address"
        },
        {
          "internalType": "uint256",
          "name": "amount",
          "type": "uint256"
        }
      ],
      "name": "approve",
      "outputs": [
        {
          "internalType": "bool",
          "name": "",
          "type": "bool"
        }
      ],
      "stateMutability": "nonpayable",
      "type": "function"
    },
    {
      "inputs": [
        {
          "internalType": "address",
          "name": "",
          "type": "address"
        }
      ],
      "name": "balanceOf",
      "outputs": [
        {
          "internalType": "uint256",
          "name": "",
          "type": "uint256"
        }
      ],
      "stateMutability": "view",
      "type": "function"
    },
    {
      "inputs": [],
      "name": "decimals",
      "outputs": [
        {
          "internalType": "uint8",
          "name": "",
          "type": "uint8"
        }
      ],
      "stateMutability": "view",
      "type": "function"
    },
    {
      "inputs": [],
      "name": "factory",
      "outputs": [
        {
          "internalType": "address",
          "name": "",
          "type": "address"
        }
      ],
      "stateMutability": "view",
      "type": "function"
    },
    {
      "inputs": [],
      "name": "lastBlockTimestamp",
      "outputs": [
        {
          "internalType": "uint32",
          "name": "",
          "type": "uint32"
        }
      ],
      "stateMutability": "view",
      "type": "function"
    },
    {
      "inputs": [],
      "name": "name",
      "outputs": [
        {
          "internalType": "string",
          "name": "",
          "type": "string"
        }
      ],
      "stateMutability": "view",
      "type": "function"
    },
    {
      "inputs": [
        {
          "internalType": "address",
          "name": "",
          "type": "address"
        }
      ],
      "name": "nonces",
      "outputs": [
        {
          "internalType": "uint256",
          "name": "",
          "type": "uint256"
        }
      ],
      "stateMutability": "view",
      "type": "function"
    },
    {
      "inputs": [
        {
          "internalType": "address",
          "name": "owner",
          "type": "address"
        },
        {
          "internalType": "address",
          "name": "spender",
          "type": "address"
        },
        {
          "internalType": "uint256",
          "name": "value",
          "type": "uint256"
        },
        {
          "internalType": "uint256",
          "name": "deadline",
          "type": "uint256"
        },
        {
          "internalType": "uint8",
          "name": "v",
          "type": "uint8"
        },
        {
          "internalType": "bytes32",
          "name": "r",
          "type": "bytes32"
        },
        {
          "internalType": "bytes32",
          "name": "s",
          "type": "bytes32"
        }
      ],
      "name": "permit",
      "outputs": [],
      "stateMutability": "nonpayable",
      "type": "function"
    },
    {
      "inputs": [],
      "name": "price0Cumulative",
      "outputs": [
        {
          "internalType": "uint256",
          "name": "",
          "type": "uint256"
        }
      ],
      "stateMutability": "view",
      "type": "function"
    },
    {
      "inputs": [],
      "name": "price1Cumulative",
      "outputs": [
        {
          "internalType": "uint256",
          "name": "",
          "type": "uint256"
        }
      ],
      "stateMutability": "view",
      "type": "function"
    },
    {
      "inputs": [],
      "name": "symbol",
      "outputs": [
        {
          "internalType": "string",
          "name": "",
          "type": "string"
        }
      ],
      "stateMutability": "view",
      "type": "function"
    },
    {
      "inputs": [],
      "name": "token0",
      "outputs": [
        {
          "internalType": "address",
          "name": "",
          "type": "address"
        }
      ],
      "stateMutability": "view",
      "type": "function"
    },
    {
      "inputs": [],
      "name": "token0Name",
      "outputs": [
        {
          "internalType": "string",
          "name": "",
          "type": "string"
        }
      ],
      "stateMutability": "view",
      "type": "function"
    },
    {
      "inputs": [],
      "name": "token1",
      "outputs": [
        {
          "internalType": "address",
          "name": "",
          "type": "address"
        }
      ],
      "stateMutability": "view",
      "type": "function"
    },
    {
      "inputs": [],
      "name": "token1Name",
      "outputs": [
        {
          "internalType": "string",
          "name": "",
          "type": "string"
        }
      ],
      "stateMutability": "view",
      "type": "function"
    },
    {
      "inputs": [],
      "name": "totalSupply",
      "outputs": [
        {
          "internalType": "uint256",
          "name": "",
          "type": "uint256"
        }
      ],
      "stateMutability": "view",
      "type": "function"
    },
    {
      "inputs": [
        {
          "internalType": "address",
          "name": "to",
          "type": "address"
        },
        {
          "internalType": "uint256",
          "name": "amount",
          "type": "uint256"
        }
      ],
      "name": "transfer",
      "outputs": [
        {
          "internalType": "bool",
          "name": "",
          "type": "bool"
        }
      ],
      "stateMutability": "nonpayable",
      "type": "function"
    },
    {
      "inputs": [
        {
          "internalType": "address",
          "name": "from",
          "type": "address"
        },
        {
          "internalType": "address",
          "name": "to",
          "type": "address"
        },
        {
          "internalType": "uint256",
          "name": "amount",
          "type": "uint256"
        }
      ],
      "name": "transferFrom",
      "outputs": [
        {
          "internalType": "bool",
          "name": "",
          "type": "bool"
        }
      ],
      "stateMutability": "nonpayable",
      "type": "function"
    },
    {
      "inputs": [],
      "name": "getAmounts",
      "outputs": [
        {
          "internalType": "uint112",
          "name": "amount0",
          "type": "uint112"
        },
        {
          "internalType": "uint112",
          "name": "amount1",
          "type": "uint112"
        }
      ],
      "stateMutability": "view",
      "type": "function"
    },
    {
      "inputs": [
        {
          "internalType": "address",
          "name": "to",
          "type": "address"
        }
      ],
      "name": "mint",
      "outputs": [
        {
          "internalType": "uint256",
          "name": "liquidity",
          "type": "uint256"
        }
      ],
      "stateMutability": "nonpayable",
      "type": "function"
    },
    {
      "inputs": [
        {
          "internalType": "address",
          "name": "to",
          "type": "address"
        }
      ],
      "name": "burn",
      "outputs": [
        {
          "internalType": "uint256",
          "name": "amount0",
          "type": "uint256"
        },
        {
          "internalType": "uint256",
          "name": "amount1",
          "type": "uint256"
        }
      ],
      "stateMutability": "nonpayable",
      "type": "function"
    },
    {
      "inputs": [
        {
          "internalType": "uint256",
          "name": "amount0Out",
          "type": "uint256"
        },
        {
          "internalType": "uint256",
          "name": "amount1Out",
          "type": "uint256"
        },
        {
          "internalType": "address",
          "name": "to",
          "type": "address"
        }
      ],
      "name": "swap",
      "outputs": [],
      "stateMutability": "nonpayable",
      "type": "function"
    }
  ],
  "bytecode": "0x60e06040523480156200001157600080fd5b506040516200390338038062003903833981810160405281019062000037919062000584565b6040518060400160405280600681526020017f6c5768616c6500000000000000000000000000000000000000000000000000008152506040518060400160405280600481526020017f6c57484c0000000000000000000000000000000000000000000000000000000081525060128260009080519060200190620000bd92919062000297565b508160019080519060200190620000d692919062000297565b508060ff1660808160ff16815250504660a08181525050620000fd6200020760201b60201c565b60c0818152505050505033600660006101000a81548173ffffffffffffffffffffffffffffffffffffffff021916908373ffffffffffffffffffffffffffffffffffffffff16021790555084600760006101000a81548173ffffffffffffffffffffffffffffffffffffffff021916908373ffffffffffffffffffffffffffffffffffffffff16021790555083600860006101000a81548173ffffffffffffffffffffffffffffffffffffffff021916908373ffffffffffffffffffffffffffffffffffffffff1602179055508260099080519060200190620001e292919062000297565b5081600a9080519060200190620001fb92919062000297565b5050505050506200080c565b60007f8b73c3c69bb8fe3d512ecc4cf759cc79239f7b179b0ffacaa9a75d522b39400f60006040516200023b919062000759565b60405180910390207fc89efdaa54c0f20c7adf612882df0950f5a951637e0307cdcb4c672f298b8bc646306040516020016200027c959493929190620007af565b60405160208183030381529060405280519060200120905090565b828054620002a59062000679565b90600052602060002090601f016020900481019282620002c9576000855562000315565b82601f10620002e457805160ff191683800117855562000315565b8280016001018555821562000315579182015b8281111562000314578251825591602001919060010190620002f7565b5b50905062000324919062000328565b5090565b5b808211156200034357600081600090555060010162000329565b5090565b6000604051905090565b600080fd5b600080fd5b600073ffffffffffffffffffffffffffffffffffffffff82169050919050565b600062000388826200035b565b9050919050565b6200039a816200037b565b8114620003a657600080fd5b50565b600081519050620003ba816200038f565b92915050565b600080fd5b600080fd5b6000601f19601f8301169050919050565b7f4e487b7100000000000000000000000000000000000000000000000000000000600052604160045260246000fd5b6200041582620003ca565b810181811067ffffffffffffffff82111715620004375762000436620003db565b5b80604052505050565b60006200044c62000347565b90506200045a82826200040a565b919050565b600067ffffffffffffffff8211156200047d576200047c620003db565b5b6200048882620003ca565b9050602081019050919050565b60005b83811015620004b557808201518184015260208101905062000498565b83811115620004c5576000848401525b50505050565b6000620004e2620004dc846200045f565b62000440565b905082815260208101848484011115620005015762000500620003c5565b5b6200050e84828562000495565b509392505050565b600082601f8301126200052e576200052d620003c0565b5b815162000540848260208601620004cb565b91505092915050565b6000819050919050565b6200055e8162000549565b81146200056a57600080fd5b50565b6000815190506200057e8162000553565b92915050565b600080600080600060a08688031215620005a357620005a262000351565b5b6000620005b388828901620003a9565b9550506020620005c688828901620003a9565b945050604086015167ffffffffffffffff811115620005ea57620005e962000356565b5b620005f88882890162000516565b935050606086015167ffffffffffffffff8111156200061c576200061b62000356565b5b6200062a8882890162000516565b92505060806200063d888289016200056d565b9150509295509295909350565b7f4e487b7100000000000000000000000000000000000000000000000000000000600052602260045260246000fd5b600060028204905060018216806200069257607f821691505b602082108103620006a857620006a76200064a565b5b50919050565b600081905092915050565b60008190508160005260206000209050919050565b60008154620006dd8162000679565b620006e98186620006ae565b94506001821660008114620007075760018114620007195762000750565b60ff1983168652818601935062000750565b6200072485620006b9565b60005b83811015620007485781548189015260018201915060208101905062000727565b838801955050505b50505092915050565b6000620007678284620006ce565b915081905092915050565b6000819050919050565b620007878162000772565b82525050565b620007988162000549565b82525050565b620007a9816200037b565b82525050565b600060a082019050620007c660008301886200077c565b620007d560208301876200077c565b620007e460408301866200077c565b620007f360608301856200078d565b6200080260808301846200079e565b9695505050505050565b60805160a05160c0516130c76200083c600039600061096a015260006109360152600061091001526130c76000f3fe608060405234801561001057600080fd5b50600436106101735760003560e01c80637ecebe00116100de578063c45a015511610097578063d505accf11610071578063d505accf1461046c578063dd62ed3e14610488578063e7563e0b146104b8578063f9063ba1146104d657610173565b8063c45a015514610412578063cc5864ee14610430578063d21220a71461044e57610173565b80637ecebe001461032757806385e63fc61461035757806389afcb441461037557806395d89b41146103a6578063a9059cbb146103c4578063c2d12e4b146103f457610173565b8063313ce56711610130578063313ce567146102505780633644e5151461026e5780633d370b4e1461028c5780636a627842146102ab5780636d9a640a146102db57806370a08231146102f757610173565b806306fdde0314610178578063095ea7b3146101965780630dfe1681146101c657806318160ddd146101e457806323b872dd1461020257806330adf81f14610232575b600080fd5b6101806104f4565b60405161018d91906123ba565b60405180910390f35b6101b060048036038101906101ab9190612475565b610582565b6040516101bd91906124d0565b60405180910390f35b6101ce610674565b6040516101db91906124fa565b60405180910390f35b6101ec61069a565b6040516101f99190612524565b60405180910390f35b61021c6004803603810190610217919061253f565b6106a0565b60405161022991906124d0565b60405180910390f35b61023a6108ea565b60405161024791906125ab565b60405180910390f35b61025861090e565b60405161026591906125e2565b60405180910390f35b610276610932565b60405161028391906125ab565b60405180910390f35b61029461098f565b6040516102a2929190612626565b60405180910390f35b6102c560048036038101906102c0919061264f565b6109d4565b6040516102d29190612524565b60405180910390f35b6102f560048036038101906102f0919061267c565b610cc1565b005b610311600480360381019061030c919061264f565b61120f565b60405161031e9190612524565b60405180910390f35b610341600480360381019061033c919061264f565b611227565b60405161034e9190612524565b60405180910390f35b61035f61123f565b60405161036c91906126ee565b60405180910390f35b61038f600480360381019061038a919061264f565b611255565b60405161039d929190612709565b60405180910390f35b6103ae6116f4565b6040516103bb91906123ba565b60405180910390f35b6103de60048036038101906103d99190612475565b611782565b6040516103eb91906124d0565b60405180910390f35b6103fc611896565b60405161040991906123ba565b60405180910390f35b61041a611924565b60405161042791906124fa565b60405180910390f35b61043861194a565b6040516104459190612524565b60405180910390f35b610456611950565b60405161046391906124fa565b60405180910390f35b6104866004803603810190610481919061278a565b611976565b005b6104a2600480360381019061049d919061282c565b611c75565b6040516104af9190612524565b60405180910390f35b6104c0611c9a565b6040516104cd91906123ba565b60405180910390f35b6104de611d28565b6040516104eb9190612524565b60405180910390f35b600080546105019061289b565b80601f016020809104026020016040519081016040528092919081815260200182805461052d9061289b565b801561057a5780601f1061054f5761010080835404028352916020019161057a565b820191906000526020600020905b81548152906001019060200180831161055d57829003601f168201915b505050505081565b600081600460003373ffffffffffffffffffffffffffffffffffffffff1673ffffffffffffffffffffffffffffffffffffffff16815260200190815260200160002060008573ffffffffffffffffffffffffffffffffffffffff1673ffffffffffffffffffffffffffffffffffffffff168152602001908152602001600020819055508273ffffffffffffffffffffffffffffffffffffffff163373ffffffffffffffffffffffffffffffffffffffff167f8c5be1e5ebec7d5bd14f71427d1e84f3dd0314c0f7b2291e5b200ac8c7c3b925846040516106629190612524565b60405180910390a36001905092915050565b600760009054906101000a900473ffffffffffffffffffffffffffffffffffffffff1681565b60025481565b600080600460008673ffffffffffffffffffffffffffffffffffffffff1673ffffffffffffffffffffffffffffffffffffffff16815260200190815260200160002060003373ffffffffffffffffffffffffffffffffffffffff1673ffffffffffffffffffffffffffffffffffffffff1681526020019081526020016000205490507fffffffffffffffffffffffffffffffffffffffffffffffffffffffffffffffff81146107d657828161075591906128fb565b600460008773ffffffffffffffffffffffffffffffffffffffff1673ffffffffffffffffffffffffffffffffffffffff16815260200190815260200160002060003373ffffffffffffffffffffffffffffffffffffffff1673ffffffffffffffffffffffffffffffffffffffff168152602001908152602001600020819055505b82600360008773ffffffffffffffffffffffffffffffffffffffff1673ffffffffffffffffffffffffffffffffffffffff168152602001908152602001600020600082825461082591906128fb565b9250508190555082600360008673ffffffffffffffffffffffffffffffffffffffff1673ffffffffffffffffffffffffffffffffffffffff168152602001908152602001600020600082825401925050819055508373ffffffffffffffffffffffffffffffffffffffff168573ffffffffffffffffffffffffffffffffffffffff167fddf252ad1be2c89b69c2b068fc378daa952ba7f163c4a11628f55a4df523b3ef856040516108d69190612524565b60405180910390a360019150509392505050565b7f6e71edae12b1b97f4d1f60370fef10105fa2faae0126114a169c64845d6126c981565b7f000000000000000000000000000000000000000000000000000000000000000081565b60007f0000000000000000000000000000000000000000000000000000000000000000461461096857610963611d2e565b61098a565b7f00000000000000000000000000000000000000000000000000000000000000005b905090565b600080600b60009054906101000a90046dffffffffffffffffffffffffffff169150600b600e9054906101000a90046dffffffffffffffffffffffffffff1690509091565b600080600760009054906101000a900473ffffffffffffffffffffffffffffffffffffffff1673ffffffffffffffffffffffffffffffffffffffff166370a08231306040518263ffffffff1660e01b8152600401610a3291906124fa565b602060405180830381865afa158015610a4f573d6000803e3d6000fd5b505050506040513d601f19601f82011682018060405250810190610a739190612944565b90506000600860009054906101000a900473ffffffffffffffffffffffffffffffffffffffff1673ffffffffffffffffffffffffffffffffffffffff166370a08231306040518263ffffffff1660e01b8152600401610ad291906124fa565b602060405180830381865afa158015610aef573d6000803e3d6000fd5b505050506040513d601f19601f82011682018060405250810190610b139190612944565b90506000610b56600b60009054906101000a90046dffffffffffffffffffffffffffff166dffffffffffffffffffffffffffff1684611dba90919063ffffffff16565b90506000610b99600b600e9054906101000a90046dffffffffffffffffffffffffffff166dffffffffffffffffffffffffffff1684611dba90919063ffffffff16565b9050600060025403610bc757610bc0610bbb8284611e1390919063ffffffff16565b611e80565b9450610c6a565b610c67600b60009054906101000a90046dffffffffffffffffffffffffffff166dffffffffffffffffffffffffffff16610c0c60025485611e1390919063ffffffff16565b610c1691906129a0565b600b600e9054906101000a90046dffffffffffffffffffffffffffff166dffffffffffffffffffffffffffff16610c5860025485611e1390919063ffffffff16565b610c6291906129a0565b611efa565b94505b610c748686611f13565b610cb88484600b60009054906101000a90046dffffffffffffffffffffffffffff16600b600e9054906101000a90046dffffffffffffffffffffffffffff16611fe3565b50505050919050565b6000806000851115610d6f57600760009054906101000a900473ffffffffffffffffffffffffffffffffffffffff1673ffffffffffffffffffffffffffffffffffffffff1663a9059cbb84876040518363ffffffff1660e01b8152600401610d2a9291906129d1565b6020604051808303816000875af1158015610d49573d6000803e3d6000fd5b505050506040513d601f19601f82011682018060405250810190610d6d9190612a26565b505b6000841115610e1a57600860009054906101000a900473ffffffffffffffffffffffffffffffffffffffff1673ffffffffffffffffffffffffffffffffffffffff1663a9059cbb84866040518363ffffffff1660e01b8152600401610dd59291906129d1565b6020604051808303816000875af1158015610df4573d6000803e3d6000fd5b505050506040513d601f19601f82011682018060405250810190610e189190612a26565b505b600760009054906101000a900473ffffffffffffffffffffffffffffffffffffffff1673ffffffffffffffffffffffffffffffffffffffff166370a08231306040518263ffffffff1660e01b8152600401610e7591906124fa565b602060405180830381865afa158015610e92573d6000803e3d6000fd5b505050506040513d601f19601f82011682018060405250810190610eb69190612944565b9150600860009054906101000a900473ffffffffffffffffffffffffffffffffffffffff1673ffffffffffffffffffffffffffffffffffffffff166370a08231306040518263ffffffff1660e01b8152600401610f1391906124fa565b602060405180830381865afa158015610f30573d6000803e3d6000fd5b505050506040513d601f19601f82011682018060405250810190610f549190612944565b9050600085600b60009054906101000a90046dffffffffffffffffffffffffffff166dffffffffffffffffffffffffffff16610f9091906128fb565b8311610f9d576000610fe1565b85600b60009054906101000a90046dffffffffffffffffffffffffffff166dffffffffffffffffffffffffffff16610fd591906128fb565b83610fe091906128fb565b5b9050600085600b600e9054906101000a90046dffffffffffffffffffffffffffff166dffffffffffffffffffffffffffff1661101d91906128fb565b831161102a57600061106e565b85600b600e9054906101000a90046dffffffffffffffffffffffffffff166dffffffffffffffffffffffffffff1661106291906128fb565b8361106d91906128fb565b5b905060006110ac611089600385611e1390919063ffffffff16565b61109e6103e888611e1390919063ffffffff16565b611dba90919063ffffffff16565b905060006110ea6110c7600385611e1390919063ffffffff16565b6110dc6103e888611e1390919063ffffffff16565b611dba90919063ffffffff16565b905061116c620f424061115e600b600e9054906101000a90046dffffffffffffffffffffffffffff166dffffffffffffffffffffffffffff16600b60009054906101000a90046dffffffffffffffffffffffffffff166dffffffffffffffffffffffffffff16611e1390919063ffffffff16565b611e1390919063ffffffff16565b61117f8284611e1390919063ffffffff16565b10156111c0576040517f08c379a00000000000000000000000000000000000000000000000000000000081526004016111b790612a9f565b60405180910390fd5b6112048686600b60009054906101000a90046dffffffffffffffffffffffffffff16600b600e9054906101000a90046dffffffffffffffffffffffffffff16611fe3565b505050505050505050565b60036020528060005260406000206000915090505481565b60056020528060005260406000206000915090505481565b600f60009054906101000a900463ffffffff1681565b6000806000600760009054906101000a900473ffffffffffffffffffffffffffffffffffffffff1673ffffffffffffffffffffffffffffffffffffffff166370a08231306040518263ffffffff1660e01b81526004016112b591906124fa565b602060405180830381865afa1580156112d2573d6000803e3d6000fd5b505050506040513d601f19601f820116820180604052508101906112f69190612944565b90506000600860009054906101000a900473ffffffffffffffffffffffffffffffffffffffff1673ffffffffffffffffffffffffffffffffffffffff166370a08231306040518263ffffffff1660e01b815260040161135591906124fa565b602060405180830381865afa158015611372573d6000803e3d6000fd5b505050506040513d601f19601f820116820180604052508101906113969190612944565b90506000600360003073ffffffffffffffffffffffffffffffffffffffff1673ffffffffffffffffffffffffffffffffffffffff1681526020019081526020016000205490506002546113f28483611e1390919063ffffffff16565b6113fc91906129a0565b94506002546114148383611e1390919063ffffffff16565b61141e91906129a0565b935061142a30826121f7565b600760009054906101000a900473ffffffffffffffffffffffffffffffffffffffff1673ffffffffffffffffffffffffffffffffffffffff1663a9059cbb87876040518363ffffffff1660e01b81526004016114879291906129d1565b6020604051808303816000875af11580156114a6573d6000803e3d6000fd5b505050506040513d601f19601f820116820180604052508101906114ca9190612a26565b50600860009054906101000a900473ffffffffffffffffffffffffffffffffffffffff1673ffffffffffffffffffffffffffffffffffffffff1663a9059cbb87866040518363ffffffff1660e01b81526004016115289291906129d1565b6020604051808303816000875af1158015611547573d6000803e3d6000fd5b505050506040513d601f19601f8201168201806040525081019061156b9190612a26565b50600760009054906101000a900473ffffffffffffffffffffffffffffffffffffffff1673ffffffffffffffffffffffffffffffffffffffff166370a08231306040518263ffffffff1660e01b81526004016115c791906124fa565b602060405180830381865afa1580156115e4573d6000803e3d6000fd5b505050506040513d601f19601f820116820180604052508101906116089190612944565b9250600860009054906101000a900473ffffffffffffffffffffffffffffffffffffffff1673ffffffffffffffffffffffffffffffffffffffff166370a08231306040518263ffffffff1660e01b815260040161166591906124fa565b602060405180830381865afa158015611682573d6000803e3d6000fd5b505050506040513d601f19601f820116820180604052508101906116a69190612944565b91506116ec8383600b60009054906101000a90046dffffffffffffffffffffffffffff16600b600e9054906101000a90046dffffffffffffffffffffffffffff16611fe3565b505050915091565b600180546117019061289b565b80601f016020809104026020016040519081016040528092919081815260200182805461172d9061289b565b801561177a5780601f1061174f5761010080835404028352916020019161177a565b820191906000526020600020905b81548152906001019060200180831161175d57829003601f168201915b505050505081565b600081600360003373ffffffffffffffffffffffffffffffffffffffff1673ffffffffffffffffffffffffffffffffffffffff16815260200190815260200160002060008282546117d391906128fb565b9250508190555081600360008573ffffffffffffffffffffffffffffffffffffffff1673ffffffffffffffffffffffffffffffffffffffff168152602001908152602001600020600082825401925050819055508273ffffffffffffffffffffffffffffffffffffffff163373ffffffffffffffffffffffffffffffffffffffff167fddf252ad1be2c89b69c2b068fc378daa952ba7f163c4a11628f55a4df523b3ef846040516118849190612524565b60405180910390a36001905092915050565b600a80546118a39061289b565b80601f01602080910402602001604051908101604052809291908181526020018280546118cf9061289b565b801561191c5780601f106118f15761010080835404028352916020019161191c565b820191906000526020600020905b8154815290600101906020018083116118ff57829003601f168201915b505050505081565b600660009054906101000a900473ffffffffffffffffffffffffffffffffffffffff1681565b600e5481565b600860009054906101000a900473ffffffffffffffffffffffffffffffffffffffff1681565b428410156119b9576040517f08c379a00000000000000000000000000000000000000000000000000000000081526004016119b090612b0b565b60405180910390fd5b60006119c3610932565b7f6e71edae12b1b97f4d1f60370fef10105fa2faae0126114a169c64845d6126c9898989600560008e73ffffffffffffffffffffffffffffffffffffffff1673ffffffffffffffffffffffffffffffffffffffff1681526020019081526020016000206000815480929190600101919050558a604051602001611a4b96959493929190612b2b565b60405160208183030381529060405280519060200120604051602001611a72929190612c04565b604051602081830303815290604052805190602001209050600060018286868660405160008152602001604052604051611aaf9493929190612c3b565b6020604051602081039080840390855afa158015611ad1573d6000803e3d6000fd5b505050602060405103519050600073ffffffffffffffffffffffffffffffffffffffff168173ffffffffffffffffffffffffffffffffffffffff1614158015611b4557508873ffffffffffffffffffffffffffffffffffffffff168173ffffffffffffffffffffffffffffffffffffffff16145b611b84576040517f08c379a0000000000000000000000000000000000000000000000000000000008152600401611b7b90612ccc565b60405180910390fd5b86600460008373ffffffffffffffffffffffffffffffffffffffff1673ffffffffffffffffffffffffffffffffffffffff16815260200190815260200160002060008a73ffffffffffffffffffffffffffffffffffffffff1673ffffffffffffffffffffffffffffffffffffffff1681526020019081526020016000208190555050508573ffffffffffffffffffffffffffffffffffffffff168773ffffffffffffffffffffffffffffffffffffffff167f8c5be1e5ebec7d5bd14f71427d1e84f3dd0314c0f7b2291e5b200ac8c7c3b92587604051611c649190612524565b60405180910390a350505050505050565b6004602052816000526040600020602052806000526040600020600091509150505481565b60098054611ca79061289b565b80601f0160208091040260200160405190810160405280929190818152602001828054611cd39061289b565b8015611d205780601f10611cf557610100808354040283529160200191611d20565b820191906000526020600020905b815481529060010190602001808311611d0357829003601f168201915b505050505081565b600d5481565b60007f8b73c3c69bb8fe3d512ecc4cf759cc79239f7b179b0ffacaa9a75d522b39400f6000604051611d609190612d8b565b60405180910390207fc89efdaa54c0f20c7adf612882df0950f5a951637e0307cdcb4c672f298b8bc64630604051602001611d9f959493929190612da2565b60405160208183030381529060405280519060200120905090565b6000828284611dc991906128fb565b9150811115611e0d576040517f08c379a0000000000000000000000000000000000000000000000000000000008152600401611e0490612e41565b60405180910390fd5b92915050565b600080821480611e3b575082828385611e2c9190612e61565b925082611e3991906129a0565b145b611e7a576040517f08c379a0000000000000000000000000000000000000000000000000000000008152600401611e7190612f07565b60405180910390fd5b92915050565b60006003821115611ee75781905060006001600284611e9f91906129a0565b611ea99190612f27565b90505b81811015611ee1578091506002818285611ec691906129a0565b611ed09190612f27565b611eda91906129a0565b9050611eac565b50611ef5565b60008214611ef457600190505b5b919050565b6000818310611f095781611f0b565b825b905092915050565b8060026000828254611f259190612f27565b9250508190555080600360008473ffffffffffffffffffffffffffffffffffffffff1673ffffffffffffffffffffffffffffffffffffffff168152602001908152602001600020600082825401925050819055508173ffffffffffffffffffffffffffffffffffffffff16600073ffffffffffffffffffffffffffffffffffffffff167fddf252ad1be2c89b69c2b068fc378daa952ba7f163c4a11628f55a4df523b3ef83604051611fd79190612524565b60405180910390a35050565b600064010000000042611ff69190612f7d565b90506000600f60009054906101000a900463ffffffff16826120189190612fae565b905060008163ffffffff1611801561204157506000846dffffffffffffffffffffffffffff1614155b801561205e57506000836dffffffffffffffffffffffffffff1614155b15612164578063ffffffff166120a385612077866122c7565b7bffffffffffffffffffffffffffffffffffffffffffffffffffffffff166122fb90919063ffffffff16565b7bffffffffffffffffffffffffffffffffffffffffffffffffffffffff166120cb9190612e61565b600d60008282546120dc9190612f27565b925050819055508063ffffffff16612123846120f7876122c7565b7bffffffffffffffffffffffffffffffffffffffffffffffffffffffff166122fb90919063ffffffff16565b7bffffffffffffffffffffffffffffffffffffffffffffffffffffffff1661214b9190612e61565b600e600082825461215c9190612f27565b925050819055505b85600b60006101000a8154816dffffffffffffffffffffffffffff02191690836dffffffffffffffffffffffffffff16021790555084600b600e6101000a8154816dffffffffffffffffffffffffffff02191690836dffffffffffffffffffffffffffff16021790555081600f60006101000a81548163ffffffff021916908363ffffffff160217905550505050505050565b80600360008473ffffffffffffffffffffffffffffffffffffffff1673ffffffffffffffffffffffffffffffffffffffff168152602001908152602001600020600082825461224691906128fb565b9250508190555080600260008282540392505081905550600073ffffffffffffffffffffffffffffffffffffffff168273ffffffffffffffffffffffffffffffffffffffff167fddf252ad1be2c89b69c2b068fc378daa952ba7f163c4a11628f55a4df523b3ef836040516122bb9190612524565b60405180910390a35050565b60006e010000000000000000000000000000826dffffffffffffffffffffffffffff166122f4919061300a565b9050919050565b6000816dffffffffffffffffffffffffffff16836123199190613060565b905092915050565b600081519050919050565b600082825260208201905092915050565b60005b8381101561235b578082015181840152602081019050612340565b8381111561236a576000848401525b50505050565b6000601f19601f8301169050919050565b600061238c82612321565b612396818561232c565b93506123a681856020860161233d565b6123af81612370565b840191505092915050565b600060208201905081810360008301526123d48184612381565b905092915050565b600080fd5b600073ffffffffffffffffffffffffffffffffffffffff82169050919050565b600061240c826123e1565b9050919050565b61241c81612401565b811461242757600080fd5b50565b60008135905061243981612413565b92915050565b6000819050919050565b6124528161243f565b811461245d57600080fd5b50565b60008135905061246f81612449565b92915050565b6000806040838503121561248c5761248b6123dc565b5b600061249a8582860161242a565b92505060206124ab85828601612460565b9150509250929050565b60008115159050919050565b6124ca816124b5565b82525050565b60006020820190506124e560008301846124c1565b92915050565b6124f481612401565b82525050565b600060208201905061250f60008301846124eb565b92915050565b61251e8161243f565b82525050565b60006020820190506125396000830184612515565b92915050565b600080600060608486031215612558576125576123dc565b5b60006125668682870161242a565b93505060206125778682870161242a565b925050604061258886828701612460565b9150509250925092565b6000819050919050565b6125a581612592565b82525050565b60006020820190506125c0600083018461259c565b92915050565b600060ff82169050919050565b6125dc816125c6565b82525050565b60006020820190506125f760008301846125d3565b92915050565b60006dffffffffffffffffffffffffffff82169050919050565b612620816125fd565b82525050565b600060408201905061263b6000830185612617565b6126486020830184612617565b9392505050565b600060208284031215612665576126646123dc565b5b60006126738482850161242a565b91505092915050565b600080600060608486031215612695576126946123dc565b5b60006126a386828701612460565b93505060206126b486828701612460565b92505060406126c58682870161242a565b9150509250925092565b600063ffffffff82169050919050565b6126e8816126cf565b82525050565b600060208201905061270360008301846126df565b92915050565b600060408201905061271e6000830185612515565b61272b6020830184612515565b9392505050565b61273b816125c6565b811461274657600080fd5b50565b60008135905061275881612732565b92915050565b61276781612592565b811461277257600080fd5b50565b6000813590506127848161275e565b92915050565b600080600080600080600060e0888a0312156127a9576127a86123dc565b5b60006127b78a828b0161242a565b97505060206127c88a828b0161242a565b96505060406127d98a828b01612460565b95505060606127ea8a828b01612460565b94505060806127fb8a828b01612749565b93505060a061280c8a828b01612775565b92505060c061281d8a828b01612775565b91505092959891949750929550565b60008060408385031215612843576128426123dc565b5b60006128518582860161242a565b92505060206128628582860161242a565b9150509250929050565b7f4e487b7100000000000000000000000000000000000000000000000000000000600052602260045260246000fd5b600060028204905060018216806128b357607f821691505b6020821081036128c6576128c561286c565b5b50919050565b7f4e487b7100000000000000000000000000000000000000000000000000000000600052601160045260246000fd5b60006129068261243f565b91506129118361243f565b925082821015612924576129236128cc565b5b828203905092915050565b60008151905061293e81612449565b92915050565b60006020828403121561295a576129596123dc565b5b60006129688482850161292f565b91505092915050565b7f4e487b7100000000000000000000000000000000000000000000000000000000600052601260045260246000fd5b60006129ab8261243f565b91506129b68361243f565b9250826129c6576129c5612971565b5b828204905092915050565b60006040820190506129e660008301856124eb565b6129f36020830184612515565b9392505050565b612a03816124b5565b8114612a0e57600080fd5b50565b600081519050612a20816129fa565b92915050565b600060208284031215612a3c57612a3b6123dc565b5b6000612a4a84828501612a11565b91505092915050565b7f5768616c65737761703a204b0000000000000000000000000000000000000000600082015250565b6000612a89600c8361232c565b9150612a9482612a53565b602082019050919050565b60006020820190508181036000830152612ab881612a7c565b9050919050565b7f5045524d49545f444541444c494e455f45585049524544000000000000000000600082015250565b6000612af560178361232c565b9150612b0082612abf565b602082019050919050565b60006020820190508181036000830152612b2481612ae8565b9050919050565b600060c082019050612b40600083018961259c565b612b4d60208301886124eb565b612b5a60408301876124eb565b612b676060830186612515565b612b746080830185612515565b612b8160a0830184612515565b979650505050505050565b600081905092915050565b7f1901000000000000000000000000000000000000000000000000000000000000600082015250565b6000612bcd600283612b8c565b9150612bd882612b97565b600282019050919050565b6000819050919050565b612bfe612bf982612592565b612be3565b82525050565b6000612c0f82612bc0565b9150612c1b8285612bed565b602082019150612c2b8284612bed565b6020820191508190509392505050565b6000608082019050612c50600083018761259c565b612c5d60208301866125d3565b612c6a604083018561259c565b612c77606083018461259c565b95945050505050565b7f494e56414c49445f5349474e4552000000000000000000000000000000000000600082015250565b6000612cb6600e8361232c565b9150612cc182612c80565b602082019050919050565b60006020820190508181036000830152612ce581612ca9565b9050919050565b600081905092915050565b60008190508160005260206000209050919050565b60008154612d198161289b565b612d238186612cec565b94506001821660008114612d3e5760018114612d4f57612d82565b60ff19831686528186019350612d82565b612d5885612cf7565b60005b83811015612d7a57815481890152600182019150602081019050612d5b565b838801955050505b50505092915050565b6000612d978284612d0c565b915081905092915050565b600060a082019050612db7600083018861259c565b612dc4602083018761259c565b612dd1604083018661259c565b612dde6060830185612515565b612deb60808301846124eb565b9695505050505050565b7f64732d6d6174682d7375622d756e646572666c6f770000000000000000000000600082015250565b6000612e2b60158361232c565b9150612e3682612df5565b602082019050919050565b60006020820190508181036000830152612e5a81612e1e565b9050919050565b6000612e6c8261243f565b9150612e778361243f565b9250817fffffffffffffffffffffffffffffffffffffffffffffffffffffffffffffffff0483118215151615612eb057612eaf6128cc565b5b828202905092915050565b7f64732d6d6174682d6d756c2d6f766572666c6f77000000000000000000000000600082015250565b6000612ef160148361232c565b9150612efc82612ebb565b602082019050919050565b60006020820190508181036000830152612f2081612ee4565b9050919050565b6000612f328261243f565b9150612f3d8361243f565b9250827fffffffffffffffffffffffffffffffffffffffffffffffffffffffffffffffff03821115612f7257612f716128cc565b5b828201905092915050565b6000612f888261243f565b9150612f938361243f565b925082612fa357612fa2612971565b5b828206905092915050565b6000612fb9826126cf565b9150612fc4836126cf565b925082821015612fd757612fd66128cc565b5b828203905092915050565b60007bffffffffffffffffffffffffffffffffffffffffffffffffffffffff82169050919050565b600061301582612fe2565b915061302083612fe2565b9250817bffffffffffffffffffffffffffffffffffffffffffffffffffffffff0483118215151615613055576130546128cc565b5b828202905092915050565b600061306b82612fe2565b915061307683612fe2565b92508261308657613085612971565b5b82820490509291505056fea26469706673582212202432919497e4f254e892bf91a224d58eb24cbf8522f0a5d45b2b602a3f9e5a3d64736f6c634300080d0033",
  "immutableReferences": {
    "24": [
      {
        "length": 32,
        "start": 2320
      }
    ],
    "43": [
      {
        "length": 32,
        "start": 2358
      }
    ],
    "45": [
      {
        "length": 32,
        "start": 2410
      }
    ]
  },
  "source": "pragma solidity >=0.4.21;\n\nimport \"@rari-capital/solmate/src/tokens/ERC20.sol\";\n\nimport \"./libraries/Math.sol\";\nimport \"./libraries/SafeMath.sol\";\nimport \"./libraries/UQ112x112.sol\";\n\ncontract Pair is ERC20 {\n    using SafeMath for uint256;\n    using UQ112x112 for uint224;\n\n    address public factory;\n    address public token0;\n    address public token1;\n    string public token0Name;\n    string public token1Name;\n\n    uint112 x;\n    uint112 y;\n    uint256 k;\n\n    uint256 public price0Cumulative;\n    uint256 public price1Cumulative;\n    uint32 public lastBlockTimestamp;\n\n    constructor(\n        address _token0,\n        address _token1,\n        string memory _token0Name,\n        string memory _token1Name,\n        uint256 _twammIntervalSize\n    ) ERC20(\"lWhale\", \"lWHL\", 18) {\n        factory = msg.sender;\n        token0 = _token0;\n        token1 = _token1;\n        token0Name = _token0Name;\n        token1Name = _token1Name;\n    }\n\n    function getAmounts()\n        external\n        view\n        returns (uint112 amount0, uint112 amount1)\n    {\n        amount0 = x;\n        amount1 = y;\n    }\n\n    // Utility function\n    function _update(\n        uint256 balance0,\n        uint256 balance1,\n        uint112 _x,\n        uint112 _y\n    ) private {\n        // Block timestamp calculations\n        uint32 blockTimestamp = uint32(block.timestamp % 2**32);\n        uint32 timeElapsed = blockTimestamp - lastBlockTimestamp;\n\n        // Add to cumulative price\n        if (timeElapsed > 0 && _x != 0 && _y != 0) {\n            price0Cumulative +=\n                uint256(UQ112x112.encode(_y).uqdiv(_x)) *\n                timeElapsed;\n            price1Cumulative +=\n                uint256(UQ112x112.encode(_x).uqdiv(_y)) *\n                timeElapsed;\n        }\n\n        // Update contract state variables\n        x = uint112(balance0);\n        y = uint112(balance1);\n        lastBlockTimestamp = blockTimestamp;\n    }\n\n    // --- Liquidity functions ---\n    function mint(address to) external returns (uint256 liquidity) {\n        // update reserves\n        uint256 balance0 = ERC20(token0).balanceOf(address(this));\n        uint256 balance1 = ERC20(token1).balanceOf(address(this));\n        uint256 amount0 = balance0.sub(x);\n        uint256 amount1 = balance1.sub(y);\n\n        if (totalSupply == 0) {\n            liquidity = Math.sqrt(amount0.mul(amount1));\n        } else {\n            liquidity = Math.min(\n                amount0.mul(totalSupply) / x,\n                amount1.mul(totalSupply) / y\n            );\n        }\n        _mint(to, liquidity); // ERC-20 function\n        _update(balance0, balance1, x, y);\n    }\n\n    // burn()\n    function burn(address to)\n        external\n        returns (uint256 amount0, uint256 amount1)\n    {\n        uint256 balance0 = ERC20(token0).balanceOf(address(this));\n        uint256 balance1 = ERC20(token1).balanceOf(address(this));\n        uint256 liquidity = balanceOf[address(this)];\n\n        amount0 = liquidity.mul(balance0) / totalSupply;\n        amount1 = liquidity.mul(balance1) / totalSupply;\n\n        _burn(address(this), liquidity); // burn liquidity tokens\n\n        // Transfer tokens back to LP\n        ERC20(token0).transfer(to, amount0);\n        ERC20(token1).transfer(to, amount1);\n\n        // Update balances\n        balance0 = ERC20(token0).balanceOf(address(this));\n        balance1 = ERC20(token1).balanceOf(address(this));\n\n        _update(balance0, balance1, x, y);\n    }\n\n    // swap()\n    function swap(\n        uint256 amount0Out,\n        uint256 amount1Out,\n        address to\n    ) external {\n        uint256 balance0;\n        uint256 balance1;\n        if (amount0Out > 0) {\n            ERC20(token0).transfer(to, amount0Out);\n        }\n        if (amount1Out > 0) {\n            ERC20(token1).transfer(to, amount1Out);\n        }\n        balance0 = ERC20(token0).balanceOf(address(this));\n        balance1 = ERC20(token1).balanceOf(address(this));\n\n        uint256 amount0In = balance0 > x - amount0Out\n            ? balance0 - (x - amount0Out)\n            : 0;\n        uint256 amount1In = balance1 > y - amount1Out\n            ? balance1 - (y - amount1Out)\n            : 0;\n\n        uint256 balance0Adjusted = balance0.mul(1000).sub(amount0In.mul(3));\n        uint256 balance1Adjusted = balance1.mul(1000).sub(amount1In.mul(3));\n        require(\n            balance0Adjusted.mul(balance1Adjusted) >=\n                uint256(x).mul(y).mul(1000**2),\n            \"Whaleswap: K\"\n        );\n\n        _update(balance0, balance1, x, y);\n    }\n}\n",
  "sourcePath": "/Users/kitwiggin/senior_design/WhaleSwapMVP/contracts/Pair.sol",
  "compiler": {
    "name": "solc",
    "version": "0.8.13+commit.abaa5c0e.Emscripten.clang"
  },
  "schemaVersion": "3.4.3",
  "updatedAt": "2022-04-05T19:03:55.784Z",
  "devdoc": {
    "kind": "dev",
    "methods": {},
    "version": 1
  },
  "userdoc": {
    "kind": "user",
    "methods": {},
    "version": 1
  }
}