{
  "contractName": "Pair",
  "abi": [
    {
      "inputs": [
        {
          "internalType": "address",
          "name": "_token0",
          "type": "address"
        },
        {
          "internalType": "address",
          "name": "_token1",
          "type": "address"
        },
        {
          "internalType": "string",
          "name": "_token0Name",
          "type": "string"
        },
        {
          "internalType": "string",
          "name": "_token1Name",
          "type": "string"
        },
        {
          "internalType": "uint256",
          "name": "_twammIntervalSize",
          "type": "uint256"
        }
      ],
      "stateMutability": "nonpayable",
      "type": "constructor"
    },
    {
      "anonymous": false,
      "inputs": [
        {
          "indexed": true,
          "internalType": "address",
          "name": "owner",
          "type": "address"
        },
        {
          "indexed": true,
          "internalType": "address",
          "name": "spender",
          "type": "address"
        },
        {
          "indexed": false,
          "internalType": "uint256",
          "name": "amount",
          "type": "uint256"
        }
      ],
      "name": "Approval",
      "type": "event"
    },
    {
      "anonymous": false,
      "inputs": [],
      "name": "BurnLiquidity",
      "type": "event"
    },
    {
      "anonymous": false,
      "inputs": [],
      "name": "CancelLongTermOrder",
      "type": "event"
    },
    {
      "anonymous": false,
      "inputs": [],
      "name": "CreateLongTermOrder",
      "type": "event"
    },
    {
      "anonymous": false,
      "inputs": [],
      "name": "MintLiquidity",
      "type": "event"
    },
    {
      "anonymous": false,
      "inputs": [],
      "name": "Swap",
      "type": "event"
    },
    {
      "anonymous": false,
      "inputs": [
        {
          "indexed": true,
          "internalType": "address",
          "name": "from",
          "type": "address"
        },
        {
          "indexed": true,
          "internalType": "address",
          "name": "to",
          "type": "address"
        },
        {
          "indexed": false,
          "internalType": "uint256",
          "name": "amount",
          "type": "uint256"
        }
      ],
      "name": "Transfer",
      "type": "event"
    },
    {
      "anonymous": false,
      "inputs": [],
      "name": "WithdrawLongTermOrder",
      "type": "event"
    },
    {
      "inputs": [],
      "name": "DOMAIN_SEPARATOR",
      "outputs": [
        {
          "internalType": "bytes32",
          "name": "",
          "type": "bytes32"
        }
      ],
      "stateMutability": "view",
      "type": "function"
    },
    {
      "inputs": [],
      "name": "PERMIT_TYPEHASH",
      "outputs": [
        {
          "internalType": "bytes32",
          "name": "",
          "type": "bytes32"
        }
      ],
      "stateMutability": "view",
      "type": "function"
    },
    {
      "inputs": [
        {
          "internalType": "address",
          "name": "",
          "type": "address"
        },
        {
          "internalType": "address",
          "name": "",
          "type": "address"
        }
      ],
      "name": "allowance",
      "outputs": [
        {
          "internalType": "uint256",
          "name": "",
          "type": "uint256"
        }
      ],
      "stateMutability": "view",
      "type": "function"
    },
    {
      "inputs": [
        {
          "internalType": "address",
          "name": "spender",
          "type": "address"
        },
        {
          "internalType": "uint256",
          "name": "amount",
          "type": "uint256"
        }
      ],
      "name": "approve",
      "outputs": [
        {
          "internalType": "bool",
          "name": "",
          "type": "bool"
        }
      ],
      "stateMutability": "nonpayable",
      "type": "function"
    },
    {
      "inputs": [
        {
          "internalType": "address",
          "name": "",
          "type": "address"
        }
      ],
      "name": "balanceOf",
      "outputs": [
        {
          "internalType": "uint256",
          "name": "",
          "type": "uint256"
        }
      ],
      "stateMutability": "view",
      "type": "function"
    },
    {
      "inputs": [],
      "name": "decimals",
      "outputs": [
        {
          "internalType": "uint8",
          "name": "",
          "type": "uint8"
        }
      ],
      "stateMutability": "view",
      "type": "function"
    },
    {
      "inputs": [],
      "name": "factory",
      "outputs": [
        {
          "internalType": "address",
          "name": "",
          "type": "address"
        }
      ],
      "stateMutability": "view",
      "type": "function"
    },
    {
      "inputs": [],
      "name": "lastBlockTimestamp",
      "outputs": [
        {
          "internalType": "uint32",
          "name": "",
          "type": "uint32"
        }
      ],
      "stateMutability": "view",
      "type": "function"
    },
    {
      "inputs": [],
      "name": "name",
      "outputs": [
        {
          "internalType": "string",
          "name": "",
          "type": "string"
        }
      ],
      "stateMutability": "view",
      "type": "function"
    },
    {
      "inputs": [
        {
          "internalType": "address",
          "name": "",
          "type": "address"
        }
      ],
      "name": "nonces",
      "outputs": [
        {
          "internalType": "uint256",
          "name": "",
          "type": "uint256"
        }
      ],
      "stateMutability": "view",
      "type": "function"
    },
    {
      "inputs": [
        {
          "internalType": "address",
          "name": "owner",
          "type": "address"
        },
        {
          "internalType": "address",
          "name": "spender",
          "type": "address"
        },
        {
          "internalType": "uint256",
          "name": "value",
          "type": "uint256"
        },
        {
          "internalType": "uint256",
          "name": "deadline",
          "type": "uint256"
        },
        {
          "internalType": "uint8",
          "name": "v",
          "type": "uint8"
        },
        {
          "internalType": "bytes32",
          "name": "r",
          "type": "bytes32"
        },
        {
          "internalType": "bytes32",
          "name": "s",
          "type": "bytes32"
        }
      ],
      "name": "permit",
      "outputs": [],
      "stateMutability": "nonpayable",
      "type": "function"
    },
    {
      "inputs": [],
      "name": "price0Cumulative",
      "outputs": [
        {
          "internalType": "uint256",
          "name": "",
          "type": "uint256"
        }
      ],
      "stateMutability": "view",
      "type": "function"
    },
    {
      "inputs": [],
      "name": "price1Cumulative",
      "outputs": [
        {
          "internalType": "uint256",
          "name": "",
          "type": "uint256"
        }
      ],
      "stateMutability": "view",
      "type": "function"
    },
    {
      "inputs": [],
      "name": "symbol",
      "outputs": [
        {
          "internalType": "string",
          "name": "",
          "type": "string"
        }
      ],
      "stateMutability": "view",
      "type": "function"
    },
    {
      "inputs": [],
      "name": "token0",
      "outputs": [
        {
          "internalType": "address",
          "name": "",
          "type": "address"
        }
      ],
      "stateMutability": "view",
      "type": "function"
    },
    {
      "inputs": [],
      "name": "token0Name",
      "outputs": [
        {
          "internalType": "string",
          "name": "",
          "type": "string"
        }
      ],
      "stateMutability": "view",
      "type": "function"
    },
    {
      "inputs": [],
      "name": "token1",
      "outputs": [
        {
          "internalType": "address",
          "name": "",
          "type": "address"
        }
      ],
      "stateMutability": "view",
      "type": "function"
    },
    {
      "inputs": [],
      "name": "token1Name",
      "outputs": [
        {
          "internalType": "string",
          "name": "",
          "type": "string"
        }
      ],
      "stateMutability": "view",
      "type": "function"
    },
    {
      "inputs": [],
      "name": "totalSupply",
      "outputs": [
        {
          "internalType": "uint256",
          "name": "",
          "type": "uint256"
        }
      ],
      "stateMutability": "view",
      "type": "function"
    },
    {
      "inputs": [
        {
          "internalType": "address",
          "name": "to",
          "type": "address"
        },
        {
          "internalType": "uint256",
          "name": "amount",
          "type": "uint256"
        }
      ],
      "name": "transfer",
      "outputs": [
        {
          "internalType": "bool",
          "name": "",
          "type": "bool"
        }
      ],
      "stateMutability": "nonpayable",
      "type": "function"
    },
    {
      "inputs": [
        {
          "internalType": "address",
          "name": "from",
          "type": "address"
        },
        {
          "internalType": "address",
          "name": "to",
          "type": "address"
        },
        {
          "internalType": "uint256",
          "name": "amount",
          "type": "uint256"
        }
      ],
      "name": "transferFrom",
      "outputs": [
        {
          "internalType": "bool",
          "name": "",
          "type": "bool"
        }
      ],
      "stateMutability": "nonpayable",
      "type": "function"
    },
    {
      "inputs": [],
      "name": "getAmounts",
      "outputs": [
        {
          "internalType": "uint112",
          "name": "amount0",
          "type": "uint112"
        },
        {
          "internalType": "uint112",
          "name": "amount1",
          "type": "uint112"
        }
      ],
      "stateMutability": "view",
      "type": "function"
    },
    {
      "inputs": [],
      "name": "getLongTermOrderInterval",
      "outputs": [
        {
          "internalType": "uint256",
          "name": "blockInterval",
          "type": "uint256"
        }
      ],
      "stateMutability": "view",
      "type": "function"
    },
    {
      "inputs": [
        {
          "internalType": "address",
          "name": "_to",
          "type": "address"
        },
        {
          "internalType": "uint256",
          "name": "_amountInX",
          "type": "uint256"
        },
        {
          "internalType": "uint256",
          "name": "_amountInY",
          "type": "uint256"
        }
      ],
      "name": "mint",
      "outputs": [
        {
          "internalType": "uint256",
          "name": "liquidity",
          "type": "uint256"
        }
      ],
      "stateMutability": "nonpayable",
      "type": "function"
    },
    {
      "inputs": [
        {
          "internalType": "uint256",
          "name": "_amountIn",
          "type": "uint256"
        },
        {
          "internalType": "bool",
          "name": "_tokenInIsX",
          "type": "bool"
        },
        {
          "internalType": "address",
          "name": "_to",
          "type": "address"
        }
      ],
      "name": "swap",
      "outputs": [],
      "stateMutability": "nonpayable",
      "type": "function"
    },
    {
      "inputs": [
        {
          "internalType": "uint256",
          "name": "_intervalNumber",
          "type": "uint256"
        },
        {
          "internalType": "uint256",
          "name": "_totalXIn",
          "type": "uint256"
        }
      ],
      "name": "longTermSwapTokenXtoY",
      "outputs": [],
      "stateMutability": "nonpayable",
      "type": "function"
    },
    {
      "inputs": [
        {
          "internalType": "uint256",
          "name": "_intervalNumber",
          "type": "uint256"
        },
        {
          "internalType": "uint256",
          "name": "_totalYIn",
          "type": "uint256"
        }
      ],
      "name": "longTermSwapTokenYtoX",
      "outputs": [],
      "stateMutability": "nonpayable",
      "type": "function"
    },
    {
      "inputs": [
        {
          "internalType": "uint256",
          "name": "_id",
          "type": "uint256"
        }
      ],
      "name": "getLongTermSwapXtoY",
      "outputs": [
        {
          "components": [
            {
              "internalType": "uint256",
              "name": "id",
              "type": "uint256"
            },
            {
              "internalType": "address",
              "name": "creator",
              "type": "address"
            },
            {
              "internalType": "uint256",
              "name": "beginBlock",
              "type": "uint256"
            },
            {
              "internalType": "uint256",
              "name": "finalBlock",
              "type": "uint256"
            },
            {
              "internalType": "uint256",
              "name": "ratePerBlock",
              "type": "uint256"
            },
            {
              "internalType": "bool",
              "name": "active",
              "type": "bool"
            }
          ],
          "internalType": "struct TWAMM.LongTermOrder",
          "name": "order",
          "type": "tuple"
        }
      ],
      "stateMutability": "view",
      "type": "function"
    },
    {
      "inputs": [
        {
          "internalType": "uint256",
          "name": "_id",
          "type": "uint256"
        }
      ],
      "name": "getLongTermSwapYtoX",
      "outputs": [
        {
          "components": [
            {
              "internalType": "uint256",
              "name": "id",
              "type": "uint256"
            },
            {
              "internalType": "address",
              "name": "creator",
              "type": "address"
            },
            {
              "internalType": "uint256",
              "name": "beginBlock",
              "type": "uint256"
            },
            {
              "internalType": "uint256",
              "name": "finalBlock",
              "type": "uint256"
            },
            {
              "internalType": "uint256",
              "name": "ratePerBlock",
              "type": "uint256"
            },
            {
              "internalType": "bool",
              "name": "active",
              "type": "bool"
            }
          ],
          "internalType": "struct TWAMM.LongTermOrder",
          "name": "order",
          "type": "tuple"
        }
      ],
      "stateMutability": "view",
      "type": "function"
    },
    {
      "inputs": [
        {
          "internalType": "uint256",
          "name": "_id",
          "type": "uint256"
        },
        {
          "internalType": "address",
          "name": "_token0",
          "type": "address"
        },
        {
          "internalType": "address",
          "name": "_token1",
          "type": "address"
        }
      ],
      "name": "withdrawLongTermOrder",
      "outputs": [],
      "stateMutability": "nonpayable",
      "type": "function"
    }
  ],
  "bytecode": "0x6101206040523480156200001257600080fd5b50604051620044bf380380620044bf833981810160405281019062000038919062000624565b6040518060400160405280600681526020017f6c5768616c6500000000000000000000000000000000000000000000000000008152506040518060400160405280600481526020017f6c57484c0000000000000000000000000000000000000000000000000000000081525060128260009080519060200190620000be92919062000337565b508160019080519060200190620000d792919062000337565b508060ff1660808160ff16815250504660a08181525050620000fe6200020960201b60201c565b60c0818152505050505033600660006101000a81548173ffffffffffffffffffffffffffffffffffffffff021916908373ffffffffffffffffffffffffffffffffffffffff1602179055508473ffffffffffffffffffffffffffffffffffffffff1660e08173ffffffffffffffffffffffffffffffffffffffff16815250508373ffffffffffffffffffffffffffffffffffffffff166101008173ffffffffffffffffffffffffffffffffffffffff16815250508260079080519060200190620001ca92919062000337565b508160089080519060200190620001e392919062000337565b50620001fe600c8686846200029960201b62001d9c1760201c565b5050505050620008ac565b60007f8b73c3c69bb8fe3d512ecc4cf759cc79239f7b179b0ffacaa9a75d522b39400f60006040516200023d9190620007f9565b60405180910390207fc89efdaa54c0f20c7adf612882df0950f5a951637e0307cdcb4c672f298b8bc646306040516020016200027e9594939291906200084f565b60405160208183030381529060405280519060200120905090565b808460000181905550438460010181905550828460020160006101000a81548173ffffffffffffffffffffffffffffffffffffffff021916908373ffffffffffffffffffffffffffffffffffffffff160217905550818460030160006101000a81548173ffffffffffffffffffffffffffffffffffffffff021916908373ffffffffffffffffffffffffffffffffffffffff16021790555050505050565b828054620003459062000719565b90600052602060002090601f016020900481019282620003695760008555620003b5565b82601f106200038457805160ff1916838001178555620003b5565b82800160010185558215620003b5579182015b82811115620003b457825182559160200191906001019062000397565b5b509050620003c49190620003c8565b5090565b5b80821115620003e3576000816000905550600101620003c9565b5090565b6000604051905090565b600080fd5b600080fd5b600073ffffffffffffffffffffffffffffffffffffffff82169050919050565b60006200042882620003fb565b9050919050565b6200043a816200041b565b81146200044657600080fd5b50565b6000815190506200045a816200042f565b92915050565b600080fd5b600080fd5b6000601f19601f8301169050919050565b7f4e487b7100000000000000000000000000000000000000000000000000000000600052604160045260246000fd5b620004b5826200046a565b810181811067ffffffffffffffff82111715620004d757620004d66200047b565b5b80604052505050565b6000620004ec620003e7565b9050620004fa8282620004aa565b919050565b600067ffffffffffffffff8211156200051d576200051c6200047b565b5b62000528826200046a565b9050602081019050919050565b60005b838110156200055557808201518184015260208101905062000538565b8381111562000565576000848401525b50505050565b6000620005826200057c84620004ff565b620004e0565b905082815260208101848484011115620005a157620005a062000465565b5b620005ae84828562000535565b509392505050565b600082601f830112620005ce57620005cd62000460565b5b8151620005e08482602086016200056b565b91505092915050565b6000819050919050565b620005fe81620005e9565b81146200060a57600080fd5b50565b6000815190506200061e81620005f3565b92915050565b600080600080600060a08688031215620006435762000642620003f1565b5b6000620006538882890162000449565b9550506020620006668882890162000449565b945050604086015167ffffffffffffffff8111156200068a5762000689620003f6565b5b6200069888828901620005b6565b935050606086015167ffffffffffffffff811115620006bc57620006bb620003f6565b5b620006ca88828901620005b6565b9250506080620006dd888289016200060d565b9150509295509295909350565b7f4e487b7100000000000000000000000000000000000000000000000000000000600052602260045260246000fd5b600060028204905060018216806200073257607f821691505b602082108103620007485762000747620006ea565b5b50919050565b600081905092915050565b60008190508160005260206000209050919050565b600081546200077d8162000719565b6200078981866200074e565b94506001821660008114620007a75760018114620007b957620007f0565b60ff19831686528186019350620007f0565b620007c48562000759565b60005b83811015620007e857815481890152600182019150602081019050620007c7565b838801955050505b50505092915050565b60006200080782846200076e565b915081905092915050565b6000819050919050565b620008278162000812565b82525050565b6200083881620005e9565b82525050565b62000849816200041b565b82525050565b600060a0820190506200086660008301886200081c565b6200087560208301876200081c565b6200088460408301866200081c565b6200089360608301856200082d565b620008a260808301846200083e565b9695505050505050565b60805160a05160c05160e05161010051613b5e620009616000396000818161085601528181610ab101528181610f62015281816110c20152818161139301528181611574015281816117fe01528181611b8d015261218701526000818161077e015281816107b501528181610ad201528181610e3a015281816111ea015281816113f00152818161155301528181611b30015261223501526000610dc801526000610d9401526000610d6e0152613b5e6000f3fe608060405234801561001057600080fd5b50600436106101da5760003560e01c80637ecebe0011610104578063cc5864ee116100a2578063dd62ed3e11610071578063dd62ed3e14610574578063e7563e0b146105a4578063f7029a26146105c2578063f9063ba1146105de576101da565b8063cc5864ee146104ec578063d21220a71461050a578063d505accf14610528578063d92b15a014610544576101da565b806395d89b41116100de57806395d89b4114610462578063a9059cbb14610480578063c2d12e4b146104b0578063c45a0155146104ce576101da565b80637ecebe00146103f857806385e63fc61461042857806388ed31f614610446576101da565b806330adf81f1161017c5780634af0871b1161014b5780634af0871b1461035e578063535cc24d1461037a57806358c4bd131461039857806370a08231146103c8576101da565b806330adf81f146102e5578063313ce567146103035780633644e515146103215780633d370b4e1461033f576101da565b8063156e29f6116101b8578063156e29f61461024b57806318160ddd1461027b578063187e7e581461029957806323b872dd146102b5576101da565b806306fdde03146101df578063095ea7b3146101fd5780630dfe16811461022d575b600080fd5b6101e76105fc565b6040516101f49190612a6b565b60405180910390f35b61021760048036038101906102129190612b26565b61068a565b6040516102249190612b81565b60405180910390f35b61023561077c565b6040516102429190612bab565b60405180910390f35b61026560048036038101906102609190612bc6565b6107a0565b6040516102729190612c28565b60405180910390f35b610283610aa6565b6040516102909190612c28565b60405180910390f35b6102b360048036038101906102ae9190612c43565b610aac565b005b6102cf60048036038101906102ca9190612c83565b610afe565b6040516102dc9190612b81565b60405180910390f35b6102ed610d48565b6040516102fa9190612cef565b60405180910390f35b61030b610d6c565b6040516103189190612d26565b60405180910390f35b610329610d90565b6040516103369190612cef565b60405180910390f35b610347610ded565b604051610355929190612d6a565b60405180910390f35b61037860048036038101906103739190612dbf565b610e32565b005b610382611375565b60405161038f9190612c28565b60405180910390f35b6103b260048036038101906103ad9190612e12565b611382565b6040516103bf9190612ee7565b60405180910390f35b6103e260048036038101906103dd9190612f02565b611508565b6040516103ef9190612c28565b60405180910390f35b610412600480360381019061040d9190612f02565b611520565b60405161041f9190612c28565b60405180910390f35b610430611538565b60405161043d9190612f4e565b60405180910390f35b610460600480360381019061045b9190612c43565b61154e565b005b61046a6115a0565b6040516104779190612a6b565b60405180910390f35b61049a60048036038101906104959190612b26565b61162e565b6040516104a79190612b81565b60405180910390f35b6104b8611742565b6040516104c59190612a6b565b60405180910390f35b6104d66117d0565b6040516104e39190612bab565b60405180910390f35b6104f46117f6565b6040516105019190612c28565b60405180910390f35b6105126117fc565b60405161051f9190612bab565b60405180910390f35b610542600480360381019061053d9190612fc1565b611820565b005b61055e60048036038101906105599190612e12565b611b1f565b60405161056b9190612ee7565b60405180910390f35b61058e60048036038101906105899190613063565b611ca5565b60405161059b9190612c28565b60405180910390f35b6105ac611cca565b6040516105b99190612a6b565b60405180910390f35b6105dc60048036038101906105d791906130a3565b611d58565b005b6105e6611d96565b6040516105f39190612c28565b60405180910390f35b6000805461060990613125565b80601f016020809104026020016040519081016040528092919081815260200182805461063590613125565b80156106825780601f1061065757610100808354040283529160200191610682565b820191906000526020600020905b81548152906001019060200180831161066557829003601f168201915b505050505081565b600081600460003373ffffffffffffffffffffffffffffffffffffffff1673ffffffffffffffffffffffffffffffffffffffff16815260200190815260200160002060008573ffffffffffffffffffffffffffffffffffffffff1673ffffffffffffffffffffffffffffffffffffffff168152602001908152602001600020819055508273ffffffffffffffffffffffffffffffffffffffff163373ffffffffffffffffffffffffffffffffffffffff167f8c5be1e5ebec7d5bd14f71427d1e84f3dd0314c0f7b2291e5b200ac8c7c3b9258460405161076a9190612c28565b60405180910390a36001905092915050565b7f000000000000000000000000000000000000000000000000000000000000000081565b60008060006107af8585611e3a565b915091507f000000000000000000000000000000000000000000000000000000000000000073ffffffffffffffffffffffffffffffffffffffff166323b872dd3330856040518463ffffffff1660e01b815260040161081093929190613156565b6020604051808303816000875af115801561082f573d6000803e3d6000fd5b505050506040513d601f19601f8201168201806040525081019061085391906131a2565b507f000000000000000000000000000000000000000000000000000000000000000073ffffffffffffffffffffffffffffffffffffffff166323b872dd3330846040518463ffffffff1660e01b81526004016108b193929190613156565b6020604051808303816000875af11580156108d0573d6000803e3d6000fd5b505050506040513d601f19601f820116820180604052508101906108f491906131a2565b5060006002540361091a57610913818361090e91906131fe565b611fca565b92506109af565b6109ac600b60009054906101000a90046dffffffffffffffffffffffffffff166dffffffffffffffffffffffffffff166002548461095891906131fe565b6109629190613287565b600b600e9054906101000a90046dffffffffffffffffffffffffffff166dffffffffffffffffffffffffffff166002548461099d91906131fe565b6109a79190613287565b612044565b92505b6109b9868461205d565b81600b60009054906101000a90046dffffffffffffffffffffffffffff166109e191906132b8565b600b60006101000a8154816dffffffffffffffffffffffffffff02191690836dffffffffffffffffffffffffffff16021790555080600b600e9054906101000a90046dffffffffffffffffffffffffffff16610a3d91906132b8565b600b600e6101000a8154816dffffffffffffffffffffffffffff02191690836dffffffffffffffffffffffffffff1602179055507fb792c15144fb9406bc07a4265f506a9f224141cefbf91fac2225f38ee380dd8660405160405180910390a150509392505050565b60025481565b610afa7f00000000000000000000000000000000000000000000000000000000000000007f00000000000000000000000000000000000000000000000000000000000000008460008561212d565b5050565b600080600460008673ffffffffffffffffffffffffffffffffffffffff1673ffffffffffffffffffffffffffffffffffffffff16815260200190815260200160002060003373ffffffffffffffffffffffffffffffffffffffff1673ffffffffffffffffffffffffffffffffffffffff1681526020019081526020016000205490507fffffffffffffffffffffffffffffffffffffffffffffffffffffffffffffffff8114610c34578281610bb391906132fc565b600460008773ffffffffffffffffffffffffffffffffffffffff1673ffffffffffffffffffffffffffffffffffffffff16815260200190815260200160002060003373ffffffffffffffffffffffffffffffffffffffff1673ffffffffffffffffffffffffffffffffffffffff168152602001908152602001600020819055505b82600360008773ffffffffffffffffffffffffffffffffffffffff1673ffffffffffffffffffffffffffffffffffffffff1681526020019081526020016000206000828254610c8391906132fc565b9250508190555082600360008673ffffffffffffffffffffffffffffffffffffffff1673ffffffffffffffffffffffffffffffffffffffff168152602001908152602001600020600082825401925050819055508373ffffffffffffffffffffffffffffffffffffffff168573ffffffffffffffffffffffffffffffffffffffff167fddf252ad1be2c89b69c2b068fc378daa952ba7f163c4a11628f55a4df523b3ef85604051610d349190612c28565b60405180910390a360019150509392505050565b7f6e71edae12b1b97f4d1f60370fef10105fa2faae0126114a169c64845d6126c981565b7f000000000000000000000000000000000000000000000000000000000000000081565b60007f00000000000000000000000000000000000000000000000000000000000000004614610dc657610dc1612340565b610de8565b7f00000000000000000000000000000000000000000000000000000000000000005b905090565b600080600b60009054906101000a90046dffffffffffffffffffffffffffff169150600b600e9054906101000a90046dffffffffffffffffffffffffffff1690509091565b81156110c0577f000000000000000000000000000000000000000000000000000000000000000073ffffffffffffffffffffffffffffffffffffffff166323b872dd3330866040518463ffffffff1660e01b8152600401610e9593929190613156565b6020604051808303816000875af1158015610eb4573d6000803e3d6000fd5b505050506040513d601f19601f82011682018060405250810190610ed891906131a2565b506000600b60009054906101000a90046dffffffffffffffffffffffffffff166dffffffffffffffffffffffffffff1684610f139190613330565b600b600e9054906101000a90046dffffffffffffffffffffffffffff166dffffffffffffffffffffffffffff1685610f4b91906131fe565b610f559190613287565b905060008111156110ba577f000000000000000000000000000000000000000000000000000000000000000073ffffffffffffffffffffffffffffffffffffffff1663a9059cbb83836040518363ffffffff1660e01b8152600401610fbb929190613386565b6020604051808303816000875af1158015610fda573d6000803e3d6000fd5b505050506040513d601f19601f82011682018060405250810190610ffe91906131a2565b5083600b60008282829054906101000a90046dffffffffffffffffffffffffffff1661102a91906132b8565b92506101000a8154816dffffffffffffffffffffffffffff02191690836dffffffffffffffffffffffffffff16021790555080600b600e8282829054906101000a90046dffffffffffffffffffffffffffff1661108791906133af565b92506101000a8154816dffffffffffffffffffffffffffff02191690836dffffffffffffffffffffffffffff1602179055505b50611344565b7f000000000000000000000000000000000000000000000000000000000000000073ffffffffffffffffffffffffffffffffffffffff166323b872dd3330866040518463ffffffff1660e01b815260040161111d93929190613156565b6020604051808303816000875af115801561113c573d6000803e3d6000fd5b505050506040513d601f19601f8201168201806040525081019061116091906131a2565b506000600b600e9054906101000a90046dffffffffffffffffffffffffffff166dffffffffffffffffffffffffffff168461119b9190613330565b600b60009054906101000a90046dffffffffffffffffffffffffffff166dffffffffffffffffffffffffffff16856111d391906131fe565b6111dd9190613287565b90506000811115611342577f000000000000000000000000000000000000000000000000000000000000000073ffffffffffffffffffffffffffffffffffffffff1663a9059cbb83836040518363ffffffff1660e01b8152600401611243929190613386565b6020604051808303816000875af1158015611262573d6000803e3d6000fd5b505050506040513d601f19601f8201168201806040525081019061128691906131a2565b5080600b60008282829054906101000a90046dffffffffffffffffffffffffffff166112b291906133af565b92506101000a8154816dffffffffffffffffffffffffffff02191690836dffffffffffffffffffffffffffff16021790555083600b600e8282829054906101000a90046dffffffffffffffffffffffffffff1661130f91906132b8565b92506101000a8154816dffffffffffffffffffffffffffff02191690836dffffffffffffffffffffffffffff1602179055505b505b7f3ebfdaaf4031bec9a2b7b0a1c594d2d03f3d0b8d68531c9164c2829bac00fefa60405160405180910390a1505050565b6000600c60000154905090565b61138a612984565b600c60040160007f000000000000000000000000000000000000000000000000000000000000000073ffffffffffffffffffffffffffffffffffffffff1673ffffffffffffffffffffffffffffffffffffffff16815260200190815260200160002060007f000000000000000000000000000000000000000000000000000000000000000073ffffffffffffffffffffffffffffffffffffffff1673ffffffffffffffffffffffffffffffffffffffff16815260200190815260200160002060050160008381526020019081526020016000206040518060c0016040529081600082015481526020016001820160009054906101000a900473ffffffffffffffffffffffffffffffffffffffff1673ffffffffffffffffffffffffffffffffffffffff1673ffffffffffffffffffffffffffffffffffffffff1681526020016002820154815260200160038201548152602001600482015481526020016005820160009054906101000a900460ff1615151515815250509050919050565b60036020528060005260406000206000915090505481565b60056020528060005260406000206000915090505481565b600b601c9054906101000a900463ffffffff1681565b61159c7f00000000000000000000000000000000000000000000000000000000000000007f00000000000000000000000000000000000000000000000000000000000000008484600061212d565b5050565b600180546115ad90613125565b80601f01602080910402602001604051908101604052809291908181526020018280546115d990613125565b80156116265780601f106115fb57610100808354040283529160200191611626565b820191906000526020600020905b81548152906001019060200180831161160957829003601f168201915b505050505081565b600081600360003373ffffffffffffffffffffffffffffffffffffffff1673ffffffffffffffffffffffffffffffffffffffff168152602001908152602001600020600082825461167f91906132fc565b9250508190555081600360008573ffffffffffffffffffffffffffffffffffffffff1673ffffffffffffffffffffffffffffffffffffffff168152602001908152602001600020600082825401925050819055508273ffffffffffffffffffffffffffffffffffffffff163373ffffffffffffffffffffffffffffffffffffffff167fddf252ad1be2c89b69c2b068fc378daa952ba7f163c4a11628f55a4df523b3ef846040516117309190612c28565b60405180910390a36001905092915050565b6008805461174f90613125565b80601f016020809104026020016040519081016040528092919081815260200182805461177b90613125565b80156117c85780601f1061179d576101008083540402835291602001916117c8565b820191906000526020600020905b8154815290600101906020018083116117ab57829003601f168201915b505050505081565b600660009054906101000a900473ffffffffffffffffffffffffffffffffffffffff1681565b600a5481565b7f000000000000000000000000000000000000000000000000000000000000000081565b42841015611863576040517f08c379a000000000000000000000000000000000000000000000000000000000815260040161185a9061342f565b60405180910390fd5b600061186d610d90565b7f6e71edae12b1b97f4d1f60370fef10105fa2faae0126114a169c64845d6126c9898989600560008e73ffffffffffffffffffffffffffffffffffffffff1673ffffffffffffffffffffffffffffffffffffffff1681526020019081526020016000206000815480929190600101919050558a6040516020016118f59695949392919061344f565b6040516020818303038152906040528051906020012060405160200161191c929190613528565b604051602081830303815290604052805190602001209050600060018286868660405160008152602001604052604051611959949392919061355f565b6020604051602081039080840390855afa15801561197b573d6000803e3d6000fd5b505050602060405103519050600073ffffffffffffffffffffffffffffffffffffffff168173ffffffffffffffffffffffffffffffffffffffff16141580156119ef57508873ffffffffffffffffffffffffffffffffffffffff168173ffffffffffffffffffffffffffffffffffffffff16145b611a2e576040517f08c379a0000000000000000000000000000000000000000000000000000000008152600401611a25906135f0565b60405180910390fd5b86600460008373ffffffffffffffffffffffffffffffffffffffff1673ffffffffffffffffffffffffffffffffffffffff16815260200190815260200160002060008a73ffffffffffffffffffffffffffffffffffffffff1673ffffffffffffffffffffffffffffffffffffffff1681526020019081526020016000208190555050508573ffffffffffffffffffffffffffffffffffffffff168773ffffffffffffffffffffffffffffffffffffffff167f8c5be1e5ebec7d5bd14f71427d1e84f3dd0314c0f7b2291e5b200ac8c7c3b92587604051611b0e9190612c28565b60405180910390a350505050505050565b611b27612984565b600c60040160007f000000000000000000000000000000000000000000000000000000000000000073ffffffffffffffffffffffffffffffffffffffff1673ffffffffffffffffffffffffffffffffffffffff16815260200190815260200160002060007f000000000000000000000000000000000000000000000000000000000000000073ffffffffffffffffffffffffffffffffffffffff1673ffffffffffffffffffffffffffffffffffffffff16815260200190815260200160002060050160008381526020019081526020016000206040518060c0016040529081600082015481526020016001820160009054906101000a900473ffffffffffffffffffffffffffffffffffffffff1673ffffffffffffffffffffffffffffffffffffffff1673ffffffffffffffffffffffffffffffffffffffff1681526020016002820154815260200160038201548152602001600482015481526020016005820160009054906101000a900460ff1615151515815250509050919050565b6004602052816000526040600020602052806000526040600020600091509150505481565b60078054611cd790613125565b80601f0160208091040260200160405190810160405280929190818152602001828054611d0390613125565b8015611d505780601f10611d2557610100808354040283529160200191611d50565b820191906000526020600020905b815481529060010190602001808311611d3357829003601f168201915b505050505081565b611d65600c8484846123cc565b7f10217171ff978e29ba81284390d4a1c97d84c52ca9478b05f72ed22e85b601fe60405160405180910390a1505050565b60095481565b808460000181905550438460010181905550828460020160006101000a81548173ffffffffffffffffffffffffffffffffffffffff021916908373ffffffffffffffffffffffffffffffffffffffff160217905550818460030160006101000a81548173ffffffffffffffffffffffffffffffffffffffff021916908373ffffffffffffffffffffffffffffffffffffffff16021790555050505050565b6000806000600b60009054906101000a90046dffffffffffffffffffffffffffff166dffffffffffffffffffffffffffff16148015611ea557506000600b600e9054906101000a90046dffffffffffffffffffffffffffff166dffffffffffffffffffffffffffff16145b15611eb95783838092508193505050611fc3565b6000600b60009054906101000a90046dffffffffffffffffffffffffffff166dffffffffffffffffffffffffffff16600b600e9054906101000a90046dffffffffffffffffffffffffffff166dffffffffffffffffffffffffffff1686611f2091906131fe565b611f2a9190613287565b9050838111611f425784818093508194505050611fc1565b6000600b600e9054906101000a90046dffffffffffffffffffffffffffff166dffffffffffffffffffffffffffff16600b60009054906101000a90046dffffffffffffffffffffffffffff166dffffffffffffffffffffffffffff1686611fa991906131fe565b611fb39190613287565b905080858094508195505050505b505b9250929050565b600060038211156120315781905060006001600284611fe99190613287565b611ff39190613330565b90505b8181101561202b5780915060028182856120109190613287565b61201a9190613330565b6120249190613287565b9050611ff6565b5061203f565b6000821461203e57600190505b5b919050565b60008183106120535781612055565b825b905092915050565b806002600082825461206f9190613330565b9250508190555080600360008473ffffffffffffffffffffffffffffffffffffffff1673ffffffffffffffffffffffffffffffffffffffff168152602001908152602001600020600082825401925050819055508173ffffffffffffffffffffffffffffffffffffffff16600073ffffffffffffffffffffffffffffffffffffffff167fddf252ad1be2c89b69c2b068fc378daa952ba7f163c4a11628f55a4df523b3ef836040516121219190612c28565b60405180910390a35050565b6000600c60000154436121409190613610565b600c6000015461215091906132fc565b4361215b9190613330565b90506000600c600001548561217091906131fe565b8261217b9190613330565b90506000840361222b577f000000000000000000000000000000000000000000000000000000000000000073ffffffffffffffffffffffffffffffffffffffff166323b872dd3330866040518463ffffffff1660e01b81526004016121e293929190613156565b6020604051808303816000875af1158015612201573d6000803e3d6000fd5b505050506040513d601f19601f8201168201806040525081019061222591906131a2565b506122d6565b600083036122d5577f000000000000000000000000000000000000000000000000000000000000000073ffffffffffffffffffffffffffffffffffffffff166323b872dd3330876040518463ffffffff1660e01b815260040161229093929190613156565b6020604051808303816000875af11580156122af573d6000803e3d6000fd5b505050506040513d601f19601f820116820180604052508101906122d391906131a2565b505b5b600043826122e491906132fc565b84866122f09190613330565b6122fa9190613287565b905061230a600c89898585612680565b7fe8a7141353ea049e2cceba16d76526b3331aeb1e8c90090af91e01812b91b4ec60405160405180910390a15050505050505050565b60007f8b73c3c69bb8fe3d512ecc4cf759cc79239f7b179b0ffacaa9a75d522b39400f600060405161237291906136e0565b60405180910390207fc89efdaa54c0f20c7adf612882df0950f5a951637e0307cdcb4c672f298b8bc646306040516020016123b19594939291906136f7565b60405160208183030381529060405280519060200120905090565b60008460040160008473ffffffffffffffffffffffffffffffffffffffff1673ffffffffffffffffffffffffffffffffffffffff16815260200190815260200160002060008373ffffffffffffffffffffffffffffffffffffffff1673ffffffffffffffffffffffffffffffffffffffff16815260200190815260200160002090506000816000015403612495576040517f08c379a000000000000000000000000000000000000000000000000000000000815260040161248c90613796565b60405180910390fd5b6000816005016000868152602001908152602001600020905060008160000154036124f5576040517f08c379a00000000000000000000000000000000000000000000000000000000081526004016124ec90613802565b60405180910390fd5b4381600301541161253b576040517f08c379a000000000000000000000000000000000000000000000000000000000815260040161253290613894565b60405180910390fd5b3373ffffffffffffffffffffffffffffffffffffffff168160010160009054906101000a900473ffffffffffffffffffffffffffffffffffffffff1673ffffffffffffffffffffffffffffffffffffffff16146125cd576040517f08c379a00000000000000000000000000000000000000000000000000000000081526004016125c490613900565b60405180910390fd5b80600401548260030160008282546125e591906132fc565b92505081905550806004015482600601600083600301548152602001908152602001600020600082825461261991906132fc565b9250508190555060008160050160006101000a81548160ff0219169083151502179055507fae535bd34d0187c0a1db1e231130e8b8ba2c8c7b6612b6f39e16c010bf5498d085858560405161267093929190613920565b60405180910390a1505050505050565b60008560040160008673ffffffffffffffffffffffffffffffffffffffff1673ffffffffffffffffffffffffffffffffffffffff16815260200190815260200160002060008573ffffffffffffffffffffffffffffffffffffffff1673ffffffffffffffffffffffffffffffffffffffff1681526020019081526020016000209050824310612744576040517f08c379a000000000000000000000000000000000000000000000000000000000815260040161273b906139a3565b60405180910390fd5b60008203612787576040517f08c379a000000000000000000000000000000000000000000000000000000000815260040161277e90613a0f565b60405180910390fd5b60008660000154846127999190613610565b146127d9576040517f08c379a00000000000000000000000000000000000000000000000000000000081526004016127d090613a7b565b60405180910390fd5b818160030160008282546127ed9190613330565b925050819055506040518060c00160405280826000015481526020013373ffffffffffffffffffffffffffffffffffffffff16815260200143815260200184815260200183815260200160001515815250816005016000836000015481526020019081526020016000206000820151816000015560208201518160010160006101000a81548173ffffffffffffffffffffffffffffffffffffffff021916908373ffffffffffffffffffffffffffffffffffffffff16021790555060408201518160020155606082015181600301556080820151816004015560a08201518160050160006101000a81548160ff02191690831515021790555090505081816006016000858152602001908152602001600020600082825461290e9190613330565b9250508190555080600001600081548092919061292a90613a9b565b91905055507f2c3ffcf5ffd176911ddab8c33354b6b2e2b76c269b75c59f7e307470f7ead6d16001826000015461296191906132fc565b8686336040516129749493929190613ae3565b60405180910390a1505050505050565b6040518060c0016040528060008152602001600073ffffffffffffffffffffffffffffffffffffffff1681526020016000815260200160008152602001600081526020016000151581525090565b600081519050919050565b600082825260208201905092915050565b60005b83811015612a0c5780820151818401526020810190506129f1565b83811115612a1b576000848401525b50505050565b6000601f19601f8301169050919050565b6000612a3d826129d2565b612a4781856129dd565b9350612a578185602086016129ee565b612a6081612a21565b840191505092915050565b60006020820190508181036000830152612a858184612a32565b905092915050565b600080fd5b600073ffffffffffffffffffffffffffffffffffffffff82169050919050565b6000612abd82612a92565b9050919050565b612acd81612ab2565b8114612ad857600080fd5b50565b600081359050612aea81612ac4565b92915050565b6000819050919050565b612b0381612af0565b8114612b0e57600080fd5b50565b600081359050612b2081612afa565b92915050565b60008060408385031215612b3d57612b3c612a8d565b5b6000612b4b85828601612adb565b9250506020612b5c85828601612b11565b9150509250929050565b60008115159050919050565b612b7b81612b66565b82525050565b6000602082019050612b966000830184612b72565b92915050565b612ba581612ab2565b82525050565b6000602082019050612bc06000830184612b9c565b92915050565b600080600060608486031215612bdf57612bde612a8d565b5b6000612bed86828701612adb565b9350506020612bfe86828701612b11565b9250506040612c0f86828701612b11565b9150509250925092565b612c2281612af0565b82525050565b6000602082019050612c3d6000830184612c19565b92915050565b60008060408385031215612c5a57612c59612a8d565b5b6000612c6885828601612b11565b9250506020612c7985828601612b11565b9150509250929050565b600080600060608486031215612c9c57612c9b612a8d565b5b6000612caa86828701612adb565b9350506020612cbb86828701612adb565b9250506040612ccc86828701612b11565b9150509250925092565b6000819050919050565b612ce981612cd6565b82525050565b6000602082019050612d046000830184612ce0565b92915050565b600060ff82169050919050565b612d2081612d0a565b82525050565b6000602082019050612d3b6000830184612d17565b92915050565b60006dffffffffffffffffffffffffffff82169050919050565b612d6481612d41565b82525050565b6000604082019050612d7f6000830185612d5b565b612d8c6020830184612d5b565b9392505050565b612d9c81612b66565b8114612da757600080fd5b50565b600081359050612db981612d93565b92915050565b600080600060608486031215612dd857612dd7612a8d565b5b6000612de686828701612b11565b9350506020612df786828701612daa565b9250506040612e0886828701612adb565b9150509250925092565b600060208284031215612e2857612e27612a8d565b5b6000612e3684828501612b11565b91505092915050565b612e4881612af0565b82525050565b612e5781612ab2565b82525050565b612e6681612b66565b82525050565b60c082016000820151612e826000850182612e3f565b506020820151612e956020850182612e4e565b506040820151612ea86040850182612e3f565b506060820151612ebb6060850182612e3f565b506080820151612ece6080850182612e3f565b5060a0820151612ee160a0850182612e5d565b50505050565b600060c082019050612efc6000830184612e6c565b92915050565b600060208284031215612f1857612f17612a8d565b5b6000612f2684828501612adb565b91505092915050565b600063ffffffff82169050919050565b612f4881612f2f565b82525050565b6000602082019050612f636000830184612f3f565b92915050565b612f7281612d0a565b8114612f7d57600080fd5b50565b600081359050612f8f81612f69565b92915050565b612f9e81612cd6565b8114612fa957600080fd5b50565b600081359050612fbb81612f95565b92915050565b600080600080600080600060e0888a031215612fe057612fdf612a8d565b5b6000612fee8a828b01612adb565b9750506020612fff8a828b01612adb565b96505060406130108a828b01612b11565b95505060606130218a828b01612b11565b94505060806130328a828b01612f80565b93505060a06130438a828b01612fac565b92505060c06130548a828b01612fac565b91505092959891949750929550565b6000806040838503121561307a57613079612a8d565b5b600061308885828601612adb565b925050602061309985828601612adb565b9150509250929050565b6000806000606084860312156130bc576130bb612a8d565b5b60006130ca86828701612b11565b93505060206130db86828701612adb565b92505060406130ec86828701612adb565b9150509250925092565b7f4e487b7100000000000000000000000000000000000000000000000000000000600052602260045260246000fd5b6000600282049050600182168061313d57607f821691505b6020821081036131505761314f6130f6565b5b50919050565b600060608201905061316b6000830186612b9c565b6131786020830185612b9c565b6131856040830184612c19565b949350505050565b60008151905061319c81612d93565b92915050565b6000602082840312156131b8576131b7612a8d565b5b60006131c68482850161318d565b91505092915050565b7f4e487b7100000000000000000000000000000000000000000000000000000000600052601160045260246000fd5b600061320982612af0565b915061321483612af0565b9250817fffffffffffffffffffffffffffffffffffffffffffffffffffffffffffffffff048311821515161561324d5761324c6131cf565b5b828202905092915050565b7f4e487b7100000000000000000000000000000000000000000000000000000000600052601260045260246000fd5b600061329282612af0565b915061329d83612af0565b9250826132ad576132ac613258565b5b828204905092915050565b60006132c382612d41565b91506132ce83612d41565b9250826dffffffffffffffffffffffffffff038211156132f1576132f06131cf565b5b828201905092915050565b600061330782612af0565b915061331283612af0565b925082821015613325576133246131cf565b5b828203905092915050565b600061333b82612af0565b915061334683612af0565b9250827fffffffffffffffffffffffffffffffffffffffffffffffffffffffffffffffff0382111561337b5761337a6131cf565b5b828201905092915050565b600060408201905061339b6000830185612b9c565b6133a86020830184612c19565b9392505050565b60006133ba82612d41565b91506133c583612d41565b9250828210156133d8576133d76131cf565b5b828203905092915050565b7f5045524d49545f444541444c494e455f45585049524544000000000000000000600082015250565b60006134196017836129dd565b9150613424826133e3565b602082019050919050565b600060208201905081810360008301526134488161340c565b9050919050565b600060c0820190506134646000830189612ce0565b6134716020830188612b9c565b61347e6040830187612b9c565b61348b6060830186612c19565b6134986080830185612c19565b6134a560a0830184612c19565b979650505050505050565b600081905092915050565b7f1901000000000000000000000000000000000000000000000000000000000000600082015250565b60006134f16002836134b0565b91506134fc826134bb565b600282019050919050565b6000819050919050565b61352261351d82612cd6565b613507565b82525050565b6000613533826134e4565b915061353f8285613511565b60208201915061354f8284613511565b6020820191508190509392505050565b60006080820190506135746000830187612ce0565b6135816020830186612d17565b61358e6040830185612ce0565b61359b6060830184612ce0565b95945050505050565b7f494e56414c49445f5349474e4552000000000000000000000000000000000000600082015250565b60006135da600e836129dd565b91506135e5826135a4565b602082019050919050565b60006020820190508181036000830152613609816135cd565b9050919050565b600061361b82612af0565b915061362683612af0565b92508261363657613635613258565b5b828206905092915050565b600081905092915050565b60008190508160005260206000209050919050565b6000815461366e81613125565b6136788186613641565b9450600182166000811461369357600181146136a4576136d7565b60ff198316865281860193506136d7565b6136ad8561364c565b60005b838110156136cf578154818901526001820191506020810190506136b0565b838801955050505b50505092915050565b60006136ec8284613661565b915081905092915050565b600060a08201905061370c6000830188612ce0565b6137196020830187612ce0565b6137266040830186612ce0565b6137336060830185612c19565b6137406080830184612b9c565b9695505050505050565b7f5748414c45535741503a20696e76616c696420746f6b656e2070616972000000600082015250565b6000613780601d836129dd565b915061378b8261374a565b602082019050919050565b600060208201905081810360008301526137af81613773565b9050919050565b7f5748414c45535741503a20696e76616c6964206f726465720000000000000000600082015250565b60006137ec6018836129dd565b91506137f7826137b6565b602082019050919050565b6000602082019050818103600083015261381b816137df565b9050919050565b7f5748414c45535741503a206f7264657220616c72656164792066696e6973686560008201527f6400000000000000000000000000000000000000000000000000000000000000602082015250565b600061387e6021836129dd565b915061388982613822565b604082019050919050565b600060208201905081810360008301526138ad81613871565b9050919050565b7f5748414c45535741503a207065726d697373696f6e2064656e69656400000000600082015250565b60006138ea601c836129dd565b91506138f5826138b4565b602082019050919050565b60006020820190508181036000830152613919816138dd565b9050919050565b60006060820190506139356000830186612c19565b6139426020830185612b9c565b61394f6040830184612b9c565b949350505050565b7f5748414c45535741503a207374617274202f20656e64206f7264657200000000600082015250565b600061398d601c836129dd565b915061399882613957565b602082019050919050565b600060208201905081810360008301526139bc81613980565b9050919050565b7f5748414c45535741503a207a65726f2073616c65732072617465000000000000600082015250565b60006139f9601a836129dd565b9150613a04826139c3565b602082019050919050565b60006020820190508181036000830152613a28816139ec565b9050919050565b7f5748414c45535741503a20696e76616c696420656e64696e6720626c6f636b00600082015250565b6000613a65601f836129dd565b9150613a7082613a2f565b602082019050919050565b60006020820190508181036000830152613a9481613a58565b9050919050565b6000613aa682612af0565b91507fffffffffffffffffffffffffffffffffffffffffffffffffffffffffffffffff8203613ad857613ad76131cf565b5b600182019050919050565b6000608082019050613af86000830187612c19565b613b056020830186612b9c565b613b126040830185612b9c565b613b1f6060830184612b9c565b9594505050505056fea26469706673582212209861847c55f28bb3a0a889258fb5f29106f0ce3b7967092ea2aef273e492b3fb64736f6c634300080d0033",
  "immutableReferences": {
    "24": [
      {
        "length": 32,
        "start": 3438
      }
    ],
    "43": [
      {
        "length": 32,
        "start": 3476
      }
    ],
    "45": [
      {
        "length": 32,
        "start": 3528
      }
    ],
    "519": [
      {
        "length": 32,
        "start": 1918
      },
      {
        "length": 32,
        "start": 1973
      },
      {
        "length": 32,
        "start": 2770
      },
      {
        "length": 32,
        "start": 3642
      },
      {
        "length": 32,
        "start": 4586
      },
      {
        "length": 32,
        "start": 5104
      },
      {
        "length": 32,
        "start": 5459
      },
      {
        "length": 32,
        "start": 6960
      },
      {
        "length": 32,
        "start": 8757
      }
    ],
    "521": [
      {
        "length": 32,
        "start": 2134
      },
      {
        "length": 32,
        "start": 2737
      },
      {
        "length": 32,
        "start": 3938
      },
      {
        "length": 32,
        "start": 4290
      },
      {
        "length": 32,
        "start": 5011
      },
      {
        "length": 32,
        "start": 5492
      },
      {
        "length": 32,
        "start": 6142
      },
      {
        "length": 32,
        "start": 7053
      },
      {
        "length": 32,
        "start": 8583
      }
    ]
  },
  "source": "pragma solidity >=0.8.0;\n\nimport \"@rari-capital/solmate/src/tokens/ERC20.sol\";\n\nimport \"./libraries/Math.sol\";\nimport \"./libraries/UQ112x112.sol\";\nimport \"./TWAMM.sol\";\n\ncontract Pair is ERC20 {\n    using UQ112x112 for uint224;\n\n    address public factory;\n    address public immutable token0;\n    address public immutable token1;\n    string public token0Name;\n    string public token1Name;\n\n    uint256 public price0Cumulative;\n    uint256 public price1Cumulative;\n\n    uint112 x;\n    uint112 y;\n    uint32 public lastBlockTimestamp;\n\n    /// @dev twamm state\n    TWAMM.OrderPools orderPools;\n\n    event Swap();\n    event MintLiquidity();\n    event BurnLiquidity();\n    event CreateLongTermOrder();\n    event CancelLongTermOrder();\n    event WithdrawLongTermOrder();\n\n    constructor(\n        address _token0,\n        address _token1,\n        string memory _token0Name,\n        string memory _token1Name,\n        uint256 _twammIntervalSize\n    ) ERC20(\"lWhale\", \"lWHL\", 18) {\n        factory = msg.sender;\n        token0 = _token0;\n        token1 = _token1;\n        token0Name = _token0Name;\n        token1Name = _token1Name;\n        TWAMM.initialize(orderPools, _token0, _token1, _twammIntervalSize);\n    }\n\n    function getAmounts()\n        external\n        view\n        returns (uint112 amount0, uint112 amount1)\n    {\n        amount0 = x;\n        amount1 = y;\n    }\n\n    function getLongTermOrderInterval()\n        external\n        view\n        returns (uint256 blockInterval)\n    {\n        blockInterval = orderPools.orderExpireInterval;\n    }\n\n    // Utility function\n    function _update(\n        uint256 balance0,\n        uint256 balance1,\n        uint112 _x,\n        uint112 _y\n    ) private {\n        // Block timestamp calculations\n        uint32 blockTimestamp = uint32(block.timestamp % 2**32);\n        uint32 timeElapsed = blockTimestamp - lastBlockTimestamp;\n\n        // Add to cumulative price\n        if (timeElapsed > 0 && _x != 0 && _y != 0) {\n            price0Cumulative +=\n                uint256(UQ112x112.encode(_y).uqdiv(_x)) *\n                timeElapsed;\n            price1Cumulative +=\n                uint256(UQ112x112.encode(_x).uqdiv(_y)) *\n                timeElapsed;\n        }\n\n        // Update contract state variables\n        x = uint112(balance0);\n        y = uint112(balance1);\n        lastBlockTimestamp = blockTimestamp;\n    }\n\n    /// @notice method for providing liquidity\n    function mint(\n        address _to,\n        uint256 _amountInX,\n        uint256 _amountInY\n    ) external returns (uint256 liquidity) {\n        (uint256 optAmountX, uint256 optAmountY) = _optimalLiquidity(\n            _amountInX,\n            _amountInY\n        );\n\n        // handle transfers\n        ERC20(token0).transferFrom(msg.sender, address(this), optAmountX);\n        ERC20(token1).transferFrom(msg.sender, address(this), optAmountY);\n\n        // calculate liquidity\n        if (totalSupply == 0) {\n            liquidity = Math.sqrt(optAmountX * optAmountY);\n        } else {\n            liquidity = Math.min(\n                (optAmountX * totalSupply) / x,\n                (optAmountY * totalSupply) / y\n            );\n        }\n        _mint(_to, liquidity); // ERC-20 function\n        // _update()\n\n        x = x + uint112(optAmountX);\n        y = y + uint112(optAmountY);\n\n        emit MintLiquidity();\n    }\n\n    function _optimalLiquidity(uint256 desiredAmount0, uint256 desiredAmount1)\n        internal\n        view\n        returns (uint256 amountX, uint256 amountY)\n    {\n        // Empty pair with no liquidity\n        if (x == 0 && y == 0) {\n            (amountX, amountY) = (desiredAmount0, desiredAmount1);\n        } else {\n            uint256 optimalAmount1 = (desiredAmount0 * y) / x;\n            if (optimalAmount1 <= desiredAmount1) {\n                (amountX, amountY) = (desiredAmount0, optimalAmount1);\n            } else {\n                uint256 optimalAmount0 = (desiredAmount1 * x) / y;\n                (amountX, amountY) = (optimalAmount0, desiredAmount1);\n            }\n        }\n    }\n\n    /// @notice method for burning liquidity\n    // function burn(address to)\n    //     external\n    //     returns (uint256 amount0, uint256 amount1)\n    // {\n    //     uint256 liquidity = balanceOf[address(this)];\n\n    //     // calculate token amounts\n    //     amount0 = (liquidity * x) / totalSupply;\n    //     amount1 = (liquidity * y) / totalSupply;\n\n    //     // Update balances\n    //     x -= uint112(amount0);\n    //     y -= uint112(amount1);\n\n    //     // ERC-20 burn liquidity tokens\n    //     _burn(address(this), liquidity);\n\n    //     // Transfer tokens back to LP\n    //     ERC20(token0).transfer(to, amount0);\n    //     ERC20(token1).transfer(to, amount1);\n\n    //     emit BurnLiquidity();\n    // }\n\n    // Params: amountIn, addressOut, and tokenInIsX (bool: T if xIn, F if yIn)\n    // This disregards fees for now\n    function swap(\n        uint256 _amountIn,\n        bool _tokenInIsX,\n        address _to\n    ) external {\n        // executeVirtualOrders / computeVirtualBalances -- get x and y up to date\n        if (_tokenInIsX) {\n            ERC20(token0).transferFrom(msg.sender, address(this), _amountIn);\n            uint256 yOut = (_amountIn * uint256(y)) / (_amountIn + uint256(x));\n            if (yOut > 0) {\n                ERC20(token1).transfer(_to, yOut);\n                // _update(x + uint112(_amountIn), y - uint112(yOut), x, y)\n                x += uint112(_amountIn);\n                y -= uint112(yOut);\n            }\n        } else {\n            ERC20(token1).transferFrom(msg.sender, address(this), _amountIn);\n            uint256 xOut = (_amountIn * uint256(x)) / (_amountIn + uint256(y));\n            if (xOut > 0) {\n                ERC20(token0).transfer(_to, xOut);\n                // _update(x - uint112(xOut), y + uint112(_amountIn), x, y)\n                x -= uint112(xOut);\n                y += uint112(_amountIn);\n            }\n        }\n        emit Swap();\n    }\n\n    // function swap(\n    //     uint256 amount0Out,\n    //     uint256 amount1Out,\n    //     address to\n    // ) external {\n    //     uint256 balance0;\n    //     uint256 balance1;\n    //     if (amount0Out > 0) {\n    //         ERC20(token0).transfer(to, amount0Out);\n    //     }\n    //     if (amount1Out > 0) {\n    //         ERC20(token1).transfer(to, amount1Out);\n    //     }\n    //     balance0 = ERC20(token0).balanceOf(address(this));\n    //     balance1 = ERC20(token1).balanceOf(address(this));\n\n    //     // Makes sure that nothing bad happens (neggy numbies) if a mismatch\n    //     // occurs between 0out here and balance change\n    //     uint256 amount0In = balance0 > x - amount0Out\n    //         ? balance0 - (x - amount0Out)\n    //         : 0;\n    //     uint256 amount1In = balance1 > y - amount1Out\n    //         ? balance1 - (y - amount1Out)\n    //         : 0;\n\n    //     // This is a check to make sure calculations aren't way off / not balanced across the two pools.\n    //     // Multiply balances by 1000 to make sure that subtracting amountIn*3 doesn't give negative.\n    //     // Multiply by three - Want to make it bigger than actual change (newBalance-In)\n    //     // - However, factor must be greater than 2 because when multiplying the size of both pools, most\n    //     // extreme case will have a price impact of 50% (when Xin = x). So doubling both might = new k\n    //     uint256 balance0Adjusted = (balance0 * 1000) - (amount0In * 3);\n    //     uint256 balance1Adjusted = (balance1 * 1000) - (amount1In * 3);\n    //     require(\n    //         balance0Adjusted * balance1Adjusted >= uint256(x) * y * (1000**2),\n    //         \"Whaleswap: K\"\n    //     );\n\n    //     _update(balance0, balance1, x, y);\n\n    //     emit Swap();\n    // }\n\n    /// @notice execute long term swap buying Y & selling X\n    /// @param _intervalNumber - the block number when LTO ends\n    /// @param _totalXIn - total amount of tokenX to transfer\n    function longTermSwapTokenXtoY(uint256 _intervalNumber, uint256 _totalXIn)\n        external\n    {\n        _longTermSwap(token0, token1, _intervalNumber, _totalXIn, 0);\n    }\n\n    /// @notice execute long term swap buying X & selling Y\n    /// @param _intervalNumber - the block number when LTO ends\n    /// @param _totalYIn - total amount of tokenY to transfer\n    function longTermSwapTokenYtoX(uint256 _intervalNumber, uint256 _totalYIn)\n        external\n    {\n        _longTermSwap(token1, token0, _intervalNumber, 0, _totalYIn);\n    }\n\n    function _longTermSwap(\n        address _token0,\n        address _token1,\n        uint256 _intervalNumber,\n        uint256 _totalXIn,\n        uint256 _totalYIn\n    ) private {\n        // interval calculations\n        uint256 nextIntervalBlock = block.number +\n            (orderPools.orderExpireInterval -\n                (block.number % orderPools.orderExpireInterval));\n        uint256 endIntervalBlock = nextIntervalBlock +\n            (_intervalNumber * orderPools.orderExpireInterval);\n\n        // execute erc20 transfers\n        // NOTE: msg.sender might not be correct here...\n        if (_totalXIn == 0)\n            ERC20(token1).transferFrom(msg.sender, address(this), _totalYIn);\n        else if (_totalYIn == 0)\n            ERC20(token0).transferFrom(msg.sender, address(this), _totalXIn);\n\n        // calculate block sales rate\n        // (works bc either _totalXIn or _totalYIn will always = 0)\n        uint256 blockSalesRate = (_totalXIn + _totalYIn) /\n            (endIntervalBlock - block.number);\n\n        // create LongTermSwap\n        TWAMM.createVirtualOrder(\n            orderPools,\n            _token0,\n            _token1,\n            endIntervalBlock,\n            blockSalesRate\n        );\n\n        emit CreateLongTermOrder();\n    }\n\n    /// @notice retrieve long term swap by id\n    function getLongTermSwapXtoY(uint256 _id)\n        external\n        view\n        returns (TWAMM.LongTermOrder memory order)\n    {\n        order = orderPools.pools[token0][token1].orders[_id];\n    }\n\n    /// @notice retrieve long term swap by id\n    function getLongTermSwapYtoX(uint256 _id)\n        external\n        view\n        returns (TWAMM.LongTermOrder memory order)\n    {\n        order = orderPools.pools[token1][token0].orders[_id];\n    }\n\n    /// @notice fetch orders by creator\n    // function getCreatedLongTermOrders()\n    //     external\n    //     view\n    //     returns (\n    //         TWAMM.LongTermOrder[] memory ordersXtoY,\n    //         TWAMM.LongTermOrder[] memory ordersYtoX\n    //     )\n    // {\n    //     ordersXtoY = _getCreatedOrderPool(orderPools.pools[token0][token1]);\n    //     ordersYtoX = _getCreatedOrderPool(orderPools.pools[token1][token0]);\n    // }\n\n    // function _getCreatedOrderPool(TWAMM.OrderPool storage pool)\n    //     private\n    //     view\n    //     returns (TWAMM.LongTermOrder[] memory orders)\n    // {\n    //     uint256 count = 0;\n    //     for (uint256 i = 0; i < pool.orderId; i++) {\n    //         if (pool.orders[i].creator == msg.sender) count++;\n    //     }\n\n    //     uint256 pos = 0;\n    //     orders = new TWAMM.LongTermOrder[](count);\n    //     for (uint256 j = 0; j < pool.orderId; j++) {\n    //         if (pool.orders[j].creator == msg.sender)\n    //             orders[pos++] = pool.orders[j];\n    //     }\n    // }\n\n    // function cancelLongTermOrder(\n    //     uint256 _id,\n    //     address _token0,\n    //     address _token1\n    // ) external {\n    //     TWAMM.cancelVirtualOrder(orderPools, _id, _token0, _token1);\n    //     emit CancelLongTermOrder();\n    // }\n\n    function withdrawLongTermOrder(\n        uint256 _id,\n        address _token0,\n        address _token1\n    ) external {\n        TWAMM.cancelVirtualOrder(orderPools, _id, _token0, _token1);\n        emit WithdrawLongTermOrder();\n    }\n}\n",
  "sourcePath": "/Users/kitwiggin/senior_design/WhaleSwapMVP/contracts/Pair.sol",
  "compiler": {
    "name": "solc",
    "version": "0.8.13+commit.abaa5c0e.Emscripten.clang"
  },
  "schemaVersion": "3.4.3",
  "updatedAt": "2022-04-07T09:40:04.739Z",
  "devdoc": {
    "kind": "dev",
    "methods": {
      "longTermSwapTokenXtoY(uint256,uint256)": {
        "params": {
          "_intervalNumber": "- the block number when LTO ends",
          "_totalXIn": "- total amount of tokenX to transfer"
        }
      },
      "longTermSwapTokenYtoX(uint256,uint256)": {
        "params": {
          "_intervalNumber": "- the block number when LTO ends",
          "_totalYIn": "- total amount of tokenY to transfer"
        }
      }
    },
    "stateVariables": {
      "orderPools": {
        "details": "twamm state"
      }
    },
    "version": 1
  },
  "userdoc": {
    "kind": "user",
    "methods": {
      "getLongTermSwapXtoY(uint256)": {
        "notice": "retrieve long term swap by id"
      },
      "getLongTermSwapYtoX(uint256)": {
        "notice": "retrieve long term swap by id"
      },
      "longTermSwapTokenXtoY(uint256,uint256)": {
        "notice": "execute long term swap buying Y & selling X"
      },
      "longTermSwapTokenYtoX(uint256,uint256)": {
        "notice": "execute long term swap buying X & selling Y"
      },
      "mint(address,uint256,uint256)": {
        "notice": "method for providing liquidity"
      },
      "swap(uint256,bool,address)": {
        "notice": "method for burning liquidity"
      },
      "withdrawLongTermOrder(uint256,address,address)": {
        "notice": "fetch orders by creator"
      }
    },
    "version": 1
  }
}