{
  "contractName": "Pair",
  "abi": [
    {
      "inputs": [
        {
          "internalType": "address",
          "name": "_token0",
          "type": "address"
        },
        {
          "internalType": "address",
          "name": "_token1",
          "type": "address"
        },
        {
          "internalType": "string",
          "name": "_token0Name",
          "type": "string"
        },
        {
          "internalType": "string",
          "name": "_token1Name",
          "type": "string"
        }
      ],
      "stateMutability": "nonpayable",
      "type": "constructor"
    },
    {
      "anonymous": false,
      "inputs": [
        {
          "indexed": true,
          "internalType": "address",
          "name": "owner",
          "type": "address"
        },
        {
          "indexed": true,
          "internalType": "address",
          "name": "spender",
          "type": "address"
        },
        {
          "indexed": false,
          "internalType": "uint256",
          "name": "amount",
          "type": "uint256"
        }
      ],
      "name": "Approval",
      "type": "event"
    },
    {
      "anonymous": false,
      "inputs": [
        {
          "indexed": true,
          "internalType": "address",
          "name": "from",
          "type": "address"
        },
        {
          "indexed": true,
          "internalType": "address",
          "name": "to",
          "type": "address"
        },
        {
          "indexed": false,
          "internalType": "uint256",
          "name": "amount",
          "type": "uint256"
        }
      ],
      "name": "Transfer",
      "type": "event"
    },
    {
      "inputs": [],
      "name": "DOMAIN_SEPARATOR",
      "outputs": [
        {
          "internalType": "bytes32",
          "name": "",
          "type": "bytes32"
        }
      ],
      "stateMutability": "view",
      "type": "function"
    },
    {
      "inputs": [],
      "name": "PERMIT_TYPEHASH",
      "outputs": [
        {
          "internalType": "bytes32",
          "name": "",
          "type": "bytes32"
        }
      ],
      "stateMutability": "view",
      "type": "function"
    },
    {
      "inputs": [
        {
          "internalType": "address",
          "name": "",
          "type": "address"
        },
        {
          "internalType": "address",
          "name": "",
          "type": "address"
        }
      ],
      "name": "allowance",
      "outputs": [
        {
          "internalType": "uint256",
          "name": "",
          "type": "uint256"
        }
      ],
      "stateMutability": "view",
      "type": "function"
    },
    {
      "inputs": [
        {
          "internalType": "address",
          "name": "spender",
          "type": "address"
        },
        {
          "internalType": "uint256",
          "name": "amount",
          "type": "uint256"
        }
      ],
      "name": "approve",
      "outputs": [
        {
          "internalType": "bool",
          "name": "",
          "type": "bool"
        }
      ],
      "stateMutability": "nonpayable",
      "type": "function"
    },
    {
      "inputs": [
        {
          "internalType": "address",
          "name": "",
          "type": "address"
        }
      ],
      "name": "balanceOf",
      "outputs": [
        {
          "internalType": "uint256",
          "name": "",
          "type": "uint256"
        }
      ],
      "stateMutability": "view",
      "type": "function"
    },
    {
      "inputs": [],
      "name": "decimals",
      "outputs": [
        {
          "internalType": "uint8",
          "name": "",
          "type": "uint8"
        }
      ],
      "stateMutability": "view",
      "type": "function"
    },
    {
      "inputs": [],
      "name": "factory",
      "outputs": [
        {
          "internalType": "address",
          "name": "",
          "type": "address"
        }
      ],
      "stateMutability": "view",
      "type": "function"
    },
    {
      "inputs": [],
      "name": "lastBlockTimestamp",
      "outputs": [
        {
          "internalType": "uint32",
          "name": "",
          "type": "uint32"
        }
      ],
      "stateMutability": "view",
      "type": "function"
    },
    {
      "inputs": [],
      "name": "name",
      "outputs": [
        {
          "internalType": "string",
          "name": "",
          "type": "string"
        }
      ],
      "stateMutability": "view",
      "type": "function"
    },
    {
      "inputs": [
        {
          "internalType": "address",
          "name": "",
          "type": "address"
        }
      ],
      "name": "nonces",
      "outputs": [
        {
          "internalType": "uint256",
          "name": "",
          "type": "uint256"
        }
      ],
      "stateMutability": "view",
      "type": "function"
    },
    {
      "inputs": [
        {
          "internalType": "address",
          "name": "owner",
          "type": "address"
        },
        {
          "internalType": "address",
          "name": "spender",
          "type": "address"
        },
        {
          "internalType": "uint256",
          "name": "value",
          "type": "uint256"
        },
        {
          "internalType": "uint256",
          "name": "deadline",
          "type": "uint256"
        },
        {
          "internalType": "uint8",
          "name": "v",
          "type": "uint8"
        },
        {
          "internalType": "bytes32",
          "name": "r",
          "type": "bytes32"
        },
        {
          "internalType": "bytes32",
          "name": "s",
          "type": "bytes32"
        }
      ],
      "name": "permit",
      "outputs": [],
      "stateMutability": "nonpayable",
      "type": "function"
    },
    {
      "inputs": [],
      "name": "price0Cumulative",
      "outputs": [
        {
          "internalType": "uint256",
          "name": "",
          "type": "uint256"
        }
      ],
      "stateMutability": "view",
      "type": "function"
    },
    {
      "inputs": [],
      "name": "price1Cumulative",
      "outputs": [
        {
          "internalType": "uint256",
          "name": "",
          "type": "uint256"
        }
      ],
      "stateMutability": "view",
      "type": "function"
    },
    {
      "inputs": [],
      "name": "symbol",
      "outputs": [
        {
          "internalType": "string",
          "name": "",
          "type": "string"
        }
      ],
      "stateMutability": "view",
      "type": "function"
    },
    {
      "inputs": [],
      "name": "token0",
      "outputs": [
        {
          "internalType": "address",
          "name": "",
          "type": "address"
        }
      ],
      "stateMutability": "view",
      "type": "function"
    },
    {
      "inputs": [],
      "name": "token0Name",
      "outputs": [
        {
          "internalType": "string",
          "name": "",
          "type": "string"
        }
      ],
      "stateMutability": "view",
      "type": "function"
    },
    {
      "inputs": [],
      "name": "token1",
      "outputs": [
        {
          "internalType": "address",
          "name": "",
          "type": "address"
        }
      ],
      "stateMutability": "view",
      "type": "function"
    },
    {
      "inputs": [],
      "name": "token1Name",
      "outputs": [
        {
          "internalType": "string",
          "name": "",
          "type": "string"
        }
      ],
      "stateMutability": "view",
      "type": "function"
    },
    {
      "inputs": [],
      "name": "totalSupply",
      "outputs": [
        {
          "internalType": "uint256",
          "name": "",
          "type": "uint256"
        }
      ],
      "stateMutability": "view",
      "type": "function"
    },
    {
      "inputs": [
        {
          "internalType": "address",
          "name": "to",
          "type": "address"
        },
        {
          "internalType": "uint256",
          "name": "amount",
          "type": "uint256"
        }
      ],
      "name": "transfer",
      "outputs": [
        {
          "internalType": "bool",
          "name": "",
          "type": "bool"
        }
      ],
      "stateMutability": "nonpayable",
      "type": "function"
    },
    {
      "inputs": [
        {
          "internalType": "address",
          "name": "from",
          "type": "address"
        },
        {
          "internalType": "address",
          "name": "to",
          "type": "address"
        },
        {
          "internalType": "uint256",
          "name": "amount",
          "type": "uint256"
        }
      ],
      "name": "transferFrom",
      "outputs": [
        {
          "internalType": "bool",
          "name": "",
          "type": "bool"
        }
      ],
      "stateMutability": "nonpayable",
      "type": "function"
    },
    {
      "inputs": [],
      "name": "getAmounts",
      "outputs": [
        {
          "internalType": "uint112",
          "name": "amount0",
          "type": "uint112"
        },
        {
          "internalType": "uint112",
          "name": "amount1",
          "type": "uint112"
        }
      ],
      "stateMutability": "view",
      "type": "function"
    },
    {
      "inputs": [
        {
          "internalType": "address",
          "name": "to",
          "type": "address"
        }
      ],
      "name": "mint",
      "outputs": [
        {
          "internalType": "uint256",
          "name": "liquidity",
          "type": "uint256"
        }
      ],
      "stateMutability": "nonpayable",
      "type": "function"
    },
    {
      "inputs": [
        {
          "internalType": "address",
          "name": "to",
          "type": "address"
        }
      ],
      "name": "burn",
      "outputs": [
        {
          "internalType": "uint256",
          "name": "amount0",
          "type": "uint256"
        },
        {
          "internalType": "uint256",
          "name": "amount1",
          "type": "uint256"
        }
      ],
      "stateMutability": "nonpayable",
      "type": "function"
    },
    {
      "inputs": [
        {
          "internalType": "uint256",
          "name": "amount0Out",
          "type": "uint256"
        },
        {
          "internalType": "uint256",
          "name": "amount1Out",
          "type": "uint256"
        },
        {
          "internalType": "address",
          "name": "to",
          "type": "address"
        }
      ],
      "name": "swap",
      "outputs": [],
      "stateMutability": "nonpayable",
      "type": "function"
    }
  ],
  "bytecode": "0x60e06040523480156200001157600080fd5b50604051620038be380380620038be833981810160405281019062000037919062000548565b6040518060400160405280600681526020017f6c5768616c6500000000000000000000000000000000000000000000000000008152506040518060400160405280600481526020017f6c57484c0000000000000000000000000000000000000000000000000000000081525060128260009080519060200190620000bd92919062000296565b508160019080519060200190620000d692919062000296565b508060ff1660808160ff16815250504660a08181525050620000fd6200020660201b60201c565b60c0818152505050505033600660006101000a81548173ffffffffffffffffffffffffffffffffffffffff021916908373ffffffffffffffffffffffffffffffffffffffff16021790555083600760006101000a81548173ffffffffffffffffffffffffffffffffffffffff021916908373ffffffffffffffffffffffffffffffffffffffff16021790555082600860006101000a81548173ffffffffffffffffffffffffffffffffffffffff021916908373ffffffffffffffffffffffffffffffffffffffff1602179055508160099080519060200190620001e292919062000296565b5080600a9080519060200190620001fb92919062000296565b5050505050620007c5565b60007f8b73c3c69bb8fe3d512ecc4cf759cc79239f7b179b0ffacaa9a75d522b39400f60006040516200023a919062000708565b60405180910390207fc89efdaa54c0f20c7adf612882df0950f5a951637e0307cdcb4c672f298b8bc646306040516020016200027b95949392919062000768565b60405160208183030381529060405280519060200120905090565b828054620002a49062000627565b90600052602060002090601f016020900481019282620002c8576000855562000314565b82601f10620002e357805160ff191683800117855562000314565b8280016001018555821562000314579182015b8281111562000313578251825591602001919060010190620002f6565b5b50905062000323919062000327565b5090565b5b808211156200034257600081600090555060010162000328565b5090565b6000604051905090565b600080fd5b600080fd5b600073ffffffffffffffffffffffffffffffffffffffff82169050919050565b600062000387826200035a565b9050919050565b62000399816200037a565b8114620003a557600080fd5b50565b600081519050620003b9816200038e565b92915050565b600080fd5b600080fd5b6000601f19601f8301169050919050565b7f4e487b7100000000000000000000000000000000000000000000000000000000600052604160045260246000fd5b6200041482620003c9565b810181811067ffffffffffffffff82111715620004365762000435620003da565b5b80604052505050565b60006200044b62000346565b905062000459828262000409565b919050565b600067ffffffffffffffff8211156200047c576200047b620003da565b5b6200048782620003c9565b9050602081019050919050565b60005b83811015620004b457808201518184015260208101905062000497565b83811115620004c4576000848401525b50505050565b6000620004e1620004db846200045e565b6200043f565b9050828152602081018484840111156200050057620004ff620003c4565b5b6200050d84828562000494565b509392505050565b600082601f8301126200052d576200052c620003bf565b5b81516200053f848260208601620004ca565b91505092915050565b6000806000806080858703121562000565576200056462000350565b5b60006200057587828801620003a8565b94505060206200058887828801620003a8565b935050604085015167ffffffffffffffff811115620005ac57620005ab62000355565b5b620005ba8782880162000515565b925050606085015167ffffffffffffffff811115620005de57620005dd62000355565b5b620005ec8782880162000515565b91505092959194509250565b7f4e487b7100000000000000000000000000000000000000000000000000000000600052602260045260246000fd5b600060028204905060018216806200064057607f821691505b60208210811415620006575762000656620005f8565b5b50919050565b600081905092915050565b60008190508160005260206000209050919050565b600081546200068c8162000627565b6200069881866200065d565b94506001821660008114620006b65760018114620006c857620006ff565b60ff19831686528186019350620006ff565b620006d38562000668565b60005b83811015620006f757815481890152600182019150602081019050620006d6565b838801955050505b50505092915050565b60006200071682846200067d565b915081905092915050565b6000819050919050565b620007368162000721565b82525050565b6000819050919050565b62000751816200073c565b82525050565b62000762816200037a565b82525050565b600060a0820190506200077f60008301886200072b565b6200078e60208301876200072b565b6200079d60408301866200072b565b620007ac606083018562000746565b620007bb608083018462000757565b9695505050505050565b60805160a05160c0516130c9620007f5600039600061096a015260006109360152600061091001526130c96000f3fe608060405234801561001057600080fd5b50600436106101735760003560e01c80637ecebe00116100de578063c45a015511610097578063d505accf11610071578063d505accf1461046c578063dd62ed3e14610488578063e7563e0b146104b8578063f9063ba1146104d657610173565b8063c45a015514610412578063cc5864ee14610430578063d21220a71461044e57610173565b80637ecebe001461032757806385e63fc61461035757806389afcb441461037557806395d89b41146103a6578063a9059cbb146103c4578063c2d12e4b146103f457610173565b8063313ce56711610130578063313ce567146102505780633644e5151461026e5780633d370b4e1461028c5780636a627842146102ab5780636d9a640a146102db57806370a08231146102f757610173565b806306fdde0314610178578063095ea7b3146101965780630dfe1681146101c657806318160ddd146101e457806323b872dd1461020257806330adf81f14610232575b600080fd5b6101806104f4565b60405161018d91906123bb565b60405180910390f35b6101b060048036038101906101ab9190612476565b610582565b6040516101bd91906124d1565b60405180910390f35b6101ce610674565b6040516101db91906124fb565b60405180910390f35b6101ec61069a565b6040516101f99190612525565b60405180910390f35b61021c60048036038101906102179190612540565b6106a0565b60405161022991906124d1565b60405180910390f35b61023a6108ea565b60405161024791906125ac565b60405180910390f35b61025861090e565b60405161026591906125e3565b60405180910390f35b610276610932565b60405161028391906125ac565b60405180910390f35b61029461098f565b6040516102a2929190612627565b60405180910390f35b6102c560048036038101906102c09190612650565b6109d4565b6040516102d29190612525565b60405180910390f35b6102f560048036038101906102f0919061267d565b610cc2565b005b610311600480360381019061030c9190612650565b611210565b60405161031e9190612525565b60405180910390f35b610341600480360381019061033c9190612650565b611228565b60405161034e9190612525565b60405180910390f35b61035f611240565b60405161036c91906126ef565b60405180910390f35b61038f600480360381019061038a9190612650565b611256565b60405161039d92919061270a565b60405180910390f35b6103ae6116f5565b6040516103bb91906123bb565b60405180910390f35b6103de60048036038101906103d99190612476565b611783565b6040516103eb91906124d1565b60405180910390f35b6103fc611897565b60405161040991906123bb565b60405180910390f35b61041a611925565b60405161042791906124fb565b60405180910390f35b61043861194b565b6040516104459190612525565b60405180910390f35b610456611951565b60405161046391906124fb565b60405180910390f35b6104866004803603810190610481919061278b565b611977565b005b6104a2600480360381019061049d919061282d565b611c76565b6040516104af9190612525565b60405180910390f35b6104c0611c9b565b6040516104cd91906123bb565b60405180910390f35b6104de611d29565b6040516104eb9190612525565b60405180910390f35b600080546105019061289c565b80601f016020809104026020016040519081016040528092919081815260200182805461052d9061289c565b801561057a5780601f1061054f5761010080835404028352916020019161057a565b820191906000526020600020905b81548152906001019060200180831161055d57829003601f168201915b505050505081565b600081600460003373ffffffffffffffffffffffffffffffffffffffff1673ffffffffffffffffffffffffffffffffffffffff16815260200190815260200160002060008573ffffffffffffffffffffffffffffffffffffffff1673ffffffffffffffffffffffffffffffffffffffff168152602001908152602001600020819055508273ffffffffffffffffffffffffffffffffffffffff163373ffffffffffffffffffffffffffffffffffffffff167f8c5be1e5ebec7d5bd14f71427d1e84f3dd0314c0f7b2291e5b200ac8c7c3b925846040516106629190612525565b60405180910390a36001905092915050565b600760009054906101000a900473ffffffffffffffffffffffffffffffffffffffff1681565b60025481565b600080600460008673ffffffffffffffffffffffffffffffffffffffff1673ffffffffffffffffffffffffffffffffffffffff16815260200190815260200160002060003373ffffffffffffffffffffffffffffffffffffffff1673ffffffffffffffffffffffffffffffffffffffff1681526020019081526020016000205490507fffffffffffffffffffffffffffffffffffffffffffffffffffffffffffffffff81146107d657828161075591906128fd565b600460008773ffffffffffffffffffffffffffffffffffffffff1673ffffffffffffffffffffffffffffffffffffffff16815260200190815260200160002060003373ffffffffffffffffffffffffffffffffffffffff1673ffffffffffffffffffffffffffffffffffffffff168152602001908152602001600020819055505b82600360008773ffffffffffffffffffffffffffffffffffffffff1673ffffffffffffffffffffffffffffffffffffffff168152602001908152602001600020600082825461082591906128fd565b9250508190555082600360008673ffffffffffffffffffffffffffffffffffffffff1673ffffffffffffffffffffffffffffffffffffffff168152602001908152602001600020600082825401925050819055508373ffffffffffffffffffffffffffffffffffffffff168573ffffffffffffffffffffffffffffffffffffffff167fddf252ad1be2c89b69c2b068fc378daa952ba7f163c4a11628f55a4df523b3ef856040516108d69190612525565b60405180910390a360019150509392505050565b7f6e71edae12b1b97f4d1f60370fef10105fa2faae0126114a169c64845d6126c981565b7f000000000000000000000000000000000000000000000000000000000000000081565b60007f0000000000000000000000000000000000000000000000000000000000000000461461096857610963611d2f565b61098a565b7f00000000000000000000000000000000000000000000000000000000000000005b905090565b600080600b60009054906101000a90046dffffffffffffffffffffffffffff169150600b600e9054906101000a90046dffffffffffffffffffffffffffff1690509091565b600080600760009054906101000a900473ffffffffffffffffffffffffffffffffffffffff1673ffffffffffffffffffffffffffffffffffffffff166370a08231306040518263ffffffff1660e01b8152600401610a3291906124fb565b602060405180830381865afa158015610a4f573d6000803e3d6000fd5b505050506040513d601f19601f82011682018060405250810190610a739190612946565b90506000600860009054906101000a900473ffffffffffffffffffffffffffffffffffffffff1673ffffffffffffffffffffffffffffffffffffffff166370a08231306040518263ffffffff1660e01b8152600401610ad291906124fb565b602060405180830381865afa158015610aef573d6000803e3d6000fd5b505050506040513d601f19601f82011682018060405250810190610b139190612946565b90506000610b56600b60009054906101000a90046dffffffffffffffffffffffffffff166dffffffffffffffffffffffffffff1684611dbb90919063ffffffff16565b90506000610b99600b600e9054906101000a90046dffffffffffffffffffffffffffff166dffffffffffffffffffffffffffff1684611dbb90919063ffffffff16565b905060006002541415610bc857610bc1610bbc8284611e1490919063ffffffff16565b611e81565b9450610c6b565b610c68600b60009054906101000a90046dffffffffffffffffffffffffffff166dffffffffffffffffffffffffffff16610c0d60025485611e1490919063ffffffff16565b610c1791906129a2565b600b600e9054906101000a90046dffffffffffffffffffffffffffff166dffffffffffffffffffffffffffff16610c5960025485611e1490919063ffffffff16565b610c6391906129a2565b611efb565b94505b610c758686611f14565b610cb98484600b60009054906101000a90046dffffffffffffffffffffffffffff16600b600e9054906101000a90046dffffffffffffffffffffffffffff16611fe4565b50505050919050565b6000806000851115610d7057600760009054906101000a900473ffffffffffffffffffffffffffffffffffffffff1673ffffffffffffffffffffffffffffffffffffffff1663a9059cbb84876040518363ffffffff1660e01b8152600401610d2b9291906129d3565b6020604051808303816000875af1158015610d4a573d6000803e3d6000fd5b505050506040513d601f19601f82011682018060405250810190610d6e9190612a28565b505b6000841115610e1b57600860009054906101000a900473ffffffffffffffffffffffffffffffffffffffff1673ffffffffffffffffffffffffffffffffffffffff1663a9059cbb84866040518363ffffffff1660e01b8152600401610dd69291906129d3565b6020604051808303816000875af1158015610df5573d6000803e3d6000fd5b505050506040513d601f19601f82011682018060405250810190610e199190612a28565b505b600760009054906101000a900473ffffffffffffffffffffffffffffffffffffffff1673ffffffffffffffffffffffffffffffffffffffff166370a08231306040518263ffffffff1660e01b8152600401610e7691906124fb565b602060405180830381865afa158015610e93573d6000803e3d6000fd5b505050506040513d601f19601f82011682018060405250810190610eb79190612946565b9150600860009054906101000a900473ffffffffffffffffffffffffffffffffffffffff1673ffffffffffffffffffffffffffffffffffffffff166370a08231306040518263ffffffff1660e01b8152600401610f1491906124fb565b602060405180830381865afa158015610f31573d6000803e3d6000fd5b505050506040513d601f19601f82011682018060405250810190610f559190612946565b9050600085600b60009054906101000a90046dffffffffffffffffffffffffffff166dffffffffffffffffffffffffffff16610f9191906128fd565b8311610f9e576000610fe2565b85600b60009054906101000a90046dffffffffffffffffffffffffffff166dffffffffffffffffffffffffffff16610fd691906128fd565b83610fe191906128fd565b5b9050600085600b600e9054906101000a90046dffffffffffffffffffffffffffff166dffffffffffffffffffffffffffff1661101e91906128fd565b831161102b57600061106f565b85600b600e9054906101000a90046dffffffffffffffffffffffffffff166dffffffffffffffffffffffffffff1661106391906128fd565b8361106e91906128fd565b5b905060006110ad61108a600385611e1490919063ffffffff16565b61109f6103e888611e1490919063ffffffff16565b611dbb90919063ffffffff16565b905060006110eb6110c8600385611e1490919063ffffffff16565b6110dd6103e888611e1490919063ffffffff16565b611dbb90919063ffffffff16565b905061116d620f424061115f600b600e9054906101000a90046dffffffffffffffffffffffffffff166dffffffffffffffffffffffffffff16600b60009054906101000a90046dffffffffffffffffffffffffffff166dffffffffffffffffffffffffffff16611e1490919063ffffffff16565b611e1490919063ffffffff16565b6111808284611e1490919063ffffffff16565b10156111c1576040517f08c379a00000000000000000000000000000000000000000000000000000000081526004016111b890612aa1565b60405180910390fd5b6112058686600b60009054906101000a90046dffffffffffffffffffffffffffff16600b600e9054906101000a90046dffffffffffffffffffffffffffff16611fe4565b505050505050505050565b60036020528060005260406000206000915090505481565b60056020528060005260406000206000915090505481565b600f60009054906101000a900463ffffffff1681565b6000806000600760009054906101000a900473ffffffffffffffffffffffffffffffffffffffff1673ffffffffffffffffffffffffffffffffffffffff166370a08231306040518263ffffffff1660e01b81526004016112b691906124fb565b602060405180830381865afa1580156112d3573d6000803e3d6000fd5b505050506040513d601f19601f820116820180604052508101906112f79190612946565b90506000600860009054906101000a900473ffffffffffffffffffffffffffffffffffffffff1673ffffffffffffffffffffffffffffffffffffffff166370a08231306040518263ffffffff1660e01b815260040161135691906124fb565b602060405180830381865afa158015611373573d6000803e3d6000fd5b505050506040513d601f19601f820116820180604052508101906113979190612946565b90506000600360003073ffffffffffffffffffffffffffffffffffffffff1673ffffffffffffffffffffffffffffffffffffffff1681526020019081526020016000205490506002546113f38483611e1490919063ffffffff16565b6113fd91906129a2565b94506002546114158383611e1490919063ffffffff16565b61141f91906129a2565b935061142b30826121f8565b600760009054906101000a900473ffffffffffffffffffffffffffffffffffffffff1673ffffffffffffffffffffffffffffffffffffffff1663a9059cbb87876040518363ffffffff1660e01b81526004016114889291906129d3565b6020604051808303816000875af11580156114a7573d6000803e3d6000fd5b505050506040513d601f19601f820116820180604052508101906114cb9190612a28565b50600860009054906101000a900473ffffffffffffffffffffffffffffffffffffffff1673ffffffffffffffffffffffffffffffffffffffff1663a9059cbb87866040518363ffffffff1660e01b81526004016115299291906129d3565b6020604051808303816000875af1158015611548573d6000803e3d6000fd5b505050506040513d601f19601f8201168201806040525081019061156c9190612a28565b50600760009054906101000a900473ffffffffffffffffffffffffffffffffffffffff1673ffffffffffffffffffffffffffffffffffffffff166370a08231306040518263ffffffff1660e01b81526004016115c891906124fb565b602060405180830381865afa1580156115e5573d6000803e3d6000fd5b505050506040513d601f19601f820116820180604052508101906116099190612946565b9250600860009054906101000a900473ffffffffffffffffffffffffffffffffffffffff1673ffffffffffffffffffffffffffffffffffffffff166370a08231306040518263ffffffff1660e01b815260040161166691906124fb565b602060405180830381865afa158015611683573d6000803e3d6000fd5b505050506040513d601f19601f820116820180604052508101906116a79190612946565b91506116ed8383600b60009054906101000a90046dffffffffffffffffffffffffffff16600b600e9054906101000a90046dffffffffffffffffffffffffffff16611fe4565b505050915091565b600180546117029061289c565b80601f016020809104026020016040519081016040528092919081815260200182805461172e9061289c565b801561177b5780601f106117505761010080835404028352916020019161177b565b820191906000526020600020905b81548152906001019060200180831161175e57829003601f168201915b505050505081565b600081600360003373ffffffffffffffffffffffffffffffffffffffff1673ffffffffffffffffffffffffffffffffffffffff16815260200190815260200160002060008282546117d491906128fd565b9250508190555081600360008573ffffffffffffffffffffffffffffffffffffffff1673ffffffffffffffffffffffffffffffffffffffff168152602001908152602001600020600082825401925050819055508273ffffffffffffffffffffffffffffffffffffffff163373ffffffffffffffffffffffffffffffffffffffff167fddf252ad1be2c89b69c2b068fc378daa952ba7f163c4a11628f55a4df523b3ef846040516118859190612525565b60405180910390a36001905092915050565b600a80546118a49061289c565b80601f01602080910402602001604051908101604052809291908181526020018280546118d09061289c565b801561191d5780601f106118f25761010080835404028352916020019161191d565b820191906000526020600020905b81548152906001019060200180831161190057829003601f168201915b505050505081565b600660009054906101000a900473ffffffffffffffffffffffffffffffffffffffff1681565b600e5481565b600860009054906101000a900473ffffffffffffffffffffffffffffffffffffffff1681565b428410156119ba576040517f08c379a00000000000000000000000000000000000000000000000000000000081526004016119b190612b0d565b60405180910390fd5b60006119c4610932565b7f6e71edae12b1b97f4d1f60370fef10105fa2faae0126114a169c64845d6126c9898989600560008e73ffffffffffffffffffffffffffffffffffffffff1673ffffffffffffffffffffffffffffffffffffffff1681526020019081526020016000206000815480929190600101919050558a604051602001611a4c96959493929190612b2d565b60405160208183030381529060405280519060200120604051602001611a73929190612c06565b604051602081830303815290604052805190602001209050600060018286868660405160008152602001604052604051611ab09493929190612c3d565b6020604051602081039080840390855afa158015611ad2573d6000803e3d6000fd5b505050602060405103519050600073ffffffffffffffffffffffffffffffffffffffff168173ffffffffffffffffffffffffffffffffffffffff1614158015611b4657508873ffffffffffffffffffffffffffffffffffffffff168173ffffffffffffffffffffffffffffffffffffffff16145b611b85576040517f08c379a0000000000000000000000000000000000000000000000000000000008152600401611b7c90612cce565b60405180910390fd5b86600460008373ffffffffffffffffffffffffffffffffffffffff1673ffffffffffffffffffffffffffffffffffffffff16815260200190815260200160002060008a73ffffffffffffffffffffffffffffffffffffffff1673ffffffffffffffffffffffffffffffffffffffff1681526020019081526020016000208190555050508573ffffffffffffffffffffffffffffffffffffffff168773ffffffffffffffffffffffffffffffffffffffff167f8c5be1e5ebec7d5bd14f71427d1e84f3dd0314c0f7b2291e5b200ac8c7c3b92587604051611c659190612525565b60405180910390a350505050505050565b6004602052816000526040600020602052806000526040600020600091509150505481565b60098054611ca89061289c565b80601f0160208091040260200160405190810160405280929190818152602001828054611cd49061289c565b8015611d215780601f10611cf657610100808354040283529160200191611d21565b820191906000526020600020905b815481529060010190602001808311611d0457829003601f168201915b505050505081565b600d5481565b60007f8b73c3c69bb8fe3d512ecc4cf759cc79239f7b179b0ffacaa9a75d522b39400f6000604051611d619190612d8d565b60405180910390207fc89efdaa54c0f20c7adf612882df0950f5a951637e0307cdcb4c672f298b8bc64630604051602001611da0959493929190612da4565b60405160208183030381529060405280519060200120905090565b6000828284611dca91906128fd565b9150811115611e0e576040517f08c379a0000000000000000000000000000000000000000000000000000000008152600401611e0590612e43565b60405180910390fd5b92915050565b600080821480611e3c575082828385611e2d9190612e63565b925082611e3a91906129a2565b145b611e7b576040517f08c379a0000000000000000000000000000000000000000000000000000000008152600401611e7290612f09565b60405180910390fd5b92915050565b60006003821115611ee85781905060006001600284611ea091906129a2565b611eaa9190612f29565b90505b81811015611ee2578091506002818285611ec791906129a2565b611ed19190612f29565b611edb91906129a2565b9050611ead565b50611ef6565b60008214611ef557600190505b5b919050565b6000818310611f0a5781611f0c565b825b905092915050565b8060026000828254611f269190612f29565b9250508190555080600360008473ffffffffffffffffffffffffffffffffffffffff1673ffffffffffffffffffffffffffffffffffffffff168152602001908152602001600020600082825401925050819055508173ffffffffffffffffffffffffffffffffffffffff16600073ffffffffffffffffffffffffffffffffffffffff167fddf252ad1be2c89b69c2b068fc378daa952ba7f163c4a11628f55a4df523b3ef83604051611fd89190612525565b60405180910390a35050565b600064010000000042611ff79190612f7f565b90506000600f60009054906101000a900463ffffffff16826120199190612fb0565b905060008163ffffffff1611801561204257506000846dffffffffffffffffffffffffffff1614155b801561205f57506000836dffffffffffffffffffffffffffff1614155b15612165578063ffffffff166120a485612078866122c8565b7bffffffffffffffffffffffffffffffffffffffffffffffffffffffff166122fc90919063ffffffff16565b7bffffffffffffffffffffffffffffffffffffffffffffffffffffffff166120cc9190612e63565b600d60008282546120dd9190612f29565b925050819055508063ffffffff16612124846120f8876122c8565b7bffffffffffffffffffffffffffffffffffffffffffffffffffffffff166122fc90919063ffffffff16565b7bffffffffffffffffffffffffffffffffffffffffffffffffffffffff1661214c9190612e63565b600e600082825461215d9190612f29565b925050819055505b85600b60006101000a8154816dffffffffffffffffffffffffffff02191690836dffffffffffffffffffffffffffff16021790555084600b600e6101000a8154816dffffffffffffffffffffffffffff02191690836dffffffffffffffffffffffffffff16021790555081600f60006101000a81548163ffffffff021916908363ffffffff160217905550505050505050565b80600360008473ffffffffffffffffffffffffffffffffffffffff1673ffffffffffffffffffffffffffffffffffffffff168152602001908152602001600020600082825461224791906128fd565b9250508190555080600260008282540392505081905550600073ffffffffffffffffffffffffffffffffffffffff168273ffffffffffffffffffffffffffffffffffffffff167fddf252ad1be2c89b69c2b068fc378daa952ba7f163c4a11628f55a4df523b3ef836040516122bc9190612525565b60405180910390a35050565b60006e010000000000000000000000000000826dffffffffffffffffffffffffffff166122f5919061300c565b9050919050565b6000816dffffffffffffffffffffffffffff168361231a9190613062565b905092915050565b600081519050919050565b600082825260208201905092915050565b60005b8381101561235c578082015181840152602081019050612341565b8381111561236b576000848401525b50505050565b6000601f19601f8301169050919050565b600061238d82612322565b612397818561232d565b93506123a781856020860161233e565b6123b081612371565b840191505092915050565b600060208201905081810360008301526123d58184612382565b905092915050565b600080fd5b600073ffffffffffffffffffffffffffffffffffffffff82169050919050565b600061240d826123e2565b9050919050565b61241d81612402565b811461242857600080fd5b50565b60008135905061243a81612414565b92915050565b6000819050919050565b61245381612440565b811461245e57600080fd5b50565b6000813590506124708161244a565b92915050565b6000806040838503121561248d5761248c6123dd565b5b600061249b8582860161242b565b92505060206124ac85828601612461565b9150509250929050565b60008115159050919050565b6124cb816124b6565b82525050565b60006020820190506124e660008301846124c2565b92915050565b6124f581612402565b82525050565b600060208201905061251060008301846124ec565b92915050565b61251f81612440565b82525050565b600060208201905061253a6000830184612516565b92915050565b600080600060608486031215612559576125586123dd565b5b60006125678682870161242b565b93505060206125788682870161242b565b925050604061258986828701612461565b9150509250925092565b6000819050919050565b6125a681612593565b82525050565b60006020820190506125c1600083018461259d565b92915050565b600060ff82169050919050565b6125dd816125c7565b82525050565b60006020820190506125f860008301846125d4565b92915050565b60006dffffffffffffffffffffffffffff82169050919050565b612621816125fe565b82525050565b600060408201905061263c6000830185612618565b6126496020830184612618565b9392505050565b600060208284031215612666576126656123dd565b5b60006126748482850161242b565b91505092915050565b600080600060608486031215612696576126956123dd565b5b60006126a486828701612461565b93505060206126b586828701612461565b92505060406126c68682870161242b565b9150509250925092565b600063ffffffff82169050919050565b6126e9816126d0565b82525050565b600060208201905061270460008301846126e0565b92915050565b600060408201905061271f6000830185612516565b61272c6020830184612516565b9392505050565b61273c816125c7565b811461274757600080fd5b50565b60008135905061275981612733565b92915050565b61276881612593565b811461277357600080fd5b50565b6000813590506127858161275f565b92915050565b600080600080600080600060e0888a0312156127aa576127a96123dd565b5b60006127b88a828b0161242b565b97505060206127c98a828b0161242b565b96505060406127da8a828b01612461565b95505060606127eb8a828b01612461565b94505060806127fc8a828b0161274a565b93505060a061280d8a828b01612776565b92505060c061281e8a828b01612776565b91505092959891949750929550565b60008060408385031215612844576128436123dd565b5b60006128528582860161242b565b92505060206128638582860161242b565b9150509250929050565b7f4e487b7100000000000000000000000000000000000000000000000000000000600052602260045260246000fd5b600060028204905060018216806128b457607f821691505b602082108114156128c8576128c761286d565b5b50919050565b7f4e487b7100000000000000000000000000000000000000000000000000000000600052601160045260246000fd5b600061290882612440565b915061291383612440565b925082821015612926576129256128ce565b5b828203905092915050565b6000815190506129408161244a565b92915050565b60006020828403121561295c5761295b6123dd565b5b600061296a84828501612931565b91505092915050565b7f4e487b7100000000000000000000000000000000000000000000000000000000600052601260045260246000fd5b60006129ad82612440565b91506129b883612440565b9250826129c8576129c7612973565b5b828204905092915050565b60006040820190506129e860008301856124ec565b6129f56020830184612516565b9392505050565b612a05816124b6565b8114612a1057600080fd5b50565b600081519050612a22816129fc565b92915050565b600060208284031215612a3e57612a3d6123dd565b5b6000612a4c84828501612a13565b91505092915050565b7f5768616c65737761703a204b0000000000000000000000000000000000000000600082015250565b6000612a8b600c8361232d565b9150612a9682612a55565b602082019050919050565b60006020820190508181036000830152612aba81612a7e565b9050919050565b7f5045524d49545f444541444c494e455f45585049524544000000000000000000600082015250565b6000612af760178361232d565b9150612b0282612ac1565b602082019050919050565b60006020820190508181036000830152612b2681612aea565b9050919050565b600060c082019050612b42600083018961259d565b612b4f60208301886124ec565b612b5c60408301876124ec565b612b696060830186612516565b612b766080830185612516565b612b8360a0830184612516565b979650505050505050565b600081905092915050565b7f1901000000000000000000000000000000000000000000000000000000000000600082015250565b6000612bcf600283612b8e565b9150612bda82612b99565b600282019050919050565b6000819050919050565b612c00612bfb82612593565b612be5565b82525050565b6000612c1182612bc2565b9150612c1d8285612bef565b602082019150612c2d8284612bef565b6020820191508190509392505050565b6000608082019050612c52600083018761259d565b612c5f60208301866125d4565b612c6c604083018561259d565b612c79606083018461259d565b95945050505050565b7f494e56414c49445f5349474e4552000000000000000000000000000000000000600082015250565b6000612cb8600e8361232d565b9150612cc382612c82565b602082019050919050565b60006020820190508181036000830152612ce781612cab565b9050919050565b600081905092915050565b60008190508160005260206000209050919050565b60008154612d1b8161289c565b612d258186612cee565b94506001821660008114612d405760018114612d5157612d84565b60ff19831686528186019350612d84565b612d5a85612cf9565b60005b83811015612d7c57815481890152600182019150602081019050612d5d565b838801955050505b50505092915050565b6000612d998284612d0e565b915081905092915050565b600060a082019050612db9600083018861259d565b612dc6602083018761259d565b612dd3604083018661259d565b612de06060830185612516565b612ded60808301846124ec565b9695505050505050565b7f64732d6d6174682d7375622d756e646572666c6f770000000000000000000000600082015250565b6000612e2d60158361232d565b9150612e3882612df7565b602082019050919050565b60006020820190508181036000830152612e5c81612e20565b9050919050565b6000612e6e82612440565b9150612e7983612440565b9250817fffffffffffffffffffffffffffffffffffffffffffffffffffffffffffffffff0483118215151615612eb257612eb16128ce565b5b828202905092915050565b7f64732d6d6174682d6d756c2d6f766572666c6f77000000000000000000000000600082015250565b6000612ef360148361232d565b9150612efe82612ebd565b602082019050919050565b60006020820190508181036000830152612f2281612ee6565b9050919050565b6000612f3482612440565b9150612f3f83612440565b9250827fffffffffffffffffffffffffffffffffffffffffffffffffffffffffffffffff03821115612f7457612f736128ce565b5b828201905092915050565b6000612f8a82612440565b9150612f9583612440565b925082612fa557612fa4612973565b5b828206905092915050565b6000612fbb826126d0565b9150612fc6836126d0565b925082821015612fd957612fd86128ce565b5b828203905092915050565b60007bffffffffffffffffffffffffffffffffffffffffffffffffffffffff82169050919050565b600061301782612fe4565b915061302283612fe4565b9250817bffffffffffffffffffffffffffffffffffffffffffffffffffffffff0483118215151615613057576130566128ce565b5b828202905092915050565b600061306d82612fe4565b915061307883612fe4565b92508261308857613087612973565b5b82820490509291505056fea2646970667358221220205876e44ab9351220481a21bc8c357968b3c4a4e2fcd40fe9a0b0b310f45f9664736f6c634300080c0033",
  "immutableReferences": {
    "24": [
      {
        "length": 32,
        "start": 2320
      }
    ],
    "43": [
      {
        "length": 32,
        "start": 2358
      }
    ],
    "45": [
      {
        "length": 32,
        "start": 2410
      }
    ]
  },
  "source": "pragma solidity >=0.4.21;\n\nimport \"@rari-capital/solmate/src/tokens/ERC20.sol\";\n\nimport \"./libraries/Math.sol\";\nimport \"./libraries/SafeMath.sol\";\nimport \"./libraries/UQ112x112.sol\";\n\ncontract Pair is ERC20 {\n    using SafeMath for uint256;\n    using UQ112x112 for uint224;\n\n    address public factory;\n    address public token0;\n    address public token1;\n    string public token0Name;\n    string public token1Name;\n\n    uint112 x;\n    uint112 y;\n    uint256 k;\n\n    uint256 public price0Cumulative;\n    uint256 public price1Cumulative;\n    uint32 public lastBlockTimestamp;\n\n    constructor(address _token0, address _token1, string memory _token0Name, string memory _token1Name) ERC20(\"lWhale\", \"lWHL\", 18) {\n        factory = msg.sender;\n        token0 = _token0;\n        token1 = _token1;\n        token0Name = _token0Name;\n        token1Name = _token1Name;\n    }\n\n    function getAmounts()\n        external\n        view\n        returns (uint112 amount0, uint112 amount1)\n    {\n        amount0 = x;\n        amount1 = y;\n    }\n\n    // Utility function\n    function _update(\n        uint256 balance0,\n        uint256 balance1,\n        uint112 _x,\n        uint112 _y\n    ) private {\n        // Block timestamp calculations\n        uint32 blockTimestamp = uint32(block.timestamp % 2**32);\n        uint32 timeElapsed = blockTimestamp - lastBlockTimestamp;\n\n        // Add to cumulative price\n        if (timeElapsed > 0 && _x != 0 && _y != 0) {\n            price0Cumulative +=\n                uint256(UQ112x112.encode(_y).uqdiv(_x)) *\n                timeElapsed;\n            price1Cumulative +=\n                uint256(UQ112x112.encode(_x).uqdiv(_y)) *\n                timeElapsed;\n        }\n\n        // Update contract state variables\n        x = uint112(balance0);\n        y = uint112(balance1);\n        lastBlockTimestamp = blockTimestamp;\n    }\n\n    // --- Liquidity functions ---\n    function mint(address to) external returns (uint256 liquidity) {\n        // update reserves\n        uint256 balance0 = ERC20(token0).balanceOf(address(this));\n        uint256 balance1 = ERC20(token1).balanceOf(address(this));\n        uint256 amount0 = balance0.sub(x);\n        uint256 amount1 = balance1.sub(y);\n\n        if (totalSupply == 0) {\n            liquidity = Math.sqrt(amount0.mul(amount1));\n        } else {\n            liquidity = Math.min(\n                amount0.mul(totalSupply) / x,\n                amount1.mul(totalSupply) / y\n            );\n        }\n        _mint(to, liquidity); // ERC-20 function\n        _update(balance0, balance1, x, y);\n    }\n\n    // burn()\n    function burn(address to)\n        external\n        returns (uint256 amount0, uint256 amount1)\n    {\n        uint256 balance0 = ERC20(token0).balanceOf(address(this));\n        uint256 balance1 = ERC20(token1).balanceOf(address(this));\n        uint256 liquidity = balanceOf[address(this)];\n\n        amount0 = liquidity.mul(balance0) / totalSupply;\n        amount1 = liquidity.mul(balance1) / totalSupply;\n\n        _burn(address(this), liquidity); // burn liquidity tokens\n\n        // Transfer tokens back to LP\n        ERC20(token0).transfer(to, amount0);\n        ERC20(token1).transfer(to, amount1);\n\n        // Update balances\n        balance0 = ERC20(token0).balanceOf(address(this));\n        balance1 = ERC20(token1).balanceOf(address(this));\n\n        _update(balance0, balance1, x, y);\n    }\n\n    // swap()\n    function swap(\n        uint256 amount0Out,\n        uint256 amount1Out,\n        address to\n    ) external {\n        uint256 balance0;\n        uint256 balance1;\n        if (amount0Out > 0) {\n            ERC20(token0).transfer(to, amount0Out);\n        }\n        if (amount1Out > 0) {\n            ERC20(token1).transfer(to, amount1Out);\n        }\n        balance0 = ERC20(token0).balanceOf(address(this));\n        balance1 = ERC20(token1).balanceOf(address(this));\n\n        uint256 amount0In = balance0 > x - amount0Out\n            ? balance0 - (x - amount0Out)\n            : 0;\n        uint256 amount1In = balance1 > y - amount1Out\n            ? balance1 - (y - amount1Out)\n            : 0;\n\n        uint256 balance0Adjusted = balance0.mul(1000).sub(amount0In.mul(3));\n        uint256 balance1Adjusted = balance1.mul(1000).sub(amount1In.mul(3));\n        require(\n            balance0Adjusted.mul(balance1Adjusted) >=\n                uint256(x).mul(y).mul(1000**2),\n            \"Whaleswap: K\"\n        );\n\n        _update(balance0, balance1, x, y);\n    }\n}\n",
  "sourcePath": "/Users/kitwiggin/senior_design/WhaleSwapMVP/contracts/Pair.sol",
  "compiler": {
    "name": "solc",
    "version": "0.8.12+commit.f00d7308.Emscripten.clang"
  },
  "schemaVersion": "3.4.3",
  "updatedAt": "2022-02-18T04:25:34.368Z",
  "devdoc": {
    "kind": "dev",
    "methods": {},
    "version": 1
  },
  "userdoc": {
    "kind": "user",
    "methods": {},
    "version": 1
  }
}