{
  "contractName": "Pair",
  "abi": [
    {
      "inputs": [
        {
          "internalType": "address",
          "name": "_token0",
          "type": "address"
        },
        {
          "internalType": "address",
          "name": "_token1",
          "type": "address"
        },
        {
          "internalType": "string",
          "name": "_token0Name",
          "type": "string"
        },
        {
          "internalType": "string",
          "name": "_token1Name",
          "type": "string"
        },
        {
          "internalType": "uint256",
          "name": "_twammIntervalSize",
          "type": "uint256"
        }
      ],
      "stateMutability": "nonpayable",
      "type": "constructor"
    },
    {
      "anonymous": false,
      "inputs": [
        {
          "indexed": true,
          "internalType": "address",
          "name": "owner",
          "type": "address"
        },
        {
          "indexed": true,
          "internalType": "address",
          "name": "spender",
          "type": "address"
        },
        {
          "indexed": false,
          "internalType": "uint256",
          "name": "amount",
          "type": "uint256"
        }
      ],
      "name": "Approval",
      "type": "event"
    },
    {
      "anonymous": false,
      "inputs": [],
      "name": "BurnLiquidity",
      "type": "event"
    },
    {
      "anonymous": false,
      "inputs": [],
      "name": "CancelLongTermOrder",
      "type": "event"
    },
    {
      "anonymous": false,
      "inputs": [],
      "name": "CreateLongTermOrder",
      "type": "event"
    },
    {
      "anonymous": false,
      "inputs": [],
      "name": "MintLiquidity",
      "type": "event"
    },
    {
      "anonymous": false,
      "inputs": [],
      "name": "Swap",
      "type": "event"
    },
    {
      "anonymous": false,
      "inputs": [
        {
          "indexed": true,
          "internalType": "address",
          "name": "from",
          "type": "address"
        },
        {
          "indexed": true,
          "internalType": "address",
          "name": "to",
          "type": "address"
        },
        {
          "indexed": false,
          "internalType": "uint256",
          "name": "amount",
          "type": "uint256"
        }
      ],
      "name": "Transfer",
      "type": "event"
    },
    {
      "anonymous": false,
      "inputs": [],
      "name": "WithdrawLongTermOrder",
      "type": "event"
    },
    {
      "inputs": [],
      "name": "DOMAIN_SEPARATOR",
      "outputs": [
        {
          "internalType": "bytes32",
          "name": "",
          "type": "bytes32"
        }
      ],
      "stateMutability": "view",
      "type": "function"
    },
    {
      "inputs": [],
      "name": "PERMIT_TYPEHASH",
      "outputs": [
        {
          "internalType": "bytes32",
          "name": "",
          "type": "bytes32"
        }
      ],
      "stateMutability": "view",
      "type": "function"
    },
    {
      "inputs": [
        {
          "internalType": "address",
          "name": "",
          "type": "address"
        },
        {
          "internalType": "address",
          "name": "",
          "type": "address"
        }
      ],
      "name": "allowance",
      "outputs": [
        {
          "internalType": "uint256",
          "name": "",
          "type": "uint256"
        }
      ],
      "stateMutability": "view",
      "type": "function"
    },
    {
      "inputs": [
        {
          "internalType": "address",
          "name": "spender",
          "type": "address"
        },
        {
          "internalType": "uint256",
          "name": "amount",
          "type": "uint256"
        }
      ],
      "name": "approve",
      "outputs": [
        {
          "internalType": "bool",
          "name": "",
          "type": "bool"
        }
      ],
      "stateMutability": "nonpayable",
      "type": "function"
    },
    {
      "inputs": [
        {
          "internalType": "address",
          "name": "",
          "type": "address"
        }
      ],
      "name": "balanceOf",
      "outputs": [
        {
          "internalType": "uint256",
          "name": "",
          "type": "uint256"
        }
      ],
      "stateMutability": "view",
      "type": "function"
    },
    {
      "inputs": [],
      "name": "decimals",
      "outputs": [
        {
          "internalType": "uint8",
          "name": "",
          "type": "uint8"
        }
      ],
      "stateMutability": "view",
      "type": "function"
    },
    {
      "inputs": [],
      "name": "factory",
      "outputs": [
        {
          "internalType": "address",
          "name": "",
          "type": "address"
        }
      ],
      "stateMutability": "view",
      "type": "function"
    },
    {
      "inputs": [],
      "name": "lastBlockTimestamp",
      "outputs": [
        {
          "internalType": "uint32",
          "name": "",
          "type": "uint32"
        }
      ],
      "stateMutability": "view",
      "type": "function"
    },
    {
      "inputs": [],
      "name": "name",
      "outputs": [
        {
          "internalType": "string",
          "name": "",
          "type": "string"
        }
      ],
      "stateMutability": "view",
      "type": "function"
    },
    {
      "inputs": [
        {
          "internalType": "address",
          "name": "",
          "type": "address"
        }
      ],
      "name": "nonces",
      "outputs": [
        {
          "internalType": "uint256",
          "name": "",
          "type": "uint256"
        }
      ],
      "stateMutability": "view",
      "type": "function"
    },
    {
      "inputs": [
        {
          "internalType": "address",
          "name": "owner",
          "type": "address"
        },
        {
          "internalType": "address",
          "name": "spender",
          "type": "address"
        },
        {
          "internalType": "uint256",
          "name": "value",
          "type": "uint256"
        },
        {
          "internalType": "uint256",
          "name": "deadline",
          "type": "uint256"
        },
        {
          "internalType": "uint8",
          "name": "v",
          "type": "uint8"
        },
        {
          "internalType": "bytes32",
          "name": "r",
          "type": "bytes32"
        },
        {
          "internalType": "bytes32",
          "name": "s",
          "type": "bytes32"
        }
      ],
      "name": "permit",
      "outputs": [],
      "stateMutability": "nonpayable",
      "type": "function"
    },
    {
      "inputs": [],
      "name": "price0Cumulative",
      "outputs": [
        {
          "internalType": "uint256",
          "name": "",
          "type": "uint256"
        }
      ],
      "stateMutability": "view",
      "type": "function"
    },
    {
      "inputs": [],
      "name": "price1Cumulative",
      "outputs": [
        {
          "internalType": "uint256",
          "name": "",
          "type": "uint256"
        }
      ],
      "stateMutability": "view",
      "type": "function"
    },
    {
      "inputs": [],
      "name": "symbol",
      "outputs": [
        {
          "internalType": "string",
          "name": "",
          "type": "string"
        }
      ],
      "stateMutability": "view",
      "type": "function"
    },
    {
      "inputs": [],
      "name": "token0",
      "outputs": [
        {
          "internalType": "address",
          "name": "",
          "type": "address"
        }
      ],
      "stateMutability": "view",
      "type": "function"
    },
    {
      "inputs": [],
      "name": "token0Name",
      "outputs": [
        {
          "internalType": "string",
          "name": "",
          "type": "string"
        }
      ],
      "stateMutability": "view",
      "type": "function"
    },
    {
      "inputs": [],
      "name": "token1",
      "outputs": [
        {
          "internalType": "address",
          "name": "",
          "type": "address"
        }
      ],
      "stateMutability": "view",
      "type": "function"
    },
    {
      "inputs": [],
      "name": "token1Name",
      "outputs": [
        {
          "internalType": "string",
          "name": "",
          "type": "string"
        }
      ],
      "stateMutability": "view",
      "type": "function"
    },
    {
      "inputs": [],
      "name": "totalSupply",
      "outputs": [
        {
          "internalType": "uint256",
          "name": "",
          "type": "uint256"
        }
      ],
      "stateMutability": "view",
      "type": "function"
    },
    {
      "inputs": [
        {
          "internalType": "address",
          "name": "to",
          "type": "address"
        },
        {
          "internalType": "uint256",
          "name": "amount",
          "type": "uint256"
        }
      ],
      "name": "transfer",
      "outputs": [
        {
          "internalType": "bool",
          "name": "",
          "type": "bool"
        }
      ],
      "stateMutability": "nonpayable",
      "type": "function"
    },
    {
      "inputs": [
        {
          "internalType": "address",
          "name": "from",
          "type": "address"
        },
        {
          "internalType": "address",
          "name": "to",
          "type": "address"
        },
        {
          "internalType": "uint256",
          "name": "amount",
          "type": "uint256"
        }
      ],
      "name": "transferFrom",
      "outputs": [
        {
          "internalType": "bool",
          "name": "",
          "type": "bool"
        }
      ],
      "stateMutability": "nonpayable",
      "type": "function"
    },
    {
      "inputs": [],
      "name": "getAmounts",
      "outputs": [
        {
          "internalType": "uint112",
          "name": "amount0",
          "type": "uint112"
        },
        {
          "internalType": "uint112",
          "name": "amount1",
          "type": "uint112"
        }
      ],
      "stateMutability": "view",
      "type": "function"
    },
    {
      "inputs": [],
      "name": "getLongTermOrderInterval",
      "outputs": [
        {
          "internalType": "uint256",
          "name": "blockInterval",
          "type": "uint256"
        }
      ],
      "stateMutability": "view",
      "type": "function"
    },
    {
      "inputs": [
        {
          "internalType": "address",
          "name": "_to",
          "type": "address"
        },
        {
          "internalType": "uint256",
          "name": "_amountInX",
          "type": "uint256"
        },
        {
          "internalType": "uint256",
          "name": "_amountInY",
          "type": "uint256"
        }
      ],
      "name": "mint",
      "outputs": [
        {
          "internalType": "uint256",
          "name": "liquidity",
          "type": "uint256"
        }
      ],
      "stateMutability": "nonpayable",
      "type": "function"
    },
    {
      "inputs": [
        {
          "internalType": "uint256",
          "name": "_amountIn",
          "type": "uint256"
        },
        {
          "internalType": "bool",
          "name": "_tokenInIsX",
          "type": "bool"
        },
        {
          "internalType": "address",
          "name": "_to",
          "type": "address"
        }
      ],
      "name": "swap",
      "outputs": [],
      "stateMutability": "nonpayable",
      "type": "function"
    },
    {
      "inputs": [
        {
          "internalType": "uint256",
          "name": "_amountIn",
          "type": "uint256"
        },
        {
          "internalType": "bool",
          "name": "_tokenInIsX",
          "type": "bool"
        },
        {
          "internalType": "uint256",
          "name": "_numIntervals",
          "type": "uint256"
        }
      ],
      "name": "longTermSwap",
      "outputs": [],
      "stateMutability": "nonpayable",
      "type": "function"
    },
    {
      "inputs": [],
      "name": "getCreatedLongTermOrders",
      "outputs": [
        {
          "components": [
            {
              "internalType": "uint256",
              "name": "id",
              "type": "uint256"
            },
            {
              "internalType": "address",
              "name": "creator",
              "type": "address"
            },
            {
              "internalType": "uint256",
              "name": "beginBlock",
              "type": "uint256"
            },
            {
              "internalType": "uint256",
              "name": "finalBlock",
              "type": "uint256"
            },
            {
              "internalType": "uint256",
              "name": "ratePerBlock",
              "type": "uint256"
            },
            {
              "internalType": "bool",
              "name": "active",
              "type": "bool"
            }
          ],
          "internalType": "struct TWAMM.LongTermOrder[]",
          "name": "ordersXtoY",
          "type": "tuple[]"
        },
        {
          "components": [
            {
              "internalType": "uint256",
              "name": "id",
              "type": "uint256"
            },
            {
              "internalType": "address",
              "name": "creator",
              "type": "address"
            },
            {
              "internalType": "uint256",
              "name": "beginBlock",
              "type": "uint256"
            },
            {
              "internalType": "uint256",
              "name": "finalBlock",
              "type": "uint256"
            },
            {
              "internalType": "uint256",
              "name": "ratePerBlock",
              "type": "uint256"
            },
            {
              "internalType": "bool",
              "name": "active",
              "type": "bool"
            }
          ],
          "internalType": "struct TWAMM.LongTermOrder[]",
          "name": "ordersYtoX",
          "type": "tuple[]"
        }
      ],
      "stateMutability": "view",
      "type": "function"
    }
  ],
  "bytecode": "0x6101206040523480156200001257600080fd5b506040516200402f3803806200402f833981810160405281019062000038919062000624565b6040518060400160405280600681526020017f6c5768616c6500000000000000000000000000000000000000000000000000008152506040518060400160405280600481526020017f6c57484c0000000000000000000000000000000000000000000000000000000081525060128260009080519060200190620000be92919062000337565b508160019080519060200190620000d792919062000337565b508060ff1660808160ff16815250504660a08181525050620000fe6200020960201b60201c565b60c0818152505050505033600660006101000a81548173ffffffffffffffffffffffffffffffffffffffff021916908373ffffffffffffffffffffffffffffffffffffffff1602179055508473ffffffffffffffffffffffffffffffffffffffff1660e08173ffffffffffffffffffffffffffffffffffffffff16815250508373ffffffffffffffffffffffffffffffffffffffff166101008173ffffffffffffffffffffffffffffffffffffffff16815250508260079080519060200190620001ca92919062000337565b508160089080519060200190620001e392919062000337565b50620001fe600c8686846200029960201b62001c751760201c565b5050505050620008ac565b60007f8b73c3c69bb8fe3d512ecc4cf759cc79239f7b179b0ffacaa9a75d522b39400f60006040516200023d9190620007f9565b60405180910390207fc89efdaa54c0f20c7adf612882df0950f5a951637e0307cdcb4c672f298b8bc646306040516020016200027e9594939291906200084f565b60405160208183030381529060405280519060200120905090565b808460000181905550438460010181905550828460020160006101000a81548173ffffffffffffffffffffffffffffffffffffffff021916908373ffffffffffffffffffffffffffffffffffffffff160217905550818460030160006101000a81548173ffffffffffffffffffffffffffffffffffffffff021916908373ffffffffffffffffffffffffffffffffffffffff16021790555050505050565b828054620003459062000719565b90600052602060002090601f016020900481019282620003695760008555620003b5565b82601f106200038457805160ff1916838001178555620003b5565b82800160010185558215620003b5579182015b82811115620003b457825182559160200191906001019062000397565b5b509050620003c49190620003c8565b5090565b5b80821115620003e3576000816000905550600101620003c9565b5090565b6000604051905090565b600080fd5b600080fd5b600073ffffffffffffffffffffffffffffffffffffffff82169050919050565b60006200042882620003fb565b9050919050565b6200043a816200041b565b81146200044657600080fd5b50565b6000815190506200045a816200042f565b92915050565b600080fd5b600080fd5b6000601f19601f8301169050919050565b7f4e487b7100000000000000000000000000000000000000000000000000000000600052604160045260246000fd5b620004b5826200046a565b810181811067ffffffffffffffff82111715620004d757620004d66200047b565b5b80604052505050565b6000620004ec620003e7565b9050620004fa8282620004aa565b919050565b600067ffffffffffffffff8211156200051d576200051c6200047b565b5b62000528826200046a565b9050602081019050919050565b60005b838110156200055557808201518184015260208101905062000538565b8381111562000565576000848401525b50505050565b6000620005826200057c84620004ff565b620004e0565b905082815260208101848484011115620005a157620005a062000465565b5b620005ae84828562000535565b509392505050565b600082601f830112620005ce57620005cd62000460565b5b8151620005e08482602086016200056b565b91505092915050565b6000819050919050565b620005fe81620005e9565b81146200060a57600080fd5b50565b6000815190506200061e81620005f3565b92915050565b600080600080600060a08688031215620006435762000642620003f1565b5b6000620006538882890162000449565b9550506020620006668882890162000449565b945050604086015167ffffffffffffffff8111156200068a5762000689620003f6565b5b6200069888828901620005b6565b935050606086015167ffffffffffffffff811115620006bc57620006bb620003f6565b5b620006ca88828901620005b6565b9250506080620006dd888289016200060d565b9150509295509295909350565b7f4e487b7100000000000000000000000000000000000000000000000000000000600052602260045260246000fd5b600060028204905060018216806200073257607f821691505b602082108103620007485762000747620006ea565b5b50919050565b600081905092915050565b60008190508160005260206000209050919050565b600081546200077d8162000719565b6200078981866200074e565b94506001821660008114620007a75760018114620007b957620007f0565b60ff19831686528186019350620007f0565b620007c48562000759565b60005b83811015620007e857815481890152600182019150602081019050620007c7565b838801955050505b50505092915050565b60006200080782846200076e565b915081905092915050565b6000819050919050565b620008278162000812565b82525050565b6200083881620005e9565b82525050565b62000849816200041b565b82525050565b600060a0820190506200086660008301886200081c565b6200087560208301876200081c565b6200088460408301866200081c565b6200089360608301856200082d565b620008a260808301846200083e565b9695505050505050565b60805160a05160c05160e051610100516136dc62000953600039600081816107ac01528181610cb801528181610d2401528181610fff0152818161115f015281816116350152818161165d015261189b0152600081816106d40152818161070b01528181610c5b01528181610d8101528181610ed70152818161128701528181611612015261168001526000610e6501526000610e3101526000610e0b01526136dc6000f3fe608060405234801561001057600080fd5b50600436106101a95760003560e01c806370a08231116100f9578063c45a015511610097578063d505accf11610071578063d505accf146104ca578063dd62ed3e146104e6578063e7563e0b14610516578063f9063ba114610534576101a9565b8063c45a015514610470578063cc5864ee1461048e578063d21220a7146104ac576101a9565b806395d89b41116100d357806395d89b41146103e8578063a9059cbb14610406578063b7169eda14610436578063c2d12e4b14610452576101a9565b806370a082311461036a5780637ecebe001461039a57806385e63fc6146103ca576101a9565b80632734b5ef116101665780633644e515116101405780633644e515146102f35780633d370b4e146103115780634af0871b14610330578063535cc24d1461034c576101a9565b80632734b5ef1461029857806330adf81f146102b7578063313ce567146102d5576101a9565b806306fdde03146101ae578063095ea7b3146101cc5780630dfe1681146101fc578063156e29f61461021a57806318160ddd1461024a57806323b872dd14610268575b600080fd5b6101b6610552565b6040516101c391906126ee565b60405180910390f35b6101e660048036038101906101e191906127a9565b6105e0565b6040516101f39190612804565b60405180910390f35b6102046106d2565b604051610211919061282e565b60405180910390f35b610234600480360381019061022f9190612849565b6106f6565b60405161024191906128ab565b60405180910390f35b6102526109fc565b60405161025f91906128ab565b60405180910390f35b610282600480360381019061027d91906128c6565b610a02565b60405161028f9190612804565b60405180910390f35b6102a0610c4c565b6040516102ae929190612a70565b60405180910390f35b6102bf610de5565b6040516102cc9190612ac0565b60405180910390f35b6102dd610e09565b6040516102ea9190612af7565b60405180910390f35b6102fb610e2d565b6040516103089190612ac0565b60405180910390f35b610319610e8a565b604051610327929190612b3b565b60405180910390f35b61034a60048036038101906103459190612b90565b610ecf565b005b610354611412565b60405161036191906128ab565b60405180910390f35b610384600480360381019061037f9190612be3565b61141f565b60405161039191906128ab565b60405180910390f35b6103b460048036038101906103af9190612be3565b611437565b6040516103c191906128ab565b60405180910390f35b6103d261144f565b6040516103df9190612c2f565b60405180910390f35b6103f0611465565b6040516103fd91906126ee565b60405180910390f35b610420600480360381019061041b91906127a9565b6114f3565b60405161042d9190612804565b60405180910390f35b610450600480360381019061044b9190612c4a565b611607565b005b61045a6117df565b60405161046791906126ee565b60405180910390f35b61047861186d565b604051610485919061282e565b60405180910390f35b610496611893565b6040516104a391906128ab565b60405180910390f35b6104b4611899565b6040516104c1919061282e565b60405180910390f35b6104e460048036038101906104df9190612cf5565b6118bd565b005b61050060048036038101906104fb9190612d97565b611bbc565b60405161050d91906128ab565b60405180910390f35b61051e611be1565b60405161052b91906126ee565b60405180910390f35b61053c611c6f565b60405161054991906128ab565b60405180910390f35b6000805461055f90612e06565b80601f016020809104026020016040519081016040528092919081815260200182805461058b90612e06565b80156105d85780601f106105ad576101008083540402835291602001916105d8565b820191906000526020600020905b8154815290600101906020018083116105bb57829003601f168201915b505050505081565b600081600460003373ffffffffffffffffffffffffffffffffffffffff1673ffffffffffffffffffffffffffffffffffffffff16815260200190815260200160002060008573ffffffffffffffffffffffffffffffffffffffff1673ffffffffffffffffffffffffffffffffffffffff168152602001908152602001600020819055508273ffffffffffffffffffffffffffffffffffffffff163373ffffffffffffffffffffffffffffffffffffffff167f8c5be1e5ebec7d5bd14f71427d1e84f3dd0314c0f7b2291e5b200ac8c7c3b925846040516106c091906128ab565b60405180910390a36001905092915050565b7f000000000000000000000000000000000000000000000000000000000000000081565b60008060006107058585611d13565b915091507f000000000000000000000000000000000000000000000000000000000000000073ffffffffffffffffffffffffffffffffffffffff166323b872dd3330856040518463ffffffff1660e01b815260040161076693929190612e37565b6020604051808303816000875af1158015610785573d6000803e3d6000fd5b505050506040513d601f19601f820116820180604052508101906107a99190612e83565b507f000000000000000000000000000000000000000000000000000000000000000073ffffffffffffffffffffffffffffffffffffffff166323b872dd3330846040518463ffffffff1660e01b815260040161080793929190612e37565b6020604051808303816000875af1158015610826573d6000803e3d6000fd5b505050506040513d601f19601f8201168201806040525081019061084a9190612e83565b506000600254036108705761086981836108649190612edf565b611ea3565b9250610905565b610902600b60009054906101000a90046dffffffffffffffffffffffffffff166dffffffffffffffffffffffffffff16600254846108ae9190612edf565b6108b89190612f68565b600b600e9054906101000a90046dffffffffffffffffffffffffffff166dffffffffffffffffffffffffffff16600254846108f39190612edf565b6108fd9190612f68565b611f1d565b92505b61090f8684611f36565b81600b60009054906101000a90046dffffffffffffffffffffffffffff166109379190612f99565b600b60006101000a8154816dffffffffffffffffffffffffffff02191690836dffffffffffffffffffffffffffff16021790555080600b600e9054906101000a90046dffffffffffffffffffffffffffff166109939190612f99565b600b600e6101000a8154816dffffffffffffffffffffffffffff02191690836dffffffffffffffffffffffffffff1602179055507fb792c15144fb9406bc07a4265f506a9f224141cefbf91fac2225f38ee380dd8660405160405180910390a150509392505050565b60025481565b600080600460008673ffffffffffffffffffffffffffffffffffffffff1673ffffffffffffffffffffffffffffffffffffffff16815260200190815260200160002060003373ffffffffffffffffffffffffffffffffffffffff1673ffffffffffffffffffffffffffffffffffffffff1681526020019081526020016000205490507fffffffffffffffffffffffffffffffffffffffffffffffffffffffffffffffff8114610b38578281610ab79190612fdd565b600460008773ffffffffffffffffffffffffffffffffffffffff1673ffffffffffffffffffffffffffffffffffffffff16815260200190815260200160002060003373ffffffffffffffffffffffffffffffffffffffff1673ffffffffffffffffffffffffffffffffffffffff168152602001908152602001600020819055505b82600360008773ffffffffffffffffffffffffffffffffffffffff1673ffffffffffffffffffffffffffffffffffffffff1681526020019081526020016000206000828254610b879190612fdd565b9250508190555082600360008673ffffffffffffffffffffffffffffffffffffffff1673ffffffffffffffffffffffffffffffffffffffff168152602001908152602001600020600082825401925050819055508373ffffffffffffffffffffffffffffffffffffffff168573ffffffffffffffffffffffffffffffffffffffff167fddf252ad1be2c89b69c2b068fc378daa952ba7f163c4a11628f55a4df523b3ef85604051610c3891906128ab565b60405180910390a360019150509392505050565b606080610d16600c60040160007f000000000000000000000000000000000000000000000000000000000000000073ffffffffffffffffffffffffffffffffffffffff1673ffffffffffffffffffffffffffffffffffffffff16815260200190815260200160002060007f000000000000000000000000000000000000000000000000000000000000000073ffffffffffffffffffffffffffffffffffffffff1673ffffffffffffffffffffffffffffffffffffffff168152602001908152602001600020612006565b9150610ddf600c60040160007f000000000000000000000000000000000000000000000000000000000000000073ffffffffffffffffffffffffffffffffffffffff1673ffffffffffffffffffffffffffffffffffffffff16815260200190815260200160002060007f000000000000000000000000000000000000000000000000000000000000000073ffffffffffffffffffffffffffffffffffffffff1673ffffffffffffffffffffffffffffffffffffffff168152602001908152602001600020612006565b90509091565b7f6e71edae12b1b97f4d1f60370fef10105fa2faae0126114a169c64845d6126c981565b7f000000000000000000000000000000000000000000000000000000000000000081565b60007f00000000000000000000000000000000000000000000000000000000000000004614610e6357610e5e612277565b610e85565b7f00000000000000000000000000000000000000000000000000000000000000005b905090565b600080600b60009054906101000a90046dffffffffffffffffffffffffffff169150600b600e9054906101000a90046dffffffffffffffffffffffffffff1690509091565b811561115d577f000000000000000000000000000000000000000000000000000000000000000073ffffffffffffffffffffffffffffffffffffffff166323b872dd3330866040518463ffffffff1660e01b8152600401610f3293929190612e37565b6020604051808303816000875af1158015610f51573d6000803e3d6000fd5b505050506040513d601f19601f82011682018060405250810190610f759190612e83565b506000600b60009054906101000a90046dffffffffffffffffffffffffffff166dffffffffffffffffffffffffffff1684610fb09190613011565b600b600e9054906101000a90046dffffffffffffffffffffffffffff166dffffffffffffffffffffffffffff1685610fe89190612edf565b610ff29190612f68565b90506000811115611157577f000000000000000000000000000000000000000000000000000000000000000073ffffffffffffffffffffffffffffffffffffffff1663a9059cbb83836040518363ffffffff1660e01b8152600401611058929190613067565b6020604051808303816000875af1158015611077573d6000803e3d6000fd5b505050506040513d601f19601f8201168201806040525081019061109b9190612e83565b5083600b60008282829054906101000a90046dffffffffffffffffffffffffffff166110c79190612f99565b92506101000a8154816dffffffffffffffffffffffffffff02191690836dffffffffffffffffffffffffffff16021790555080600b600e8282829054906101000a90046dffffffffffffffffffffffffffff166111249190613090565b92506101000a8154816dffffffffffffffffffffffffffff02191690836dffffffffffffffffffffffffffff1602179055505b506113e1565b7f000000000000000000000000000000000000000000000000000000000000000073ffffffffffffffffffffffffffffffffffffffff166323b872dd3330866040518463ffffffff1660e01b81526004016111ba93929190612e37565b6020604051808303816000875af11580156111d9573d6000803e3d6000fd5b505050506040513d601f19601f820116820180604052508101906111fd9190612e83565b506000600b600e9054906101000a90046dffffffffffffffffffffffffffff166dffffffffffffffffffffffffffff16846112389190613011565b600b60009054906101000a90046dffffffffffffffffffffffffffff166dffffffffffffffffffffffffffff16856112709190612edf565b61127a9190612f68565b905060008111156113df577f000000000000000000000000000000000000000000000000000000000000000073ffffffffffffffffffffffffffffffffffffffff1663a9059cbb83836040518363ffffffff1660e01b81526004016112e0929190613067565b6020604051808303816000875af11580156112ff573d6000803e3d6000fd5b505050506040513d601f19601f820116820180604052508101906113239190612e83565b5080600b60008282829054906101000a90046dffffffffffffffffffffffffffff1661134f9190613090565b92506101000a8154816dffffffffffffffffffffffffffff02191690836dffffffffffffffffffffffffffff16021790555083600b600e8282829054906101000a90046dffffffffffffffffffffffffffff166113ac9190612f99565b92506101000a8154816dffffffffffffffffffffffffffff02191690836dffffffffffffffffffffffffffff1602179055505b505b7f3ebfdaaf4031bec9a2b7b0a1c594d2d03f3d0b8d68531c9164c2829bac00fefa60405160405180910390a1505050565b6000600c60000154905090565b60036020528060005260406000206000915090505481565b60056020528060005260406000206000915090505481565b600b601c9054906101000a900463ffffffff1681565b6001805461147290612e06565b80601f016020809104026020016040519081016040528092919081815260200182805461149e90612e06565b80156114eb5780601f106114c0576101008083540402835291602001916114eb565b820191906000526020600020905b8154815290600101906020018083116114ce57829003601f168201915b505050505081565b600081600360003373ffffffffffffffffffffffffffffffffffffffff1673ffffffffffffffffffffffffffffffffffffffff16815260200190815260200160002060008282546115449190612fdd565b9250508190555081600360008573ffffffffffffffffffffffffffffffffffffffff1673ffffffffffffffffffffffffffffffffffffffff168152602001908152602001600020600082825401925050819055508273ffffffffffffffffffffffffffffffffffffffff163373ffffffffffffffffffffffffffffffffffffffff167fddf252ad1be2c89b69c2b068fc378daa952ba7f163c4a11628f55a4df523b3ef846040516115f591906128ab565b60405180910390a36001905092915050565b600080831561165b577f000000000000000000000000000000000000000000000000000000000000000091507f000000000000000000000000000000000000000000000000000000000000000090506116a2565b7f000000000000000000000000000000000000000000000000000000000000000091507f000000000000000000000000000000000000000000000000000000000000000090505b6000600c60000154436116b591906130c4565b600c600001546116c59190612fdd565b436116d09190613011565b90506000600c60000154856116e59190612edf565b826116f09190613011565b90508373ffffffffffffffffffffffffffffffffffffffff166323b872dd33308a6040518463ffffffff1660e01b815260040161172f93929190612e37565b6020604051808303816000875af115801561174e573d6000803e3d6000fd5b505050506040513d601f19601f820116820180604052508101906117729190612e83565b50600043826117819190612fdd565b6103e88961178f9190612edf565b6117999190612f68565b90506117a9600c86868585612303565b7fe8a7141353ea049e2cceba16d76526b3331aeb1e8c90090af91e01812b91b4ec60405160405180910390a15050505050505050565b600880546117ec90612e06565b80601f016020809104026020016040519081016040528092919081815260200182805461181890612e06565b80156118655780601f1061183a57610100808354040283529160200191611865565b820191906000526020600020905b81548152906001019060200180831161184857829003601f168201915b505050505081565b600660009054906101000a900473ffffffffffffffffffffffffffffffffffffffff1681565b600a5481565b7f000000000000000000000000000000000000000000000000000000000000000081565b42841015611900576040517f08c379a00000000000000000000000000000000000000000000000000000000081526004016118f790613141565b60405180910390fd5b600061190a610e2d565b7f6e71edae12b1b97f4d1f60370fef10105fa2faae0126114a169c64845d6126c9898989600560008e73ffffffffffffffffffffffffffffffffffffffff1673ffffffffffffffffffffffffffffffffffffffff1681526020019081526020016000206000815480929190600101919050558a60405160200161199296959493929190613161565b604051602081830303815290604052805190602001206040516020016119b992919061323a565b6040516020818303038152906040528051906020012090506000600182868686604051600081526020016040526040516119f69493929190613271565b6020604051602081039080840390855afa158015611a18573d6000803e3d6000fd5b505050602060405103519050600073ffffffffffffffffffffffffffffffffffffffff168173ffffffffffffffffffffffffffffffffffffffff1614158015611a8c57508873ffffffffffffffffffffffffffffffffffffffff168173ffffffffffffffffffffffffffffffffffffffff16145b611acb576040517f08c379a0000000000000000000000000000000000000000000000000000000008152600401611ac290613302565b60405180910390fd5b86600460008373ffffffffffffffffffffffffffffffffffffffff1673ffffffffffffffffffffffffffffffffffffffff16815260200190815260200160002060008a73ffffffffffffffffffffffffffffffffffffffff1673ffffffffffffffffffffffffffffffffffffffff1681526020019081526020016000208190555050508573ffffffffffffffffffffffffffffffffffffffff168773ffffffffffffffffffffffffffffffffffffffff167f8c5be1e5ebec7d5bd14f71427d1e84f3dd0314c0f7b2291e5b200ac8c7c3b92587604051611bab91906128ab565b60405180910390a350505050505050565b6004602052816000526040600020602052806000526040600020600091509150505481565b60078054611bee90612e06565b80601f0160208091040260200160405190810160405280929190818152602001828054611c1a90612e06565b8015611c675780601f10611c3c57610100808354040283529160200191611c67565b820191906000526020600020905b815481529060010190602001808311611c4a57829003601f168201915b505050505081565b60095481565b808460000181905550438460010181905550828460020160006101000a81548173ffffffffffffffffffffffffffffffffffffffff021916908373ffffffffffffffffffffffffffffffffffffffff160217905550818460030160006101000a81548173ffffffffffffffffffffffffffffffffffffffff021916908373ffffffffffffffffffffffffffffffffffffffff16021790555050505050565b6000806000600b60009054906101000a90046dffffffffffffffffffffffffffff166dffffffffffffffffffffffffffff16148015611d7e57506000600b600e9054906101000a90046dffffffffffffffffffffffffffff166dffffffffffffffffffffffffffff16145b15611d925783838092508193505050611e9c565b6000600b60009054906101000a90046dffffffffffffffffffffffffffff166dffffffffffffffffffffffffffff16600b600e9054906101000a90046dffffffffffffffffffffffffffff166dffffffffffffffffffffffffffff1686611df99190612edf565b611e039190612f68565b9050838111611e1b5784818093508194505050611e9a565b6000600b600e9054906101000a90046dffffffffffffffffffffffffffff166dffffffffffffffffffffffffffff16600b60009054906101000a90046dffffffffffffffffffffffffffff166dffffffffffffffffffffffffffff1686611e829190612edf565b611e8c9190612f68565b905080858094508195505050505b505b9250929050565b60006003821115611f0a5781905060006001600284611ec29190612f68565b611ecc9190613011565b90505b81811015611f04578091506002818285611ee99190612f68565b611ef39190613011565b611efd9190612f68565b9050611ecf565b50611f18565b60008214611f1757600190505b5b919050565b6000818310611f2c5781611f2e565b825b905092915050565b8060026000828254611f489190613011565b9250508190555080600360008473ffffffffffffffffffffffffffffffffffffffff1673ffffffffffffffffffffffffffffffffffffffff168152602001908152602001600020600082825401925050819055508173ffffffffffffffffffffffffffffffffffffffff16600073ffffffffffffffffffffffffffffffffffffffff167fddf252ad1be2c89b69c2b068fc378daa952ba7f163c4a11628f55a4df523b3ef83604051611ffa91906128ab565b60405180910390a35050565b60606000805b83600001548110156120a5573373ffffffffffffffffffffffffffffffffffffffff1684600401600083815260200190815260200160002060010160009054906101000a900473ffffffffffffffffffffffffffffffffffffffff1673ffffffffffffffffffffffffffffffffffffffff160361209257818061208e90613322565b9250505b808061209d90613322565b91505061200c565b5060008167ffffffffffffffff8111156120c2576120c161336a565b5b6040519080825280602002602001820160405280156120fb57816020015b6120e8612607565b8152602001906001900390816120e05790505b50925060005b846000015481101561226f573373ffffffffffffffffffffffffffffffffffffffff1685600401600083815260200190815260200160002060010160009054906101000a900473ffffffffffffffffffffffffffffffffffffffff1673ffffffffffffffffffffffffffffffffffffffff160361225c578460040160008281526020019081526020016000206040518060c0016040529081600082015481526020016001820160009054906101000a900473ffffffffffffffffffffffffffffffffffffffff1673ffffffffffffffffffffffffffffffffffffffff1673ffffffffffffffffffffffffffffffffffffffff1681526020016002820154815260200160038201548152602001600482015481526020016005820160009054906101000a900460ff16151515158152505084838061223d90613322565b9450815181106122505761224f613399565b5b60200260200101819052505b808061226790613322565b915050612101565b505050919050565b60007f8b73c3c69bb8fe3d512ecc4cf759cc79239f7b179b0ffacaa9a75d522b39400f60006040516122a99190613467565b60405180910390207fc89efdaa54c0f20c7adf612882df0950f5a951637e0307cdcb4c672f298b8bc646306040516020016122e895949392919061347e565b60405160208183030381529060405280519060200120905090565b60008560040160008673ffffffffffffffffffffffffffffffffffffffff1673ffffffffffffffffffffffffffffffffffffffff16815260200190815260200160002060008573ffffffffffffffffffffffffffffffffffffffff1673ffffffffffffffffffffffffffffffffffffffff16815260200190815260200160002090508243106123c7576040517f08c379a00000000000000000000000000000000000000000000000000000000081526004016123be9061351d565b60405180910390fd5b6000820361240a576040517f08c379a0000000000000000000000000000000000000000000000000000000008152600401612401906135d5565b60405180910390fd5b600086600001548461241c91906130c4565b1461245c576040517f08c379a000000000000000000000000000000000000000000000000000000000815260040161245390613641565b60405180910390fd5b818160030160008282546124709190613011565b925050819055506040518060c00160405280826000015481526020013373ffffffffffffffffffffffffffffffffffffffff16815260200143815260200184815260200183815260200160011515815250816004016000836000015481526020019081526020016000206000820151816000015560208201518160010160006101000a81548173ffffffffffffffffffffffffffffffffffffffff021916908373ffffffffffffffffffffffffffffffffffffffff16021790555060408201518160020155606082015181600301556080820151816004015560a08201518160050160006101000a81548160ff0219169083151502179055509050508181600501600085815260200190815260200160002060008282546125919190613011565b925050819055508060000160008154809291906125ad90613322565b91905055507f2c3ffcf5ffd176911ddab8c33354b6b2e2b76c269b75c59f7e307470f7ead6d1600182600001546125e49190612fdd565b8686336040516125f79493929190613661565b60405180910390a1505050505050565b6040518060c0016040528060008152602001600073ffffffffffffffffffffffffffffffffffffffff1681526020016000815260200160008152602001600081526020016000151581525090565b600081519050919050565b600082825260208201905092915050565b60005b8381101561268f578082015181840152602081019050612674565b8381111561269e576000848401525b50505050565b6000601f19601f8301169050919050565b60006126c082612655565b6126ca8185612660565b93506126da818560208601612671565b6126e3816126a4565b840191505092915050565b6000602082019050818103600083015261270881846126b5565b905092915050565b600080fd5b600073ffffffffffffffffffffffffffffffffffffffff82169050919050565b600061274082612715565b9050919050565b61275081612735565b811461275b57600080fd5b50565b60008135905061276d81612747565b92915050565b6000819050919050565b61278681612773565b811461279157600080fd5b50565b6000813590506127a38161277d565b92915050565b600080604083850312156127c0576127bf612710565b5b60006127ce8582860161275e565b92505060206127df85828601612794565b9150509250929050565b60008115159050919050565b6127fe816127e9565b82525050565b600060208201905061281960008301846127f5565b92915050565b61282881612735565b82525050565b6000602082019050612843600083018461281f565b92915050565b60008060006060848603121561286257612861612710565b5b60006128708682870161275e565b935050602061288186828701612794565b925050604061289286828701612794565b9150509250925092565b6128a581612773565b82525050565b60006020820190506128c0600083018461289c565b92915050565b6000806000606084860312156128df576128de612710565b5b60006128ed8682870161275e565b93505060206128fe8682870161275e565b925050604061290f86828701612794565b9150509250925092565b600081519050919050565b600082825260208201905092915050565b6000819050602082019050919050565b61294e81612773565b82525050565b61295d81612735565b82525050565b61296c816127e9565b82525050565b60c0820160008201516129886000850182612945565b50602082015161299b6020850182612954565b5060408201516129ae6040850182612945565b5060608201516129c16060850182612945565b5060808201516129d46080850182612945565b5060a08201516129e760a0850182612963565b50505050565b60006129f98383612972565b60c08301905092915050565b6000602082019050919050565b6000612a1d82612919565b612a278185612924565b9350612a3283612935565b8060005b83811015612a63578151612a4a88826129ed565b9750612a5583612a05565b925050600181019050612a36565b5085935050505092915050565b60006040820190508181036000830152612a8a8185612a12565b90508181036020830152612a9e8184612a12565b90509392505050565b6000819050919050565b612aba81612aa7565b82525050565b6000602082019050612ad56000830184612ab1565b92915050565b600060ff82169050919050565b612af181612adb565b82525050565b6000602082019050612b0c6000830184612ae8565b92915050565b60006dffffffffffffffffffffffffffff82169050919050565b612b3581612b12565b82525050565b6000604082019050612b506000830185612b2c565b612b5d6020830184612b2c565b9392505050565b612b6d816127e9565b8114612b7857600080fd5b50565b600081359050612b8a81612b64565b92915050565b600080600060608486031215612ba957612ba8612710565b5b6000612bb786828701612794565b9350506020612bc886828701612b7b565b9250506040612bd98682870161275e565b9150509250925092565b600060208284031215612bf957612bf8612710565b5b6000612c078482850161275e565b91505092915050565b600063ffffffff82169050919050565b612c2981612c10565b82525050565b6000602082019050612c446000830184612c20565b92915050565b600080600060608486031215612c6357612c62612710565b5b6000612c7186828701612794565b9350506020612c8286828701612b7b565b9250506040612c9386828701612794565b9150509250925092565b612ca681612adb565b8114612cb157600080fd5b50565b600081359050612cc381612c9d565b92915050565b612cd281612aa7565b8114612cdd57600080fd5b50565b600081359050612cef81612cc9565b92915050565b600080600080600080600060e0888a031215612d1457612d13612710565b5b6000612d228a828b0161275e565b9750506020612d338a828b0161275e565b9650506040612d448a828b01612794565b9550506060612d558a828b01612794565b9450506080612d668a828b01612cb4565b93505060a0612d778a828b01612ce0565b92505060c0612d888a828b01612ce0565b91505092959891949750929550565b60008060408385031215612dae57612dad612710565b5b6000612dbc8582860161275e565b9250506020612dcd8582860161275e565b9150509250929050565b7f4e487b7100000000000000000000000000000000000000000000000000000000600052602260045260246000fd5b60006002820490506001821680612e1e57607f821691505b602082108103612e3157612e30612dd7565b5b50919050565b6000606082019050612e4c600083018661281f565b612e59602083018561281f565b612e66604083018461289c565b949350505050565b600081519050612e7d81612b64565b92915050565b600060208284031215612e9957612e98612710565b5b6000612ea784828501612e6e565b91505092915050565b7f4e487b7100000000000000000000000000000000000000000000000000000000600052601160045260246000fd5b6000612eea82612773565b9150612ef583612773565b9250817fffffffffffffffffffffffffffffffffffffffffffffffffffffffffffffffff0483118215151615612f2e57612f2d612eb0565b5b828202905092915050565b7f4e487b7100000000000000000000000000000000000000000000000000000000600052601260045260246000fd5b6000612f7382612773565b9150612f7e83612773565b925082612f8e57612f8d612f39565b5b828204905092915050565b6000612fa482612b12565b9150612faf83612b12565b9250826dffffffffffffffffffffffffffff03821115612fd257612fd1612eb0565b5b828201905092915050565b6000612fe882612773565b9150612ff383612773565b92508282101561300657613005612eb0565b5b828203905092915050565b600061301c82612773565b915061302783612773565b9250827fffffffffffffffffffffffffffffffffffffffffffffffffffffffffffffffff0382111561305c5761305b612eb0565b5b828201905092915050565b600060408201905061307c600083018561281f565b613089602083018461289c565b9392505050565b600061309b82612b12565b91506130a683612b12565b9250828210156130b9576130b8612eb0565b5b828203905092915050565b60006130cf82612773565b91506130da83612773565b9250826130ea576130e9612f39565b5b828206905092915050565b7f5045524d49545f444541444c494e455f45585049524544000000000000000000600082015250565b600061312b601783612660565b9150613136826130f5565b602082019050919050565b6000602082019050818103600083015261315a8161311e565b9050919050565b600060c0820190506131766000830189612ab1565b613183602083018861281f565b613190604083018761281f565b61319d606083018661289c565b6131aa608083018561289c565b6131b760a083018461289c565b979650505050505050565b600081905092915050565b7f1901000000000000000000000000000000000000000000000000000000000000600082015250565b60006132036002836131c2565b915061320e826131cd565b600282019050919050565b6000819050919050565b61323461322f82612aa7565b613219565b82525050565b6000613245826131f6565b91506132518285613223565b6020820191506132618284613223565b6020820191508190509392505050565b60006080820190506132866000830187612ab1565b6132936020830186612ae8565b6132a06040830185612ab1565b6132ad6060830184612ab1565b95945050505050565b7f494e56414c49445f5349474e4552000000000000000000000000000000000000600082015250565b60006132ec600e83612660565b91506132f7826132b6565b602082019050919050565b6000602082019050818103600083015261331b816132df565b9050919050565b600061332d82612773565b91507fffffffffffffffffffffffffffffffffffffffffffffffffffffffffffffffff820361335f5761335e612eb0565b5b600182019050919050565b7f4e487b7100000000000000000000000000000000000000000000000000000000600052604160045260246000fd5b7f4e487b7100000000000000000000000000000000000000000000000000000000600052603260045260246000fd5b600081905092915050565b60008190508160005260206000209050919050565b600081546133f581612e06565b6133ff81866133c8565b9450600182166000811461341a576001811461342b5761345e565b60ff1983168652818601935061345e565b613434856133d3565b60005b8381101561345657815481890152600182019150602081019050613437565b838801955050505b50505092915050565b600061347382846133e8565b915081905092915050565b600060a0820190506134936000830188612ab1565b6134a06020830187612ab1565b6134ad6040830186612ab1565b6134ba606083018561289c565b6134c7608083018461281f565b9695505050505050565b7f5748414c45535741503a207374617274202f20656e64206f7264657200000000600082015250565b6000613507601c83612660565b9150613512826134d1565b602082019050919050565b60006020820190508181036000830152613536816134fa565b9050919050565b7f5748414c45535741503a2053616c6573205261746520697320302e205472792060008201527f64656372656173696e6720696e74657276616c2073697a65206f72207468652060208201527f6e756d626572206f6620696e74657276616c7300000000000000000000000000604082015250565b60006135bf605383612660565b91506135ca8261353d565b606082019050919050565b600060208201905081810360008301526135ee816135b2565b9050919050565b7f5748414c45535741503a20696e76616c696420656e64696e6720626c6f636b00600082015250565b600061362b601f83612660565b9150613636826135f5565b602082019050919050565b6000602082019050818103600083015261365a8161361e565b9050919050565b6000608082019050613676600083018761289c565b613683602083018661281f565b613690604083018561281f565b61369d606083018461281f565b9594505050505056fea2646970667358221220cab6a92d3b1bffedce29a2d4e390533244549925ab8bfd1613a4002f884542ed64736f6c634300080d0033",
  "immutableReferences": {
    "3004": [
      {
        "length": 32,
        "start": 3595
      }
    ],
    "3023": [
      {
        "length": 32,
        "start": 3633
      }
    ],
    "3025": [
      {
        "length": 32,
        "start": 3685
      }
    ],
    "3499": [
      {
        "length": 32,
        "start": 1748
      },
      {
        "length": 32,
        "start": 1803
      },
      {
        "length": 32,
        "start": 3163
      },
      {
        "length": 32,
        "start": 3457
      },
      {
        "length": 32,
        "start": 3799
      },
      {
        "length": 32,
        "start": 4743
      },
      {
        "length": 32,
        "start": 5650
      },
      {
        "length": 32,
        "start": 5760
      }
    ],
    "3501": [
      {
        "length": 32,
        "start": 1964
      },
      {
        "length": 32,
        "start": 3256
      },
      {
        "length": 32,
        "start": 3364
      },
      {
        "length": 32,
        "start": 4095
      },
      {
        "length": 32,
        "start": 4447
      },
      {
        "length": 32,
        "start": 5685
      },
      {
        "length": 32,
        "start": 5725
      },
      {
        "length": 32,
        "start": 6299
      }
    ]
  },
  "source": "pragma solidity >=0.8.0;\n\nimport \"@rari-capital/solmate/src/tokens/ERC20.sol\";\n\nimport \"./libraries/Math.sol\";\nimport \"./libraries/UQ112x112.sol\";\nimport \"./TWAMM.sol\";\n\ncontract Pair is ERC20 {\n    using UQ112x112 for uint224;\n\n    address public factory;\n    address public immutable token0;\n    address public immutable token1;\n    string public token0Name;\n    string public token1Name;\n\n    uint256 public price0Cumulative;\n    uint256 public price1Cumulative;\n\n    uint112 x;\n    uint112 y;\n    uint32 public lastBlockTimestamp;\n\n    /// @dev twamm state\n    TWAMM.OrderPools orderPools;\n\n    event Swap();\n    event MintLiquidity();\n    event BurnLiquidity();\n    event CreateLongTermOrder();\n    event CancelLongTermOrder();\n    event WithdrawLongTermOrder();\n\n    constructor(\n        address _token0,\n        address _token1,\n        string memory _token0Name,\n        string memory _token1Name,\n        uint256 _twammIntervalSize\n    ) ERC20(\"lWhale\", \"lWHL\", 18) {\n        factory = msg.sender;\n        token0 = _token0;\n        token1 = _token1;\n        token0Name = _token0Name;\n        token1Name = _token1Name;\n        TWAMM.initialize(orderPools, _token0, _token1, _twammIntervalSize);\n    }\n\n    function getAmounts()\n        external\n        view\n        returns (uint112 amount0, uint112 amount1)\n    {\n        amount0 = x;\n        amount1 = y;\n    }\n\n    function getLongTermOrderInterval()\n        external\n        view\n        returns (uint256 blockInterval)\n    {\n        blockInterval = orderPools.orderExpireInterval;\n    }\n\n    /// @notice method for providing liquidity\n    /// @param _amountInX - number of X tokens user wants to provide\n    /// @param _amountInY - number of Y tokens user wants to provide\n    function mint(\n        address _to,\n        uint256 _amountInX,\n        uint256 _amountInY\n    ) external returns (uint256 liquidity) {\n        // executeVirtualOrders / computeVirtualBalances -- get x and y up to date\n        //(x, y) = TWAMM.executeVirtualOrders(orderPools, x, y);\n\n        (uint256 optAmountX, uint256 optAmountY) = _optimalLiquidity(\n            _amountInX,\n            _amountInY\n        );\n\n        // handle transfers\n        ERC20(token0).transferFrom(msg.sender, address(this), optAmountX);\n        ERC20(token1).transferFrom(msg.sender, address(this), optAmountY);\n\n        // calculate liquidity\n        if (totalSupply == 0) {\n            liquidity = Math.sqrt(optAmountX * optAmountY);\n        } else {\n            liquidity = Math.min(\n                (optAmountX * totalSupply) / x,\n                (optAmountY * totalSupply) / y\n            );\n        }\n        _mint(_to, liquidity); // ERC-20 function\n        // _update()\n\n        x = x + uint112(optAmountX);\n        y = y + uint112(optAmountY);\n\n        emit MintLiquidity();\n    }\n\n    function _optimalLiquidity(uint256 desiredAmount0, uint256 desiredAmount1)\n        internal\n        view\n        returns (uint256 amountX, uint256 amountY)\n    {\n        // Empty pair with no liquidity\n        if (x == 0 && y == 0) {\n            (amountX, amountY) = (desiredAmount0, desiredAmount1);\n        } else {\n            uint256 optimalAmount1 = (desiredAmount0 * y) / x;\n            if (optimalAmount1 <= desiredAmount1) {\n                (amountX, amountY) = (desiredAmount0, optimalAmount1);\n            } else {\n                uint256 optimalAmount0 = (desiredAmount1 * x) / y;\n                (amountX, amountY) = (optimalAmount0, desiredAmount1);\n            }\n        }\n    }\n\n    /// @notice method for burning liquidity\n    // function burn(address to)\n    //     external\n    //     returns (uint256 amount0, uint256 amount1)\n    // {\n    //     uint256 liquidity = balanceOf[address(this)];\n\n    //     // calculate token amounts\n    //     amount0 = (liquidity * x) / totalSupply;\n    //     amount1 = (liquidity * y) / totalSupply;\n\n    //     // Update balances\n    //     x -= uint112(amount0);\n    //     y -= uint112(amount1);\n\n    //     // ERC-20 burn liquidity tokens\n    //     _burn(address(this), liquidity);\n\n    //     // Transfer tokens back to LP\n    //     ERC20(token0).transfer(to, amount0);\n    //     ERC20(token1).transfer(to, amount1);\n\n    //     emit BurnLiquidity();\n    // }\n\n    // This disregards fees for now\n    /// @notice execute long term swap\n    /// @param _amountIn - number of tokens user wants to swap\n    /// @param _tokenInIsX - true if swapping X to Y and false vice versa\n    /// @param _to - user/wallet address to which the newly received tokens are sent\n    function swap(\n        uint256 _amountIn,\n        bool _tokenInIsX,\n        address _to\n    ) external {\n        // executeVirtualOrders / computeVirtualBalances -- get x and y up to date\n        if (_tokenInIsX) {\n            ERC20(token0).transferFrom(msg.sender, address(this), _amountIn);\n            uint256 yOut = (_amountIn * uint256(y)) / (_amountIn + uint256(x));\n            if (yOut > 0) {\n                ERC20(token1).transfer(_to, yOut);\n                // _update(x + uint112(_amountIn), y - uint112(yOut), x, y)\n                x += uint112(_amountIn);\n                y -= uint112(yOut);\n            }\n        } else {\n            ERC20(token1).transferFrom(msg.sender, address(this), _amountIn);\n            uint256 xOut = (_amountIn * uint256(x)) / (_amountIn + uint256(y));\n            if (xOut > 0) {\n                ERC20(token0).transfer(_to, xOut);\n                // _update(x - uint112(xOut), y + uint112(_amountIn), x, y)\n                x -= uint112(xOut);\n                y += uint112(_amountIn);\n            }\n        }\n        emit Swap();\n    }\n\n    /// @notice execute long term swap\n    /// @param _amountIn - number of tokens user wants to swap\n    /// @param _tokenInIsX - true if swapping X to Y and false vice versa\n    /// @param _numIntervals - number of intervals over which to split the LTO\n    function longTermSwap(\n        uint256 _amountIn,\n        bool _tokenInIsX,\n        uint256 _numIntervals\n    ) external {\n        // setting direction of swap\n        address inToken;\n        address outToken;\n\n        if (_tokenInIsX) {\n            inToken = token0;\n            outToken = token1;\n        } else {\n            inToken = token1;\n            outToken = token0;\n        }\n\n        // interval calculations\n        uint256 nextIntervalBlock = block.number +\n            (orderPools.orderExpireInterval -\n                (block.number % orderPools.orderExpireInterval));\n        uint256 endIntervalBlock = nextIntervalBlock +\n            (_numIntervals * orderPools.orderExpireInterval);\n\n        // execute erc20 transfers\n        // NOTE: msg.sender might not be correct here...\n        ERC20(inToken).transferFrom(msg.sender, address(this), _amountIn);\n\n        // calculate per block sales rate\n        uint256 blockSalesRate = (_amountIn * 1000) /\n            (endIntervalBlock - uint256(block.number));\n\n        // create LongTermSwap\n        TWAMM.createVirtualOrder(\n            orderPools,\n            inToken,\n            outToken,\n            endIntervalBlock,\n            blockSalesRate\n        );\n\n        emit CreateLongTermOrder();\n    }\n\n    // Removing for now - currently not returning order ids to users so not useful\n    // If we did, we should probably add a check to make sure the order they are retrieving\n    // belongs to them?\n\n    // /// @notice retrieve long term swap by id\n    // function getLongTermSwapXtoY(uint256 _id)\n    //     external\n    //     view\n    //     returns (TWAMM.LongTermOrder memory order)\n    // {\n    //     order = orderPools.pools[token0][token1].orders[_id];\n    // }\n\n    // /// @notice retrieve long term swap by id\n    // function getLongTermSwapYtoX(uint256 _id)\n    //     external\n    //     view\n    //     returns (TWAMM.LongTermOrder memory order)\n    // {\n    //     order = orderPools.pools[token1][token0].orders[_id];\n    // }\n\n    /// @notice fetch orders by creator\n    function getCreatedLongTermOrders()\n        external\n        view\n        returns (\n            TWAMM.LongTermOrder[] memory ordersXtoY,\n            TWAMM.LongTermOrder[] memory ordersYtoX\n        )\n    {\n        ordersXtoY = _getCreatedOrderPool(orderPools.pools[token0][token1]);\n        ordersYtoX = _getCreatedOrderPool(orderPools.pools[token1][token0]);\n    }\n\n    function _getCreatedOrderPool(TWAMM.OrderPool storage pool)\n        private\n        view\n        returns (TWAMM.LongTermOrder[] memory orders)\n    {\n        uint256 count = 0;\n        for (uint256 i = 0; i < pool.orderId; i++) {\n            if (pool.orders[i].creator == msg.sender) count++;\n        }\n\n        uint256 pos = 0;\n        orders = new TWAMM.LongTermOrder[](count);\n        for (uint256 j = 0; j < pool.orderId; j++) {\n            if (pool.orders[j].creator == msg.sender)\n                orders[pos++] = pool.orders[j];\n        }\n    }\n\n    // function cancelLongTermOrder(\n    //     uint256 _id,\n    //     address _token0,\n    //     address _token1\n    // ) external {\n    //     TWAMM.cancelVirtualOrder(orderPools, _id, _token0, _token1);\n    //     emit CancelLongTermOrder();\n    // }\n\n    // function withdrawLongTermOrder(\n    //     uint256 _id,\n    //     address _token0,\n    //     address _token1\n    // ) external {\n    //     TWAMM.cancelVirtualOrder(orderPools, _id, _token0, _token1);\n    //     emit WithdrawLongTermOrder();\n    // }\n}\n",
  "sourcePath": "/Users/kitwiggin/senior_design/WhaleSwapMVP/contracts/Pair.sol",
  "compiler": {
    "name": "solc",
    "version": "0.8.13+commit.abaa5c0e.Emscripten.clang"
  },
  "schemaVersion": "3.4.3",
  "updatedAt": "2022-04-07T19:21:33.651Z",
  "devdoc": {
    "kind": "dev",
    "methods": {
      "longTermSwap(uint256,bool,uint256)": {
        "params": {
          "_amountIn": "- number of tokens user wants to swap",
          "_numIntervals": "- number of intervals over which to split the LTO",
          "_tokenInIsX": "- true if swapping X to Y and false vice versa"
        }
      },
      "mint(address,uint256,uint256)": {
        "params": {
          "_amountInX": "- number of X tokens user wants to provide",
          "_amountInY": "- number of Y tokens user wants to provide"
        }
      },
      "swap(uint256,bool,address)": {
        "params": {
          "_amountIn": "- number of tokens user wants to swap",
          "_to": "- user/wallet address to which the newly received tokens are sent",
          "_tokenInIsX": "- true if swapping X to Y and false vice versa"
        }
      }
    },
    "stateVariables": {
      "orderPools": {
        "details": "twamm state"
      }
    },
    "version": 1
  },
  "userdoc": {
    "kind": "user",
    "methods": {
      "getCreatedLongTermOrders()": {
        "notice": "fetch orders by creator"
      },
      "longTermSwap(uint256,bool,uint256)": {
        "notice": "execute long term swap"
      },
      "mint(address,uint256,uint256)": {
        "notice": "method for providing liquidity"
      },
      "swap(uint256,bool,address)": {
        "notice": "execute long term swap"
      }
    },
    "version": 1
  }
}