{
  "contractName": "Pair",
  "abi": [
    {
      "inputs": [
        {
          "internalType": "address",
          "name": "_token0",
          "type": "address"
        },
        {
          "internalType": "address",
          "name": "_token1",
          "type": "address"
        },
        {
          "internalType": "string",
          "name": "_token0Name",
          "type": "string"
        },
        {
          "internalType": "string",
          "name": "_token1Name",
          "type": "string"
        },
        {
          "internalType": "uint256",
          "name": "_twammIntervalSize",
          "type": "uint256"
        }
      ],
      "stateMutability": "nonpayable",
      "type": "constructor"
    },
    {
      "anonymous": false,
      "inputs": [
        {
          "indexed": true,
          "internalType": "address",
          "name": "owner",
          "type": "address"
        },
        {
          "indexed": true,
          "internalType": "address",
          "name": "spender",
          "type": "address"
        },
        {
          "indexed": false,
          "internalType": "uint256",
          "name": "amount",
          "type": "uint256"
        }
      ],
      "name": "Approval",
      "type": "event"
    },
    {
      "anonymous": false,
      "inputs": [],
      "name": "BurnLiquidity",
      "type": "event"
    },
    {
      "anonymous": false,
      "inputs": [],
      "name": "CancelLongTermOrder",
      "type": "event"
    },
    {
      "anonymous": false,
      "inputs": [],
      "name": "CreateLongTermOrder",
      "type": "event"
    },
    {
      "anonymous": false,
      "inputs": [],
      "name": "MintLiquidity",
      "type": "event"
    },
    {
      "anonymous": false,
      "inputs": [],
      "name": "Swap",
      "type": "event"
    },
    {
      "anonymous": false,
      "inputs": [
        {
          "indexed": true,
          "internalType": "address",
          "name": "from",
          "type": "address"
        },
        {
          "indexed": true,
          "internalType": "address",
          "name": "to",
          "type": "address"
        },
        {
          "indexed": false,
          "internalType": "uint256",
          "name": "amount",
          "type": "uint256"
        }
      ],
      "name": "Transfer",
      "type": "event"
    },
    {
      "anonymous": false,
      "inputs": [],
      "name": "WithdrawLongTermOrder",
      "type": "event"
    },
    {
      "inputs": [],
      "name": "DOMAIN_SEPARATOR",
      "outputs": [
        {
          "internalType": "bytes32",
          "name": "",
          "type": "bytes32"
        }
      ],
      "stateMutability": "view",
      "type": "function"
    },
    {
      "inputs": [],
      "name": "PERMIT_TYPEHASH",
      "outputs": [
        {
          "internalType": "bytes32",
          "name": "",
          "type": "bytes32"
        }
      ],
      "stateMutability": "view",
      "type": "function"
    },
    {
      "inputs": [
        {
          "internalType": "address",
          "name": "",
          "type": "address"
        },
        {
          "internalType": "address",
          "name": "",
          "type": "address"
        }
      ],
      "name": "allowance",
      "outputs": [
        {
          "internalType": "uint256",
          "name": "",
          "type": "uint256"
        }
      ],
      "stateMutability": "view",
      "type": "function"
    },
    {
      "inputs": [
        {
          "internalType": "address",
          "name": "spender",
          "type": "address"
        },
        {
          "internalType": "uint256",
          "name": "amount",
          "type": "uint256"
        }
      ],
      "name": "approve",
      "outputs": [
        {
          "internalType": "bool",
          "name": "",
          "type": "bool"
        }
      ],
      "stateMutability": "nonpayable",
      "type": "function"
    },
    {
      "inputs": [
        {
          "internalType": "address",
          "name": "",
          "type": "address"
        }
      ],
      "name": "balanceOf",
      "outputs": [
        {
          "internalType": "uint256",
          "name": "",
          "type": "uint256"
        }
      ],
      "stateMutability": "view",
      "type": "function"
    },
    {
      "inputs": [],
      "name": "decimals",
      "outputs": [
        {
          "internalType": "uint8",
          "name": "",
          "type": "uint8"
        }
      ],
      "stateMutability": "view",
      "type": "function"
    },
    {
      "inputs": [],
      "name": "factory",
      "outputs": [
        {
          "internalType": "address",
          "name": "",
          "type": "address"
        }
      ],
      "stateMutability": "view",
      "type": "function"
    },
    {
      "inputs": [],
      "name": "lastBlockTimestamp",
      "outputs": [
        {
          "internalType": "uint32",
          "name": "",
          "type": "uint32"
        }
      ],
      "stateMutability": "view",
      "type": "function"
    },
    {
      "inputs": [],
      "name": "name",
      "outputs": [
        {
          "internalType": "string",
          "name": "",
          "type": "string"
        }
      ],
      "stateMutability": "view",
      "type": "function"
    },
    {
      "inputs": [
        {
          "internalType": "address",
          "name": "",
          "type": "address"
        }
      ],
      "name": "nonces",
      "outputs": [
        {
          "internalType": "uint256",
          "name": "",
          "type": "uint256"
        }
      ],
      "stateMutability": "view",
      "type": "function"
    },
    {
      "inputs": [
        {
          "internalType": "address",
          "name": "owner",
          "type": "address"
        },
        {
          "internalType": "address",
          "name": "spender",
          "type": "address"
        },
        {
          "internalType": "uint256",
          "name": "value",
          "type": "uint256"
        },
        {
          "internalType": "uint256",
          "name": "deadline",
          "type": "uint256"
        },
        {
          "internalType": "uint8",
          "name": "v",
          "type": "uint8"
        },
        {
          "internalType": "bytes32",
          "name": "r",
          "type": "bytes32"
        },
        {
          "internalType": "bytes32",
          "name": "s",
          "type": "bytes32"
        }
      ],
      "name": "permit",
      "outputs": [],
      "stateMutability": "nonpayable",
      "type": "function"
    },
    {
      "inputs": [],
      "name": "price0Cumulative",
      "outputs": [
        {
          "internalType": "uint256",
          "name": "",
          "type": "uint256"
        }
      ],
      "stateMutability": "view",
      "type": "function"
    },
    {
      "inputs": [],
      "name": "price1Cumulative",
      "outputs": [
        {
          "internalType": "uint256",
          "name": "",
          "type": "uint256"
        }
      ],
      "stateMutability": "view",
      "type": "function"
    },
    {
      "inputs": [],
      "name": "symbol",
      "outputs": [
        {
          "internalType": "string",
          "name": "",
          "type": "string"
        }
      ],
      "stateMutability": "view",
      "type": "function"
    },
    {
      "inputs": [],
      "name": "token0",
      "outputs": [
        {
          "internalType": "address",
          "name": "",
          "type": "address"
        }
      ],
      "stateMutability": "view",
      "type": "function"
    },
    {
      "inputs": [],
      "name": "token0Name",
      "outputs": [
        {
          "internalType": "string",
          "name": "",
          "type": "string"
        }
      ],
      "stateMutability": "view",
      "type": "function"
    },
    {
      "inputs": [],
      "name": "token1",
      "outputs": [
        {
          "internalType": "address",
          "name": "",
          "type": "address"
        }
      ],
      "stateMutability": "view",
      "type": "function"
    },
    {
      "inputs": [],
      "name": "token1Name",
      "outputs": [
        {
          "internalType": "string",
          "name": "",
          "type": "string"
        }
      ],
      "stateMutability": "view",
      "type": "function"
    },
    {
      "inputs": [],
      "name": "totalSupply",
      "outputs": [
        {
          "internalType": "uint256",
          "name": "",
          "type": "uint256"
        }
      ],
      "stateMutability": "view",
      "type": "function"
    },
    {
      "inputs": [
        {
          "internalType": "address",
          "name": "to",
          "type": "address"
        },
        {
          "internalType": "uint256",
          "name": "amount",
          "type": "uint256"
        }
      ],
      "name": "transfer",
      "outputs": [
        {
          "internalType": "bool",
          "name": "",
          "type": "bool"
        }
      ],
      "stateMutability": "nonpayable",
      "type": "function"
    },
    {
      "inputs": [
        {
          "internalType": "address",
          "name": "from",
          "type": "address"
        },
        {
          "internalType": "address",
          "name": "to",
          "type": "address"
        },
        {
          "internalType": "uint256",
          "name": "amount",
          "type": "uint256"
        }
      ],
      "name": "transferFrom",
      "outputs": [
        {
          "internalType": "bool",
          "name": "",
          "type": "bool"
        }
      ],
      "stateMutability": "nonpayable",
      "type": "function"
    },
    {
      "inputs": [],
      "name": "getAmounts",
      "outputs": [
        {
          "internalType": "uint112",
          "name": "amount0",
          "type": "uint112"
        },
        {
          "internalType": "uint112",
          "name": "amount1",
          "type": "uint112"
        }
      ],
      "stateMutability": "view",
      "type": "function"
    },
    {
      "inputs": [],
      "name": "getLongTermOrderInterval",
      "outputs": [
        {
          "internalType": "uint256",
          "name": "blockInterval",
          "type": "uint256"
        }
      ],
      "stateMutability": "view",
      "type": "function"
    },
    {
      "inputs": [
        {
          "internalType": "address",
          "name": "_to",
          "type": "address"
        },
        {
          "internalType": "uint256",
          "name": "_amountInX",
          "type": "uint256"
        },
        {
          "internalType": "uint256",
          "name": "_amountInY",
          "type": "uint256"
        }
      ],
      "name": "mint",
      "outputs": [
        {
          "internalType": "uint256",
          "name": "liquidity",
          "type": "uint256"
        }
      ],
      "stateMutability": "nonpayable",
      "type": "function"
    },
    {
      "inputs": [
        {
          "internalType": "uint256",
          "name": "amount0Out",
          "type": "uint256"
        },
        {
          "internalType": "uint256",
          "name": "amount1Out",
          "type": "uint256"
        },
        {
          "internalType": "address",
          "name": "to",
          "type": "address"
        }
      ],
      "name": "swap",
      "outputs": [],
      "stateMutability": "nonpayable",
      "type": "function"
    },
    {
      "inputs": [
        {
          "internalType": "uint256",
          "name": "_intervalNumber",
          "type": "uint256"
        },
        {
          "internalType": "uint256",
          "name": "_totalXIn",
          "type": "uint256"
        }
      ],
      "name": "longTermSwapTokenXtoY",
      "outputs": [],
      "stateMutability": "nonpayable",
      "type": "function"
    },
    {
      "inputs": [
        {
          "internalType": "uint256",
          "name": "_intervalNumber",
          "type": "uint256"
        },
        {
          "internalType": "uint256",
          "name": "_totalYIn",
          "type": "uint256"
        }
      ],
      "name": "longTermSwapTokenYtoX",
      "outputs": [],
      "stateMutability": "nonpayable",
      "type": "function"
    },
    {
      "inputs": [
        {
          "internalType": "uint256",
          "name": "_id",
          "type": "uint256"
        }
      ],
      "name": "getLongTermSwapXtoY",
      "outputs": [
        {
          "components": [
            {
              "internalType": "uint256",
              "name": "id",
              "type": "uint256"
            },
            {
              "internalType": "address",
              "name": "creator",
              "type": "address"
            },
            {
              "internalType": "uint256",
              "name": "beginBlock",
              "type": "uint256"
            },
            {
              "internalType": "uint256",
              "name": "finalBlock",
              "type": "uint256"
            },
            {
              "internalType": "uint256",
              "name": "ratePerBlock",
              "type": "uint256"
            },
            {
              "internalType": "bool",
              "name": "active",
              "type": "bool"
            }
          ],
          "internalType": "struct TWAMM.LongTermOrder",
          "name": "order",
          "type": "tuple"
        }
      ],
      "stateMutability": "view",
      "type": "function"
    },
    {
      "inputs": [
        {
          "internalType": "uint256",
          "name": "_id",
          "type": "uint256"
        }
      ],
      "name": "getLongTermSwapYtoX",
      "outputs": [
        {
          "components": [
            {
              "internalType": "uint256",
              "name": "id",
              "type": "uint256"
            },
            {
              "internalType": "address",
              "name": "creator",
              "type": "address"
            },
            {
              "internalType": "uint256",
              "name": "beginBlock",
              "type": "uint256"
            },
            {
              "internalType": "uint256",
              "name": "finalBlock",
              "type": "uint256"
            },
            {
              "internalType": "uint256",
              "name": "ratePerBlock",
              "type": "uint256"
            },
            {
              "internalType": "bool",
              "name": "active",
              "type": "bool"
            }
          ],
          "internalType": "struct TWAMM.LongTermOrder",
          "name": "order",
          "type": "tuple"
        }
      ],
      "stateMutability": "view",
      "type": "function"
    },
    {
      "inputs": [
        {
          "internalType": "uint256",
          "name": "_id",
          "type": "uint256"
        },
        {
          "internalType": "address",
          "name": "_token0",
          "type": "address"
        },
        {
          "internalType": "address",
          "name": "_token1",
          "type": "address"
        }
      ],
      "name": "withdrawLongTermOrder",
      "outputs": [],
      "stateMutability": "nonpayable",
      "type": "function"
    }
  ],
  "bytecode": "0x6101206040523480156200001257600080fd5b506040516200486538038062004865833981810160405281019062000038919062000624565b6040518060400160405280600681526020017f6c5768616c6500000000000000000000000000000000000000000000000000008152506040518060400160405280600481526020017f6c57484c0000000000000000000000000000000000000000000000000000000081525060128260009080519060200190620000be92919062000337565b508160019080519060200190620000d792919062000337565b508060ff1660808160ff16815250504660a08181525050620000fe6200020960201b60201c565b60c0818152505050505033600660006101000a81548173ffffffffffffffffffffffffffffffffffffffff021916908373ffffffffffffffffffffffffffffffffffffffff1602179055508473ffffffffffffffffffffffffffffffffffffffff1660e08173ffffffffffffffffffffffffffffffffffffffff16815250508373ffffffffffffffffffffffffffffffffffffffff166101008173ffffffffffffffffffffffffffffffffffffffff16815250508260079080519060200190620001ca92919062000337565b508160089080519060200190620001e392919062000337565b50620001fe600c8686846200029960201b62001d8c1760201c565b5050505050620008ac565b60007f8b73c3c69bb8fe3d512ecc4cf759cc79239f7b179b0ffacaa9a75d522b39400f60006040516200023d9190620007f9565b60405180910390207fc89efdaa54c0f20c7adf612882df0950f5a951637e0307cdcb4c672f298b8bc646306040516020016200027e9594939291906200084f565b60405160208183030381529060405280519060200120905090565b808460000181905550438460010181905550828460020160006101000a81548173ffffffffffffffffffffffffffffffffffffffff021916908373ffffffffffffffffffffffffffffffffffffffff160217905550818460030160006101000a81548173ffffffffffffffffffffffffffffffffffffffff021916908373ffffffffffffffffffffffffffffffffffffffff16021790555050505050565b828054620003459062000719565b90600052602060002090601f016020900481019282620003695760008555620003b5565b82601f106200038457805160ff1916838001178555620003b5565b82800160010185558215620003b5579182015b82811115620003b457825182559160200191906001019062000397565b5b509050620003c49190620003c8565b5090565b5b80821115620003e3576000816000905550600101620003c9565b5090565b6000604051905090565b600080fd5b600080fd5b600073ffffffffffffffffffffffffffffffffffffffff82169050919050565b60006200042882620003fb565b9050919050565b6200043a816200041b565b81146200044657600080fd5b50565b6000815190506200045a816200042f565b92915050565b600080fd5b600080fd5b6000601f19601f8301169050919050565b7f4e487b7100000000000000000000000000000000000000000000000000000000600052604160045260246000fd5b620004b5826200046a565b810181811067ffffffffffffffff82111715620004d757620004d66200047b565b5b80604052505050565b6000620004ec620003e7565b9050620004fa8282620004aa565b919050565b600067ffffffffffffffff8211156200051d576200051c6200047b565b5b62000528826200046a565b9050602081019050919050565b60005b838110156200055557808201518184015260208101905062000538565b8381111562000565576000848401525b50505050565b6000620005826200057c84620004ff565b620004e0565b905082815260208101848484011115620005a157620005a062000465565b5b620005ae84828562000535565b509392505050565b600082601f830112620005ce57620005cd62000460565b5b8151620005e08482602086016200056b565b91505092915050565b6000819050919050565b620005fe81620005e9565b81146200060a57600080fd5b50565b6000815190506200061e81620005f3565b92915050565b600080600080600060a08688031215620006435762000642620003f1565b5b6000620006538882890162000449565b9550506020620006668882890162000449565b945050604086015167ffffffffffffffff8111156200068a5762000689620003f6565b5b6200069888828901620005b6565b935050606086015167ffffffffffffffff811115620006bc57620006bb620003f6565b5b620006ca88828901620005b6565b9250506080620006dd888289016200060d565b9150509295509295909350565b7f4e487b7100000000000000000000000000000000000000000000000000000000600052602260045260246000fd5b600060028204905060018216806200073257607f821691505b602082108103620007485762000747620006ea565b5b50919050565b600081905092915050565b60008190508160005260206000209050919050565b600081546200077d8162000719565b6200078981866200074e565b94506001821660008114620007a75760018114620007b957620007f0565b60ff19831686528186019350620007f0565b620007c48562000759565b60005b83811015620007e857815481890152600182019150602081019050620007c7565b838801955050505b50505092915050565b60006200080782846200076e565b915081905092915050565b6000819050919050565b620008278162000812565b82525050565b6200083881620005e9565b82525050565b62000849816200041b565b82525050565b600060a0820190506200086660008301886200081c565b6200087560208301876200081c565b6200088460408301866200081c565b6200089360608301856200082d565b620008a260808301846200083e565b9695505050505050565b60805160a05160c05160e05161010051613f04620009616000396000818161085601528181610ab101528181610e500152818161107c015281816111b801528181611564015281816117ee01528181611b7d015261217701526000818161077e015281816107b501528181610ad201528181610ead01528181610fd30152818161111c0152818161154301528181611b20015261222501526000610dc801526000610d9401526000610d6e0152613f046000f3fe608060405234801561001057600080fd5b50600436106101da5760003560e01c80637ecebe0011610104578063cc5864ee116100a2578063dd62ed3e11610071578063dd62ed3e14610574578063e7563e0b146105a4578063f7029a26146105c2578063f9063ba1146105de576101da565b8063cc5864ee146104ec578063d21220a71461050a578063d505accf14610528578063d92b15a014610544576101da565b806395d89b41116100de57806395d89b4114610462578063a9059cbb14610480578063c2d12e4b146104b0578063c45a0155146104ce576101da565b80637ecebe00146103f857806385e63fc61461042857806388ed31f614610446576101da565b806330adf81f1161017c578063535cc24d1161014b578063535cc24d1461035e57806358c4bd131461037c5780636d9a640a146103ac57806370a08231146103c8576101da565b806330adf81f146102e5578063313ce567146103035780633644e515146103215780633d370b4e1461033f576101da565b8063156e29f6116101b8578063156e29f61461024b57806318160ddd1461027b578063187e7e581461029957806323b872dd146102b5576101da565b806306fdde03146101df578063095ea7b3146101fd5780630dfe16811461022d575b600080fd5b6101e76105fc565b6040516101f49190612cc9565b60405180910390f35b61021760048036038101906102129190612d84565b61068a565b6040516102249190612ddf565b60405180910390f35b61023561077c565b6040516102429190612e09565b60405180910390f35b61026560048036038101906102609190612e24565b6107a0565b6040516102729190612e86565b60405180910390f35b610283610aa6565b6040516102909190612e86565b60405180910390f35b6102b360048036038101906102ae9190612ea1565b610aac565b005b6102cf60048036038101906102ca9190612ee1565b610afe565b6040516102dc9190612ddf565b60405180910390f35b6102ed610d48565b6040516102fa9190612f4d565b60405180910390f35b61030b610d6c565b6040516103189190612f84565b60405180910390f35b610329610d90565b6040516103369190612f4d565b60405180910390f35b610347610ded565b604051610355929190612fc8565b60405180910390f35b610366610e32565b6040516103739190612e86565b60405180910390f35b61039660048036038101906103919190612ff1565b610e3f565b6040516103a391906130c6565b60405180910390f35b6103c660048036038101906103c191906130e1565b610fc5565b005b6103e260048036038101906103dd9190613134565b6114f8565b6040516103ef9190612e86565b60405180910390f35b610412600480360381019061040d9190613134565b611510565b60405161041f9190612e86565b60405180910390f35b610430611528565b60405161043d9190613180565b60405180910390f35b610460600480360381019061045b9190612ea1565b61153e565b005b61046a611590565b6040516104779190612cc9565b60405180910390f35b61049a60048036038101906104959190612d84565b61161e565b6040516104a79190612ddf565b60405180910390f35b6104b8611732565b6040516104c59190612cc9565b60405180910390f35b6104d66117c0565b6040516104e39190612e09565b60405180910390f35b6104f46117e6565b6040516105019190612e86565b60405180910390f35b6105126117ec565b60405161051f9190612e09565b60405180910390f35b610542600480360381019061053d91906131f3565b611810565b005b61055e60048036038101906105599190612ff1565b611b0f565b60405161056b91906130c6565b60405180910390f35b61058e60048036038101906105899190613295565b611c95565b60405161059b9190612e86565b60405180910390f35b6105ac611cba565b6040516105b99190612cc9565b60405180910390f35b6105dc60048036038101906105d791906132d5565b611d48565b005b6105e6611d86565b6040516105f39190612e86565b60405180910390f35b6000805461060990613357565b80601f016020809104026020016040519081016040528092919081815260200182805461063590613357565b80156106825780601f1061065757610100808354040283529160200191610682565b820191906000526020600020905b81548152906001019060200180831161066557829003601f168201915b505050505081565b600081600460003373ffffffffffffffffffffffffffffffffffffffff1673ffffffffffffffffffffffffffffffffffffffff16815260200190815260200160002060008573ffffffffffffffffffffffffffffffffffffffff1673ffffffffffffffffffffffffffffffffffffffff168152602001908152602001600020819055508273ffffffffffffffffffffffffffffffffffffffff163373ffffffffffffffffffffffffffffffffffffffff167f8c5be1e5ebec7d5bd14f71427d1e84f3dd0314c0f7b2291e5b200ac8c7c3b9258460405161076a9190612e86565b60405180910390a36001905092915050565b7f000000000000000000000000000000000000000000000000000000000000000081565b60008060006107af8585611e2a565b915091507f000000000000000000000000000000000000000000000000000000000000000073ffffffffffffffffffffffffffffffffffffffff166323b872dd3330856040518463ffffffff1660e01b815260040161081093929190613388565b6020604051808303816000875af115801561082f573d6000803e3d6000fd5b505050506040513d601f19601f8201168201806040525081019061085391906133eb565b507f000000000000000000000000000000000000000000000000000000000000000073ffffffffffffffffffffffffffffffffffffffff166323b872dd3330846040518463ffffffff1660e01b81526004016108b193929190613388565b6020604051808303816000875af11580156108d0573d6000803e3d6000fd5b505050506040513d601f19601f820116820180604052508101906108f491906133eb565b5060006002540361091a57610913818361090e9190613447565b611fba565b92506109af565b6109ac600b60009054906101000a90046dffffffffffffffffffffffffffff166dffffffffffffffffffffffffffff16600254846109589190613447565b61096291906134d0565b600b600e9054906101000a90046dffffffffffffffffffffffffffff166dffffffffffffffffffffffffffff166002548461099d9190613447565b6109a791906134d0565b612034565b92505b6109b9868461204d565b81600b60009054906101000a90046dffffffffffffffffffffffffffff166109e19190613501565b600b60006101000a8154816dffffffffffffffffffffffffffff02191690836dffffffffffffffffffffffffffff16021790555080600b600e9054906101000a90046dffffffffffffffffffffffffffff16610a3d9190613501565b600b600e6101000a8154816dffffffffffffffffffffffffffff02191690836dffffffffffffffffffffffffffff1602179055507fb792c15144fb9406bc07a4265f506a9f224141cefbf91fac2225f38ee380dd8660405160405180910390a150509392505050565b60025481565b610afa7f00000000000000000000000000000000000000000000000000000000000000007f00000000000000000000000000000000000000000000000000000000000000008460008561211d565b5050565b600080600460008673ffffffffffffffffffffffffffffffffffffffff1673ffffffffffffffffffffffffffffffffffffffff16815260200190815260200160002060003373ffffffffffffffffffffffffffffffffffffffff1673ffffffffffffffffffffffffffffffffffffffff1681526020019081526020016000205490507fffffffffffffffffffffffffffffffffffffffffffffffffffffffffffffffff8114610c34578281610bb39190613545565b600460008773ffffffffffffffffffffffffffffffffffffffff1673ffffffffffffffffffffffffffffffffffffffff16815260200190815260200160002060003373ffffffffffffffffffffffffffffffffffffffff1673ffffffffffffffffffffffffffffffffffffffff168152602001908152602001600020819055505b82600360008773ffffffffffffffffffffffffffffffffffffffff1673ffffffffffffffffffffffffffffffffffffffff1681526020019081526020016000206000828254610c839190613545565b9250508190555082600360008673ffffffffffffffffffffffffffffffffffffffff1673ffffffffffffffffffffffffffffffffffffffff168152602001908152602001600020600082825401925050819055508373ffffffffffffffffffffffffffffffffffffffff168573ffffffffffffffffffffffffffffffffffffffff167fddf252ad1be2c89b69c2b068fc378daa952ba7f163c4a11628f55a4df523b3ef85604051610d349190612e86565b60405180910390a360019150509392505050565b7f6e71edae12b1b97f4d1f60370fef10105fa2faae0126114a169c64845d6126c981565b7f000000000000000000000000000000000000000000000000000000000000000081565b60007f00000000000000000000000000000000000000000000000000000000000000004614610dc657610dc1612330565b610de8565b7f00000000000000000000000000000000000000000000000000000000000000005b905090565b600080600b60009054906101000a90046dffffffffffffffffffffffffffff169150600b600e9054906101000a90046dffffffffffffffffffffffffffff1690509091565b6000600c60000154905090565b610e47612be2565b600c60040160007f000000000000000000000000000000000000000000000000000000000000000073ffffffffffffffffffffffffffffffffffffffff1673ffffffffffffffffffffffffffffffffffffffff16815260200190815260200160002060007f000000000000000000000000000000000000000000000000000000000000000073ffffffffffffffffffffffffffffffffffffffff1673ffffffffffffffffffffffffffffffffffffffff16815260200190815260200160002060050160008381526020019081526020016000206040518060c0016040529081600082015481526020016001820160009054906101000a900473ffffffffffffffffffffffffffffffffffffffff1673ffffffffffffffffffffffffffffffffffffffff1673ffffffffffffffffffffffffffffffffffffffff1681526020016002820154815260200160038201548152602001600482015481526020016005820160009054906101000a900460ff1615151515815250509050919050565b6000806000851115611071577f000000000000000000000000000000000000000000000000000000000000000073ffffffffffffffffffffffffffffffffffffffff1663a9059cbb84876040518363ffffffff1660e01b815260040161102c929190613579565b6020604051808303816000875af115801561104b573d6000803e3d6000fd5b505050506040513d601f19601f8201168201806040525081019061106f91906133eb565b505b600084111561111a577f000000000000000000000000000000000000000000000000000000000000000073ffffffffffffffffffffffffffffffffffffffff1663a9059cbb84866040518363ffffffff1660e01b81526004016110d5929190613579565b6020604051808303816000875af11580156110f4573d6000803e3d6000fd5b505050506040513d601f19601f8201168201806040525081019061111891906133eb565b505b7f000000000000000000000000000000000000000000000000000000000000000073ffffffffffffffffffffffffffffffffffffffff166370a08231306040518263ffffffff1660e01b81526004016111739190612e09565b602060405180830381865afa158015611190573d6000803e3d6000fd5b505050506040513d601f19601f820116820180604052508101906111b491906135b7565b91507f000000000000000000000000000000000000000000000000000000000000000073ffffffffffffffffffffffffffffffffffffffff166370a08231306040518263ffffffff1660e01b815260040161120f9190612e09565b602060405180830381865afa15801561122c573d6000803e3d6000fd5b505050506040513d601f19601f8201168201806040525081019061125091906135b7565b9050600085600b60009054906101000a90046dffffffffffffffffffffffffffff166dffffffffffffffffffffffffffff1661128c9190613545565b83116112995760006112dd565b85600b60009054906101000a90046dffffffffffffffffffffffffffff166dffffffffffffffffffffffffffff166112d19190613545565b836112dc9190613545565b5b9050600085600b600e9054906101000a90046dffffffffffffffffffffffffffff166dffffffffffffffffffffffffffff166113199190613545565b831161132657600061136a565b85600b600e9054906101000a90046dffffffffffffffffffffffffffff166dffffffffffffffffffffffffffff1661135e9190613545565b836113699190613545565b5b9050600060038361137b9190613447565b6103e8866113899190613447565b6113939190613545565b905060006003836113a49190613447565b6103e8866113b29190613447565b6113bc9190613545565b9050620f4240600b600e9054906101000a90046dffffffffffffffffffffffffffff166dffffffffffffffffffffffffffff16600b60009054906101000a90046dffffffffffffffffffffffffffff166dffffffffffffffffffffffffffff166114269190613447565b6114309190613447565b818361143c9190613447565b101561147d576040517f08c379a000000000000000000000000000000000000000000000000000000000815260040161147490613630565b60405180910390fd5b6114c18686600b60009054906101000a90046dffffffffffffffffffffffffffff16600b600e9054906101000a90046dffffffffffffffffffffffffffff166123bc565b7f3ebfdaaf4031bec9a2b7b0a1c594d2d03f3d0b8d68531c9164c2829bac00fefa60405160405180910390a1505050505050505050565b60036020528060005260406000206000915090505481565b60056020528060005260406000206000915090505481565b600b601c9054906101000a900463ffffffff1681565b61158c7f00000000000000000000000000000000000000000000000000000000000000007f00000000000000000000000000000000000000000000000000000000000000008484600061211d565b5050565b6001805461159d90613357565b80601f01602080910402602001604051908101604052809291908181526020018280546115c990613357565b80156116165780601f106115eb57610100808354040283529160200191611616565b820191906000526020600020905b8154815290600101906020018083116115f957829003601f168201915b505050505081565b600081600360003373ffffffffffffffffffffffffffffffffffffffff1673ffffffffffffffffffffffffffffffffffffffff168152602001908152602001600020600082825461166f9190613545565b9250508190555081600360008573ffffffffffffffffffffffffffffffffffffffff1673ffffffffffffffffffffffffffffffffffffffff168152602001908152602001600020600082825401925050819055508273ffffffffffffffffffffffffffffffffffffffff163373ffffffffffffffffffffffffffffffffffffffff167fddf252ad1be2c89b69c2b068fc378daa952ba7f163c4a11628f55a4df523b3ef846040516117209190612e86565b60405180910390a36001905092915050565b6008805461173f90613357565b80601f016020809104026020016040519081016040528092919081815260200182805461176b90613357565b80156117b85780601f1061178d576101008083540402835291602001916117b8565b820191906000526020600020905b81548152906001019060200180831161179b57829003601f168201915b505050505081565b600660009054906101000a900473ffffffffffffffffffffffffffffffffffffffff1681565b600a5481565b7f000000000000000000000000000000000000000000000000000000000000000081565b42841015611853576040517f08c379a000000000000000000000000000000000000000000000000000000000815260040161184a9061369c565b60405180910390fd5b600061185d610d90565b7f6e71edae12b1b97f4d1f60370fef10105fa2faae0126114a169c64845d6126c9898989600560008e73ffffffffffffffffffffffffffffffffffffffff1673ffffffffffffffffffffffffffffffffffffffff1681526020019081526020016000206000815480929190600101919050558a6040516020016118e5969594939291906136bc565b6040516020818303038152906040528051906020012060405160200161190c929190613795565b60405160208183030381529060405280519060200120905060006001828686866040516000815260200160405260405161194994939291906137cc565b6020604051602081039080840390855afa15801561196b573d6000803e3d6000fd5b505050602060405103519050600073ffffffffffffffffffffffffffffffffffffffff168173ffffffffffffffffffffffffffffffffffffffff16141580156119df57508873ffffffffffffffffffffffffffffffffffffffff168173ffffffffffffffffffffffffffffffffffffffff16145b611a1e576040517f08c379a0000000000000000000000000000000000000000000000000000000008152600401611a159061385d565b60405180910390fd5b86600460008373ffffffffffffffffffffffffffffffffffffffff1673ffffffffffffffffffffffffffffffffffffffff16815260200190815260200160002060008a73ffffffffffffffffffffffffffffffffffffffff1673ffffffffffffffffffffffffffffffffffffffff1681526020019081526020016000208190555050508573ffffffffffffffffffffffffffffffffffffffff168773ffffffffffffffffffffffffffffffffffffffff167f8c5be1e5ebec7d5bd14f71427d1e84f3dd0314c0f7b2291e5b200ac8c7c3b92587604051611afe9190612e86565b60405180910390a350505050505050565b611b17612be2565b600c60040160007f000000000000000000000000000000000000000000000000000000000000000073ffffffffffffffffffffffffffffffffffffffff1673ffffffffffffffffffffffffffffffffffffffff16815260200190815260200160002060007f000000000000000000000000000000000000000000000000000000000000000073ffffffffffffffffffffffffffffffffffffffff1673ffffffffffffffffffffffffffffffffffffffff16815260200190815260200160002060050160008381526020019081526020016000206040518060c0016040529081600082015481526020016001820160009054906101000a900473ffffffffffffffffffffffffffffffffffffffff1673ffffffffffffffffffffffffffffffffffffffff1673ffffffffffffffffffffffffffffffffffffffff1681526020016002820154815260200160038201548152602001600482015481526020016005820160009054906101000a900460ff1615151515815250509050919050565b6004602052816000526040600020602052806000526040600020600091509150505481565b60078054611cc790613357565b80601f0160208091040260200160405190810160405280929190818152602001828054611cf390613357565b8015611d405780601f10611d1557610100808354040283529160200191611d40565b820191906000526020600020905b815481529060010190602001808311611d2357829003601f168201915b505050505081565b611d55600c8484846125d0565b7f10217171ff978e29ba81284390d4a1c97d84c52ca9478b05f72ed22e85b601fe60405160405180910390a1505050565b60095481565b808460000181905550438460010181905550828460020160006101000a81548173ffffffffffffffffffffffffffffffffffffffff021916908373ffffffffffffffffffffffffffffffffffffffff160217905550818460030160006101000a81548173ffffffffffffffffffffffffffffffffffffffff021916908373ffffffffffffffffffffffffffffffffffffffff16021790555050505050565b6000806000600b60009054906101000a90046dffffffffffffffffffffffffffff166dffffffffffffffffffffffffffff16148015611e9557506000600b600e9054906101000a90046dffffffffffffffffffffffffffff166dffffffffffffffffffffffffffff16145b15611ea95783838092508193505050611fb3565b6000600b60009054906101000a90046dffffffffffffffffffffffffffff166dffffffffffffffffffffffffffff16600b600e9054906101000a90046dffffffffffffffffffffffffffff166dffffffffffffffffffffffffffff1686611f109190613447565b611f1a91906134d0565b9050838111611f325784818093508194505050611fb1565b6000600b600e9054906101000a90046dffffffffffffffffffffffffffff166dffffffffffffffffffffffffffff16600b60009054906101000a90046dffffffffffffffffffffffffffff166dffffffffffffffffffffffffffff1686611f999190613447565b611fa391906134d0565b905080858094508195505050505b505b9250929050565b600060038211156120215781905060006001600284611fd991906134d0565b611fe3919061387d565b90505b8181101561201b57809150600281828561200091906134d0565b61200a919061387d565b61201491906134d0565b9050611fe6565b5061202f565b6000821461202e57600190505b5b919050565b60008183106120435781612045565b825b905092915050565b806002600082825461205f919061387d565b9250508190555080600360008473ffffffffffffffffffffffffffffffffffffffff1673ffffffffffffffffffffffffffffffffffffffff168152602001908152602001600020600082825401925050819055508173ffffffffffffffffffffffffffffffffffffffff16600073ffffffffffffffffffffffffffffffffffffffff167fddf252ad1be2c89b69c2b068fc378daa952ba7f163c4a11628f55a4df523b3ef836040516121119190612e86565b60405180910390a35050565b6000600c600001544361213091906138d3565b600c600001546121409190613545565b4361214b919061387d565b90506000600c60000154856121609190613447565b8261216b919061387d565b90506000840361221b577f000000000000000000000000000000000000000000000000000000000000000073ffffffffffffffffffffffffffffffffffffffff166323b872dd3330866040518463ffffffff1660e01b81526004016121d293929190613388565b6020604051808303816000875af11580156121f1573d6000803e3d6000fd5b505050506040513d601f19601f8201168201806040525081019061221591906133eb565b506122c6565b600083036122c5577f000000000000000000000000000000000000000000000000000000000000000073ffffffffffffffffffffffffffffffffffffffff166323b872dd3330876040518463ffffffff1660e01b815260040161228093929190613388565b6020604051808303816000875af115801561229f573d6000803e3d6000fd5b505050506040513d601f19601f820116820180604052508101906122c391906133eb565b505b5b600043826122d49190613545565b84866122e0919061387d565b6122ea91906134d0565b90506122fa600c89898585612884565b7fe8a7141353ea049e2cceba16d76526b3331aeb1e8c90090af91e01812b91b4ec60405160405180910390a15050505050505050565b60007f8b73c3c69bb8fe3d512ecc4cf759cc79239f7b179b0ffacaa9a75d522b39400f600060405161236291906139a3565b60405180910390207fc89efdaa54c0f20c7adf612882df0950f5a951637e0307cdcb4c672f298b8bc646306040516020016123a19594939291906139ba565b60405160208183030381529060405280519060200120905090565b6000640100000000426123cf91906138d3565b90506000600b601c9054906101000a900463ffffffff16826123f19190613a0d565b905060008163ffffffff1611801561241a57506000846dffffffffffffffffffffffffffff1614155b801561243757506000836dffffffffffffffffffffffffffff1614155b1561253d578063ffffffff1661247c8561245086612b88565b7bffffffffffffffffffffffffffffffffffffffffffffffffffffffff16612bbc90919063ffffffff16565b7bffffffffffffffffffffffffffffffffffffffffffffffffffffffff166124a49190613447565b600960008282546124b5919061387d565b925050819055508063ffffffff166124fc846124d087612b88565b7bffffffffffffffffffffffffffffffffffffffffffffffffffffffff16612bbc90919063ffffffff16565b7bffffffffffffffffffffffffffffffffffffffffffffffffffffffff166125249190613447565b600a6000828254612535919061387d565b925050819055505b85600b60006101000a8154816dffffffffffffffffffffffffffff02191690836dffffffffffffffffffffffffffff16021790555084600b600e6101000a8154816dffffffffffffffffffffffffffff02191690836dffffffffffffffffffffffffffff16021790555081600b601c6101000a81548163ffffffff021916908363ffffffff160217905550505050505050565b60008460040160008473ffffffffffffffffffffffffffffffffffffffff1673ffffffffffffffffffffffffffffffffffffffff16815260200190815260200160002060008373ffffffffffffffffffffffffffffffffffffffff1673ffffffffffffffffffffffffffffffffffffffff16815260200190815260200160002090506000816000015403612699576040517f08c379a000000000000000000000000000000000000000000000000000000000815260040161269090613a8d565b60405180910390fd5b6000816005016000868152602001908152602001600020905060008160000154036126f9576040517f08c379a00000000000000000000000000000000000000000000000000000000081526004016126f090613af9565b60405180910390fd5b4381600301541161273f576040517f08c379a000000000000000000000000000000000000000000000000000000000815260040161273690613b8b565b60405180910390fd5b3373ffffffffffffffffffffffffffffffffffffffff168160010160009054906101000a900473ffffffffffffffffffffffffffffffffffffffff1673ffffffffffffffffffffffffffffffffffffffff16146127d1576040517f08c379a00000000000000000000000000000000000000000000000000000000081526004016127c890613bf7565b60405180910390fd5b80600401548260030160008282546127e99190613545565b92505081905550806004015482600601600083600301548152602001908152602001600020600082825461281d9190613545565b9250508190555060008160050160006101000a81548160ff0219169083151502179055507fae535bd34d0187c0a1db1e231130e8b8ba2c8c7b6612b6f39e16c010bf5498d085858560405161287493929190613c17565b60405180910390a1505050505050565b60008560040160008673ffffffffffffffffffffffffffffffffffffffff1673ffffffffffffffffffffffffffffffffffffffff16815260200190815260200160002060008573ffffffffffffffffffffffffffffffffffffffff1673ffffffffffffffffffffffffffffffffffffffff1681526020019081526020016000209050824310612948576040517f08c379a000000000000000000000000000000000000000000000000000000000815260040161293f90613c9a565b60405180910390fd5b6000820361298b576040517f08c379a000000000000000000000000000000000000000000000000000000000815260040161298290613d06565b60405180910390fd5b600086600001548461299d91906138d3565b146129dd576040517f08c379a00000000000000000000000000000000000000000000000000000000081526004016129d490613d72565b60405180910390fd5b818160030160008282546129f1919061387d565b925050819055506040518060c00160405280826000015481526020013373ffffffffffffffffffffffffffffffffffffffff16815260200143815260200184815260200183815260200160001515815250816005016000836000015481526020019081526020016000206000820151816000015560208201518160010160006101000a81548173ffffffffffffffffffffffffffffffffffffffff021916908373ffffffffffffffffffffffffffffffffffffffff16021790555060408201518160020155606082015181600301556080820151816004015560a08201518160050160006101000a81548160ff021916908315150217905550905050818160060160008581526020019081526020016000206000828254612b12919061387d565b92505081905550806000016000815480929190612b2e90613d92565b91905055507f2c3ffcf5ffd176911ddab8c33354b6b2e2b76c269b75c59f7e307470f7ead6d160018260000154612b659190613545565b868633604051612b789493929190613dda565b60405180910390a1505050505050565b60006e010000000000000000000000000000826dffffffffffffffffffffffffffff16612bb59190613e47565b9050919050565b6000816dffffffffffffffffffffffffffff1683612bda9190613e9d565b905092915050565b6040518060c0016040528060008152602001600073ffffffffffffffffffffffffffffffffffffffff1681526020016000815260200160008152602001600081526020016000151581525090565b600081519050919050565b600082825260208201905092915050565b60005b83811015612c6a578082015181840152602081019050612c4f565b83811115612c79576000848401525b50505050565b6000601f19601f8301169050919050565b6000612c9b82612c30565b612ca58185612c3b565b9350612cb5818560208601612c4c565b612cbe81612c7f565b840191505092915050565b60006020820190508181036000830152612ce38184612c90565b905092915050565b600080fd5b600073ffffffffffffffffffffffffffffffffffffffff82169050919050565b6000612d1b82612cf0565b9050919050565b612d2b81612d10565b8114612d3657600080fd5b50565b600081359050612d4881612d22565b92915050565b6000819050919050565b612d6181612d4e565b8114612d6c57600080fd5b50565b600081359050612d7e81612d58565b92915050565b60008060408385031215612d9b57612d9a612ceb565b5b6000612da985828601612d39565b9250506020612dba85828601612d6f565b9150509250929050565b60008115159050919050565b612dd981612dc4565b82525050565b6000602082019050612df46000830184612dd0565b92915050565b612e0381612d10565b82525050565b6000602082019050612e1e6000830184612dfa565b92915050565b600080600060608486031215612e3d57612e3c612ceb565b5b6000612e4b86828701612d39565b9350506020612e5c86828701612d6f565b9250506040612e6d86828701612d6f565b9150509250925092565b612e8081612d4e565b82525050565b6000602082019050612e9b6000830184612e77565b92915050565b60008060408385031215612eb857612eb7612ceb565b5b6000612ec685828601612d6f565b9250506020612ed785828601612d6f565b9150509250929050565b600080600060608486031215612efa57612ef9612ceb565b5b6000612f0886828701612d39565b9350506020612f1986828701612d39565b9250506040612f2a86828701612d6f565b9150509250925092565b6000819050919050565b612f4781612f34565b82525050565b6000602082019050612f626000830184612f3e565b92915050565b600060ff82169050919050565b612f7e81612f68565b82525050565b6000602082019050612f996000830184612f75565b92915050565b60006dffffffffffffffffffffffffffff82169050919050565b612fc281612f9f565b82525050565b6000604082019050612fdd6000830185612fb9565b612fea6020830184612fb9565b9392505050565b60006020828403121561300757613006612ceb565b5b600061301584828501612d6f565b91505092915050565b61302781612d4e565b82525050565b61303681612d10565b82525050565b61304581612dc4565b82525050565b60c082016000820151613061600085018261301e565b506020820151613074602085018261302d565b506040820151613087604085018261301e565b50606082015161309a606085018261301e565b5060808201516130ad608085018261301e565b5060a08201516130c060a085018261303c565b50505050565b600060c0820190506130db600083018461304b565b92915050565b6000806000606084860312156130fa576130f9612ceb565b5b600061310886828701612d6f565b935050602061311986828701612d6f565b925050604061312a86828701612d39565b9150509250925092565b60006020828403121561314a57613149612ceb565b5b600061315884828501612d39565b91505092915050565b600063ffffffff82169050919050565b61317a81613161565b82525050565b60006020820190506131956000830184613171565b92915050565b6131a481612f68565b81146131af57600080fd5b50565b6000813590506131c18161319b565b92915050565b6131d081612f34565b81146131db57600080fd5b50565b6000813590506131ed816131c7565b92915050565b600080600080600080600060e0888a03121561321257613211612ceb565b5b60006132208a828b01612d39565b97505060206132318a828b01612d39565b96505060406132428a828b01612d6f565b95505060606132538a828b01612d6f565b94505060806132648a828b016131b2565b93505060a06132758a828b016131de565b92505060c06132868a828b016131de565b91505092959891949750929550565b600080604083850312156132ac576132ab612ceb565b5b60006132ba85828601612d39565b92505060206132cb85828601612d39565b9150509250929050565b6000806000606084860312156132ee576132ed612ceb565b5b60006132fc86828701612d6f565b935050602061330d86828701612d39565b925050604061331e86828701612d39565b9150509250925092565b7f4e487b7100000000000000000000000000000000000000000000000000000000600052602260045260246000fd5b6000600282049050600182168061336f57607f821691505b60208210810361338257613381613328565b5b50919050565b600060608201905061339d6000830186612dfa565b6133aa6020830185612dfa565b6133b76040830184612e77565b949350505050565b6133c881612dc4565b81146133d357600080fd5b50565b6000815190506133e5816133bf565b92915050565b60006020828403121561340157613400612ceb565b5b600061340f848285016133d6565b91505092915050565b7f4e487b7100000000000000000000000000000000000000000000000000000000600052601160045260246000fd5b600061345282612d4e565b915061345d83612d4e565b9250817fffffffffffffffffffffffffffffffffffffffffffffffffffffffffffffffff048311821515161561349657613495613418565b5b828202905092915050565b7f4e487b7100000000000000000000000000000000000000000000000000000000600052601260045260246000fd5b60006134db82612d4e565b91506134e683612d4e565b9250826134f6576134f56134a1565b5b828204905092915050565b600061350c82612f9f565b915061351783612f9f565b9250826dffffffffffffffffffffffffffff0382111561353a57613539613418565b5b828201905092915050565b600061355082612d4e565b915061355b83612d4e565b92508282101561356e5761356d613418565b5b828203905092915050565b600060408201905061358e6000830185612dfa565b61359b6020830184612e77565b9392505050565b6000815190506135b181612d58565b92915050565b6000602082840312156135cd576135cc612ceb565b5b60006135db848285016135a2565b91505092915050565b7f5768616c65737761703a204b0000000000000000000000000000000000000000600082015250565b600061361a600c83612c3b565b9150613625826135e4565b602082019050919050565b600060208201905081810360008301526136498161360d565b9050919050565b7f5045524d49545f444541444c494e455f45585049524544000000000000000000600082015250565b6000613686601783612c3b565b915061369182613650565b602082019050919050565b600060208201905081810360008301526136b581613679565b9050919050565b600060c0820190506136d16000830189612f3e565b6136de6020830188612dfa565b6136eb6040830187612dfa565b6136f86060830186612e77565b6137056080830185612e77565b61371260a0830184612e77565b979650505050505050565b600081905092915050565b7f1901000000000000000000000000000000000000000000000000000000000000600082015250565b600061375e60028361371d565b915061376982613728565b600282019050919050565b6000819050919050565b61378f61378a82612f34565b613774565b82525050565b60006137a082613751565b91506137ac828561377e565b6020820191506137bc828461377e565b6020820191508190509392505050565b60006080820190506137e16000830187612f3e565b6137ee6020830186612f75565b6137fb6040830185612f3e565b6138086060830184612f3e565b95945050505050565b7f494e56414c49445f5349474e4552000000000000000000000000000000000000600082015250565b6000613847600e83612c3b565b915061385282613811565b602082019050919050565b600060208201905081810360008301526138768161383a565b9050919050565b600061388882612d4e565b915061389383612d4e565b9250827fffffffffffffffffffffffffffffffffffffffffffffffffffffffffffffffff038211156138c8576138c7613418565b5b828201905092915050565b60006138de82612d4e565b91506138e983612d4e565b9250826138f9576138f86134a1565b5b828206905092915050565b600081905092915050565b60008190508160005260206000209050919050565b6000815461393181613357565b61393b8186613904565b9450600182166000811461395657600181146139675761399a565b60ff1983168652818601935061399a565b6139708561390f565b60005b8381101561399257815481890152600182019150602081019050613973565b838801955050505b50505092915050565b60006139af8284613924565b915081905092915050565b600060a0820190506139cf6000830188612f3e565b6139dc6020830187612f3e565b6139e96040830186612f3e565b6139f66060830185612e77565b613a036080830184612dfa565b9695505050505050565b6000613a1882613161565b9150613a2383613161565b925082821015613a3657613a35613418565b5b828203905092915050565b7f5748414c45535741503a20696e76616c696420746f6b656e2070616972000000600082015250565b6000613a77601d83612c3b565b9150613a8282613a41565b602082019050919050565b60006020820190508181036000830152613aa681613a6a565b9050919050565b7f5748414c45535741503a20696e76616c6964206f726465720000000000000000600082015250565b6000613ae3601883612c3b565b9150613aee82613aad565b602082019050919050565b60006020820190508181036000830152613b1281613ad6565b9050919050565b7f5748414c45535741503a206f7264657220616c72656164792066696e6973686560008201527f6400000000000000000000000000000000000000000000000000000000000000602082015250565b6000613b75602183612c3b565b9150613b8082613b19565b604082019050919050565b60006020820190508181036000830152613ba481613b68565b9050919050565b7f5748414c45535741503a207065726d697373696f6e2064656e69656400000000600082015250565b6000613be1601c83612c3b565b9150613bec82613bab565b602082019050919050565b60006020820190508181036000830152613c1081613bd4565b9050919050565b6000606082019050613c2c6000830186612e77565b613c396020830185612dfa565b613c466040830184612dfa565b949350505050565b7f5748414c45535741503a207374617274202f20656e64206f7264657200000000600082015250565b6000613c84601c83612c3b565b9150613c8f82613c4e565b602082019050919050565b60006020820190508181036000830152613cb381613c77565b9050919050565b7f5748414c45535741503a207a65726f2073616c65732072617465000000000000600082015250565b6000613cf0601a83612c3b565b9150613cfb82613cba565b602082019050919050565b60006020820190508181036000830152613d1f81613ce3565b9050919050565b7f5748414c45535741503a20696e76616c696420656e64696e6720626c6f636b00600082015250565b6000613d5c601f83612c3b565b9150613d6782613d26565b602082019050919050565b60006020820190508181036000830152613d8b81613d4f565b9050919050565b6000613d9d82612d4e565b91507fffffffffffffffffffffffffffffffffffffffffffffffffffffffffffffffff8203613dcf57613dce613418565b5b600182019050919050565b6000608082019050613def6000830187612e77565b613dfc6020830186612dfa565b613e096040830185612dfa565b613e166060830184612dfa565b95945050505050565b60007bffffffffffffffffffffffffffffffffffffffffffffffffffffffff82169050919050565b6000613e5282613e1f565b9150613e5d83613e1f565b9250817bffffffffffffffffffffffffffffffffffffffffffffffffffffffff0483118215151615613e9257613e91613418565b5b828202905092915050565b6000613ea882613e1f565b9150613eb383613e1f565b925082613ec357613ec26134a1565b5b82820490509291505056fea2646970667358221220ccddc1b5d736256644435df9308485ef4f7216087efd1d5a253dac91d212ed7164736f6c634300080d0033",
  "immutableReferences": {
    "24": [
      {
        "length": 32,
        "start": 3438
      }
    ],
    "43": [
      {
        "length": 32,
        "start": 3476
      }
    ],
    "45": [
      {
        "length": 32,
        "start": 3528
      }
    ],
    "519": [
      {
        "length": 32,
        "start": 1918
      },
      {
        "length": 32,
        "start": 1973
      },
      {
        "length": 32,
        "start": 2770
      },
      {
        "length": 32,
        "start": 3757
      },
      {
        "length": 32,
        "start": 4051
      },
      {
        "length": 32,
        "start": 4380
      },
      {
        "length": 32,
        "start": 5443
      },
      {
        "length": 32,
        "start": 6944
      },
      {
        "length": 32,
        "start": 8741
      }
    ],
    "521": [
      {
        "length": 32,
        "start": 2134
      },
      {
        "length": 32,
        "start": 2737
      },
      {
        "length": 32,
        "start": 3664
      },
      {
        "length": 32,
        "start": 4220
      },
      {
        "length": 32,
        "start": 4536
      },
      {
        "length": 32,
        "start": 5476
      },
      {
        "length": 32,
        "start": 6126
      },
      {
        "length": 32,
        "start": 7037
      },
      {
        "length": 32,
        "start": 8567
      }
    ]
  },
  "source": "pragma solidity >=0.8.0;\n\nimport \"@rari-capital/solmate/src/tokens/ERC20.sol\";\n\nimport \"./libraries/Math.sol\";\nimport \"./libraries/UQ112x112.sol\";\nimport \"./TWAMM.sol\";\n\ncontract Pair is ERC20 {\n    using UQ112x112 for uint224;\n\n    address public factory;\n    address public immutable token0;\n    address public immutable token1;\n    string public token0Name;\n    string public token1Name;\n\n    uint256 public price0Cumulative;\n    uint256 public price1Cumulative;\n\n    uint112 x;\n    uint112 y;\n    uint32 public lastBlockTimestamp;\n\n    /// @dev twamm state\n    TWAMM.OrderPools orderPools;\n\n    event Swap();\n    event MintLiquidity();\n    event BurnLiquidity();\n    event CreateLongTermOrder();\n    event CancelLongTermOrder();\n    event WithdrawLongTermOrder();\n\n    constructor(\n        address _token0,\n        address _token1,\n        string memory _token0Name,\n        string memory _token1Name,\n        uint256 _twammIntervalSize\n    ) ERC20(\"lWhale\", \"lWHL\", 18) {\n        factory = msg.sender;\n        token0 = _token0;\n        token1 = _token1;\n        token0Name = _token0Name;\n        token1Name = _token1Name;\n        TWAMM.initialize(orderPools, _token0, _token1, _twammIntervalSize);\n    }\n\n    function getAmounts()\n        external\n        view\n        returns (uint112 amount0, uint112 amount1)\n    {\n        amount0 = x;\n        amount1 = y;\n    }\n\n    function getLongTermOrderInterval()\n        external\n        view\n        returns (uint256 blockInterval)\n    {\n        blockInterval = orderPools.orderExpireInterval;\n    }\n\n    // Utility function\n    function _update(\n        uint256 balance0,\n        uint256 balance1,\n        uint112 _x,\n        uint112 _y\n    ) private {\n        // Block timestamp calculations\n        uint32 blockTimestamp = uint32(block.timestamp % 2**32);\n        uint32 timeElapsed = blockTimestamp - lastBlockTimestamp;\n\n        // Add to cumulative price\n        if (timeElapsed > 0 && _x != 0 && _y != 0) {\n            price0Cumulative +=\n                uint256(UQ112x112.encode(_y).uqdiv(_x)) *\n                timeElapsed;\n            price1Cumulative +=\n                uint256(UQ112x112.encode(_x).uqdiv(_y)) *\n                timeElapsed;\n        }\n\n        // Update contract state variables\n        x = uint112(balance0);\n        y = uint112(balance1);\n        lastBlockTimestamp = blockTimestamp;\n    }\n\n    /// @notice method for providing liquidity\n    function mint(\n        address _to,\n        uint256 _amountInX,\n        uint256 _amountInY\n    ) external returns (uint256 liquidity) {\n        (uint256 optAmountX, uint256 optAmountY) = _optimalLiquidity(\n            _amountInX,\n            _amountInY\n        );\n\n        // handle transfers\n        ERC20(token0).transferFrom(msg.sender, address(this), optAmountX);\n        ERC20(token1).transferFrom(msg.sender, address(this), optAmountY);\n\n        // calculate liquidity\n        if (totalSupply == 0) {\n            liquidity = Math.sqrt(optAmountX * optAmountY);\n        } else {\n            liquidity = Math.min(\n                (optAmountX * totalSupply) / x,\n                (optAmountY * totalSupply) / y\n            );\n        }\n        _mint(_to, liquidity); // ERC-20 function\n        x = x + uint112(optAmountX);\n        y = y + uint112(optAmountY);\n\n        emit MintLiquidity();\n    }\n\n    function _optimalLiquidity(uint256 desiredAmount0, uint256 desiredAmount1)\n        internal\n        view\n        returns (uint256 amountX, uint256 amountY)\n    {\n        // Empty pair with no liquidity\n        if (x == 0 && y == 0) {\n            (amountX, amountY) = (desiredAmount0, desiredAmount1);\n        } else {\n            uint256 optimalAmount1 = (desiredAmount0 * y) / x;\n            if (optimalAmount1 <= desiredAmount1) {\n                (amountX, amountY) = (desiredAmount0, optimalAmount1);\n            } else {\n                uint256 optimalAmount0 = (desiredAmount1 * x) / y;\n                (amountX, amountY) = (optimalAmount0, desiredAmount1);\n            }\n        }\n    }\n\n    /// @notice method for burning liquidity\n    // function burn(address to)\n    //     external\n    //     returns (uint256 amount0, uint256 amount1)\n    // {\n    //     uint256 liquidity = balanceOf[address(this)];\n\n    //     // calculate token amounts\n    //     amount0 = (liquidity * x) / totalSupply;\n    //     amount1 = (liquidity * y) / totalSupply;\n\n    //     // Update balances\n    //     x -= uint112(amount0);\n    //     y -= uint112(amount1);\n\n    //     // ERC-20 burn liquidity tokens\n    //     _burn(address(this), liquidity);\n\n    //     // Transfer tokens back to LP\n    //     ERC20(token0).transfer(to, amount0);\n    //     ERC20(token1).transfer(to, amount1);\n\n    //     emit BurnLiquidity();\n    // }\n\n    function swap(\n        uint256 amount0Out,\n        uint256 amount1Out,\n        address to\n    ) external {\n        uint256 balance0;\n        uint256 balance1;\n        if (amount0Out > 0) {\n            ERC20(token0).transfer(to, amount0Out);\n        }\n        if (amount1Out > 0) {\n            ERC20(token1).transfer(to, amount1Out);\n        }\n        balance0 = ERC20(token0).balanceOf(address(this));\n        balance1 = ERC20(token1).balanceOf(address(this));\n\n        uint256 amount0In = balance0 > x - amount0Out\n            ? balance0 - (x - amount0Out)\n            : 0;\n        uint256 amount1In = balance1 > y - amount1Out\n            ? balance1 - (y - amount1Out)\n            : 0;\n\n        uint256 balance0Adjusted = (balance0 * 1000) - (amount0In * 3);\n        uint256 balance1Adjusted = (balance1 * 1000) - (amount1In * 3);\n        require(\n            balance0Adjusted * balance1Adjusted >= uint256(x) * y * (1000**2),\n            \"Whaleswap: K\"\n        );\n\n        _update(balance0, balance1, x, y);\n\n        emit Swap();\n    }\n\n    /// @notice execute long term swap buying Y & selling X\n    /// @param _intervalNumber - the block number when LTO ends\n    /// @param _totalXIn - total amount of tokenX to transfer\n    function longTermSwapTokenXtoY(uint256 _intervalNumber, uint256 _totalXIn)\n        external\n    {\n        _longTermSwap(token0, token1, _intervalNumber, _totalXIn, 0);\n    }\n\n    /// @notice execute long term swap buying X & selling Y\n    /// @param _intervalNumber - the block number when LTO ends\n    /// @param _totalYIn - total amount of tokenY to transfer\n    function longTermSwapTokenYtoX(uint256 _intervalNumber, uint256 _totalYIn)\n        external\n    {\n        _longTermSwap(token1, token0, _intervalNumber, 0, _totalYIn);\n    }\n\n    function _longTermSwap(\n        address _token0,\n        address _token1,\n        uint256 _intervalNumber,\n        uint256 _totalXIn,\n        uint256 _totalYIn\n    ) private {\n        // interval calculations\n        uint256 nextIntervalBlock = block.number +\n            (orderPools.orderExpireInterval -\n                (block.number % orderPools.orderExpireInterval));\n        uint256 endIntervalBlock = nextIntervalBlock +\n            (_intervalNumber * orderPools.orderExpireInterval);\n\n        // execute erc20 transfers\n        // NOTE: msg.sender might not be correct here...\n        if (_totalXIn == 0)\n            ERC20(token1).transferFrom(msg.sender, address(this), _totalYIn);\n        else if (_totalYIn == 0)\n            ERC20(token0).transferFrom(msg.sender, address(this), _totalXIn);\n\n        // calculate block sales rate\n        // (works bc either _totalXIn or _totalYIn will always = 0)\n        uint256 blockSalesRate = (_totalXIn + _totalYIn) /\n            (endIntervalBlock - block.number);\n\n        // create LongTermSwap\n        TWAMM.createVirtualOrder(\n            orderPools,\n            _token0,\n            _token1,\n            endIntervalBlock,\n            blockSalesRate\n        );\n\n        emit CreateLongTermOrder();\n    }\n\n    /// @notice retrieve long term swap by id\n    function getLongTermSwapXtoY(uint256 _id)\n        external\n        view\n        returns (TWAMM.LongTermOrder memory order)\n    {\n        order = orderPools.pools[token0][token1].orders[_id];\n    }\n\n    /// @notice retrieve long term swap by id\n    function getLongTermSwapYtoX(uint256 _id)\n        external\n        view\n        returns (TWAMM.LongTermOrder memory order)\n    {\n        order = orderPools.pools[token1][token0].orders[_id];\n    }\n\n    /// @notice fetch orders by creator\n    // function getCreatedLongTermOrders()\n    //     external\n    //     view\n    //     returns (\n    //         TWAMM.LongTermOrder[] memory ordersXtoY,\n    //         TWAMM.LongTermOrder[] memory ordersYtoX\n    //     )\n    // {\n    //     ordersXtoY = _getCreatedOrderPool(orderPools.pools[token0][token1]);\n    //     ordersYtoX = _getCreatedOrderPool(orderPools.pools[token1][token0]);\n    // }\n\n    // function _getCreatedOrderPool(TWAMM.OrderPool storage pool)\n    //     private\n    //     view\n    //     returns (TWAMM.LongTermOrder[] memory orders)\n    // {\n    //     uint256 count = 0;\n    //     for (uint256 i = 0; i < pool.orderId; i++) {\n    //         if (pool.orders[i].creator == msg.sender) count++;\n    //     }\n\n    //     uint256 pos = 0;\n    //     orders = new TWAMM.LongTermOrder[](count);\n    //     for (uint256 j = 0; j < pool.orderId; j++) {\n    //         if (pool.orders[j].creator == msg.sender)\n    //             orders[pos++] = pool.orders[j];\n    //     }\n    // }\n\n    // function cancelLongTermOrder(\n    //     uint256 _id,\n    //     address _token0,\n    //     address _token1\n    // ) external {\n    //     TWAMM.cancelVirtualOrder(orderPools, _id, _token0, _token1);\n    //     emit CancelLongTermOrder();\n    // }\n\n    function withdrawLongTermOrder(\n        uint256 _id,\n        address _token0,\n        address _token1\n    ) external {\n        TWAMM.cancelVirtualOrder(orderPools, _id, _token0, _token1);\n        emit WithdrawLongTermOrder();\n    }\n}\n",
  "sourcePath": "/Users/kitwiggin/senior_design/WhaleSwapMVP/contracts/Pair.sol",
  "compiler": {
    "name": "solc",
    "version": "0.8.13+commit.abaa5c0e.Emscripten.clang"
  },
  "schemaVersion": "3.4.3",
  "updatedAt": "2022-04-07T07:17:58.076Z",
  "devdoc": {
    "kind": "dev",
    "methods": {
      "longTermSwapTokenXtoY(uint256,uint256)": {
        "params": {
          "_intervalNumber": "- the block number when LTO ends",
          "_totalXIn": "- total amount of tokenX to transfer"
        }
      },
      "longTermSwapTokenYtoX(uint256,uint256)": {
        "params": {
          "_intervalNumber": "- the block number when LTO ends",
          "_totalYIn": "- total amount of tokenY to transfer"
        }
      }
    },
    "stateVariables": {
      "orderPools": {
        "details": "twamm state"
      }
    },
    "version": 1
  },
  "userdoc": {
    "kind": "user",
    "methods": {
      "getLongTermSwapXtoY(uint256)": {
        "notice": "retrieve long term swap by id"
      },
      "getLongTermSwapYtoX(uint256)": {
        "notice": "retrieve long term swap by id"
      },
      "longTermSwapTokenXtoY(uint256,uint256)": {
        "notice": "execute long term swap buying Y & selling X"
      },
      "longTermSwapTokenYtoX(uint256,uint256)": {
        "notice": "execute long term swap buying X & selling Y"
      },
      "mint(address,uint256,uint256)": {
        "notice": "method for providing liquidity"
      },
      "swap(uint256,uint256,address)": {
        "notice": "method for burning liquidity"
      },
      "withdrawLongTermOrder(uint256,address,address)": {
        "notice": "fetch orders by creator"
      }
    },
    "version": 1
  }
}