{
  "contractName": "Router",
  "abi": [
    {
      "inputs": [
        {
          "internalType": "address",
          "name": "_factory",
          "type": "address"
        }
      ],
      "stateMutability": "nonpayable",
      "type": "constructor"
    },
    {
      "inputs": [],
      "name": "factory",
      "outputs": [
        {
          "internalType": "address",
          "name": "",
          "type": "address"
        }
      ],
      "stateMutability": "view",
      "type": "function",
      "constant": true
    },
    {
      "inputs": [
        {
          "internalType": "uint256",
          "name": "amountIn",
          "type": "uint256"
        },
        {
          "internalType": "address[]",
          "name": "path",
          "type": "address[]"
        },
        {
          "internalType": "address",
          "name": "to",
          "type": "address"
        }
      ],
      "name": "swapExactTokensForTokens",
      "outputs": [
        {
          "internalType": "uint256[]",
          "name": "amounts",
          "type": "uint256[]"
        }
      ],
      "stateMutability": "nonpayable",
      "type": "function"
    }
  ],
  "bytecode": "0x60806040523480156200001157600080fd5b506040516200132c3803806200132c8339818101604052810190620000379190620000e8565b806000806101000a81548173ffffffffffffffffffffffffffffffffffffffff021916908373ffffffffffffffffffffffffffffffffffffffff160217905550506200011a565b600080fd5b600073ffffffffffffffffffffffffffffffffffffffff82169050919050565b6000620000b08262000083565b9050919050565b620000c281620000a3565b8114620000ce57600080fd5b50565b600081519050620000e281620000b7565b92915050565b6000602082840312156200010157620001006200007e565b5b60006200011184828501620000d1565b91505092915050565b611202806200012a6000396000f3fe608060405234801561001057600080fd5b50600436106100365760003560e01c8063407516f81461003b578063c45a01551461006b575b600080fd5b61005560048036038101906100509190610b4c565b610089565b6040516100629190610c7e565b60405180910390f35b6100736102db565b6040516100809190610caf565b60405180910390f35b60606100d685858580806020026020016040519081016040528093929190818152602001838360200280828437600081840152601f19601f820116905080830192505050505050506102ff565b9050838360008181106100ec576100eb610cca565b5b90506020020160208101906101019190610cf9565b73ffffffffffffffffffffffffffffffffffffffff166323b872dd3360008054906101000a900473ffffffffffffffffffffffffffffffffffffffff1673ffffffffffffffffffffffffffffffffffffffff1663e6a439058888600081811061016d5761016c610cca565b5b90506020020160208101906101829190610cf9565b8989600181811061019657610195610cca565b5b90506020020160208101906101ab9190610cf9565b6040518363ffffffff1660e01b81526004016101c8929190610d26565b602060405180830381865afa1580156101e5573d6000803e3d6000fd5b505050506040513d601f19601f820116820180604052508101906102099190610d64565b8460008151811061021d5761021c610cca565b5b60200260200101516040518463ffffffff1660e01b815260040161024393929190610da0565b6020604051808303816000875af1158015610262573d6000803e3d6000fd5b505050506040513d601f19601f820116820180604052508101906102869190610e0f565b506102d381858580806020026020016040519081016040528093929190818152602001838360200280828437600081840152601f19601f8201169050808301925050505050505084610443565b949350505050565b60008054906101000a900473ffffffffffffffffffffffffffffffffffffffff1681565b6060815167ffffffffffffffff81111561031c5761031b610e3c565b5b60405190808252806020026020018201604052801561034a5781602001602082028036833780820191505090505b509050828160008151811061036257610361610cca565b5b60200260200101818152505060005b6001835161037f9190610e9a565b81101561043c576000806103d385848151811061039f5761039e610cca565b5b6020026020010151866001866103b59190610ece565b815181106103c6576103c5610cca565b5b602002602001015161072f565b915091506103fc8484815181106103ed576103ec610cca565b5b602002602001015183836108c0565b8460018561040a9190610ece565b8151811061041b5761041a610cca565b5b6020026020010181815250505050808061043490610f24565b915050610371565b5092915050565b60005b600183516104549190610e9a565b8110156107295760008084838151811061047157610470610cca565b5b6020026020010151856001856104879190610ece565b8151811061049857610497610cca565b5b60200260200101519150915060006104b08383610934565b5090506000876001866104c39190610ece565b815181106104d4576104d3610cca565b5b602002602001015190506000808373ffffffffffffffffffffffffffffffffffffffff168673ffffffffffffffffffffffffffffffffffffffff161461051c57826000610520565b6000835b91509150600060028a516105349190610e9a565b88106105405788610603565b60008054906101000a900473ffffffffffffffffffffffffffffffffffffffff1673ffffffffffffffffffffffffffffffffffffffff1663e6a43905878c60028c61058b9190610ece565b8151811061059c5761059b610cca565b5b60200260200101516040518363ffffffff1660e01b81526004016105c1929190610d26565b602060405180830381865afa1580156105de573d6000803e3d6000fd5b505050506040513d601f19601f820116820180604052508101906106029190610d64565b5b905060008054906101000a900473ffffffffffffffffffffffffffffffffffffffff1673ffffffffffffffffffffffffffffffffffffffff1663e6a4390588886040518363ffffffff1660e01b8152600401610660929190610d26565b602060405180830381865afa15801561067d573d6000803e3d6000fd5b505050506040513d601f19601f820116820180604052508101906106a19190610d64565b73ffffffffffffffffffffffffffffffffffffffff16636d9a640a8484846040518463ffffffff1660e01b81526004016106dd93929190610f6c565b600060405180830381600087803b1580156106f757600080fd5b505af115801561070b573d6000803e3d6000fd5b5050505050505050505050808061072190610f24565b915050610446565b50505050565b600080600061073e8585610934565b50905060008060008054906101000a900473ffffffffffffffffffffffffffffffffffffffff1673ffffffffffffffffffffffffffffffffffffffff1663e6a4390588886040518363ffffffff1660e01b815260040161079f929190610d26565b602060405180830381865afa1580156107bc573d6000803e3d6000fd5b505050506040513d601f19601f820116820180604052508101906107e09190610d64565b73ffffffffffffffffffffffffffffffffffffffff16633d370b4e6040518163ffffffff1660e01b81526004016040805180830381865afa158015610829573d6000803e3d6000fd5b505050506040513d601f19601f8201168201806040525081019061084d9190610fe9565b6dffffffffffffffffffffffffffff1691506dffffffffffffffffffffffffffff1691508273ffffffffffffffffffffffffffffffffffffffff168773ffffffffffffffffffffffffffffffffffffffff16146108ab5780826108ae565b81815b80955081965050505050509250929050565b6000806108d86103e58661098390919063ffffffff16565b905060006108ef848361098390919063ffffffff16565b9050600061091a8361090c6103e88961098390919063ffffffff16565b6109f090919063ffffffff16565b905080826109289190611058565b93505050509392505050565b6000808273ffffffffffffffffffffffffffffffffffffffff168473ffffffffffffffffffffffffffffffffffffffff1610610971578284610974565b83835b80925081935050509250929050565b6000808214806109ab57508282838561099c9190611089565b9250826109a99190611058565b145b6109ea576040517f08c379a00000000000000000000000000000000000000000000000000000000081526004016109e190611140565b60405180910390fd5b92915050565b60008282846109ff9190610ece565b9150811015610a43576040517f08c379a0000000000000000000000000000000000000000000000000000000008152600401610a3a906111ac565b60405180910390fd5b92915050565b600080fd5b600080fd5b6000819050919050565b610a6681610a53565b8114610a7157600080fd5b50565b600081359050610a8381610a5d565b92915050565b600080fd5b600080fd5b600080fd5b60008083601f840112610aae57610aad610a89565b5b8235905067ffffffffffffffff811115610acb57610aca610a8e565b5b602083019150836020820283011115610ae757610ae6610a93565b5b9250929050565b600073ffffffffffffffffffffffffffffffffffffffff82169050919050565b6000610b1982610aee565b9050919050565b610b2981610b0e565b8114610b3457600080fd5b50565b600081359050610b4681610b20565b92915050565b60008060008060608587031215610b6657610b65610a49565b5b6000610b7487828801610a74565b945050602085013567ffffffffffffffff811115610b9557610b94610a4e565b5b610ba187828801610a98565b93509350506040610bb487828801610b37565b91505092959194509250565b600081519050919050565b600082825260208201905092915050565b6000819050602082019050919050565b610bf581610a53565b82525050565b6000610c078383610bec565b60208301905092915050565b6000602082019050919050565b6000610c2b82610bc0565b610c358185610bcb565b9350610c4083610bdc565b8060005b83811015610c71578151610c588882610bfb565b9750610c6383610c13565b925050600181019050610c44565b5085935050505092915050565b60006020820190508181036000830152610c988184610c20565b905092915050565b610ca981610b0e565b82525050565b6000602082019050610cc46000830184610ca0565b92915050565b7f4e487b7100000000000000000000000000000000000000000000000000000000600052603260045260246000fd5b600060208284031215610d0f57610d0e610a49565b5b6000610d1d84828501610b37565b91505092915050565b6000604082019050610d3b6000830185610ca0565b610d486020830184610ca0565b9392505050565b600081519050610d5e81610b20565b92915050565b600060208284031215610d7a57610d79610a49565b5b6000610d8884828501610d4f565b91505092915050565b610d9a81610a53565b82525050565b6000606082019050610db56000830186610ca0565b610dc26020830185610ca0565b610dcf6040830184610d91565b949350505050565b60008115159050919050565b610dec81610dd7565b8114610df757600080fd5b50565b600081519050610e0981610de3565b92915050565b600060208284031215610e2557610e24610a49565b5b6000610e3384828501610dfa565b91505092915050565b7f4e487b7100000000000000000000000000000000000000000000000000000000600052604160045260246000fd5b7f4e487b7100000000000000000000000000000000000000000000000000000000600052601160045260246000fd5b6000610ea582610a53565b9150610eb083610a53565b925082821015610ec357610ec2610e6b565b5b828203905092915050565b6000610ed982610a53565b9150610ee483610a53565b9250827fffffffffffffffffffffffffffffffffffffffffffffffffffffffffffffffff03821115610f1957610f18610e6b565b5b828201905092915050565b6000610f2f82610a53565b91507fffffffffffffffffffffffffffffffffffffffffffffffffffffffffffffffff8203610f6157610f60610e6b565b5b600182019050919050565b6000606082019050610f816000830186610d91565b610f8e6020830185610d91565b610f9b6040830184610ca0565b949350505050565b60006dffffffffffffffffffffffffffff82169050919050565b610fc681610fa3565b8114610fd157600080fd5b50565b600081519050610fe381610fbd565b92915050565b6000806040838503121561100057610fff610a49565b5b600061100e85828601610fd4565b925050602061101f85828601610fd4565b9150509250929050565b7f4e487b7100000000000000000000000000000000000000000000000000000000600052601260045260246000fd5b600061106382610a53565b915061106e83610a53565b92508261107e5761107d611029565b5b828204905092915050565b600061109482610a53565b915061109f83610a53565b9250817fffffffffffffffffffffffffffffffffffffffffffffffffffffffffffffffff04831182151516156110d8576110d7610e6b565b5b828202905092915050565b600082825260208201905092915050565b7f64732d6d6174682d6d756c2d6f766572666c6f77000000000000000000000000600082015250565b600061112a6014836110e3565b9150611135826110f4565b602082019050919050565b600060208201905081810360008301526111598161111d565b9050919050565b7f64732d6d6174682d6164642d6f766572666c6f77000000000000000000000000600082015250565b60006111966014836110e3565b91506111a182611160565b602082019050919050565b600060208201905081810360008301526111c581611189565b905091905056fea2646970667358221220e3126bbfddf8060b43126d187cfed69b237a52ffb037d194c2498d661e5c11e564736f6c634300080d0033",
  "immutableReferences": {},
  "source": "pragma solidity >=0.6.0;\n\nimport \"@rari-capital/solmate/src/tokens/ERC20.sol\";\n\nimport \"./libraries/SafeMath.sol\";\nimport \"./Pair.sol\";\nimport \"./Factory.sol\";\n\ncontract Router {\n    using SafeMath for uint256;\n\n    address public factory;\n\n    constructor(address _factory) {\n        factory = _factory;\n    }\n\n    // function _optimalLiquidity(\n    //     address token0,\n    //     address token1,\n    //     uint256 desiredAmount0,\n    //     uint256 desiredAmount1,\n    //     uint256 minAmount0,\n    //     uint256 minAmount1\n    // ) internal view returns (uint256 amount0, uint256 amount1) {\n    //     address pair = Factory(factory).getPair(token0, token1);\n    //     (uint256 x, uint256 y) = Pair(pair).getAmounts();\n    //     // Empty pair with no liquidity\n    //     if (x == 0 && y == 0) {\n    //         (amount0, amount1) = (desiredAmount0, desiredAmount1);\n    //     } else {\n    //         uint256 optimalAmount1 = desiredAmount0.mul(y) / x;\n    //         if (optimalAmount1 <= desiredAmount1) {\n    //             // TODO: Add checks\n    //             require(optimalAmount1 >= minAmount1, \"Invalid token1 minimum\");\n    //             (amount0, amount1) = (desiredAmount0, optimalAmount1);\n    //         } else {\n    //             uint256 optimalAmount0 = desiredAmount1.mul(x) / y;\n    //             require(optimalAmount0 >= minAmount0, \"Invalid Token0 minimum\");\n    //             (amount0, amount1) = (optimalAmount0, desiredAmount1);\n    //         }\n    //     }\n    // }\n\n    // function addLiquidity(\n    //     address token0,\n    //     address token1,\n    //     uint256 desiredAmount0,\n    //     uint256 desiredAmount1,\n    //     uint256 minAmount0,\n    //     uint256 minAmount1,\n    //     address to\n    // ) external returns (uint256 liquidity) {\n    //     // Calculate optimal liquidity provision\n    //     // (Don't allow LPs to shift price)\n    //     (uint256 amount0, uint256 amount1) = _optimalLiquidity(\n    //         token0,\n    //         token1,\n    //         desiredAmount0,\n    //         desiredAmount1,\n    //         minAmount0,\n    //         minAmount1\n    //     );\n    //     // Fetch pair address\n    //     address pair = Factory(factory).getPair(token0, token1);\n    //     // transfer token0 & token1 to pair\n    //     ERC20(token0).transferFrom(msg.sender, pair, amount0);\n    //     ERC20(token1).transferFrom(msg.sender, pair, amount1);\n    //     // call pair.mint()\n    //     liquidity = Pair(pair).mint(to);\n    // }\n\n    // function burnLiquidity(\n    //     address token0,\n    //     address token1,\n    //     uint256 liq,\n    //     address to\n    // ) public virtual returns (uint256 amount0, uint256 amount1) {\n    //     // Fetch pair address\n    //     address pair = Factory(factory).getPair(token0, token1);\n    //     // Transfer LP tokens\n    //     Pair(pair).transferFrom(msg.sender, pair, liq);\n    //     // Burn liquidity\n    //     (uint256 amount0Burn, uint256 amount1Burn) = Pair(pair).burn(to);\n    //     (amount0, amount1) = (amount0Burn, amount1Burn);\n    // }\n\n    // *** SWAPPING ***\n    function _swap(\n        uint256[] memory amounts,\n        address[] memory path,\n        address _to\n    ) internal {\n        for (uint256 i; i < path.length - 1; i++) {\n            // Calculate source & destination\n            (address input, address output) = (path[i], path[i + 1]);\n            (address token0, ) = _sortTokens(input, output);\n            uint256 amountOut = amounts[i + 1];\n            (uint256 amount0Out, uint256 amount1Out) = input == token0\n                ? (uint256(0), amountOut)\n                : (amountOut, uint256(0));\n            address to = i < path.length - 2\n                ? Factory(factory).getPair(output, path[i + 2])\n                : _to;\n\n            // Execute swap on pair contract\n            Pair(Factory(factory).getPair(input, output)).swap(\n                amount0Out,\n                amount1Out,\n                to\n            );\n        }\n    }\n\n    function swapExactTokensForTokens(\n        uint256 amountIn,\n        address[] calldata path,\n        address to\n    ) external returns (uint256[] memory amounts) {\n        amounts = _getAmountsOut(amountIn, path);\n\n        ERC20(path[0]).transferFrom(\n            msg.sender,\n            Factory(factory).getPair(path[0], path[1]),\n            amounts[0]\n        );\n\n        _swap(amounts, path, to);\n    }\n\n    // *** UTILITIES ***\n    function _sortTokens(address tokenA, address tokenB)\n        internal\n        pure\n        returns (address token0, address token1)\n    {\n        (token0, token1) = tokenA < tokenB\n            ? (tokenA, tokenB)\n            : (tokenB, tokenA);\n    }\n\n    function _getReserves(address tokenA, address tokenB)\n        internal\n        view\n        returns (uint256 reserveA, uint256 reserveB)\n    {\n        (address token0, ) = _sortTokens(tokenA, tokenB);\n        (uint256 reserve0, uint256 reserve1) = Pair(\n            Factory(factory).getPair(tokenA, tokenB)\n        ).getAmounts();\n        (reserveA, reserveB) = tokenA == token0\n            ? (reserve0, reserve1)\n            : (reserve1, reserve0);\n    }\n\n    function _getAmountOut(\n        uint256 amountIn,\n        uint256 reserveIn,\n        uint256 reserveOut\n    ) internal pure returns (uint256 amountOut) {\n        uint256 amountInWithFee = amountIn.mul(997);\n        uint256 numerator = amountInWithFee.mul(reserveOut);\n        uint256 denominator = reserveIn.mul(1000).add(amountInWithFee);\n        amountOut = numerator / denominator;\n    }\n\n    function _getAmountsOut(uint256 amountIn, address[] memory path)\n        internal\n        view\n        returns (uint256[] memory amounts)\n    {\n        amounts = new uint256[](path.length);\n        amounts[0] = amountIn;\n        for (uint256 i; i < path.length - 1; i++) {\n            (uint256 reserveIn, uint256 reserveOut) = _getReserves(\n                path[i],\n                path[i + 1]\n            );\n            amounts[i + 1] = _getAmountOut(amounts[i], reserveIn, reserveOut);\n        }\n    }\n}\n",
  "sourcePath": "/Users/kitwiggin/senior_design/WhaleSwapMVP/contracts/Router.sol",
  "compiler": {
    "name": "solc",
    "version": "0.8.13+commit.abaa5c0e.Emscripten.clang"
  },
  "schemaVersion": "3.4.3",
  "updatedAt": "2022-04-07T07:18:04.198Z",
  "networkType": "ethereum",
  "devdoc": {
    "kind": "dev",
    "methods": {},
    "version": 1
  },
  "userdoc": {
    "kind": "user",
    "methods": {},
    "version": 1
  }
}