{
  "contractName": "Router",
  "abi": [
    {
      "inputs": [
        {
          "internalType": "address",
          "name": "_factory",
          "type": "address"
        }
      ],
      "stateMutability": "nonpayable",
      "type": "constructor"
    },
    {
      "inputs": [],
      "name": "factory",
      "outputs": [
        {
          "internalType": "address",
          "name": "",
          "type": "address"
        }
      ],
      "stateMutability": "view",
      "type": "function",
      "constant": true
    },
    {
      "inputs": [
        {
          "internalType": "address",
          "name": "token0",
          "type": "address"
        },
        {
          "internalType": "address",
          "name": "token1",
          "type": "address"
        },
        {
          "internalType": "uint256",
          "name": "amount0",
          "type": "uint256"
        },
        {
          "internalType": "uint256",
          "name": "amount1",
          "type": "uint256"
        },
        {
          "internalType": "address",
          "name": "to",
          "type": "address"
        }
      ],
      "name": "addLiquidity",
      "outputs": [
        {
          "internalType": "uint256",
          "name": "liquidity",
          "type": "uint256"
        }
      ],
      "stateMutability": "nonpayable",
      "type": "function"
    }
  ],
  "bytecode": "0x608060405234801561001057600080fd5b506040516106d63803806106d6833981810160405281019061003291906100db565b806000806101000a81548173ffffffffffffffffffffffffffffffffffffffff021916908373ffffffffffffffffffffffffffffffffffffffff16021790555050610108565b600080fd5b600073ffffffffffffffffffffffffffffffffffffffff82169050919050565b60006100a88261007d565b9050919050565b6100b88161009d565b81146100c357600080fd5b50565b6000815190506100d5816100af565b92915050565b6000602082840312156100f1576100f0610078565b5b60006100ff848285016100c6565b91505092915050565b6105bf806101176000396000f3fe608060405234801561001057600080fd5b50600436106100365760003560e01c80634b2fc7bb1461003b578063c45a01551461006b575b600080fd5b61005560048036038101906100509190610371565b610089565b60405161006291906103fb565b60405180910390f35b6100736102b4565b6040516100809190610425565b60405180910390f35b60008060008054906101000a900473ffffffffffffffffffffffffffffffffffffffff1673ffffffffffffffffffffffffffffffffffffffff1663e6a4390588886040518363ffffffff1660e01b81526004016100e7929190610440565b602060405180830381865afa158015610104573d6000803e3d6000fd5b505050506040513d601f19601f82011682018060405250810190610128919061047e565b90508673ffffffffffffffffffffffffffffffffffffffff166323b872dd3383886040518463ffffffff1660e01b8152600401610167939291906104ab565b6020604051808303816000875af1158015610186573d6000803e3d6000fd5b505050506040513d601f19601f820116820180604052508101906101aa919061051a565b508573ffffffffffffffffffffffffffffffffffffffff166323b872dd3383876040518463ffffffff1660e01b81526004016101e8939291906104ab565b6020604051808303816000875af1158015610207573d6000803e3d6000fd5b505050506040513d601f19601f8201168201806040525081019061022b919061051a565b508073ffffffffffffffffffffffffffffffffffffffff16636a627842846040518263ffffffff1660e01b81526004016102659190610425565b6020604051808303816000875af1158015610284573d6000803e3d6000fd5b505050506040513d601f19601f820116820180604052508101906102a8919061055c565b91505095945050505050565b60008054906101000a900473ffffffffffffffffffffffffffffffffffffffff1681565b600080fd5b600073ffffffffffffffffffffffffffffffffffffffff82169050919050565b6000610308826102dd565b9050919050565b610318816102fd565b811461032357600080fd5b50565b6000813590506103358161030f565b92915050565b6000819050919050565b61034e8161033b565b811461035957600080fd5b50565b60008135905061036b81610345565b92915050565b600080600080600060a0868803121561038d5761038c6102d8565b5b600061039b88828901610326565b95505060206103ac88828901610326565b94505060406103bd8882890161035c565b93505060606103ce8882890161035c565b92505060806103df88828901610326565b9150509295509295909350565b6103f58161033b565b82525050565b600060208201905061041060008301846103ec565b92915050565b61041f816102fd565b82525050565b600060208201905061043a6000830184610416565b92915050565b60006040820190506104556000830185610416565b6104626020830184610416565b9392505050565b6000815190506104788161030f565b92915050565b600060208284031215610494576104936102d8565b5b60006104a284828501610469565b91505092915050565b60006060820190506104c06000830186610416565b6104cd6020830185610416565b6104da60408301846103ec565b949350505050565b60008115159050919050565b6104f7816104e2565b811461050257600080fd5b50565b600081519050610514816104ee565b92915050565b6000602082840312156105305761052f6102d8565b5b600061053e84828501610505565b91505092915050565b60008151905061055681610345565b92915050565b600060208284031215610572576105716102d8565b5b600061058084828501610547565b9150509291505056fea264697066735822122043b4e2ee212af4cd2c45e1e61c5d29cd00a5d33d30144875541bb515b3211d2664736f6c634300080b0033",
  "immutableReferences": {},
  "source": "pragma solidity >= 0.6.0;\n\nimport \"@rari-capital/solmate/src/tokens/ERC20.sol\";\nimport \"./Pair.sol\";\nimport \"./Factory.sol\";\n\ncontract Router {\n    address public factory;\n\n    constructor (address _factory) {\n        factory = _factory;\n    }\n\n    // addLiquidity()\n    // - Transfer tokens first\n    // - Call .mint() on Pair\n\n    // --- ADD LIQUIDITY ---\n    function addLiquidity(\n        address token0,\n        address token1,\n        uint amount0,\n        uint amount1,\n        address to) external returns (uint liquidity) {\n        // TODO: Add optimal token amount logic\n        // getpair address\n        address pair = Factory(factory).getPair(token0, token1);\n        // transfer token0 & token1 to pair\n        ERC20(token0).transferFrom(msg.sender, pair, amount0);\n        ERC20(token1).transferFrom(msg.sender, pair, amount1);\n        // // call pair.mint()\n        liquidity = Pair(pair).mint(to);\n    }\n}",
  "sourcePath": "/Users/kitwiggin/senior_design/mvp_fe/contracts/Router.sol",
  "compiler": {
    "name": "solc",
    "version": "0.8.11+commit.d7f03943.Emscripten.clang"
  },
  "schemaVersion": "3.4.3",
  "updatedAt": "2022-01-26T00:01:35.259Z",
  "networkType": "ethereum",
  "devdoc": {
    "kind": "dev",
    "methods": {},
    "version": 1
  },
  "userdoc": {
    "kind": "user",
    "methods": {},
    "version": 1
  }
}