{
  "contractName": "Router",
  "abi": [
    {
      "inputs": [
        {
          "internalType": "address",
          "name": "_factory",
          "type": "address"
        }
      ],
      "stateMutability": "nonpayable",
      "type": "constructor"
    },
    {
      "inputs": [],
      "name": "factory",
      "outputs": [
        {
          "internalType": "address",
          "name": "",
          "type": "address"
        }
      ],
      "stateMutability": "view",
      "type": "function",
      "constant": true
    },
    {
      "inputs": [
        {
          "internalType": "address",
          "name": "token0",
          "type": "address"
        },
        {
          "internalType": "address",
          "name": "token1",
          "type": "address"
        },
        {
          "internalType": "uint256",
          "name": "desiredAmount0",
          "type": "uint256"
        },
        {
          "internalType": "uint256",
          "name": "desiredAmount1",
          "type": "uint256"
        },
        {
          "internalType": "uint256",
          "name": "minAmount0",
          "type": "uint256"
        },
        {
          "internalType": "uint256",
          "name": "minAmount1",
          "type": "uint256"
        },
        {
          "internalType": "address",
          "name": "to",
          "type": "address"
        }
      ],
      "name": "addLiquidity",
      "outputs": [
        {
          "internalType": "uint256",
          "name": "liquidity",
          "type": "uint256"
        }
      ],
      "stateMutability": "nonpayable",
      "type": "function"
    },
    {
      "inputs": [
        {
          "internalType": "address",
          "name": "token0",
          "type": "address"
        },
        {
          "internalType": "address",
          "name": "token1",
          "type": "address"
        },
        {
          "internalType": "uint256",
          "name": "liq",
          "type": "uint256"
        },
        {
          "internalType": "address",
          "name": "to",
          "type": "address"
        }
      ],
      "name": "burnLiquidity",
      "outputs": [
        {
          "internalType": "uint256",
          "name": "amount0",
          "type": "uint256"
        },
        {
          "internalType": "uint256",
          "name": "amount1",
          "type": "uint256"
        }
      ],
      "stateMutability": "nonpayable",
      "type": "function"
    },
    {
      "inputs": [
        {
          "internalType": "uint256",
          "name": "amountIn",
          "type": "uint256"
        },
        {
          "internalType": "address[]",
          "name": "path",
          "type": "address[]"
        },
        {
          "internalType": "address",
          "name": "to",
          "type": "address"
        }
      ],
      "name": "swapExactTokensForTokens",
      "outputs": [
        {
          "internalType": "uint256[]",
          "name": "amounts",
          "type": "uint256[]"
        }
      ],
      "stateMutability": "nonpayable",
      "type": "function"
    }
  ],
  "bytecode": "0x60806040523480156200001157600080fd5b5060405162001ca638038062001ca68339818101604052810190620000379190620000e8565b806000806101000a81548173ffffffffffffffffffffffffffffffffffffffff021916908373ffffffffffffffffffffffffffffffffffffffff160217905550506200011a565b600080fd5b600073ffffffffffffffffffffffffffffffffffffffff82169050919050565b6000620000b08262000083565b9050919050565b620000c281620000a3565b8114620000ce57600080fd5b50565b600081519050620000e281620000b7565b92915050565b6000602082840312156200010157620001006200007e565b5b60006200011184828501620000d1565b91505092915050565b611b7c806200012a6000396000f3fe608060405234801561001057600080fd5b506004361061004c5760003560e01c8063407516f81461005157806399b0454614610081578063c45a0155146100b2578063ca3d6539146100d0575b600080fd5b61006b6004803603810190610066919061121f565b610100565b6040516100789190611351565b60405180910390f35b61009b60048036038101906100969190611373565b610352565b6040516100a99291906113e9565b60405180910390f35b6100ba61050f565b6040516100c79190611421565b60405180910390f35b6100ea60048036038101906100e5919061143c565b610533565b6040516100f791906114de565b60405180910390f35b606061014d85858580806020026020016040519081016040528093929190818152602001838360200280828437600081840152601f19601f82011690508083019250505050505050610779565b905083836000818110610163576101626114f9565b5b90506020020160208101906101789190611528565b73ffffffffffffffffffffffffffffffffffffffff166323b872dd3360008054906101000a900473ffffffffffffffffffffffffffffffffffffffff1673ffffffffffffffffffffffffffffffffffffffff1663e6a43905888860008181106101e4576101e36114f9565b5b90506020020160208101906101f99190611528565b8989600181811061020d5761020c6114f9565b5b90506020020160208101906102229190611528565b6040518363ffffffff1660e01b815260040161023f929190611555565b602060405180830381865afa15801561025c573d6000803e3d6000fd5b505050506040513d601f19601f820116820180604052508101906102809190611593565b84600081518110610294576102936114f9565b5b60200260200101516040518463ffffffff1660e01b81526004016102ba939291906115c0565b6020604051808303816000875af11580156102d9573d6000803e3d6000fd5b505050506040513d601f19601f820116820180604052508101906102fd919061162f565b5061034a81858580806020026020016040519081016040528093929190818152602001838360200280828437600081840152601f19601f82011690508083019250505050505050846108bd565b949350505050565b60008060008060009054906101000a900473ffffffffffffffffffffffffffffffffffffffff1673ffffffffffffffffffffffffffffffffffffffff1663e6a4390588886040518363ffffffff1660e01b81526004016103b3929190611555565b602060405180830381865afa1580156103d0573d6000803e3d6000fd5b505050506040513d601f19601f820116820180604052508101906103f49190611593565b90508073ffffffffffffffffffffffffffffffffffffffff166323b872dd3383886040518463ffffffff1660e01b8152600401610433939291906115c0565b6020604051808303816000875af1158015610452573d6000803e3d6000fd5b505050506040513d601f19601f82011682018060405250810190610476919061162f565b506000808273ffffffffffffffffffffffffffffffffffffffff166389afcb44876040518263ffffffff1660e01b81526004016104b39190611421565b60408051808303816000875af11580156104d1573d6000803e3d6000fd5b505050506040513d601f19601f820116820180604052508101906104f59190611671565b915091508181809550819650505050505094509492505050565b60008054906101000a900473ffffffffffffffffffffffffffffffffffffffff1681565b60008060006105468a8a8a8a8a8a610ba9565b9150915060008060009054906101000a900473ffffffffffffffffffffffffffffffffffffffff1673ffffffffffffffffffffffffffffffffffffffff1663e6a439058c8c6040518363ffffffff1660e01b81526004016105a8929190611555565b602060405180830381865afa1580156105c5573d6000803e3d6000fd5b505050506040513d601f19601f820116820180604052508101906105e99190611593565b90508a73ffffffffffffffffffffffffffffffffffffffff166323b872dd3383866040518463ffffffff1660e01b8152600401610628939291906115c0565b6020604051808303816000875af1158015610647573d6000803e3d6000fd5b505050506040513d601f19601f8201168201806040525081019061066b919061162f565b508973ffffffffffffffffffffffffffffffffffffffff166323b872dd3383856040518463ffffffff1660e01b81526004016106a9939291906115c0565b6020604051808303816000875af11580156106c8573d6000803e3d6000fd5b505050506040513d601f19601f820116820180604052508101906106ec919061162f565b508073ffffffffffffffffffffffffffffffffffffffff16636a627842866040518263ffffffff1660e01b81526004016107269190611421565b6020604051808303816000875af1158015610745573d6000803e3d6000fd5b505050506040513d601f19601f8201168201806040525081019061076991906116b1565b9350505050979650505050505050565b6060815167ffffffffffffffff811115610796576107956116de565b5b6040519080825280602002602001820160405280156107c45781602001602082028036833780820191505090505b50905082816000815181106107dc576107db6114f9565b5b60200260200101818152505060005b600183516107f9919061173c565b8110156108b65760008061084d858481518110610819576108186114f9565b5b60200260200101518660018661082f9190611770565b815181106108405761083f6114f9565b5b6020026020010151610e02565b91509150610876848481518110610867576108666114f9565b5b60200260200101518383610f93565b846001856108849190611770565b81518110610895576108946114f9565b5b602002602001018181525050505080806108ae906117c6565b9150506107eb565b5092915050565b60005b600183516108ce919061173c565b811015610ba3576000808483815181106108eb576108ea6114f9565b5b6020026020010151856001856109019190611770565b81518110610912576109116114f9565b5b602002602001015191509150600061092a8383611007565b50905060008760018661093d9190611770565b8151811061094e5761094d6114f9565b5b602002602001015190506000808373ffffffffffffffffffffffffffffffffffffffff168673ffffffffffffffffffffffffffffffffffffffff16146109965782600061099a565b6000835b91509150600060028a516109ae919061173c565b88106109ba5788610a7d565b60008054906101000a900473ffffffffffffffffffffffffffffffffffffffff1673ffffffffffffffffffffffffffffffffffffffff1663e6a43905878c60028c610a059190611770565b81518110610a1657610a156114f9565b5b60200260200101516040518363ffffffff1660e01b8152600401610a3b929190611555565b602060405180830381865afa158015610a58573d6000803e3d6000fd5b505050506040513d601f19601f82011682018060405250810190610a7c9190611593565b5b905060008054906101000a900473ffffffffffffffffffffffffffffffffffffffff1673ffffffffffffffffffffffffffffffffffffffff1663e6a4390588886040518363ffffffff1660e01b8152600401610ada929190611555565b602060405180830381865afa158015610af7573d6000803e3d6000fd5b505050506040513d601f19601f82011682018060405250810190610b1b9190611593565b73ffffffffffffffffffffffffffffffffffffffff16636d9a640a8484846040518463ffffffff1660e01b8152600401610b579392919061180e565b600060405180830381600087803b158015610b7157600080fd5b505af1158015610b85573d6000803e3d6000fd5b50505050505050505050508080610b9b906117c6565b9150506108c0565b50505050565b60008060008060009054906101000a900473ffffffffffffffffffffffffffffffffffffffff1673ffffffffffffffffffffffffffffffffffffffff1663e6a439058a8a6040518363ffffffff1660e01b8152600401610c0a929190611555565b602060405180830381865afa158015610c27573d6000803e3d6000fd5b505050506040513d601f19601f82011682018060405250810190610c4b9190611593565b90506000808273ffffffffffffffffffffffffffffffffffffffff16633d370b4e6040518163ffffffff1660e01b81526004016040805180830381865afa158015610c9a573d6000803e3d6000fd5b505050506040513d601f19601f82011682018060405250810190610cbe919061188b565b6dffffffffffffffffffffffffffff1691506dffffffffffffffffffffffffffff169150600082148015610cf25750600081145b15610d065788888095508196505050610df4565b600082610d1c838c61105690919063ffffffff16565b610d2691906118fa565b9050888111610d815786811015610d72576040517f08c379a0000000000000000000000000000000000000000000000000000000008152600401610d6990611988565b60405180910390fd5b89818096508197505050610df2565b600082610d97858c61105690919063ffffffff16565b610da191906118fa565b905088811015610de6576040517f08c379a0000000000000000000000000000000000000000000000000000000008152600401610ddd906119f4565b60405180910390fd5b808a8097508198505050505b505b505050965096945050505050565b6000806000610e118585611007565b50905060008060008054906101000a900473ffffffffffffffffffffffffffffffffffffffff1673ffffffffffffffffffffffffffffffffffffffff1663e6a4390588886040518363ffffffff1660e01b8152600401610e72929190611555565b602060405180830381865afa158015610e8f573d6000803e3d6000fd5b505050506040513d601f19601f82011682018060405250810190610eb39190611593565b73ffffffffffffffffffffffffffffffffffffffff16633d370b4e6040518163ffffffff1660e01b81526004016040805180830381865afa158015610efc573d6000803e3d6000fd5b505050506040513d601f19601f82011682018060405250810190610f20919061188b565b6dffffffffffffffffffffffffffff1691506dffffffffffffffffffffffffffff1691508273ffffffffffffffffffffffffffffffffffffffff168773ffffffffffffffffffffffffffffffffffffffff1614610f7e578082610f81565b81815b80955081965050505050509250929050565b600080610fab6103e58661105690919063ffffffff16565b90506000610fc2848361105690919063ffffffff16565b90506000610fed83610fdf6103e88961105690919063ffffffff16565b6110c390919063ffffffff16565b90508082610ffb91906118fa565b93505050509392505050565b6000808273ffffffffffffffffffffffffffffffffffffffff168473ffffffffffffffffffffffffffffffffffffffff1610611044578284611047565b83835b80925081935050509250929050565b60008082148061107e57508282838561106f9190611a14565b92508261107c91906118fa565b145b6110bd576040517f08c379a00000000000000000000000000000000000000000000000000000000081526004016110b490611aba565b60405180910390fd5b92915050565b60008282846110d29190611770565b9150811015611116576040517f08c379a000000000000000000000000000000000000000000000000000000000815260040161110d90611b26565b60405180910390fd5b92915050565b600080fd5b600080fd5b6000819050919050565b61113981611126565b811461114457600080fd5b50565b60008135905061115681611130565b92915050565b600080fd5b600080fd5b600080fd5b60008083601f8401126111815761118061115c565b5b8235905067ffffffffffffffff81111561119e5761119d611161565b5b6020830191508360208202830111156111ba576111b9611166565b5b9250929050565b600073ffffffffffffffffffffffffffffffffffffffff82169050919050565b60006111ec826111c1565b9050919050565b6111fc816111e1565b811461120757600080fd5b50565b600081359050611219816111f3565b92915050565b600080600080606085870312156112395761123861111c565b5b600061124787828801611147565b945050602085013567ffffffffffffffff81111561126857611267611121565b5b6112748782880161116b565b935093505060406112878782880161120a565b91505092959194509250565b600081519050919050565b600082825260208201905092915050565b6000819050602082019050919050565b6112c881611126565b82525050565b60006112da83836112bf565b60208301905092915050565b6000602082019050919050565b60006112fe82611293565b611308818561129e565b9350611313836112af565b8060005b8381101561134457815161132b88826112ce565b9750611336836112e6565b925050600181019050611317565b5085935050505092915050565b6000602082019050818103600083015261136b81846112f3565b905092915050565b6000806000806080858703121561138d5761138c61111c565b5b600061139b8782880161120a565b94505060206113ac8782880161120a565b93505060406113bd87828801611147565b92505060606113ce8782880161120a565b91505092959194509250565b6113e381611126565b82525050565b60006040820190506113fe60008301856113da565b61140b60208301846113da565b9392505050565b61141b816111e1565b82525050565b60006020820190506114366000830184611412565b92915050565b600080600080600080600060e0888a03121561145b5761145a61111c565b5b60006114698a828b0161120a565b975050602061147a8a828b0161120a565b965050604061148b8a828b01611147565b955050606061149c8a828b01611147565b94505060806114ad8a828b01611147565b93505060a06114be8a828b01611147565b92505060c06114cf8a828b0161120a565b91505092959891949750929550565b60006020820190506114f360008301846113da565b92915050565b7f4e487b7100000000000000000000000000000000000000000000000000000000600052603260045260246000fd5b60006020828403121561153e5761153d61111c565b5b600061154c8482850161120a565b91505092915050565b600060408201905061156a6000830185611412565b6115776020830184611412565b9392505050565b60008151905061158d816111f3565b92915050565b6000602082840312156115a9576115a861111c565b5b60006115b78482850161157e565b91505092915050565b60006060820190506115d56000830186611412565b6115e26020830185611412565b6115ef60408301846113da565b949350505050565b60008115159050919050565b61160c816115f7565b811461161757600080fd5b50565b60008151905061162981611603565b92915050565b6000602082840312156116455761164461111c565b5b60006116538482850161161a565b91505092915050565b60008151905061166b81611130565b92915050565b600080604083850312156116885761168761111c565b5b60006116968582860161165c565b92505060206116a78582860161165c565b9150509250929050565b6000602082840312156116c7576116c661111c565b5b60006116d58482850161165c565b91505092915050565b7f4e487b7100000000000000000000000000000000000000000000000000000000600052604160045260246000fd5b7f4e487b7100000000000000000000000000000000000000000000000000000000600052601160045260246000fd5b600061174782611126565b915061175283611126565b9250828210156117655761176461170d565b5b828203905092915050565b600061177b82611126565b915061178683611126565b9250827fffffffffffffffffffffffffffffffffffffffffffffffffffffffffffffffff038211156117bb576117ba61170d565b5b828201905092915050565b60006117d182611126565b91507fffffffffffffffffffffffffffffffffffffffffffffffffffffffffffffffff82036118035761180261170d565b5b600182019050919050565b600060608201905061182360008301866113da565b61183060208301856113da565b61183d6040830184611412565b949350505050565b60006dffffffffffffffffffffffffffff82169050919050565b61186881611845565b811461187357600080fd5b50565b6000815190506118858161185f565b92915050565b600080604083850312156118a2576118a161111c565b5b60006118b085828601611876565b92505060206118c185828601611876565b9150509250929050565b7f4e487b7100000000000000000000000000000000000000000000000000000000600052601260045260246000fd5b600061190582611126565b915061191083611126565b9250826119205761191f6118cb565b5b828204905092915050565b600082825260208201905092915050565b7f496e76616c696420746f6b656e31206d696e696d756d00000000000000000000600082015250565b600061197260168361192b565b915061197d8261193c565b602082019050919050565b600060208201905081810360008301526119a181611965565b9050919050565b7f496e76616c696420546f6b656e30206d696e696d756d00000000000000000000600082015250565b60006119de60168361192b565b91506119e9826119a8565b602082019050919050565b60006020820190508181036000830152611a0d816119d1565b9050919050565b6000611a1f82611126565b9150611a2a83611126565b9250817fffffffffffffffffffffffffffffffffffffffffffffffffffffffffffffffff0483118215151615611a6357611a6261170d565b5b828202905092915050565b7f64732d6d6174682d6d756c2d6f766572666c6f77000000000000000000000000600082015250565b6000611aa460148361192b565b9150611aaf82611a6e565b602082019050919050565b60006020820190508181036000830152611ad381611a97565b9050919050565b7f64732d6d6174682d6164642d6f766572666c6f77000000000000000000000000600082015250565b6000611b1060148361192b565b9150611b1b82611ada565b602082019050919050565b60006020820190508181036000830152611b3f81611b03565b905091905056fea264697066735822122059763dde984535ea4b0699281ed31263ee2ecc85a40cd8e4cf27b0862c0803d564736f6c634300080d0033",
  "immutableReferences": {},
  "source": "pragma solidity >=0.6.0;\n\nimport \"@rari-capital/solmate/src/tokens/ERC20.sol\";\n\nimport \"./libraries/SafeMath.sol\";\nimport \"./Pair.sol\";\nimport \"./Factory.sol\";\n\ncontract Router {\n    using SafeMath for uint256;\n\n    address public factory;\n\n    constructor(address _factory) {\n        factory = _factory;\n    }\n\n    function _optimalLiquidity(\n        address token0,\n        address token1,\n        uint256 desiredAmount0,\n        uint256 desiredAmount1,\n        uint256 minAmount0,\n        uint256 minAmount1\n    ) internal view returns (uint256 amount0, uint256 amount1) {\n        address pair = Factory(factory).getPair(token0, token1);\n        (uint256 x, uint256 y) = Pair(pair).getAmounts();\n        // Empty pair with no liquidity\n        if (x == 0 && y == 0) {\n            (amount0, amount1) = (desiredAmount0, desiredAmount1);\n        } else {\n            uint256 optimalAmount1 = desiredAmount0.mul(y) / x;\n            if (optimalAmount1 <= desiredAmount1) {\n                // TODO: Add checks\n                require(optimalAmount1 >= minAmount1, \"Invalid token1 minimum\");\n                (amount0, amount1) = (desiredAmount0, optimalAmount1);\n            } else {\n                uint256 optimalAmount0 = desiredAmount1.mul(x) / y;\n                require(optimalAmount0 >= minAmount0, \"Invalid Token0 minimum\");\n                (amount0, amount1) = (optimalAmount0, desiredAmount1);\n            }\n        }\n    }\n\n    function addLiquidity(\n        address token0,\n        address token1,\n        uint256 desiredAmount0,\n        uint256 desiredAmount1,\n        uint256 minAmount0,\n        uint256 minAmount1,\n        address to\n    ) external returns (uint256 liquidity) {\n        // Calculate optimal liquidity provision\n        // (Don't allow LPs to shift price)\n        (uint256 amount0, uint256 amount1) = _optimalLiquidity(\n            token0,\n            token1,\n            desiredAmount0,\n            desiredAmount1,\n            minAmount0,\n            minAmount1\n        );\n        // Fetch pair address\n        address pair = Factory(factory).getPair(token0, token1);\n        // transfer token0 & token1 to pair\n        ERC20(token0).transferFrom(msg.sender, pair, amount0);\n        ERC20(token1).transferFrom(msg.sender, pair, amount1);\n        // call pair.mint()\n        liquidity = Pair(pair).mint(to);\n    }\n\n    function burnLiquidity(\n        address token0,\n        address token1,\n        uint256 liq,\n        address to\n    ) public virtual returns (uint256 amount0, uint256 amount1) {\n        // Fetch pair address\n        address pair = Factory(factory).getPair(token0, token1);\n        // Transfer LP tokens\n        Pair(pair).transferFrom(msg.sender, pair, liq);\n        // Burn liquidity\n        (uint256 amount0Burn, uint256 amount1Burn) = Pair(pair).burn(to);\n        (amount0, amount1) = (amount0Burn, amount1Burn);\n    }\n\n    // *** SWAPPING ***\n    function _swap(\n        uint256[] memory amounts,\n        address[] memory path,\n        address _to\n    ) internal {\n        for (uint256 i; i < path.length - 1; i++) {\n            // Calculate source & destination\n            (address input, address output) = (path[i], path[i + 1]);\n            (address token0, ) = _sortTokens(input, output);\n            uint256 amountOut = amounts[i + 1];\n            (uint256 amount0Out, uint256 amount1Out) = input == token0\n                ? (uint256(0), amountOut)\n                : (amountOut, uint256(0));\n            address to = i < path.length - 2\n                ? Factory(factory).getPair(output, path[i + 2])\n                : _to;\n\n            // Execute swap on pair contract\n            Pair(Factory(factory).getPair(input, output)).swap(\n                amount0Out,\n                amount1Out,\n                to\n            );\n        }\n    }\n\n    function swapExactTokensForTokens(\n        uint256 amountIn,\n        address[] calldata path,\n        address to\n    ) external returns (uint256[] memory amounts) {\n        amounts = _getAmountsOut(amountIn, path);\n\n        ERC20(path[0]).transferFrom(\n            msg.sender,\n            Factory(factory).getPair(path[0], path[1]),\n            amounts[0]\n        );\n\n        _swap(amounts, path, to);\n    }\n\n    // *** UTILITIES ***\n    function _sortTokens(address tokenA, address tokenB)\n        internal\n        pure\n        returns (address token0, address token1)\n    {\n        (token0, token1) = tokenA < tokenB\n            ? (tokenA, tokenB)\n            : (tokenB, tokenA);\n    }\n\n    function _getReserves(address tokenA, address tokenB)\n        internal\n        view\n        returns (uint256 reserveA, uint256 reserveB)\n    {\n        (address token0, ) = _sortTokens(tokenA, tokenB);\n        (uint256 reserve0, uint256 reserve1) = Pair(\n            Factory(factory).getPair(tokenA, tokenB)\n        ).getAmounts();\n        (reserveA, reserveB) = tokenA == token0\n            ? (reserve0, reserve1)\n            : (reserve1, reserve0);\n    }\n\n    function _getAmountOut(\n        uint256 amountIn,\n        uint256 reserveIn,\n        uint256 reserveOut\n    ) internal pure returns (uint256 amountOut) {\n        uint256 amountInWithFee = amountIn.mul(997);\n        uint256 numerator = amountInWithFee.mul(reserveOut);\n        uint256 denominator = reserveIn.mul(1000).add(amountInWithFee);\n        amountOut = numerator / denominator;\n    }\n\n    function _getAmountsOut(uint256 amountIn, address[] memory path)\n        internal\n        view\n        returns (uint256[] memory amounts)\n    {\n        amounts = new uint256[](path.length);\n        amounts[0] = amountIn;\n        for (uint256 i; i < path.length - 1; i++) {\n            (uint256 reserveIn, uint256 reserveOut) = _getReserves(\n                path[i],\n                path[i + 1]\n            );\n            amounts[i + 1] = _getAmountOut(amounts[i], reserveIn, reserveOut);\n        }\n    }\n}\n",
  "sourcePath": "/Users/aylinozpinar/WhaleSwapMVP/contracts/Router.sol",
  "compiler": {
    "name": "solc",
    "version": "0.8.13+commit.abaa5c0e.Emscripten.clang"
  },
  "schemaVersion": "3.4.3",
  "updatedAt": "2022-04-07T02:14:19.303Z",
  "networkType": "ethereum",
  "devdoc": {
    "kind": "dev",
    "methods": {},
    "version": 1
  },
  "userdoc": {
    "kind": "user",
    "methods": {},
    "version": 1
  }
}