{
  "contractName": "Router",
  "abi": [
    {
      "inputs": [
        {
          "internalType": "address",
          "name": "_factory",
          "type": "address"
        }
      ],
      "stateMutability": "nonpayable",
      "type": "constructor"
    },
    {
      "inputs": [],
      "name": "factory",
      "outputs": [
        {
          "internalType": "address",
          "name": "",
          "type": "address"
        }
      ],
      "stateMutability": "view",
      "type": "function"
    }
  ],
  "bytecode": "0x608060405234801561001057600080fd5b5060405161020d38038061020d833981810160405281019061003291906100db565b806000806101000a81548173ffffffffffffffffffffffffffffffffffffffff021916908373ffffffffffffffffffffffffffffffffffffffff16021790555050610108565b600080fd5b600073ffffffffffffffffffffffffffffffffffffffff82169050919050565b60006100a88261007d565b9050919050565b6100b88161009d565b81146100c357600080fd5b50565b6000815190506100d5816100af565b92915050565b6000602082840312156100f1576100f0610078565b5b60006100ff848285016100c6565b91505092915050565b60f7806101166000396000f3fe6080604052348015600f57600080fd5b506004361060285760003560e01c8063c45a015514602d575b600080fd5b60336047565b604051603e919060a8565b60405180910390f35b60008054906101000a900473ffffffffffffffffffffffffffffffffffffffff1681565b600073ffffffffffffffffffffffffffffffffffffffff82169050919050565b6000609482606b565b9050919050565b60a281608b565b82525050565b600060208201905060bb6000830184609b565b9291505056fea2646970667358221220f1198dd234912ea4f371f574d44512b05a105d3d9a7811f7b66aa4998add2f6864736f6c634300080d0033",
  "immutableReferences": {},
  "source": "pragma solidity >=0.6.0;\n\nimport \"@rari-capital/solmate/src/tokens/ERC20.sol\";\n\nimport \"./libraries/SafeMath.sol\";\nimport \"./Pair.sol\";\nimport \"./Factory.sol\";\n\ncontract Router {\n    using SafeMath for uint256;\n\n    address public factory;\n\n    constructor(address _factory) {\n        factory = _factory;\n    }\n\n    // function burnLiquidity(\n    //     address token0,\n    //     address token1,\n    //     uint256 liq,\n    //     address to\n    // ) public virtual returns (uint256 amount0, uint256 amount1) {\n    //     // Fetch pair address\n    //     address pair = Factory(factory).getPair(token0, token1);\n    //     // Transfer LP tokens\n    //     Pair(pair).transferFrom(msg.sender, pair, liq);\n    //     // Burn liquidity\n    //     (uint256 amount0Burn, uint256 amount1Burn) = Pair(pair).burn(to);\n    //     (amount0, amount1) = (amount0Burn, amount1Burn);\n    // }\n\n    // *** SWAPPING ***\n    // function _swap(\n    //     uint256[] memory amounts,\n    //     address[] memory path,\n    //     address _to\n    // ) internal {\n    //     for (uint256 i; i < path.length - 1; i++) {\n    //         // Calculate source & destination\n    //         (address input, address output) = (path[i], path[i + 1]);\n    //         (address token0, ) = _sortTokens(input, output);\n    //         uint256 amountOut = amounts[i + 1];\n    //         (uint256 amount0Out, uint256 amount1Out) = input == token0\n    //             ? (uint256(0), amountOut)\n    //             : (amountOut, uint256(0));\n    //         address to = i < path.length - 2\n    //             ? Factory(factory).getPair(output, path[i + 2])\n    //             : _to;\n\n    //         // Execute swap on pair contract\n    //         Pair(Factory(factory).getPair(input, output)).swap(\n    //             amount0Out,\n    //             amount1Out,\n    //             to\n    //         );\n    //     }\n    // }\n\n    // function swapExactTokensForTokens(\n    //     uint256 amountIn,\n    //     address[] calldata path,\n    //     address to\n    // ) external returns (uint256[] memory amounts) {\n    //     amounts = _getAmountsOut(amountIn, path);\n\n    //     ERC20(path[0]).transferFrom(\n    //         msg.sender,\n    //         Factory(factory).getPair(path[0], path[1]),\n    //         amounts[0]\n    //     );\n\n    //     _swap(amounts, path, to);\n    // }\n\n    // *** UTILITIES ***\n    // All of this is only necessary because it includes a 'path' of tokens\n    // with a fee on each intermediary transaction and where each step in the path\n    // requires a Pair instance lookup\n    function _sortTokens(address tokenA, address tokenB)\n        internal\n        pure\n        returns (address token0, address token1)\n    {\n        (token0, token1) = tokenA < tokenB\n            ? (tokenA, tokenB)\n            : (tokenB, tokenA);\n    }\n\n    function _getReserves(address tokenA, address tokenB)\n        internal\n        view\n        returns (uint256 reserveA, uint256 reserveB)\n    {\n        (address token0, ) = _sortTokens(tokenA, tokenB);\n        (uint256 reserve0, uint256 reserve1) = Pair(\n            Factory(factory).getPair(tokenA, tokenB)\n        ).getAmounts();\n        (reserveA, reserveB) = tokenA == token0\n            ? (reserve0, reserve1)\n            : (reserve1, reserve0);\n    }\n\n    function _getAmountOut(\n        uint256 amountIn,\n        uint256 reserveIn,\n        uint256 reserveOut\n    ) internal pure returns (uint256 amountOut) {\n        uint256 amountInWithFee = amountIn.mul(997);\n        uint256 numerator = amountInWithFee.mul(reserveOut);\n        uint256 denominator = reserveIn.mul(1000).add(amountInWithFee);\n        amountOut = numerator / denominator;\n    }\n\n    function _getAmountsOut(uint256 amountIn, address[] memory path)\n        internal\n        view\n        returns (uint256[] memory amounts)\n    {\n        amounts = new uint256[](path.length);\n        amounts[0] = amountIn;\n        for (uint256 i; i < path.length - 1; i++) {\n            (uint256 reserveIn, uint256 reserveOut) = _getReserves(\n                path[i],\n                path[i + 1]\n            );\n            amounts[i + 1] = _getAmountOut(amounts[i], reserveIn, reserveOut);\n        }\n    }\n}\n",
  "sourcePath": "/Users/kitwiggin/senior_design/WhaleSwapMVP/contracts/Router.sol",
  "compiler": {
    "name": "solc",
    "version": "0.8.13+commit.abaa5c0e.Emscripten.clang"
  },
  "schemaVersion": "3.4.3",
  "updatedAt": "2022-04-07T09:40:04.765Z",
  "devdoc": {
    "kind": "dev",
    "methods": {},
    "version": 1
  },
  "userdoc": {
    "kind": "user",
    "methods": {},
    "version": 1
  }
}