{
  "contractName": "TestToken1",
  "abi": [
    {
      "inputs": [],
      "stateMutability": "nonpayable",
      "type": "constructor"
    },
    {
      "anonymous": false,
      "inputs": [
        {
          "indexed": true,
          "internalType": "address",
          "name": "owner",
          "type": "address"
        },
        {
          "indexed": true,
          "internalType": "address",
          "name": "spender",
          "type": "address"
        },
        {
          "indexed": false,
          "internalType": "uint256",
          "name": "amount",
          "type": "uint256"
        }
      ],
      "name": "Approval",
      "type": "event"
    },
    {
      "anonymous": false,
      "inputs": [
        {
          "indexed": true,
          "internalType": "address",
          "name": "from",
          "type": "address"
        },
        {
          "indexed": true,
          "internalType": "address",
          "name": "to",
          "type": "address"
        },
        {
          "indexed": false,
          "internalType": "uint256",
          "name": "amount",
          "type": "uint256"
        }
      ],
      "name": "Transfer",
      "type": "event"
    },
    {
      "inputs": [],
      "name": "DOMAIN_SEPARATOR",
      "outputs": [
        {
          "internalType": "bytes32",
          "name": "",
          "type": "bytes32"
        }
      ],
      "stateMutability": "view",
      "type": "function",
      "constant": true
    },
    {
      "inputs": [],
      "name": "PERMIT_TYPEHASH",
      "outputs": [
        {
          "internalType": "bytes32",
          "name": "",
          "type": "bytes32"
        }
      ],
      "stateMutability": "view",
      "type": "function",
      "constant": true
    },
    {
      "inputs": [
        {
          "internalType": "address",
          "name": "",
          "type": "address"
        },
        {
          "internalType": "address",
          "name": "",
          "type": "address"
        }
      ],
      "name": "allowance",
      "outputs": [
        {
          "internalType": "uint256",
          "name": "",
          "type": "uint256"
        }
      ],
      "stateMutability": "view",
      "type": "function",
      "constant": true
    },
    {
      "inputs": [
        {
          "internalType": "address",
          "name": "spender",
          "type": "address"
        },
        {
          "internalType": "uint256",
          "name": "amount",
          "type": "uint256"
        }
      ],
      "name": "approve",
      "outputs": [
        {
          "internalType": "bool",
          "name": "",
          "type": "bool"
        }
      ],
      "stateMutability": "nonpayable",
      "type": "function"
    },
    {
      "inputs": [
        {
          "internalType": "address",
          "name": "",
          "type": "address"
        }
      ],
      "name": "balanceOf",
      "outputs": [
        {
          "internalType": "uint256",
          "name": "",
          "type": "uint256"
        }
      ],
      "stateMutability": "view",
      "type": "function",
      "constant": true
    },
    {
      "inputs": [],
      "name": "creator",
      "outputs": [
        {
          "internalType": "address",
          "name": "",
          "type": "address"
        }
      ],
      "stateMutability": "view",
      "type": "function",
      "constant": true
    },
    {
      "inputs": [],
      "name": "decimals",
      "outputs": [
        {
          "internalType": "uint8",
          "name": "",
          "type": "uint8"
        }
      ],
      "stateMutability": "view",
      "type": "function",
      "constant": true
    },
    {
      "inputs": [],
      "name": "name",
      "outputs": [
        {
          "internalType": "string",
          "name": "",
          "type": "string"
        }
      ],
      "stateMutability": "view",
      "type": "function",
      "constant": true
    },
    {
      "inputs": [
        {
          "internalType": "address",
          "name": "",
          "type": "address"
        }
      ],
      "name": "nonces",
      "outputs": [
        {
          "internalType": "uint256",
          "name": "",
          "type": "uint256"
        }
      ],
      "stateMutability": "view",
      "type": "function",
      "constant": true
    },
    {
      "inputs": [
        {
          "internalType": "address",
          "name": "owner",
          "type": "address"
        },
        {
          "internalType": "address",
          "name": "spender",
          "type": "address"
        },
        {
          "internalType": "uint256",
          "name": "value",
          "type": "uint256"
        },
        {
          "internalType": "uint256",
          "name": "deadline",
          "type": "uint256"
        },
        {
          "internalType": "uint8",
          "name": "v",
          "type": "uint8"
        },
        {
          "internalType": "bytes32",
          "name": "r",
          "type": "bytes32"
        },
        {
          "internalType": "bytes32",
          "name": "s",
          "type": "bytes32"
        }
      ],
      "name": "permit",
      "outputs": [],
      "stateMutability": "nonpayable",
      "type": "function"
    },
    {
      "inputs": [],
      "name": "symbol",
      "outputs": [
        {
          "internalType": "string",
          "name": "",
          "type": "string"
        }
      ],
      "stateMutability": "view",
      "type": "function",
      "constant": true
    },
    {
      "inputs": [
        {
          "internalType": "uint256",
          "name": "",
          "type": "uint256"
        }
      ],
      "name": "testy",
      "outputs": [
        {
          "internalType": "string",
          "name": "",
          "type": "string"
        }
      ],
      "stateMutability": "view",
      "type": "function",
      "constant": true
    },
    {
      "inputs": [],
      "name": "totalSupply",
      "outputs": [
        {
          "internalType": "uint256",
          "name": "",
          "type": "uint256"
        }
      ],
      "stateMutability": "view",
      "type": "function",
      "constant": true
    },
    {
      "inputs": [
        {
          "internalType": "address",
          "name": "to",
          "type": "address"
        },
        {
          "internalType": "uint256",
          "name": "amount",
          "type": "uint256"
        }
      ],
      "name": "transfer",
      "outputs": [
        {
          "internalType": "bool",
          "name": "",
          "type": "bool"
        }
      ],
      "stateMutability": "nonpayable",
      "type": "function"
    },
    {
      "inputs": [
        {
          "internalType": "address",
          "name": "from",
          "type": "address"
        },
        {
          "internalType": "address",
          "name": "to",
          "type": "address"
        },
        {
          "internalType": "uint256",
          "name": "amount",
          "type": "uint256"
        }
      ],
      "name": "transferFrom",
      "outputs": [
        {
          "internalType": "bool",
          "name": "",
          "type": "bool"
        }
      ],
      "stateMutability": "nonpayable",
      "type": "function"
    }
  ],
  "bytecode": "0x60e06040523480156200001157600080fd5b506040518060400160405280600681526020017f546f6b656e3100000000000000000000000000000000000000000000000000008152506040518060400160405280600481526020017f544b4e3100000000000000000000000000000000000000000000000000000000815250601282600090805190602001906200009892919062000362565b508160019080519060200190620000b192919062000362565b508060ff1660808160ff16815250504660a08181525050620000d8620001fe60201b60201c565b60c08181525050505050620000f833633b9aca006200028e60201b60201c565b33600660006101000a81548173ffffffffffffffffffffffffffffffffffffffff021916908373ffffffffffffffffffffffffffffffffffffffff1602179055506040518060400160405280600381526020017f6865790000000000000000000000000000000000000000000000000000000000815250600760006045815260200190815260200160002090805190602001906200019892919062000362565b50600073f54bbd0be46c50cd753b76b0a2bab7b2eb0c4f6590506045600360008373ffffffffffffffffffffffffffffffffffffffff1673ffffffffffffffffffffffffffffffffffffffff1681526020019081526020016000208190555050620006bc565b60007f8b73c3c69bb8fe3d512ecc4cf759cc79239f7b179b0ffacaa9a75d522b39400f600060405162000232919062000522565b60405180910390207fc89efdaa54c0f20c7adf612882df0950f5a951637e0307cdcb4c672f298b8bc6463060405160200162000273959493929190620005b6565b60405160208183030381529060405280519060200120905090565b8060026000828254620002a2919062000642565b9250508190555080600360008473ffffffffffffffffffffffffffffffffffffffff1673ffffffffffffffffffffffffffffffffffffffff168152602001908152602001600020600082825401925050819055508173ffffffffffffffffffffffffffffffffffffffff16600073ffffffffffffffffffffffffffffffffffffffff167fddf252ad1be2c89b69c2b068fc378daa952ba7f163c4a11628f55a4df523b3ef836040516200035691906200069f565b60405180910390a35050565b828054620003709062000441565b90600052602060002090601f016020900481019282620003945760008555620003e0565b82601f10620003af57805160ff1916838001178555620003e0565b82800160010185558215620003e0579182015b82811115620003df578251825591602001919060010190620003c2565b5b509050620003ef9190620003f3565b5090565b5b808211156200040e576000816000905550600101620003f4565b5090565b7f4e487b7100000000000000000000000000000000000000000000000000000000600052602260045260246000fd5b600060028204905060018216806200045a57607f821691505b6020821081141562000471576200047062000412565b5b50919050565b600081905092915050565b60008190508160005260206000209050919050565b60008154620004a68162000441565b620004b2818662000477565b94506001821660008114620004d05760018114620004e25762000519565b60ff1983168652818601935062000519565b620004ed8562000482565b60005b838110156200051157815481890152600182019150602081019050620004f0565b838801955050505b50505092915050565b600062000530828462000497565b915081905092915050565b6000819050919050565b62000550816200053b565b82525050565b6000819050919050565b6200056b8162000556565b82525050565b600073ffffffffffffffffffffffffffffffffffffffff82169050919050565b60006200059e8262000571565b9050919050565b620005b08162000591565b82525050565b600060a082019050620005cd600083018862000545565b620005dc602083018762000545565b620005eb604083018662000545565b620005fa606083018562000560565b620006096080830184620005a5565b9695505050505050565b7f4e487b7100000000000000000000000000000000000000000000000000000000600052601160045260246000fd5b60006200064f8262000556565b91506200065c8362000556565b9250827fffffffffffffffffffffffffffffffffffffffffffffffffffffffffffffffff0382111562000694576200069362000613565b5b828201905092915050565b6000602082019050620006b6600083018462000560565b92915050565b60805160a05160c051611695620006ec600039600061084e0152600061081a015260006107f401526116956000f3fe608060405234801561001057600080fd5b50600436106100f55760003560e01c8063313ce5671161009757806395d89b411161006657806395d89b411461029e578063a9059cbb146102bc578063d505accf146102ec578063dd62ed3e14610308576100f5565b8063313ce567146102025780633644e5151461022057806370a082311461023e5780637ecebe001461026e576100f5565b806318160ddd116100d357806318160ddd14610166578063222fead61461018457806323b872dd146101b457806330adf81f146101e4576100f5565b806302d05d3f146100fa57806306fdde0314610118578063095ea7b314610136575b600080fd5b610102610338565b60405161010f9190610e36565b60405180910390f35b61012061035e565b60405161012d9190610eea565b60405180910390f35b610150600480360381019061014b9190610f73565b6103ec565b60405161015d9190610fce565b60405180910390f35b61016e6104de565b60405161017b9190610ff8565b60405180910390f35b61019e60048036038101906101999190611013565b6104e4565b6040516101ab9190610eea565b60405180910390f35b6101ce60048036038101906101c99190611040565b610584565b6040516101db9190610fce565b60405180910390f35b6101ec6107ce565b6040516101f991906110ac565b60405180910390f35b61020a6107f2565b60405161021791906110e3565b60405180910390f35b610228610816565b60405161023591906110ac565b60405180910390f35b610258600480360381019061025391906110fe565b610873565b6040516102659190610ff8565b60405180910390f35b610288600480360381019061028391906110fe565b61088b565b6040516102959190610ff8565b60405180910390f35b6102a66108a3565b6040516102b39190610eea565b60405180910390f35b6102d660048036038101906102d19190610f73565b610931565b6040516102e39190610fce565b60405180910390f35b61030660048036038101906103019190611183565b610a45565b005b610322600480360381019061031d9190611225565b610d44565b60405161032f9190610ff8565b60405180910390f35b600660009054906101000a900473ffffffffffffffffffffffffffffffffffffffff1681565b6000805461036b90611294565b80601f016020809104026020016040519081016040528092919081815260200182805461039790611294565b80156103e45780601f106103b9576101008083540402835291602001916103e4565b820191906000526020600020905b8154815290600101906020018083116103c757829003601f168201915b505050505081565b600081600460003373ffffffffffffffffffffffffffffffffffffffff1673ffffffffffffffffffffffffffffffffffffffff16815260200190815260200160002060008573ffffffffffffffffffffffffffffffffffffffff1673ffffffffffffffffffffffffffffffffffffffff168152602001908152602001600020819055508273ffffffffffffffffffffffffffffffffffffffff163373ffffffffffffffffffffffffffffffffffffffff167f8c5be1e5ebec7d5bd14f71427d1e84f3dd0314c0f7b2291e5b200ac8c7c3b925846040516104cc9190610ff8565b60405180910390a36001905092915050565b60025481565b6007602052806000526040600020600091509050805461050390611294565b80601f016020809104026020016040519081016040528092919081815260200182805461052f90611294565b801561057c5780601f106105515761010080835404028352916020019161057c565b820191906000526020600020905b81548152906001019060200180831161055f57829003601f168201915b505050505081565b600080600460008673ffffffffffffffffffffffffffffffffffffffff1673ffffffffffffffffffffffffffffffffffffffff16815260200190815260200160002060003373ffffffffffffffffffffffffffffffffffffffff1673ffffffffffffffffffffffffffffffffffffffff1681526020019081526020016000205490507fffffffffffffffffffffffffffffffffffffffffffffffffffffffffffffffff81146106ba57828161063991906112f5565b600460008773ffffffffffffffffffffffffffffffffffffffff1673ffffffffffffffffffffffffffffffffffffffff16815260200190815260200160002060003373ffffffffffffffffffffffffffffffffffffffff1673ffffffffffffffffffffffffffffffffffffffff168152602001908152602001600020819055505b82600360008773ffffffffffffffffffffffffffffffffffffffff1673ffffffffffffffffffffffffffffffffffffffff168152602001908152602001600020600082825461070991906112f5565b9250508190555082600360008673ffffffffffffffffffffffffffffffffffffffff1673ffffffffffffffffffffffffffffffffffffffff168152602001908152602001600020600082825401925050819055508373ffffffffffffffffffffffffffffffffffffffff168573ffffffffffffffffffffffffffffffffffffffff167fddf252ad1be2c89b69c2b068fc378daa952ba7f163c4a11628f55a4df523b3ef856040516107ba9190610ff8565b60405180910390a360019150509392505050565b7f6e71edae12b1b97f4d1f60370fef10105fa2faae0126114a169c64845d6126c981565b7f000000000000000000000000000000000000000000000000000000000000000081565b60007f0000000000000000000000000000000000000000000000000000000000000000461461084c57610847610d69565b61086e565b7f00000000000000000000000000000000000000000000000000000000000000005b905090565b60036020528060005260406000206000915090505481565b60056020528060005260406000206000915090505481565b600180546108b090611294565b80601f01602080910402602001604051908101604052809291908181526020018280546108dc90611294565b80156109295780601f106108fe57610100808354040283529160200191610929565b820191906000526020600020905b81548152906001019060200180831161090c57829003601f168201915b505050505081565b600081600360003373ffffffffffffffffffffffffffffffffffffffff1673ffffffffffffffffffffffffffffffffffffffff168152602001908152602001600020600082825461098291906112f5565b9250508190555081600360008573ffffffffffffffffffffffffffffffffffffffff1673ffffffffffffffffffffffffffffffffffffffff168152602001908152602001600020600082825401925050819055508273ffffffffffffffffffffffffffffffffffffffff163373ffffffffffffffffffffffffffffffffffffffff167fddf252ad1be2c89b69c2b068fc378daa952ba7f163c4a11628f55a4df523b3ef84604051610a339190610ff8565b60405180910390a36001905092915050565b42841015610a88576040517f08c379a0000000000000000000000000000000000000000000000000000000008152600401610a7f90611375565b60405180910390fd5b6000610a92610816565b7f6e71edae12b1b97f4d1f60370fef10105fa2faae0126114a169c64845d6126c9898989600560008e73ffffffffffffffffffffffffffffffffffffffff1673ffffffffffffffffffffffffffffffffffffffff1681526020019081526020016000206000815480929190600101919050558a604051602001610b1a96959493929190611395565b60405160208183030381529060405280519060200120604051602001610b4192919061146e565b604051602081830303815290604052805190602001209050600060018286868660405160008152602001604052604051610b7e94939291906114a5565b6020604051602081039080840390855afa158015610ba0573d6000803e3d6000fd5b505050602060405103519050600073ffffffffffffffffffffffffffffffffffffffff168173ffffffffffffffffffffffffffffffffffffffff1614158015610c1457508873ffffffffffffffffffffffffffffffffffffffff168173ffffffffffffffffffffffffffffffffffffffff16145b610c53576040517f08c379a0000000000000000000000000000000000000000000000000000000008152600401610c4a90611536565b60405180910390fd5b86600460008373ffffffffffffffffffffffffffffffffffffffff1673ffffffffffffffffffffffffffffffffffffffff16815260200190815260200160002060008a73ffffffffffffffffffffffffffffffffffffffff1673ffffffffffffffffffffffffffffffffffffffff1681526020019081526020016000208190555050508573ffffffffffffffffffffffffffffffffffffffff168773ffffffffffffffffffffffffffffffffffffffff167f8c5be1e5ebec7d5bd14f71427d1e84f3dd0314c0f7b2291e5b200ac8c7c3b92587604051610d339190610ff8565b60405180910390a350505050505050565b6004602052816000526040600020602052806000526040600020600091509150505481565b60007f8b73c3c69bb8fe3d512ecc4cf759cc79239f7b179b0ffacaa9a75d522b39400f6000604051610d9b91906115f5565b60405180910390207fc89efdaa54c0f20c7adf612882df0950f5a951637e0307cdcb4c672f298b8bc64630604051602001610dda95949392919061160c565b60405160208183030381529060405280519060200120905090565b600073ffffffffffffffffffffffffffffffffffffffff82169050919050565b6000610e2082610df5565b9050919050565b610e3081610e15565b82525050565b6000602082019050610e4b6000830184610e27565b92915050565b600081519050919050565b600082825260208201905092915050565b60005b83811015610e8b578082015181840152602081019050610e70565b83811115610e9a576000848401525b50505050565b6000601f19601f8301169050919050565b6000610ebc82610e51565b610ec68185610e5c565b9350610ed6818560208601610e6d565b610edf81610ea0565b840191505092915050565b60006020820190508181036000830152610f048184610eb1565b905092915050565b600080fd5b610f1a81610e15565b8114610f2557600080fd5b50565b600081359050610f3781610f11565b92915050565b6000819050919050565b610f5081610f3d565b8114610f5b57600080fd5b50565b600081359050610f6d81610f47565b92915050565b60008060408385031215610f8a57610f89610f0c565b5b6000610f9885828601610f28565b9250506020610fa985828601610f5e565b9150509250929050565b60008115159050919050565b610fc881610fb3565b82525050565b6000602082019050610fe36000830184610fbf565b92915050565b610ff281610f3d565b82525050565b600060208201905061100d6000830184610fe9565b92915050565b60006020828403121561102957611028610f0c565b5b600061103784828501610f5e565b91505092915050565b60008060006060848603121561105957611058610f0c565b5b600061106786828701610f28565b935050602061107886828701610f28565b925050604061108986828701610f5e565b9150509250925092565b6000819050919050565b6110a681611093565b82525050565b60006020820190506110c1600083018461109d565b92915050565b600060ff82169050919050565b6110dd816110c7565b82525050565b60006020820190506110f860008301846110d4565b92915050565b60006020828403121561111457611113610f0c565b5b600061112284828501610f28565b91505092915050565b611134816110c7565b811461113f57600080fd5b50565b6000813590506111518161112b565b92915050565b61116081611093565b811461116b57600080fd5b50565b60008135905061117d81611157565b92915050565b600080600080600080600060e0888a0312156111a2576111a1610f0c565b5b60006111b08a828b01610f28565b97505060206111c18a828b01610f28565b96505060406111d28a828b01610f5e565b95505060606111e38a828b01610f5e565b94505060806111f48a828b01611142565b93505060a06112058a828b0161116e565b92505060c06112168a828b0161116e565b91505092959891949750929550565b6000806040838503121561123c5761123b610f0c565b5b600061124a85828601610f28565b925050602061125b85828601610f28565b9150509250929050565b7f4e487b7100000000000000000000000000000000000000000000000000000000600052602260045260246000fd5b600060028204905060018216806112ac57607f821691505b602082108114156112c0576112bf611265565b5b50919050565b7f4e487b7100000000000000000000000000000000000000000000000000000000600052601160045260246000fd5b600061130082610f3d565b915061130b83610f3d565b92508282101561131e5761131d6112c6565b5b828203905092915050565b7f5045524d49545f444541444c494e455f45585049524544000000000000000000600082015250565b600061135f601783610e5c565b915061136a82611329565b602082019050919050565b6000602082019050818103600083015261138e81611352565b9050919050565b600060c0820190506113aa600083018961109d565b6113b76020830188610e27565b6113c46040830187610e27565b6113d16060830186610fe9565b6113de6080830185610fe9565b6113eb60a0830184610fe9565b979650505050505050565b600081905092915050565b7f1901000000000000000000000000000000000000000000000000000000000000600082015250565b60006114376002836113f6565b915061144282611401565b600282019050919050565b6000819050919050565b61146861146382611093565b61144d565b82525050565b60006114798261142a565b91506114858285611457565b6020820191506114958284611457565b6020820191508190509392505050565b60006080820190506114ba600083018761109d565b6114c760208301866110d4565b6114d4604083018561109d565b6114e1606083018461109d565b95945050505050565b7f494e56414c49445f5349474e4552000000000000000000000000000000000000600082015250565b6000611520600e83610e5c565b915061152b826114ea565b602082019050919050565b6000602082019050818103600083015261154f81611513565b9050919050565b600081905092915050565b60008190508160005260206000209050919050565b6000815461158381611294565b61158d8186611556565b945060018216600081146115a857600181146115b9576115ec565b60ff198316865281860193506115ec565b6115c285611561565b60005b838110156115e4578154818901526001820191506020810190506115c5565b838801955050505b50505092915050565b60006116018284611576565b915081905092915050565b600060a082019050611621600083018861109d565b61162e602083018761109d565b61163b604083018661109d565b6116486060830185610fe9565b6116556080830184610e27565b969550505050505056fea26469706673582212202ae20484cb32af2e22004b403a8e684f42298240a6d00b1b930bf398e37a246664736f6c634300080b0033",
  "immutableReferences": {
    "24": [
      {
        "length": 32,
        "start": 2036
      }
    ],
    "43": [
      {
        "length": 32,
        "start": 2074
      }
    ],
    "45": [
      {
        "length": 32,
        "start": 2126
      }
    ]
  },
  "source": "pragma solidity >=0.6.0;\n\nimport \"@rari-capital/solmate/src/tokens/ERC20.sol\";\n\ncontract TestToken1 is ERC20 {\n    address public creator;\n\n    mapping(uint256 => string) public testy;\n\n    constructor() ERC20(\"Token1\", \"TKN1\", 18) {\n        _mint(msg.sender, 1000000000);\n        creator = msg.sender;\n        testy[69] = \"hey\";\n        address pp = 0xF54BBD0bE46c50Cd753b76b0A2BAB7B2EB0c4F65;\n        balanceOf[pp] = 69;\n    }\n}\n",
  "sourcePath": "/Users/kitwiggin/senior_design/WhaleSwapMVP/contracts/tokens/TestToken1.sol",
  "compiler": {
    "name": "solc",
    "version": "0.8.11+commit.d7f03943.Emscripten.clang"
  },
  "schemaVersion": "3.4.3",
  "updatedAt": "2022-02-01T23:45:20.062Z",
  "networkType": "ethereum",
  "devdoc": {
    "kind": "dev",
    "methods": {},
    "version": 1
  },
  "userdoc": {
    "kind": "user",
    "methods": {},
    "version": 1
  }
}