{
  "contractName": "TestToken2",
  "abi": [
    {
      "inputs": [],
      "stateMutability": "nonpayable",
      "type": "constructor"
    },
    {
      "anonymous": false,
      "inputs": [
        {
          "indexed": true,
          "internalType": "address",
          "name": "owner",
          "type": "address"
        },
        {
          "indexed": true,
          "internalType": "address",
          "name": "spender",
          "type": "address"
        },
        {
          "indexed": false,
          "internalType": "uint256",
          "name": "amount",
          "type": "uint256"
        }
      ],
      "name": "Approval",
      "type": "event"
    },
    {
      "anonymous": false,
      "inputs": [
        {
          "indexed": true,
          "internalType": "address",
          "name": "from",
          "type": "address"
        },
        {
          "indexed": true,
          "internalType": "address",
          "name": "to",
          "type": "address"
        },
        {
          "indexed": false,
          "internalType": "uint256",
          "name": "amount",
          "type": "uint256"
        }
      ],
      "name": "Transfer",
      "type": "event"
    },
    {
      "inputs": [],
      "name": "DOMAIN_SEPARATOR",
      "outputs": [
        {
          "internalType": "bytes32",
          "name": "",
          "type": "bytes32"
        }
      ],
      "stateMutability": "view",
      "type": "function",
      "constant": true
    },
    {
      "inputs": [],
      "name": "PERMIT_TYPEHASH",
      "outputs": [
        {
          "internalType": "bytes32",
          "name": "",
          "type": "bytes32"
        }
      ],
      "stateMutability": "view",
      "type": "function",
      "constant": true
    },
    {
      "inputs": [
        {
          "internalType": "address",
          "name": "",
          "type": "address"
        },
        {
          "internalType": "address",
          "name": "",
          "type": "address"
        }
      ],
      "name": "allowance",
      "outputs": [
        {
          "internalType": "uint256",
          "name": "",
          "type": "uint256"
        }
      ],
      "stateMutability": "view",
      "type": "function",
      "constant": true
    },
    {
      "inputs": [
        {
          "internalType": "address",
          "name": "spender",
          "type": "address"
        },
        {
          "internalType": "uint256",
          "name": "amount",
          "type": "uint256"
        }
      ],
      "name": "approve",
      "outputs": [
        {
          "internalType": "bool",
          "name": "",
          "type": "bool"
        }
      ],
      "stateMutability": "nonpayable",
      "type": "function"
    },
    {
      "inputs": [
        {
          "internalType": "address",
          "name": "",
          "type": "address"
        }
      ],
      "name": "balanceOf",
      "outputs": [
        {
          "internalType": "uint256",
          "name": "",
          "type": "uint256"
        }
      ],
      "stateMutability": "view",
      "type": "function",
      "constant": true
    },
    {
      "inputs": [],
      "name": "creator",
      "outputs": [
        {
          "internalType": "address",
          "name": "",
          "type": "address"
        }
      ],
      "stateMutability": "view",
      "type": "function",
      "constant": true
    },
    {
      "inputs": [],
      "name": "decimals",
      "outputs": [
        {
          "internalType": "uint8",
          "name": "",
          "type": "uint8"
        }
      ],
      "stateMutability": "view",
      "type": "function",
      "constant": true
    },
    {
      "inputs": [],
      "name": "name",
      "outputs": [
        {
          "internalType": "string",
          "name": "",
          "type": "string"
        }
      ],
      "stateMutability": "view",
      "type": "function",
      "constant": true
    },
    {
      "inputs": [
        {
          "internalType": "address",
          "name": "",
          "type": "address"
        }
      ],
      "name": "nonces",
      "outputs": [
        {
          "internalType": "uint256",
          "name": "",
          "type": "uint256"
        }
      ],
      "stateMutability": "view",
      "type": "function",
      "constant": true
    },
    {
      "inputs": [
        {
          "internalType": "address",
          "name": "owner",
          "type": "address"
        },
        {
          "internalType": "address",
          "name": "spender",
          "type": "address"
        },
        {
          "internalType": "uint256",
          "name": "value",
          "type": "uint256"
        },
        {
          "internalType": "uint256",
          "name": "deadline",
          "type": "uint256"
        },
        {
          "internalType": "uint8",
          "name": "v",
          "type": "uint8"
        },
        {
          "internalType": "bytes32",
          "name": "r",
          "type": "bytes32"
        },
        {
          "internalType": "bytes32",
          "name": "s",
          "type": "bytes32"
        }
      ],
      "name": "permit",
      "outputs": [],
      "stateMutability": "nonpayable",
      "type": "function"
    },
    {
      "inputs": [],
      "name": "symbol",
      "outputs": [
        {
          "internalType": "string",
          "name": "",
          "type": "string"
        }
      ],
      "stateMutability": "view",
      "type": "function",
      "constant": true
    },
    {
      "inputs": [],
      "name": "totalSupply",
      "outputs": [
        {
          "internalType": "uint256",
          "name": "",
          "type": "uint256"
        }
      ],
      "stateMutability": "view",
      "type": "function",
      "constant": true
    },
    {
      "inputs": [
        {
          "internalType": "address",
          "name": "to",
          "type": "address"
        },
        {
          "internalType": "uint256",
          "name": "amount",
          "type": "uint256"
        }
      ],
      "name": "transfer",
      "outputs": [
        {
          "internalType": "bool",
          "name": "",
          "type": "bool"
        }
      ],
      "stateMutability": "nonpayable",
      "type": "function"
    },
    {
      "inputs": [
        {
          "internalType": "address",
          "name": "from",
          "type": "address"
        },
        {
          "internalType": "address",
          "name": "to",
          "type": "address"
        },
        {
          "internalType": "uint256",
          "name": "amount",
          "type": "uint256"
        }
      ],
      "name": "transferFrom",
      "outputs": [
        {
          "internalType": "bool",
          "name": "",
          "type": "bool"
        }
      ],
      "stateMutability": "nonpayable",
      "type": "function"
    }
  ],
  "bytecode": "0x60e06040523480156200001157600080fd5b506040518060400160405280600681526020017f546f6b656e3200000000000000000000000000000000000000000000000000008152506040518060400160405280600481526020017f544b4e32000000000000000000000000000000000000000000000000000000008152506012826000908051906020019062000098929190620002a3565b508160019080519060200190620000b1929190620002a3565b508060ff1660808160ff16815250504660a08181525050620000d86200013f60201b60201c565b60c08181525050505050620000f833633b9aca00620001cf60201b60201c565b33600660006101000a81548173ffffffffffffffffffffffffffffffffffffffff021916908373ffffffffffffffffffffffffffffffffffffffff160217905550620005fd565b60007f8b73c3c69bb8fe3d512ecc4cf759cc79239f7b179b0ffacaa9a75d522b39400f600060405162000173919062000463565b60405180910390207fc89efdaa54c0f20c7adf612882df0950f5a951637e0307cdcb4c672f298b8bc64630604051602001620001b4959493929190620004f7565b60405160208183030381529060405280519060200120905090565b8060026000828254620001e3919062000583565b9250508190555080600360008473ffffffffffffffffffffffffffffffffffffffff1673ffffffffffffffffffffffffffffffffffffffff168152602001908152602001600020600082825401925050819055508173ffffffffffffffffffffffffffffffffffffffff16600073ffffffffffffffffffffffffffffffffffffffff167fddf252ad1be2c89b69c2b068fc378daa952ba7f163c4a11628f55a4df523b3ef83604051620002979190620005e0565b60405180910390a35050565b828054620002b19062000382565b90600052602060002090601f016020900481019282620002d5576000855562000321565b82601f10620002f057805160ff191683800117855562000321565b8280016001018555821562000321579182015b828111156200032057825182559160200191906001019062000303565b5b50905062000330919062000334565b5090565b5b808211156200034f57600081600090555060010162000335565b5090565b7f4e487b7100000000000000000000000000000000000000000000000000000000600052602260045260246000fd5b600060028204905060018216806200039b57607f821691505b60208210811415620003b257620003b162000353565b5b50919050565b600081905092915050565b60008190508160005260206000209050919050565b60008154620003e78162000382565b620003f38186620003b8565b9450600182166000811462000411576001811462000423576200045a565b60ff198316865281860193506200045a565b6200042e85620003c3565b60005b83811015620004525781548189015260018201915060208101905062000431565b838801955050505b50505092915050565b6000620004718284620003d8565b915081905092915050565b6000819050919050565b62000491816200047c565b82525050565b6000819050919050565b620004ac8162000497565b82525050565b600073ffffffffffffffffffffffffffffffffffffffff82169050919050565b6000620004df82620004b2565b9050919050565b620004f181620004d2565b82525050565b600060a0820190506200050e600083018862000486565b6200051d602083018762000486565b6200052c604083018662000486565b6200053b6060830185620004a1565b6200054a6080830184620004e6565b9695505050505050565b7f4e487b7100000000000000000000000000000000000000000000000000000000600052601160045260246000fd5b6000620005908262000497565b91506200059d8362000497565b9250827fffffffffffffffffffffffffffffffffffffffffffffffffffffffffffffffff03821115620005d557620005d462000554565b5b828201905092915050565b6000602082019050620005f76000830184620004a1565b92915050565b60805160a05160c05161158d6200062d60003960006107730152600061073f01526000610719015261158d6000f3fe608060405234801561001057600080fd5b50600436106100ea5760003560e01c80633644e5151161008c57806395d89b411161006657806395d89b4114610263578063a9059cbb14610281578063d505accf146102b1578063dd62ed3e146102cd576100ea565b80633644e515146101e557806370a08231146102035780637ecebe0014610233576100ea565b806318160ddd116100c857806318160ddd1461015b57806323b872dd1461017957806330adf81f146101a9578063313ce567146101c7576100ea565b806302d05d3f146100ef57806306fdde031461010d578063095ea7b31461012b575b600080fd5b6100f76102fd565b6040516101049190610d5b565b60405180910390f35b610115610323565b6040516101229190610e0f565b60405180910390f35b61014560048036038101906101409190610e98565b6103b1565b6040516101529190610ef3565b60405180910390f35b6101636104a3565b6040516101709190610f1d565b60405180910390f35b610193600480360381019061018e9190610f38565b6104a9565b6040516101a09190610ef3565b60405180910390f35b6101b16106f3565b6040516101be9190610fa4565b60405180910390f35b6101cf610717565b6040516101dc9190610fdb565b60405180910390f35b6101ed61073b565b6040516101fa9190610fa4565b60405180910390f35b61021d60048036038101906102189190610ff6565b610798565b60405161022a9190610f1d565b60405180910390f35b61024d60048036038101906102489190610ff6565b6107b0565b60405161025a9190610f1d565b60405180910390f35b61026b6107c8565b6040516102789190610e0f565b60405180910390f35b61029b60048036038101906102969190610e98565b610856565b6040516102a89190610ef3565b60405180910390f35b6102cb60048036038101906102c6919061107b565b61096a565b005b6102e760048036038101906102e2919061111d565b610c69565b6040516102f49190610f1d565b60405180910390f35b600660009054906101000a900473ffffffffffffffffffffffffffffffffffffffff1681565b600080546103309061118c565b80601f016020809104026020016040519081016040528092919081815260200182805461035c9061118c565b80156103a95780601f1061037e576101008083540402835291602001916103a9565b820191906000526020600020905b81548152906001019060200180831161038c57829003601f168201915b505050505081565b600081600460003373ffffffffffffffffffffffffffffffffffffffff1673ffffffffffffffffffffffffffffffffffffffff16815260200190815260200160002060008573ffffffffffffffffffffffffffffffffffffffff1673ffffffffffffffffffffffffffffffffffffffff168152602001908152602001600020819055508273ffffffffffffffffffffffffffffffffffffffff163373ffffffffffffffffffffffffffffffffffffffff167f8c5be1e5ebec7d5bd14f71427d1e84f3dd0314c0f7b2291e5b200ac8c7c3b925846040516104919190610f1d565b60405180910390a36001905092915050565b60025481565b600080600460008673ffffffffffffffffffffffffffffffffffffffff1673ffffffffffffffffffffffffffffffffffffffff16815260200190815260200160002060003373ffffffffffffffffffffffffffffffffffffffff1673ffffffffffffffffffffffffffffffffffffffff1681526020019081526020016000205490507fffffffffffffffffffffffffffffffffffffffffffffffffffffffffffffffff81146105df57828161055e91906111ed565b600460008773ffffffffffffffffffffffffffffffffffffffff1673ffffffffffffffffffffffffffffffffffffffff16815260200190815260200160002060003373ffffffffffffffffffffffffffffffffffffffff1673ffffffffffffffffffffffffffffffffffffffff168152602001908152602001600020819055505b82600360008773ffffffffffffffffffffffffffffffffffffffff1673ffffffffffffffffffffffffffffffffffffffff168152602001908152602001600020600082825461062e91906111ed565b9250508190555082600360008673ffffffffffffffffffffffffffffffffffffffff1673ffffffffffffffffffffffffffffffffffffffff168152602001908152602001600020600082825401925050819055508373ffffffffffffffffffffffffffffffffffffffff168573ffffffffffffffffffffffffffffffffffffffff167fddf252ad1be2c89b69c2b068fc378daa952ba7f163c4a11628f55a4df523b3ef856040516106df9190610f1d565b60405180910390a360019150509392505050565b7f6e71edae12b1b97f4d1f60370fef10105fa2faae0126114a169c64845d6126c981565b7f000000000000000000000000000000000000000000000000000000000000000081565b60007f000000000000000000000000000000000000000000000000000000000000000046146107715761076c610c8e565b610793565b7f00000000000000000000000000000000000000000000000000000000000000005b905090565b60036020528060005260406000206000915090505481565b60056020528060005260406000206000915090505481565b600180546107d59061118c565b80601f01602080910402602001604051908101604052809291908181526020018280546108019061118c565b801561084e5780601f106108235761010080835404028352916020019161084e565b820191906000526020600020905b81548152906001019060200180831161083157829003601f168201915b505050505081565b600081600360003373ffffffffffffffffffffffffffffffffffffffff1673ffffffffffffffffffffffffffffffffffffffff16815260200190815260200160002060008282546108a791906111ed565b9250508190555081600360008573ffffffffffffffffffffffffffffffffffffffff1673ffffffffffffffffffffffffffffffffffffffff168152602001908152602001600020600082825401925050819055508273ffffffffffffffffffffffffffffffffffffffff163373ffffffffffffffffffffffffffffffffffffffff167fddf252ad1be2c89b69c2b068fc378daa952ba7f163c4a11628f55a4df523b3ef846040516109589190610f1d565b60405180910390a36001905092915050565b428410156109ad576040517f08c379a00000000000000000000000000000000000000000000000000000000081526004016109a49061126d565b60405180910390fd5b60006109b761073b565b7f6e71edae12b1b97f4d1f60370fef10105fa2faae0126114a169c64845d6126c9898989600560008e73ffffffffffffffffffffffffffffffffffffffff1673ffffffffffffffffffffffffffffffffffffffff1681526020019081526020016000206000815480929190600101919050558a604051602001610a3f9695949392919061128d565b60405160208183030381529060405280519060200120604051602001610a66929190611366565b604051602081830303815290604052805190602001209050600060018286868660405160008152602001604052604051610aa3949392919061139d565b6020604051602081039080840390855afa158015610ac5573d6000803e3d6000fd5b505050602060405103519050600073ffffffffffffffffffffffffffffffffffffffff168173ffffffffffffffffffffffffffffffffffffffff1614158015610b3957508873ffffffffffffffffffffffffffffffffffffffff168173ffffffffffffffffffffffffffffffffffffffff16145b610b78576040517f08c379a0000000000000000000000000000000000000000000000000000000008152600401610b6f9061142e565b60405180910390fd5b86600460008373ffffffffffffffffffffffffffffffffffffffff1673ffffffffffffffffffffffffffffffffffffffff16815260200190815260200160002060008a73ffffffffffffffffffffffffffffffffffffffff1673ffffffffffffffffffffffffffffffffffffffff1681526020019081526020016000208190555050508573ffffffffffffffffffffffffffffffffffffffff168773ffffffffffffffffffffffffffffffffffffffff167f8c5be1e5ebec7d5bd14f71427d1e84f3dd0314c0f7b2291e5b200ac8c7c3b92587604051610c589190610f1d565b60405180910390a350505050505050565b6004602052816000526040600020602052806000526040600020600091509150505481565b60007f8b73c3c69bb8fe3d512ecc4cf759cc79239f7b179b0ffacaa9a75d522b39400f6000604051610cc091906114ed565b60405180910390207fc89efdaa54c0f20c7adf612882df0950f5a951637e0307cdcb4c672f298b8bc64630604051602001610cff959493929190611504565b60405160208183030381529060405280519060200120905090565b600073ffffffffffffffffffffffffffffffffffffffff82169050919050565b6000610d4582610d1a565b9050919050565b610d5581610d3a565b82525050565b6000602082019050610d706000830184610d4c565b92915050565b600081519050919050565b600082825260208201905092915050565b60005b83811015610db0578082015181840152602081019050610d95565b83811115610dbf576000848401525b50505050565b6000601f19601f8301169050919050565b6000610de182610d76565b610deb8185610d81565b9350610dfb818560208601610d92565b610e0481610dc5565b840191505092915050565b60006020820190508181036000830152610e298184610dd6565b905092915050565b600080fd5b610e3f81610d3a565b8114610e4a57600080fd5b50565b600081359050610e5c81610e36565b92915050565b6000819050919050565b610e7581610e62565b8114610e8057600080fd5b50565b600081359050610e9281610e6c565b92915050565b60008060408385031215610eaf57610eae610e31565b5b6000610ebd85828601610e4d565b9250506020610ece85828601610e83565b9150509250929050565b60008115159050919050565b610eed81610ed8565b82525050565b6000602082019050610f086000830184610ee4565b92915050565b610f1781610e62565b82525050565b6000602082019050610f326000830184610f0e565b92915050565b600080600060608486031215610f5157610f50610e31565b5b6000610f5f86828701610e4d565b9350506020610f7086828701610e4d565b9250506040610f8186828701610e83565b9150509250925092565b6000819050919050565b610f9e81610f8b565b82525050565b6000602082019050610fb96000830184610f95565b92915050565b600060ff82169050919050565b610fd581610fbf565b82525050565b6000602082019050610ff06000830184610fcc565b92915050565b60006020828403121561100c5761100b610e31565b5b600061101a84828501610e4d565b91505092915050565b61102c81610fbf565b811461103757600080fd5b50565b60008135905061104981611023565b92915050565b61105881610f8b565b811461106357600080fd5b50565b6000813590506110758161104f565b92915050565b600080600080600080600060e0888a03121561109a57611099610e31565b5b60006110a88a828b01610e4d565b97505060206110b98a828b01610e4d565b96505060406110ca8a828b01610e83565b95505060606110db8a828b01610e83565b94505060806110ec8a828b0161103a565b93505060a06110fd8a828b01611066565b92505060c061110e8a828b01611066565b91505092959891949750929550565b6000806040838503121561113457611133610e31565b5b600061114285828601610e4d565b925050602061115385828601610e4d565b9150509250929050565b7f4e487b7100000000000000000000000000000000000000000000000000000000600052602260045260246000fd5b600060028204905060018216806111a457607f821691505b602082108114156111b8576111b761115d565b5b50919050565b7f4e487b7100000000000000000000000000000000000000000000000000000000600052601160045260246000fd5b60006111f882610e62565b915061120383610e62565b925082821015611216576112156111be565b5b828203905092915050565b7f5045524d49545f444541444c494e455f45585049524544000000000000000000600082015250565b6000611257601783610d81565b915061126282611221565b602082019050919050565b600060208201905081810360008301526112868161124a565b9050919050565b600060c0820190506112a26000830189610f95565b6112af6020830188610d4c565b6112bc6040830187610d4c565b6112c96060830186610f0e565b6112d66080830185610f0e565b6112e360a0830184610f0e565b979650505050505050565b600081905092915050565b7f1901000000000000000000000000000000000000000000000000000000000000600082015250565b600061132f6002836112ee565b915061133a826112f9565b600282019050919050565b6000819050919050565b61136061135b82610f8b565b611345565b82525050565b600061137182611322565b915061137d828561134f565b60208201915061138d828461134f565b6020820191508190509392505050565b60006080820190506113b26000830187610f95565b6113bf6020830186610fcc565b6113cc6040830185610f95565b6113d96060830184610f95565b95945050505050565b7f494e56414c49445f5349474e4552000000000000000000000000000000000000600082015250565b6000611418600e83610d81565b9150611423826113e2565b602082019050919050565b600060208201905081810360008301526114478161140b565b9050919050565b600081905092915050565b60008190508160005260206000209050919050565b6000815461147b8161118c565b611485818661144e565b945060018216600081146114a057600181146114b1576114e4565b60ff198316865281860193506114e4565b6114ba85611459565b60005b838110156114dc578154818901526001820191506020810190506114bd565b838801955050505b50505092915050565b60006114f9828461146e565b915081905092915050565b600060a0820190506115196000830188610f95565b6115266020830187610f95565b6115336040830186610f95565b6115406060830185610f0e565b61154d6080830184610d4c565b969550505050505056fea26469706673582212205f81d0e3e70f36b16d19717ac28a9d0cc382c357a109b86372ef14510826189864736f6c634300080b0033",
  "immutableReferences": {
    "24": [
      {
        "length": 32,
        "start": 1817
      }
    ],
    "43": [
      {
        "length": 32,
        "start": 1855
      }
    ],
    "45": [
      {
        "length": 32,
        "start": 1907
      }
    ]
  },
  "source": "pragma solidity >=0.6.0;\n\nimport \"@rari-capital/solmate/src/tokens/ERC20.sol\";\n\ncontract TestToken2 is ERC20 {\n    address public creator;\n\n    constructor() ERC20(\"Token2\", \"TKN2\", 18) {\n        _mint(msg.sender, 1000000000);\n        creator = msg.sender;\n    }\n}\n",
  "sourcePath": "/Users/kitwiggin/senior_design/WhaleSwapMVP/contracts/tokens/TestToken2.sol",
  "compiler": {
    "name": "solc",
    "version": "0.8.11+commit.d7f03943.Emscripten.clang"
  },
  "schemaVersion": "3.4.3",
  "updatedAt": "2022-02-01T23:45:20.069Z",
  "networkType": "ethereum",
  "devdoc": {
    "kind": "dev",
    "methods": {},
    "version": 1
  },
  "userdoc": {
    "kind": "user",
    "methods": {},
    "version": 1
  }
}